:020000040800F2
:10000000E006002015380008610E0008630E0008A5
:10001000670E00086B0E00086F0E0008000000005D
:10002000000000000000000000000000730E000847
:10003000750E000800000000770E0008790E000819
:100040002F3800082F3800082F3800082F380008F4
:100050002F3800082F3800082F3800082F380008E4
:100060002F3800082F3800082F3800082F380008D4
:100070002F3800082F3800082F3800082F380008C4
:100080002F3800082F3800082F3800082F380008B4
:100090002F3800082F3800082F3800082F380008A4
:1000A0002F3800082F3800082F3800082F38000894
:1000B0002F3800082F3800082F3800082F38000884
:1000C0002F3800082F3800082F3800082F38000874
:1000D0002F3800082F3800082F3800082F38000864
:1000E0002F3800082F3800082F3800082F38000854
:1000F0002F3800082F3800082F3800082F38000844
:100100002F3800082F3800082F3800082F38000833
:100110002F3800082F3800082F3800082F38000823
:100120002F3800082F3800082F3800082F38000813
:100130002F3800082F3800082F3800082F38000803
:100140002F3800082F3800082F3800082F380008F3
:100150002F3800082F3800082F3800082F380008E3
:100160002F3800082F3800082F3800082F380008D3
:100170002F3800082F3800082F3800082F380008C3
:100180002F3800082F38000800F002F800F03CF883
:100190000AA090E8000C82448344AAF10107DA45E2
:1001A00001D100F031F8AFF2090EBAE80F0013F0F8
:1001B000010F18BFFB1A43F0010318472870000015
:1001C00048700000103A24BF78C878C1FAD85207A6
:1001D00024BF30C830C144BF04680C6070470000C1
:1001E0000023002400250026103A28BF78C1FBD840
:1001F000520728BF30C148BF0B6070471FB504F0DD
:10020000F2FD1FBD10B510BD04F082FA1146FFF7D4
:10021000F5FF00F008F804F0A0FA03B4FFF7F2FFCE
:1002200003BC04F0A3FAA82003F072FA02F025F947
:1002300011E000F066FF00F0A2FF01F00EF801F0FF
:10024000D0F801F0FDF901F0A4F901F0E7FA01F0AE
:1002500022FB01F03FFCECE770B505460E46144664
:100260003146284602F05CF8204602F01EF870BDC8
:100270002DE9F05F04460D4616461F46301B401C14
:100280001FFA80FA781B401C1FFA80FB3B4632465F
:100290002946204602F01AF84FF000080FE04FF010
:1002A000000906E00A9802F000F809F101001FFABF
:1002B00080F9D145F6DB08F101001FFA80F8D84536
:1002C000EDDBFE484088401E83B2FC480088401E9B
:1002D00082B20021084601F0F9FFBDE8F09F2DE948
:1002E000FF4F85B081468A4600200490039007980E
:1002F000A0EB09050898A0EB0A06CDF80890CDF808
:1003000004A0002D01DD012705E00DB9002702E062
:100310004FF0FF376D42002E02DD4FF0010806E07E
:1003200016B94FF0000802E04FF0FF387642B542B0
:1003300001DD2C4600E034464FF0000B21E0019A2D
:1003400091B2029A90B201F0F5FF0498284404900B
:100350000398304403900498A04205DD0498001BE4
:1003600004900298384402900398A04205DD039857
:10037000001B03900198404401900BF101001FFA0B
:1003800080FB601C8345DADD09B0BDE8F08F2DE904
:10039000F04104460D4616461F462B463246294676
:1003A0002046FFF79CFF3B46224629462046FFF7A2
:1003B00096FF3B46324639462046FFF790FF3B46C4
:1003C000324629463046FFF78AFFBDE8F081F8B58E
:1003D00004460D4616461F46B94800883B4632463D
:1003E000294600902046FFF743FFF8BD2DE9F04174
:1003F00004460D4616461F46DDF81880EA1991B2EC
:10040000A21990B24246FFF727FFEA1991B2A21B48
:1004100090B24246FFF720FFEA1B91B2A21990B2B8
:100420004246FFF719FFEA1B91B2A21B90B2424667
:10043000FFF712FFAA1991B2E21990B24246FFF7F4
:100440000BFFAA1991B2E21B90B24246FFF704FFDC
:10045000AA1B91B2E21990B24246FFF7FDFEAA1B19
:1004600091B2E21B90B24246FFF7F6FEBDE8F08182
:100470002DE9FF4F81B0824617469846DDF838B027
:10048000002445464FEA4800C0F10306BBF1000FC7
:100490001FD01BE0A14608E04B462246009750467D
:1004A0000299FFF7A3FF09F10109A945F4DD002E28
:1004B00004DA042000FB0460861D06E0601B0421B2
:1004C00001FB006000F10A066D1E641CAC42E1DD18
:1004D00018E015E02B462246009750460299FFF798
:1004E00085FF002E04DA042000FB0460861D06E070
:1004F000601B042101FB006000F10A066D1E641CF4
:10050000AC42E7DD05B0BDE8F08F2DE9F0470446C9
:100510000D4616461F46DDE908893B463246294608
:100520002046FFF7DCFE4B46424639463046FFF791
:10053000D6FE2B46224649464046FFF7D0FEBDE890
:10054000F08702880B8803800A8070472DE9FF4FEF
:1005500085B000260027BDF81800BDF8201088429D
:1005600007DD08A906A8FFF7ECFF07A905A8FFF714
:10057000E8FFBDF82000BDF84C10884207DD08A94F
:1005800013A8FFF7DEFF07A912A8FFF7DAFFBDF8EF
:100590001800BDF82010884207DD08A906A8FFF75B
:1005A000D0FF07A905A8FFF7CCFFBDF81800BDF8DC
:1005B0004C10884238D1BDF8140003900490BDF867
:1005C0001C00BDF81010884203DABDF81C0004902E
:1005D00008E0BDF81C00BDF80C10884202DDBDF833
:1005E0001C000390BDF84800BDF81010884203DAE3
:1005F000BDF84800049008E0BDF84800BDF80C10B4
:10060000884202DDBDF8480003902D480088009024
:10061000BDF81830BDF80C201946BDF81000FFF7E2
:1006200027FE09B0BDE8F08FBDF81C00BDF814101E
:10063000A0EB010BBDF82000BDF81810401A029085
:10064000BDF84800BDF81410451ABDF84C00BDF8BF
:100650001810A0EB0109BDF84800BDF81C10A0EB74
:10066000010ABDF84C00BDF82010401A0190BDF8F9
:100670002000BDF84C10884202D1BDF8208004E073
:10068000BDF82000401E1FFA80F8BDF818402CE08D
:10069000029896FBF0F0BDF81410084480B2049064
:1006A00097FBF9F0BDF81410084480B203905E4443
:1006B0002F44BDF81000BDF80C1003E06C000020C2
:1006C00020000020884203DD03A904A8FFF739FFBA
:1006D000FE48008823460090BDF80C202146BDF856
:1006E0001000FFF7C5FD601C84B24445D0DDBDF8A5
:1006F0002000201A00FB0AF6BDF81800201A00FBA3
:1007000005F727E0019896FBF0F0BDF81C100844AF
:1007100080B2049097FBF9F0BDF81410084480B241
:10072000039056442F44BDF81000BDF80C108842C9
:1007300003DD03A904A8FFF704FFE448008823466B
:100740000090BDF80C202146BDF81000FFF790FD89
:10075000601C84B2BDF84C008442D3DD00BF60E76A
:100760002DE9FF4F83B081468A469346DDE9106448
:10077000D64800880290A6F12000C6B204EBD470DF
:1007800009EB6000401E82B20AEB0400401E83B2F7
:1007900051464846019401F099FD129850BB00253E
:1007A00025E00C2C07D106EB4600C94901EB80007F
:1007B00010F8058004E0C74800EB061010F805802B
:1007C00000270DE008F0010018B1584601F06DFD5A
:1007D00002E0069801F069FD4FEA6808781CC7B28C
:1007E00004EBD471B7EB610FECDB681CC5B2A5421A
:1007F000D7DB2DE0002529E00C2C07D106EB4600C5
:10080000B34901EB800010F8058004E0B14800EB2B
:10081000061010F80580002711E0AC48A0F800B0E1
:1008200008F0010038B10AEB050291B209EB0702AA
:1008300090B201F07FFD4FEA6808781CC7B204EB64
:10084000D471B7EB610FE8DB681CC5B2A542D3DBFE
:100850009E4902980880A0484088401E83B29E4866
:100860000088401E82B20021084601F02FFD07B02B
:10087000BDE8F08F2DE9FE4306460F4615461C469F
:10088000DDF828801DE094480088401EB04204DB5B
:1008900091484088401EB84201DABDE8FE832078C6
:1008A0008DE821018D480388884802883946304602
:1008B000FFF756FF284605EBD07106EB61018EB2BB
:1008C000641C20787E2802DC20782028DBDA00BF38
:1008D000E3E710B50246012000E050430B1EA1F1F2
:1008E0000104E1B2F9D110BD2DE9FF4F83B00746F5
:1008F00091461E46109C4FF0000A002543E0701BF5
:10090000401EC1B20A20FFF7E4FFB9FBF0F00A2154
:10091000B0FBF1F201FB1208BAF1000F1BD1701EFF
:10092000A84218DDB8F1000F13D100202021A34602
:10093000CDE90014029004EBDB71491001FB057155
:1009400088B266490B8861490A880499FFF708FF55
:1009500017E04FF0010A002108F13000C0B2A346B1
:10096000CDE90141009004EBDB71491001FB0571F9
:1009700088B25A490B8855490A880499FFF7F0FE56
:1009800000BF681CC5B2B542B9DB07B0BDE8F08F47
:100990002DE9FC5F0546884691469A46DDF830B061
:1009A00000953E20019000245FE004EB04104C49C8
:1009B00011F810009BF80010884253D104EB04108A
:1009C000474901EB400040789BF80110884249D12B
:1009D00008F10F0083B205F10F0082B241462846AC
:1009E00001F074FC00263BE0002734E00D9890B93C
:1009F00004EB04103A4901EB4000801C805D80212B
:100A00003941084018B1484601F04FFC21E05046FA
:100A100001F04BFC1DE02D48A0F8009004EB041001
:100A20002F4901EB4000801C805D80213941084046
:100A300018B14146284601F07DFC681C85B200983B
:100A4000281A102805D1009D08F101001FFA80F82E
:100A500003E0781CC7B2082FC8DB00BF701CC6B209
:100A6000202EC1DB00BF601C84B2019884429CDB55
:100A700019484088401E83B217480088401E82B241
:100A80000021084601F022FCBDE8FC9F2DE9FC5F37
:100A90000546884691469A46DDF830B00095072015
:100AA0000190002476E004EB840000EB44100D4933
:100AB00011F810009BF80010884268D104EB840004
:100AC00000EB4410074901EB40000DE0200000203E
:100AD000F04D0008645200086C0000202200002045
:100AE000545800089060000840789BF80110884234
:100AF0004DD108F1170083B205F1170082B24146CB
:100B0000284601F0E3FB00263FE0002738E00D987F
:100B1000A0B904EB840000EB4410CD4901EB400088
:100B2000801C805D80213941084018B1484601F0A1
:100B3000BCFB23E0504601F0B8FB1FE0C548A0F81D
:100B4000009004EB840000EB4410C14901EB40002D
:100B5000801C805D80213941084018B141462846FB
:100B600001F0E8FB681C85B20098281A182805D106
:100B7000009D08F101001FFA80F803E0781CC7B25D
:100B8000082FC4DB00BF701CC6B2482EBDDB00BFFF
:100B9000601C84B20198844285DBAF484088401EC7
:100BA00083B2AD480088401E82B20021084601F0A1
:100BB0008DFBBDE8FC9F2DE9FC5F0546884691460C
:100BC0009A46DDF830B000950420019000245FE0E3
:100BD00004EB8410A14911F810009BF80010884222
:100BE00053D104EB84109D4901EB400040789BF801
:100BF0000110884249D108F11F0083B205F11F009E
:100C000082B24146284601F061FB00263BE0002706
:100C100034E00D9890B904EB8410904901EB40004A
:100C2000801C805D80213941084018B1484601F0A0
:100C30003CFB21E0504601F038FB1DE08548A0F860
:100C4000009004EB8410854901EB4000801C805D1E
:100C500080213941084018B14146284601F06AFB1D
:100C6000681C85B20098281A202805D1009D08F13B
:100C700001001FFA80F803E0781CC7B2082FC8DB18
:100C800000BF701CC6B2802EC1DB00BF601C84B2E6
:100C9000019884429CDB70484088401E83B26E48B5
:100CA0000088401E82B20021084601F00FFBBDE81B
:100CB000FC9F2DE9FF4F83B0064688469146DDE94B
:100CC0001147109DB2464FF0000B71E0BBF1000FD1
:100CD00040D104EBD471604A1288A2EB6101B142A9
:100CE00004DB5D494988091B414502DA07B0BDE8CC
:100CF000F08F2878802802DD4FF0010B58E028782B
:100D00000D2806D108EB04001FFA80F856466D1C2A
:100D10001EE0102C0DDD102128788DE883004A4656
:100D200041463046069BFFF71BFD06F1080086B2E0
:100D30000EE028788DE891004A4641463046069BF1
:100D4000FFF70EFD204604EBD07106EB61018EB279
:100D50006D1C2DE040480088001BB04204DB3E487B
:100D60004088001B404500DAC0E74FF0000B202C04
:100D700008D1CDE900574A4641463046069BFFF769
:100D80001AFF12E0182C08D1CDE900574A46414617
:100D90003046069BFFF77AFE07E0CDE900574A464A
:100DA00041463046069BFFF7F3FDAD1C301986B275
:100DB000287800288AD100BF98E72DE9FE4F0E461B
:100DC00017469846DDE90D9A0C9C204603F06AFC14
:100DD00085B221490988A1EBC50000EBD071C1F3B0
:100DE0004F0B43463A46314658468DE81006FFF70A
:100DF00060FFBDE8FE8F2DE9F04706460F46154619
:100E000007F1270083B206F1270082B23946304647
:100E100001F05CFA00240AE015F8149005EB440098
:100E200090F8018049EA082001F03FFA641CB4F50B
:100E3000C86FF1DB08484088401E83B2064800882E
:100E4000401E82B20021084601F040FABDE8F0875A
:100E500090600008200000206C00002096620008CE
:100E6000704700BFFEE700BFFEE700BFFEE700BF20
:100E7000FEE7704770477047704700000CB50020D0
:100E8000019000907648006840F480307449086012
:100E900000BF7348006800F4003000900198401CC7
:100EA0000190009818B90198B0F5A04FF1D16C48A5
:100EB000006800F4003010B10120009001E0002033
:100EC00000900098012846D165484030006840F005
:100ED00080506349403108606248006840F44040F7
:100EE000604908605E48083000685D490831086064
:100EF0000846006840F4004008600846006840F476
:100F0000A05008605848091F0860081F006840F09A
:100F10008070091F086000BF5148006800F0007031
:100F20000028F9D040F20570504908604C4808305C
:100F3000006820F003004A4908310860084600684C
:100F400040F00200086000BF45480830006800F02B
:100F50000C000828F8D10CBD10B54548006840F4D5
:100F60007000434908603E48006840F001003C4979
:100F7000086000203A4908310860394800683D4956
:100F80000840374908603C48091D0860081F006890
:100F900020F48020091F0860002031490C310860CE
:100FA000FFF76CFF4FF0006031498039086010BDD9
:100FB00070B500200022022300240221284D0835AC
:100FC0002D6805F00C0020B1042806D0082834D183
:100FD00007E02A4D2A4E356033E02A4D284E356011
:100FE0002FE01F4D2D1D2D68C5F380541C4D2D1D68
:100FF0002D6805F03F0154B1224DB5FBF1F5184EB7
:10100000361D3668C6F3881605FB06F209E01B4D4F
:10101000B5FBF1F5124E361D3668C6F3881605FB92
:1010200006F20F4D2D1D2D68C5F301456D1C6B009B
:10103000B2FBF3F5124E356003E0104D104E3560F3
:1010400000BF00BF064D08352D68C5F303150E4ED1
:10105000705D0B4D2D68C540094E356070BD0000B8
:10106000003802400070004008544007003C024035
:1010700088ED00E0FFFFF6FE103000240024F400AD
:101080000000002000127A00040000203EB5044653
:101090004FF6FF7001F05AF91F200090FE480288B9
:1010A000142300210846FFF7E3F81F200090FA48B8
:1010B000438802884088143881B20020FFF7D8F8AE
:1010C0004FF6FF70F5490880012010211F234FF6CD
:1010D000FF72CDE90041029002210020FFF76DFE72
:1010E00001201021EEA2CDE900210290EA484088BB
:1010F000123881B21F234FF6FF720020FFF75DFE0A
:101100003EBD0EB5ECA0FFF7C1FF01201021F0A2FB
:101110001F23CDE900210290DA021E210020FFF7F3
:101120004CFE01201021E6A21F23CDE900210290F0
:10113000DA023C210020FFF740FE01201021E7A247
:101140001F23CDE9002102904FF4FC625A210020B8
:10115000FFF733FE01201021E6A21F23CDE9002175
:1011600002901A4678210020FFF727FE40F2DC505B
:1011700002F030FB40F2DC5002F02CFB0EBD0EB54D
:101180004FF6FF700090C44843880288002108464B
:10119000FFF76EF801201021DDA24FF6E073CDE9D4
:1011A000002102901F221E211420FFF782FD4FF420
:1011B000487002F00FFB4FF478400090B648438827
:1011C000028800210846FFF753F801201021D2A21F
:1011D0004FF6E073CDE9002102901F221E2114205A
:1011E000FFF767FD4FF4487002F0F4FA4FF4FC602B
:1011F0000090A9484388028800210846FFF738F884
:1012000001201021C6A24FF6E073CDE90021029023
:101210001F221E211420FFF74CFD4FF4487002F0EE
:10122000D9FA1F2000909C48438802880021084674
:10123000FFF71EF801201021BBA24FF6E073CDE9A5
:10124000002102904FF478421E211420FFF731FD57
:101250004FF4487002F0BEFA0EBD2DE9F8430024A9
:10126000B3A0FFF713FF4FF6FF7000908A48408845
:10127000143883B28848028814210020FEF7F8FF52
:1012800000BF48E0B04830F8140084490880DFF817
:1012900008C2BCF8025005EBD57C4FEA6C0CACF1EF
:1012A000500CC4EB0419CC440CF13C0C1FFA8CF329
:1012B000DFF8E4C1BCF8006006EBD67C4FEA6C0CAA
:1012C000ACF1500CC4EB0419CC440CF13C0C1FFAEB
:1012D0008CF2DFF8C4C1BCF8027007EBD77C4FEA90
:1012E0006C0CACF1500CC4EB0419CC441FFA8CF11B
:1012F000DFF8A4C1BCF8008008EBD87C4FEA6C0C86
:10130000ACF1500CC4EB0419CC441FFA8CF0FFF77D
:101310003EF8601CC4B2052CB4DB40F2DC5002F095
:1013200059FA4FF6FF7000905B484088143883B23A
:101330005948028814210020FEF79AFF002448E053
:10134000814830F8140055490880DFF84CC1BCF8DA
:10135000026006EBD67C4FEA6C0CACF1500CC4EB8F
:101360000419CC440CF13C0C1FFA8CF3DFF828C1B3
:10137000BCF8007007EBD77C4FEA6C0CACF1500C5A
:10138000C4EB0419CC440CF13C0C1FFA8CF2DFF8CE
:1013900008C1BCF8028008EBD87C4FEA6C0CACF1B9
:1013A000500CC4EB0419CC441FFA8CF1DFF8E8C0F0
:1013B000BCF8005005EBD57C4FEA6C0CACF1500C3E
:1013C000C4EB0419CC441FFA8CF0FFF700F8601C42
:1013D000C4B2052CB4DB40F2DC5002F0FBF9BDE8EE
:1013E000F883F8B5002459A0FFF750FE4FF6FF70C0
:1013F000009029484088143883B227480288142175
:101400000020FEF735FF00BF1FE00020224B0090B8
:101410005D8805EBD5735B10323B04EBC40707EB2B
:101420000417D9191C4B1E8806EBD6735B10503B72
:1014300004EBC40707EB0417D819434B33F8142007
:101440001E23FFF715F8601CC4B2052CDDDB40F24B
:10145000DC5002F0BFF94FF6FF7000900E48408854
:10146000143883B20C48028814210020FEF700FFD4
:10147000002486E00120084B00905D8805EBD573C1
:101480005B10323B04EBC40707EB0417D919024B7E
:101490001E8806EBD67365E06C000020200000205B
:1014A000687474703A2F2F7777772E6C636477693E
:1014B0006B692E636F6D0000C8ABB6AFB5E7D7D3CD
:1014C000D7DBBACFB2E2CAD4B3CCD0F2000000006E
:1014D000C8ABB6AFB5E7D7D300000000332E352236
:1014E00020494C4939343838203332305834383078
:1014F000000000007869616F46656E674051447472
:1015000065636820323031382D30382D3036000098
:10151000424C205465737400524544200000000082
:10152000475245454E200000424C554520000000E2
:10153000B2E2CAD4323A475549BED8D0CECCEEB387
:10154000E4B2E2CAD400000014000020B2E2CAD41F
:10155000333A475549BBADD4B2CCEEB3E4B2E2CA9C
:10156000D40000005B10503B04EBC40707EB0417EA
:10157000D819E84B33F814201E23FEF779FF601CBE
:10158000C4B2052CFFF676AF40F2DC5002F022F92F
:10159000F8BD0EB5E0A0FFF779FD00200C21E3A215
:1015A0004FF6E073CDE9002102901F221E210A2090
:1015B000FFF77FFB01200C21E7A24FF6E073CDE996
:1015C000002102901F222D210A20FFF772FB00202C
:1015D0000C21ECA24FF6E073CDE9002102901F220E
:1015E0003C210A20FFF765FB00201021EDA24FF6F9
:1015F000E073CDE9002102901F2250210A20FFF75D
:1016000058FB01201021F2A24FF6E073CDE9002132
:1016100002901F2264210A20FFF74BFB00201021BB
:10162000F6A24FF6E073CDE9002102901F22782147
:101630000A20FFF73EFB4FF4966002F0CBF80EBD98
:101640002DE9FC5F0024F5A0FFF720FD4FF6FF70A9
:101650000090F9484088143883B2F7480288142172
:101660000020FEF705FE00BF5DE0AA4830F8140038
:10167000F2490880F048458805EBD57040101438D1
:10168000C4EB0411084481B2EB48068806EBD6701F
:101690004010153804EB840200EB820080B2DFF8C2
:1016A00098C3CDE90001BCF8027007EBD77C4FEA84
:1016B0006C0CACF1490CC4EB041BDC441FFA8CF33A
:1016C000DFF874C3BCF8008008EBD87C4FEA6C0CE0
:1016D000ACF1330C04EB840B0CEB8B0C1FFA8CF28B
:1016E000DFF854C3BCF8029009EBD97C4FEA6C0CCC
:1016F000ACF1140CC4EB041BDC441FFA8CF1DFF8D2
:1017000038C3BCF800A00AEBDA7C4FEA6C0CACF1F1
:10171000500C04EB840B0CEB8B0C1FFA8CF0FEF7D7
:10172000F4FE601CC4B2052C9FDB40F2DC5002F0DA
:1017300051F84FF6FF700090BF484088143883B2CC
:10174000BD48028814210020FEF792FD00245DE0D0
:10175000704830F81400B9490880B748458805EB4F
:10176000D57040101438C4EB0411084481B2B2485B
:10177000068806EBD6704010153804EB840200EBA7
:10178000820080B2DFF8B0C2CDE90001BCF802707F
:1017900007EBD77C4FEA6C0CACF1490CC4EB041B93
:1017A000DC441FFA8CF3DFF890C2BCF8008008EB31
:1017B000D87C4FEA6C0CACF1330C04EB840B0CEBD3
:1017C0008B0C1FFA8CF2DFF870C2BCF8029009EBA8
:1017D000D97C4FEA6C0CACF1140CC4EB041BDC4458
:1017E0001FFA8CF1DFF850C2BCF800A00AEBDA7CDB
:1017F0004FEA6C0CACF1500C04EB840B0CEB8B0C33
:101800001FFA8CF0FEF7A2FE601CC4B2052C9FDB11
:1018100040F2DC5001F0DEFFBDE8FC9F0EB588A071
:10182000FFF734FC002010218AA24FF6E073CDE9C7
:10183000002102901F221E210A20FFF73AFA002001
:1018400010218DA24FF6E073CDE9002102901F22F6
:1018500032210A20FFF72DFA012018218CA24FF621
:10186000E073CDE9002102901F2246210A20FFF7F4
:1018700020FA012020218CA24FF6E073CDE900214F
:1018800002901F2264210A20FFF713FA4FF496609A
:1018900001F0A0FF0EBD0EB587A0FFF7F7FB8B4A46
:1018A0001E210846FFF7A7FA0120102188A24FF653
:1018B000E073CDE9002102901F224B212A20FFF77F
:1018C000F8F9824A1E215A20FFF795FA01201021CB
:1018D0007FA24FF6E073CDE9002102901F224B2139
:1018E0006620FFF7E6F9794A1E219620FFF783FA72
:1018F0000120102176A24FF6E073CDE9002102907D
:101900001F224B21A220FFF7D4F94FF4966001F07B
:1019100061FF0EBD14000020B2E2CAD4353AD3A252
:10192000CEC4CFD4CABEB2E2CAD4000036583132D7
:101930003A6162636465666768696A6B6C6D6E6F55
:10194000707172737475767778797A303132333496
:101950003536373839000000365831323A41424383
:101960004445464748494A4B4C4D4E4F50515253BF
:101970005455565758595A30313233343536373832
:1019800039000000365831323A7E21402324255E4A
:10199000262A28295F2B7B7D3A3C3E3F2F7C2D2B2E
:1019A0002E000000385831363A616263646566671C
:1019B00068696A6B6C6D6E6F70717273747576772F
:1019C00078797A303132333435363738390000009F
:1019D000385831363A4142434445464748494A4BD4
:1019E0004C4D4E4F505152535455565758595A30EA
:1019F0003132333435363738390000003858313613
:101A00003A7E21402324255E262A28295F2B7B7DD0
:101A10003A3C3E3F2F7C2D2B2E000000B2E2CAD470
:101A2000343A47554920547269616E676C65CCEE53
:101A3000B3E4B2E2CAD400006C0000202000002011
:101A4000B2E2CAD4363AD6D0CEC4CFD4CABEB2E2FD
:101A5000CAD4000031365831363AC8ABB6AFB5E714
:101A6000D7D3BCBCCAF5D3D0CFDEB9ABCBBEBBB6E7
:101A7000D3ADC4FA0000000031365831363A57650C
:101A80006C636F6D65C8ABB6AFB5E7D7D300000028
:101A900032345832343AC9EEDBDACAD0D6D0CEC4AA
:101AA000B2E2CAD40000000033325833323AD7D6FB
:101AB000CCE5B2E2CAD40000B2E2CAD4373ACDBC17
:101AC000C6ACCFD4CABEB2E2CAD40000A06400083B
:101AD0005151000010B588B000248F4B0FCBCDE9D9
:101AE0000623CDE9040100BF23E0204600F081FC7D
:101AF0008AA0FFF7CBFA0121102204A850F8240095
:101B00004FF6E073CDE9012100901F221E21142021
:101B1000FFF7CFF8864A32211E20FFF76CF94FF409
:101B20007A7001F057FE4FF47A7001F053FE601C9A
:101B3000C4B2042CD9DB002000F05BFC08B010BD5F
:101B400008B500250026002701F073FD00F0FAFA21
:101B500000F07EFD77A0FFF799FA01207D49009003
:101B60000988183988B27CA310220021FEF782FE72
:101B70004FF47840794908807649009009881E39E9
:101B80008AB274490988343988B212230221FEF7D7
:101B90006FFBBFE0012000F0F3FA04467048416893
:101BA000002088476E48007D00F08000002879D032
:101BB0006B48008A67490988884276DA6848408A13
:101BC00064494988884270DA6548018A614800881A
:101BD0001838814222DD6248408A10281EDA55A05A
:101BE000FFF754FA01205B4900900988183988B240
:101BF00059A310220021FEF73DFE584807800088B7
:101C00005449009009881E398AB2524909883439EA
:101C100088B212230221FEF72BFB46E05048018ACE
:101C20004C4800883C38814234DD4D48018A49489F
:101C300000881E3881422DDA4948408A142829DA62
:101C4000052096FBF0F100FB1160464931F8108049
:101C50004049CDF8008009881E398AB23D4909887B
:101C6000343988B212230221FEF702FB3046711C80
:101C70008EB2052190FBF1F201FB1200394931F8D7
:101C8000100036490880084607880A2001F0A2FDA6
:101C90000BE007E0324A518A108A304A128800F07D
:101CA000C0FE02E00A2001F095FD012C25D14FF67F
:101CB000FF7000F04BFB01F086F800F03EFF1DA026
:101CC000FFF7E4F90120234900900988183988B208
:101CD00021A310220021FEF7CDFD204807800088B7
:101CE0001C49009009881E398AB21A49098834397A
:101CF00088B212230221FEF7BBFA681C85B21E2DA2
:101D000008D100251848006808B9012000E000202B
:101D1000154908603EE7000020710008B2E2CAD40D
:101D2000383AC6C1C4BBD0FDD7AAB2E2CAD40000BB
:101D3000A0640008B2E2CAD4393A546F756368B23D
:101D4000E2CAD428B0B44B455930BCFCD0A3D7BCB0
:101D5000292020006C000020525354002000002055
:101D60002800002014000020A482424210B500F098
:101D7000BBF810BD70B50446002600F0D4F8254627
:101D8000E11704EB11610912A02202EB4101C8B274
:101D900000F075F900F008F9E11704EB1161091280
:101DA000A4EB0121C8B200F06AF900F0FDF800F0E0
:101DB000BAF8A12000F063F900F0F6F8002000F076
:101DC0008BF9064600F0D1F8304670BD70B5044678
:101DD0000E4600F0A8F82546E11704EB1161091240
:101DE000A02202EB4101C8B200F049F900F0DCF892
:101DF000E11704EB11610912A4EB0121C8B200F054
:101E00003EF900F0D1F8304600F039F900F0CCF896
:101E100000F0ABF80A2001F0DDFC70BD2DE9F041C7
:101E200005460E461746002409E0E20026FA02F2B3
:101E3000D1B22A1990B2FFF7C9FF601CC4B2BC42EC
:101E4000F3DBBDE8F0812DE9F04107460C460026A2
:101E5000002509E036023919491B491E88B2FFF7EF
:101E600089FF0644681CC5B2A542F3DB3046BDE8D5
:101E7000F08110B5FF20FFF77DFF0446552C01D1FE
:101E8000002010BD5521FF20FFF7A0FFFF20FFF726
:101E900071FF0446552C01D10020F2E70120F0E744
:101EA00070B506460C46154608E03046721C96B2E0
:101EB000FFF760FF04F8010B681E85B2002DF4D116
:101EC00070BD70B505460C46164606E021782846DA
:101ED000FFF77CFF681C85B2641C301EA6F101016F
:101EE0008EB2F3D170BD00001CB50121022002F0BA
:101EF00045F84FF44070009001208DF80400002058
:101F00008DF8060003208DF8050001208DF80700EC
:101F10006946894801F094FD012088490860884994
:101F2000C1F8A4021CBD10B58348006820F440200D
:101F3000814908600846006840F48020086001205C
:101F40007E49091D08607E49C1F8A002042001F005
:101F5000F9FB00207949091D0860042001F0F2FB1B
:101F600000207749C1F8A00210BD10B57248006882
:101F700020F44020704908600846006840F4802042
:101F8000086000206D4908606D49C1F8A402042072
:101F900001F0D8FB0120694908606949C1F8A40231
:101FA000042001F0CFFB10BD10B50024624800688A
:101FB00020F440206049086008460068086001205D
:101FC0005E49091D086001F0BDFB01205C49C1F8B4
:101FD000A00201F0B7FB07E0601CC4B2FA2C03DDDD
:101FE000FFF7C3FF012010BD54487C38006800286B
:101FF000F2D15249086000BFF5E710B500204F4903
:1020000008604D48006820F440204B4908600846AD
:10201000006840F48020086000204949C1F8A4020B
:10202000022001F08FFB012044490860022001F0EA
:1020300089FB00204249C1F8A00210BD10B5002064
:102040003E4908603C48006820F440203A49086056
:102050000846006840F48020086001203849C1F833
:10206000A402022001F06EFB012034490860022026
:1020700001F068FB00203249C1F8A00210BD70B524
:1020800004462D48006820F440202B49086008468B
:10209000006840F48020086000202849086000257E
:1020A00017E0E0092549091D08606006040E0220BA
:1020B00001F048FB01202249C1F8A002022001F0F2
:1020C00041FB00201D490860022001F03BFB681C19
:1020D000C5B2082DE5DB70BD70B505460024164875
:1020E000006820F440201449086008460068086031
:1020F000002616E0002011490860022001F022FBB2
:1021000001200F49C1F8A0026006040E0B487C387C
:10211000006808B1601CC4B2012001F013FB701C00
:10212000C6B2082EE6DB15B9FFF788FF01E0FFF71E
:1021300064FF204670BD000000040240A0824042BF
:10214000008040421CB50121112001F017FF1C2026
:10215000009000208DF8040003208DF80500012078
:102160008DF807006946354801F06AFC01200090AF
:1021700002208DF807006946314801F061FC1CBD62
:1021800010B5044614B101202E4908702D4800787E
:10219000002837D01021294801F0B4FC78B108217B
:1021A000264801F0AFFC50B10421244801F0AAFCFC
:1021B00028B10121224801F0A5FC012822D10A20E2
:1021C00001F008FB00201F49087010211B4801F096
:1021D00099FC08B9012010BD0821184801F092FCB3
:1021E00008B90220F7E70421144801F08BFC08B974
:1021F0000320F0E70121124801F084FC01281BD1E3
:102200000420E8E710210D4801F07CFC012813D1DF
:1022100008210A4801F076FC01280DD10421074865
:1022200001F070FC012807D10121054801F06AFC8A
:1022300010B90120034908700020CCE700100240CB
:10224000000002401E00002010B504460020FA499C
:102250000860FA49C1F8B8022146F94800F018FAB6
:102260000120F549086010BD10B504460020F24970
:1022700008600120F149C1F8B8022146F04800F099
:1022800007FA0120EC49086010BD70B505460C4600
:102290002846FFF7D9FFE0B2FFF7E6FF70BD10B5A3
:1022A000E849087AFFF7D0FF10BD10B50446F821C1
:1022B00001EA2420FFF7D8FFFC2101EAE400FFF740
:1022C000D3FFE106080EFFF7CFFF10BD2DE9F04167
:1022D00004460D4616461F46DA49887AFFF7B4FFD2
:1022E0002012FFF7C1FFE0B2FFF7BEFF3012FFF789
:1022F000BBFFF0B2FFF7B8FFD249087BFFF7A4FF9E
:102300002812FFF7B1FFE8B2FFF7AEFF3812FFF770
:10231000ABFFF8B2FFF7A8FFFFF7C1FFBDE8F08100
:1023200070B504460D462B46224629462046FFF747
:10233000CDFF70BD70B504460D4629462046FFF717
:10234000EFFFC1480088FFF7B0FF70BD70B50646CB
:10235000BC484088401E83B2BA480088401E82B202
:1023600000210846FFF7B2FF0020B34908600120B2
:10237000B249C1F8B80200240AE0002503E0304663
:10238000FFF793FF6D1CAF480088A842F7D8641C84
:10239000AC484088A042F0D80120A749086070BD31
:1023A0001CB50121022001F0E9FD4FF470400090BE
:1023B00001208DF8040003208DF8050000208DF821
:1023C000060001208DF807006946A04801F038FB9F
:1023D0001CBD10B5002098490C390860642001F03C
:1023E000F9F901209549C1F8B002322001F0F2F963
:1023F00010BD10B504462A20924948812B208881BF
:102400002C20088134B1012C10D0022C1AD0032CBE
:1024100030D123E04FF4A0708A4908804FF4F07067
:10242000488008213620FFF730FF24E04FF4F07099
:10243000844908804FF4A070488068213620FFF757
:1024400024FF18E04FF4A0707E4908804FF4F0702C
:102450004880C8213620FFF718FF0CE04FF4F070D9
:10246000784908804FF4A0704880A8213620FFF7F3
:102470000CFF00E000BF00BF10BD10B500F02CF94C
:10248000FFF78EFFFFF7A5FFF720FFF7DDFEA9207E
:10249000FFF7EAFE5120FFF7E7FE2C20FFF7E4FEEE
:1024A0008220FFF7E1FEC020FFF7CEFE1120FFF7EC
:1024B000DBFE0920FFF7D8FEC120FFF7C5FE412053
:1024C000FFF7D2FEC520FFF7BFFE0020FFF7CCFECE
:1024D0000A20FFF7C9FE8020FFF7C6FEB120FFF7F4
:1024E000B3FEB020FFF7C0FE1120FFF7BDFEB42001
:1024F000FFF7AAFE0220FFF7B7FEB620FFF7A4FE03
:102500000220FFF7B1FE4220FFF7AEFEB720FFF733
:102510009BFEC620FFF7A8FEBE20FFF795FE002019
:10252000FFF7A2FE0420FFF79FFEE920FFF78CFED5
:102530000020FFF799FE3620FFF786FE6820FFF7A0
:1025400093FE3A20FFF780FE6620FFF78DFEE02025
:10255000FFF77AFE0020FFF787FE0720FFF784FED3
:102560001020FFF781FE0920FFF77EFE1720FFF7FE
:102570007BFE0B20FFF778FE4120FFF775FE8920D8
:10258000FFF772FE4B20FFF76FFE0A20FFF76CFE8D
:102590000C20FFF769FE0E20FFF766FE1820FFF7FC
:1025A00063FE1B20FFF760FE0F20FFF75DFEE120BA
:1025B000FFF74AFE0020FFF757FE1720FFF754FEF3
:1025C0001A20FFF751FE0420FFF74EFE0E20FFF702
:1025D0004BFE0620FFF748FE2F20FFF745FE452063
:1025E000FFF742FE4320FFF73FFE0220FFF73CFECD
:1025F0000A20FFF739FE0920FFF736FE3220FFF7E9
:1026000033FE3620FFF730FE0F20FFF72DFE11209E
:10261000FFF71AFE782001F0DDF82920FFF714FEFD
:102620000020FFF7E6FE01200349083908604FF655
:10263000FF70FFF78BFE10BDBC824042008040421D
:10264000003001406C000020200000200004024007
:102650001CB50121202001F091FC4FF4C0600090D6
:1026600001208DF8040000208DF8060003208DF86D
:10267000050001208DF807006946044801F0E0F9E3
:102680004FF4C061014801F057FA1CBD001402402C
:10269000024600BF108900F002000028FAD09181A4
:1026A00000BF108900F001000028FAD09089C0B264
:1026B000704702884FF6C7731A400280012902D181
:1026C0000288028003E0028842F020020280028831
:1026D00042F040020280704700B587B0012102201D
:1026E00001F04CFC0121080301F0A2FC3820059008
:1026F00002208DF8180000208DF81A0003208DF8B4
:10270000190001208DF81B0005A91E4801F098F959
:10271000052203211B4801F01EFA05220421194855
:1027200001F019FA05221146164801F014FA0121A8
:10273000080301F0D2FC00214FF4805001F0CDFCE1
:102740000020ADF800004FF48270ADF802000020C8
:10275000ADF80400ADF80600ADF808004FF40070C5
:10276000ADF80A000020ADF80E000720ADF810000B
:102770006946054801F0A2FD0121034801F098FED9
:1027800007B000BD000402400030014070B50446AF
:10279000002500BF17E004F0800018B10120FE49B9
:1027A000086002E00020FC4908606006040E00207A
:1027B000FA490860012000F0C5FF0120F849C1F87E
:1027C0008002681CC5B2082DE5DB70BD70B50646F9
:1027D000002500240020F1490860F249C1F8AC024C
:1027E000F14908603046FFF7D1FF062000F0AAFF4C
:1027F0000020EB49C1F88002012000F0A3FF012076
:10280000E649086000F09EFF0020E549C1F880021B
:1028100000BF15E04FF6FF7000EA44040020DF49D6
:102820000860012000F08EFF0120DD49C1F8800220
:10283000DA487838006808B1601C84B2681CC5B2F8
:10284000102DE7DB24110120D7490860204670BD18
:102850002DE9FE4380460027002406E04046FFF7AE
:10286000B5FF2DF81400601C84B2052CF6DB0024A3
:1028700016E0601C85B20FE03DF814003DF815101D
:10288000884207DD3DF814603DF815002DF814006E
:102890002DF81560681C85B2052DEDDB601C84B237
:1028A000042CE6DB0027012405E03DF81400384441
:1028B00087B2601C84B2042CF7DB032097FBF0F096
:1028C00086B23046BDE8FE832DE9F04104460D4650
:1028D000B6480078FFF7BCFF0646B5480078FFF71A
:1028E000B7FF074626802F800120BDE8F0817FB525
:1028F00004460D4602A903A8FFF7E6FF064616B9EF
:10290000002004B070BD694601A8FFF7DDFF064650
:102910000EB90020F5E7BDF80400BDF80C108842A0
:1029200006DCBDF80C10BDF80400323081420CDB2F
:10293000BDF80C00BDF80410884236DCBDF8041068
:10294000BDF80C00323081422FDABDF80000BDF82E
:102950000810884206DCBDF80810BDF800003230CF
:1029600081420CDBBDF80800BDF8001088421CDC79
:10297000BDF80010BDF808003230814215DABDF80C
:102980000C10BDF80420881800EBD071C1F34F0182
:102990002180BDF80810BDF80020881800EBD07128
:1029A000C1F34F0129800120ABE70020A9E7F8B56A
:1029B00004460D4616467F48068004F10D018AB292
:1029C000193988B22B462946FDF789FC05F10D001F
:1029D00083B2193881B222462046FDF780FC6A1C7A
:1029E00091B2621C90B2FFF7A5FC6A1C91B2621E04
:1029F00090B2FFF79FFC6A1E91B2621C90B2FFF783
:102A000099FC6A1E91B2621E90B2FFF793FC0020FF
:102A1000062300906748028829462046FDF728FDD6
:102A2000F8BD70B504460D46164662480680294634
:102A30002046FFF77FFC611C88B22946FFF77AFC2D
:102A4000681C81B22046FFF775FC6A1C91B2621CBB
:102A500090B2FFF76FFC70BD10B504464F487C384C
:102A6000006800284BD124B15349881EFFF73FFF6F
:102A700034E05149881EFFF73AFF78B34E481238C8
:102A8000B0F9200000EE100AB8EEC00A4A48123829
:102A900090ED061A008A00EE900AF8EE600A01EE48
:102AA000200ABCEEC00A10EE100A4349123908820F
:102AB0000846B0F9220000EE100AB8EEC00A084637
:102AC00090ED071A408A00EE900AF8EE600A01EED7
:102AD000200ABCEEC00A10EE100A488236481238AE
:102AE000007D00F0800010BBC0203349123908750A
:102AF0000846008A88810846408AC88117E02E4827
:102B00001238007D00F0800040B12B481238007D63
:102B100020F0800028491239087508E00020264975
:102B200012398881C8814FF6FF7008824882224896
:102B30001238007D00F0800010BD10B51E4812381C
:102B400090ED060ADFED1D0A20EE200ABDEEC00A58
:102B500010EE104A042221462820FFF75FF916489C
:102B6000123890ED070ADFED150A20EE200ABDEEBF
:102B7000C00A10EE104A042221462C20FFF74EF91D
:102B80000D481238B0F9201002223020FFF746F924
:102B90000948123814E00000AC8242428082404270
:102BA0000080404200804242940241425000002096
:102BB00051000020200000203A00002020BCBE4C24
:102BC000B0F9221002223220FFF728F9F74890F8D6
:102BD00024103420FFF7FAF80A2421463520FFF7A5
:102BE000F5F810BD10B53520FFF7C4F804460A2CDF
:102BF00046D104212820FFF726F9044600EE104AAA
:102C0000B8EEC00A5FED130A80EE201AE74880EDA7
:102C1000061A04212C20FFF716F9044600EE104A8C
:102C2000B8EEC00A5FED1B0A80EE201ADF4880ED87
:102C3000071A02213020FFF706F900B2DB490884A9
:102C400002213220FFF7FFF800B2D849488434202F
:102C5000FFF790F8D54981F82400084690F8240041
:102C600030B19020D2490870D020D249087005E0D8
:102C7000D020CF4908709020CE490870012010BDA7
:102C80000020FCE72DE9F84F04460D4617461E4686
:102C9000DDE90CABDDE90A894FF47840C6490880CC
:102CA0000120C6A31022A02100902820FDF7E2FDFC
:102CB0000120C3A31022A02100907820FDF7DAFDA7
:102CC0000120C0A31022B42100902820FDF7D2FDDE
:102CD0000120BDA31022B42100907820FDF7CAFD89
:102CE0000120BAA31022C82100902820FDF7C2FDC0
:102CF0000120B7A31022C82100907820FDF7BAFD6B
:102D00000120B4A31022DC2100902820FDF7B2FDA1
:102D10000120B1A31022DC2100907820FDF7AAFD4C
:102D20000120AEA31022F02100902820FDF7A2FD83
:102D3000102004232246A02100904020FDF7D4FD5E
:102D4000102004232A46A02100909020FDF7CCFDFE
:102D5000102004233A46B42100904020FDF7C4FD22
:102D6000102004233246B42100909020FDF7BCFDD2
:102D7000102004234246C82100904020FDF7B4FDF6
:102D8000102004234A46C82100909020FDF7ACFD96
:102D9000102004235246DC2100904020FDF7A4FDC2
:102DA000102004235A46DC2100909020FDF79CFD62
:102DB000102000908B480188032360200E9AFDF7B5
:102DC00093FDBDE8F88F2DE9F0472DED068B8AB015
:102DD0004FF00008C14600BF1F20774908804FF61A
:102DE000FF7081490880FFF7B1FA4FF478407249CB
:102DF00008804FF6FF70FFF7A9FA00206E4908809F
:102E000001207AA31022282100900A20FDF732FD2C
:102E100001207EA31022382100900A20FDF72AFD10
:102E2000012083A31022482100900A20FDF722FDF3
:102E3000012087A31022582100900A20FDF71AFDD7
:102E40004FF4784214210846FFF7B1FD002057499E
:102E500008759FED860A084680ED060AE5E35348AB
:102E60004168012088475148007D00F0C00040289B
:102E70006FD14FF000094D48007D20F040004B49D4
:102E800008750846008A06A921F828004748408AA4
:102E900001EB8801488008F1010000F0FF08B8F15B
:102EA000010F09D0B8F1020F16D0B8F1030F26D0E8
:102EB000B8F1040F0FD138E04FF6FF721421084625
:102EC000FFF775FD47490988143988B24FF47842F5
:102ED0001421FFF76CFD99E342490988143988B23F
:102EE0004FF6FF721421FFF762FD3E484088143808
:102EF00081B24FF478421420FFF759FD86E3394838
:102F00004088143881B24FF6FF721420FFF74FFD4E
:102F1000344A5288143A91B2324A1288143A90B222
:102F20004FF47842FFF743FD70E3BDF81810BDF889
:102F30001C20881A002801DB014600E041420C46B3
:102F4000BDF81A20BDF81E10501A002802DB0146F9
:102F500001E05CE341420D4664436D43601901F0BA
:102F600082FC41EC1A0BB0EE4A0AF0EE6A0A01F05C
:102F700004FCB0EE409AF0EE609A51EC190B01F0AF
:102F800045FC86B2BDF82010BDF82420881A002820
:102F900001DB014600E041420C46BDF82220BDF8AD
:102FA0002610501A002863DB014662E0280000204A
:102FB00050000020510000202000002078313A000D
:102FC00079313A0078323A0079323A0078333A006F
:102FD00079333A0078343A0079343A0066616320F4
:102FE00069733A006C00002022000020506C65617B
:102FF00073652075736520746865207374796C75CA
:103000007320636C69636B207468650063726F730F
:1030100073206F6E207468652073637265656E2E11
:103020005468652063726F73732077696C6C00005D
:10303000616C77617973206D6F766520756E746948
:103040006C207468652073637265656E20000000F3
:1030500061646A7573746D656E7420697320636F43
:103060006D706C657465642E000000000000000047
:1030700041420D4664436D43601901F0F4FB41EC9D
:103080001A0BB0EE4A0AF0EE6A0A01F076FBB0EED7
:10309000409AF0EE609A51EC190B01F0B7FB87B241
:1030A00000EE106AF8EE400A00EE107AB8EE400A20
:1030B00080EE801A11EE10AA504601F023FE41EC7A
:1030C000180B9FEDFE0B53EC102B51EC180B01F07D
:1030D000DDFB0AD39FEDFB0B53EC102B51EC180BCF
:1030E00001F00EFD01D306B1CFBB4FF00008F74A47
:1030F0005288143A91B2F54A1288143A90B24FF6B7
:10310000FF72FFF754FC4FF4784214210846FFF792
:103110004EFC9FEDEF0B53EC102B51EC180B01F014
:10312000F1FB41EC190B01F071FB1FFA80FABDF8BD
:103130002600BDF82410BDF82220CDE9030ACDE910
:103140000121BDF820000090BDF81E30BDF81C2004
:10315000BDF81A10BDF81800FFF794FD65E2FFE70F
:10316000BDF81810BDF82020881A002801DB0146A0
:1031700000E041420C46BDF81A20BDF82210501A5A
:10318000002801DB014600E041420D4664436D43E7
:10319000601901F068FB41EC1A0BB0EE4A0AF0EE40
:1031A0006A0A01F0EAFAB0EE409AF0EE609A51EC49
:1031B000190B01F02BFB86B2BDF81C10BDF82420C2
:1031C000881A002801DB014600E041420C46BDF8A8
:1031D0001E20BDF82610501A002801DB014600E031
:1031E00041420D4664436D43601901F03CFB41ECE4
:1031F0001A0BB0EE4A0AF0EE6A0A01F0BEFAB0EE1F
:10320000409AF0EE609A51EC190B01F0FFFA87B288
:1032100000EE106AF8EE400A00EE107AB8EE400AAE
:1032200080EE801A11EE10AA504601F06BFD41ECC1
:10323000180B9FEDA20B53EC102B51EC180B01F067
:1032400025FB08D39FED9F0B53EC102B51EC180B73
:1032500001F056FC39D24FF000089C4A5288143ACB
:1032600091B29A4A1288143A90B24FF6FF72FFF761
:103270009EFB4FF4784214210846FFF798FB9FED20
:10328000940B53EC102B51EC180B01F03BFB41EC71
:10329000190B01F0BBFA1FFA80FABDF82610BDF831
:1032A0002400BDF82220CDE9031ACDE90120BDF8A4
:1032B00020000090BDF81E30BDF81C20BDF81A108B
:1032C000BDF81800FFF7DEFCAFE1BDF81C10BDF83B
:1032D0002020881A002801DB014600E041420C460C
:1032E000BDF81E20BDF82210501A002801DB01464F
:1032F00000E041420D4664436D43601901F0B3FAAA
:1033000041EC1A0BB0EE4A0AF0EE6A0A01F035FA07
:10331000B0EE409AF0EE609A51EC190B01F076FA9B
:1033200086B2BDF81810BDF82420881A002801DBE9
:10333000014600E041420C46BDF81A20BDF82610B7
:10334000501A002801DB014600E041420D4664436B
:103350006D43601901F087FA41EC1A0BB0EE4A0A8E
:10336000F0EE6A0A01F009FAB0EE409AF0EE609AC7
:1033700051EC190B01F04AFA87B200EE106AF8EE30
:10338000400A00EE107AB8EE400A80EE801A11EE84
:1033900010AA504601F0B6FC41EC180B9FED470B0C
:1033A00053EC102B51EC180B01F070FA08D39FED81
:1033B000450B53EC102B51EC180B01F0A1FB39D24B
:1033C0004FF00008414A5288143A91B23F4A12889D
:1033D000143A90B24FF6FF72FFF7E9FA4FF47842D1
:1033E00014210846FFF7E3FA9FED390B53EC102B3D
:1033F00051EC180B01F086FA41EC190B01F006FABA
:103400001FFA80FABDF82600BDF82410BDF822206E
:10341000CDE9030ACDE90121BDF820000090BDF8F7
:103420001E30BDF81C20BDF81A10BDF81800FFF7BB
:1034300029FCFAE0BDF81C00BDF81810401A00EE97
:10344000100AF8EEC00A21480088283800EE100A59
:10345000B8EEC00A80EE201A1F4880ED061ABDF8AB
:103460001C00BDF81810084400EE100AF8EEC00A5F
:103470001648008800EE100AB8EE400A164890ED93
:10348000061A01EE600AF0EE000A80EE201ABDEE88
:10349000C10A10EE100A00B20F490884BDF82200DC
:1034A000BDF81A10401A00EE100AF8EEC00A0748DC
:1034B0004088283800EE100A10E000006666666654
:1034C0006666EE3FCDCCCCCCCCCCF03F6C0000207F
:1034D000000000000000594028000020B8EEC00A9B
:1034E00080EE201A774880ED071ABDF82200BDF85B
:1034F0001A10084400EE100AF8EEC00A724840881C
:1035000000EE100AB8EE400A6E4890ED071A01EE80
:10351000600AF0EE000A80EE201ABDEEC10A10EE3D
:10352000100A00B2674948840A4692ED060ABDEEC9
:10353000C00A10EE101A002901DB0A4600E04A42D8
:10354000022A0DDC5F4A92ED070ABDEEC00A10EEBA
:10355000100A002801DB024600E04242022A37DD61
:103560004FF00008584A5288143A91B2564A1288CD
:10357000143A90B24FF6FF72FFF719FA4FF47842FF
:1035800014210846FFF713FA012050A310221A2134
:1035900000902820FDF76EF94A4890F8240008B9F9
:1035A000012000E00020474981F82400084690F8F7
:1035B000240030B190204A490870D0204949087051
:1035C00005E0D020464908709020464908702CE05C
:1035D0001F20454908804FF6FF70FEF7B7FE012017
:1035E00042A310226E2100902320FDF743F94FF4EF
:1035F0007A7000F0EFF8FFF7A0FA4FF6FF70FEF7D1
:10360000A5FE0AB0BDEC068BBDE8F08700BF0A201E
:1036100000F0E0F809F101001FFA80F9B9F57A7FAE
:1036200002DDFFF7DFFA01E000BF18E400BF00BFD2
:10363000E7E71CB50121262000F0A0FC0620009041
:1036400000208DF804008DF8060003208DF8050099
:1036500001208DF8070069462A4800F0F1F90120A1
:1036600000908DF804006946264800F0E9F9202012
:10367000009001208DF804006946234800F0E0F92D
:103680004FF40060009001208DF8040069461F4847
:1036900000F0D6F90B491231881EFFF715F9FEF735
:1036A00065FBFFF79FFA08B100201CBD4FF6FF70C5
:1036B000FEF74CFEFFF787FBFFF73FFAFFF792FAA2
:1036C0000120F2E7280000206C0000205450204E1A
:1036D00065656420726561646A7573742100000019
:1036E000500000205100002020000020546F75631E
:1036F000682053637265656E2041646A7573742037
:103700004F4B210000040240000802400014024018
:1037100010B504466FF0040000F0EEF8E11704EB7A
:103720005171C1F3C701394A11701046007800EB9E
:103730004001C1EBC0104FF6FF7101EAC0003449EF
:10374000088010BD0146314A12784A434FF0E02309
:103750005A6100229A611A46126942F001021A6106
:1037600000BF4FF0E022106900F001021AB100F42E
:103770008032002AF5D04FF0E022126922F00102D7
:103780004FF0E0231A6100229A6170470146204AF7
:1037900012884A434FF0E0235A6100229A611A4688
:1037A000126942F001021A6100BF4FF0E022106975
:1037B00000F001021AB100F48032002AF5D04FF077
:1037C000E022126922F001024FF0E0231A61002288
:1037D0009A61704770B504464FF4077094FBF0F09F
:1037E000C6B24FF4077094FBF0F100FB114085B2B4
:1037F00005E04FF40770FFF7C9FF701EC6B2002E38
:10380000F7D115B12846FFF7C1FF70BD5800002061
:103810005A0000200948804709480047FEE7FEE7B4
:10382000FEE7FEE7FEE7FEE7FEE7FEE7FEE7FEE770
:1038300004480549054A064B70470000590F000827
:1038400089010008E0000020E0060020E0020020DE
:10385000E002002032490143324A1160704770B5DE
:10386000002100230F22C4781CB32E4C246804F4DA
:10387000E064C4F5E064C4F30721C1F10404E3B2D9
:103880000A4144789C40E1B28478144021430C07FB
:10389000210E254C05786155047804F01F0501249C
:1038A000AC4005786D11AD0005F1E025C5F800418B
:1038B00009E0047804F01F050124AC401B4D067894
:1038C000761145F8264070BD194A0A400243154B4F
:1038D0001B1F1A60704739B1124A121D1268024349
:1038E000104B1B1D1A6006E00E4A121D126882431F
:1038F0000C4B1B1D1A607047042808D14FF0E021C3
:10390000096941F004014FF0E022116107E04FF036
:10391000E021096921F004014FF0E02211617047B4
:103920000000FA050CED00E000E400E080E100E0BA
:1039300080FFFF1F10B504469848844208D101213A
:10394000084600F086FB0021012000F082FB76E0B3
:103950009348844208D10121022000F07AFB002123
:10396000022000F076FB6AE08E48844208D10121F3
:10397000042000F06EFB0021042000F06AFB5EE0F2
:103980008948844208D10121082000F062FB00210F
:10399000082000F05EFB52E08448844208D10121F7
:1039A000102000F056FB0021102000F052FB46E0F2
:1039B0007F48844208D10121202000F04AFB0021E9
:1039C000202000F046FB3AE07A48844208D10121E9
:1039D000402000F03EFB0021402000F03AFB2EE0AA
:1039E0007548844208D10121802000F032FB00217B
:1039F000802000F02EFB22E07048844208D1012193
:103A0000801500F026FB0021A01500F022FB16E037
:103A10006B48844208D10121401500F01AFB0021B7
:103A2000601500F016FB0AE06648844207D10121C8
:103A3000001500F00EFB0021201500F00AFB10BD60
:103A4000F0B50A4600210023002400BF3DE0012517
:103A500005FA01F3156805EA03049C4234D10568B0
:103A60004F000326BE40B543056015794E00B540B2
:103A70000668354305601579012D02D01579022DB0
:103A800016D185684F000326BE40B5438560557941
:103A90004E00B540866835438560456801268E40F6
:103AA000B5434560456896798E40B6B2354345606A
:103AB000C5684F000326BE40B543C560D5794E00AA
:103AC000B540C6683543C560491C1029BFD3F0BD59
:103AD0004FF6FF7101600021017141718171C17167
:103AE000704708B54FF480320092009A0A43009262
:103AF000009AC261C161009AC261C2690092C26942
:103B0000009208BD0246002013690B400BB1012052
:103B100000E0002070470146086980B27047024605
:103B2000002053690B400BB1012000E000207047DA
:103B30000146486980B270470183704741837047EE
:103B40000AB1018300E041837047416170474269D7
:103B50004A4042617047F0B5002300244D07ED0E46
:103B600002FA05F3CE1000F1200555F826504E0755
:103B7000F70E0F26BE40B543CF1000F1200646F8E1
:103B80002750CE1000F1200555F8265045EA0304D1
:103B9000CE1000F1200545F82640F0BD000002409F
:103BA0000004024000080240000C024000100240E5
:103BB0000014024000180240001C02400020024095
:103BC0000024024000280240F948006840F001004B
:103BD000F74908600020F64908310860F448006899
:103BE000F4490840F2490860F348091D0860F348A9
:103BF000EF4984310860F0481038091D0860EC482E
:103C0000006820F48020EA4908600020E8490C316F
:103C10000860E7498C31086070470021E44A921C33
:103C2000117011460870704710B50146002200233C
:103C300000204A11012A02D1DD4C236808E0022A43
:103C400003D1DB4C7034236802E0D94C7434236810
:103C500001F01F02012494401C400CB1012000E03F
:103C6000002010BD38B5002000900024002500BFC2
:103C70003120FFF7D9FF05460098401C00900098BE
:103C8000B0F5A04F01D0002DF2D03120FFF7CCFFCE
:103C900008B1012400E00024204638BD0146002080
:103CA000C34A106820F0F80040EAC1001060704775
:103CB000C349086070470021BD4A7032117011700D
:103CC000012802D004280AD104E00121B84A703248
:103CD000117005E00521B64A7032117000E000BF96
:103CE00000BF7047B7490860704770B5049C41EA4F
:103CF00082150126C6EB530645EA0645054345EA0B
:103D00000465AB4E361D356070BDAD490866704721
:103D1000820142EA0172A64B84331A607047A849B7
:103D20008866704710B5830143EA016343EA027372
:103D30009F4C8834236010BDA14908677047A04993
:103D4000C864704702460020994B0833186820F079
:103D5000EC6042EA01031843954B08331860704742
:103D600002460020924B0833186820F0784042EA5F
:103D7000010318438E4B083318607047014600203A
:103D80008B4A0832106820F0030008431060704727
:103D900087480830006800F00C007047014600209A
:103DA000834A0832106820F0F00008431060704722
:103DB000014600207E4A0832106820F4E050084393
:103DC0001060704701460020794A0832106820F4DC
:103DD000604040EAC10010607047F0B50021002249
:103DE0000024022500260223714F08373F6807F0A0
:103DF0000C0121B1042905D0082937D105E0724F03
:103E0000076036E0714F076033E0694F3F1D3F6840
:103E1000C7F38056664F3F1D3F6807F03F036EB102
:103E20006A4FB7FBF3F7DFF888C10CF1040CDCF83C
:103E300000C0CCF3881C07FB0CF40CE0624FB7FB0E
:103E4000F3F7DFF86CC10CF1040CDCF800C0CCF324
:103E5000881C07FB0CF4564F3F1D3F68C7F3014712
:103E60007F1C7D00B4FBF5F7076002E0564F07604A
:103E700000BF00BF4E4F08373F6807F0F001090947
:103E8000534F7A5C0768D7404760494F08373F680F
:103E900007F4E051890A4E4F7A5C4768D740876043
:103EA000434F08373F6807F46041490B484F7A5C3D
:103EB0004768D740C760F0BD002100F44072B2F5FA
:103EC000407F0AD13A4A0832116821F4F811414A78
:103ED00002401143364A08321160354A7032126886
:103EE000C0F30B031A43324B70331A6070473549E5
:103EF0004439086070473349403908607047364993
:103F00000860704701460020294A8C32106820F072
:103F10001F004A1E1043264A8C321060704701462B
:103F20000020234A8C32106820F4F8504A1E40EAE0
:103F300002201F4A8C3210607047014600201C4A44
:103F40008C32106820F4401008431060704701461E
:103F50000020174A8C32106820F44000084310609B
:103F6000704701460020124A8C32106820F440301D
:103F700008431060704719490860704739B10C4A0E
:103F80003032126802430A4B30331A6006E0084AA6
:103F9000303212688243064B30331A607047F9B1F1
:103FA000034A343212680243014B34331A601CE076
:103FB00000380240FFFFF6EA1030002400300020F5
:103FC00000004742800E47420024F40000127A00AD
:103FD0005C000020FFFCFF0F5C014742E0114742FC
:103FE0008F4A126882438E4B1A60704739B18C4AEF
:103FF000121D126802438A4B1B1D1A6006E0884A94
:10400000121D12688243864B1B1D1A60704739B11E
:10401000834A0C3212680243814B0C331A6006E06B
:104020007F4A0C32126882437D4B0C331A60704712
:1040300039B17B4A103212680243794B10331A604F
:1040400006E0774A103212688243754B10331A60CB
:10405000704739B1724A243A12680243704B243BCC
:104060001A6006E06E4A243A126882436C4B243B85
:104070001A60704739B16A4A203A12680243684BA5
:10408000203B1A6006E0664A203A12688243644B7D
:10409000203B1A60704739B1614A1C3A12680243EA
:1040A0005F4B1C3B1A6006E05D4A1C3A1268824373
:1040B0005B4B1C3B1A60704739B1594A143A12687D
:1040C0000243574B143B1A6006E0554A143A1268F3
:1040D0008243534B143B1A60704739B1504A103A2F
:1040E000126802434E4B103B1A6006E04C4A103AED
:1040F000126882434A4B103B1A60704739B1484AF4
:104100001C3212680243464B1C331A6006E0444AD4
:104110001C3212688243424B1C331A60704739B11B
:104120003F4A2032126802433D4B20331A6006E0BA
:104130003B4A203212688243394B20331A60704761
:1041400039B1374A243212680243354B24331A609E
:1041500006E0334A243212688243314B24331A601A
:10416000704739B12E4A2C32126802432C4B2C3343
:104170001A6006E02A4A2C3212688243284B2C33FC
:104180001A60704739B1264A303212680243244B14
:1041900030331A6006E0224A303212688243204BE4
:1041A00030331A607047012808D11D493C31096835
:1041B00041F008011A4A3C32116007E018493C31CD
:1041C000096821F00801164A3C321160704739B184
:1041D000134A273A12780243114B273B1A7006E024
:1041E0000F4A273A127882430D4B273B1A707047CB
:1041F0000B484030006840F0807009494031086049
:10420000704701460020064A283A12680A400AB15F
:10421000012000E0002070470149263908707047EE
:104220003438024010B50446FB48844208D10121CD
:104230008014FFF752FF0021A014FFF74EFF3CE06F
:10424000F648844208D101210014FFF735FF002110
:104250002014FFF731FF30E0F148844208D10121FA
:10426000C013FFF729FF0021E013FFF725FF24E02B
:10427000EC48844208D101214014FFF72EFF0021B1
:104280006014FFF72AFF18E0E748844209D10121B2
:104290000805FFF722FF00214FF48010FFF71DFFF4
:1042A0000BE0E248844208D101214805FFF715FFE1
:1042B00000214FF40010FFF710FF10BD10B50022D1
:1042C000028802F441520B884C8823438C88234394
:1042D000CC8823430C8923434C8923438C89234373
:1042E000CC8923431A430280838B4FF2FF7423400F
:1042F00083830B8A038210BD2DE9F04F0025022332
:1043000000244FF001090022002600279446904621
:10431000B0F81CA04FF2400B0AEA0B0AA0F81CA050
:104320004FF0020AA0F820A0858BD1F808A0BAF1BE
:10433000020F01D100BF82E0B1F804A0BAF1000F72
:1043400002D14FF0010901E04FF00209DFF8E0A2CD
:10435000DAF800A00AF4000ABAF1000F09D0DFF879
:10436000D0A2DAF800A02AF4000ADFF8C4B2CBF831
:1043700000A0DFF8BCA20AF17C0ADAF800A0CAF3B8
:10438000881CDFF8ACA20AF17C0ADAF800A0CAF3B4
:104390000278DFF89CA2AAF1040ADAF800A00AF079
:1043A0003F07DFF88CA2AAF1040ADAF800A00AF4A9
:1043B000800ABAF5800F08D1DFF878A2BAFBF7FAC5
:1043C0000AFB0CFABAFBF8F607E0DFF86CA2BAFBBE
:1043D000F7FA0AFB0CFABAFBF8F6B1F806A0BAF540
:1043E000007F0ED14FEA162A0AEB8A0A4FEA4A0AE0
:1043F000D1F808B0BAFBFBFA0AF1050A1FFA8AF2F3
:104400000FE04FEA491AB6FBFAFA0AEB8A0A4FEABA
:104410004A0AD1F808B0BAFBFBFA0AF1050A1FFAFA
:104420008AF24FF00A0AB2FBFAF202F00104A2EBA0
:10443000040ACAF34F034FF6FF7A0AEA0424022B58
:1044400001DBFF2B01DD02230024B1F806A04AEABC
:10445000040A4AEA030AA0F820A0B1F804A0B1F8BF
:104460000CB04AEA0B0AB1F802B04AEA0B0AB1F8FA
:1044700000B04AEA0B0A4AF4006A4AEA0505858355
:10448000BDE8F08F0021018041808180C1800181E1
:1044900041818181C1810721018270470021018012
:1044A00041808180C180022181600021818170472B
:1044B00021B1028842F04002028004E002884FF6F7
:1044C000BF731A400280704721B1828B42F4806230
:1044D000828304E0828B4FF6FF331A408283704759
:1044E00002884FF2FF731A40028002880A4302805A
:1044F0007047B1F5804F04D1028842F480420280B7
:1045000004E002884BF6FF731A40028070474FF6B2
:10451000FF62914204D0028842F48072028004E07B
:1045200002884FF6FF631A400280704721B18288EB
:1045300042F00402828004E082884FF6FB731A4046
:104540008280704721B1828842F01002828004E0AC
:1045500082884FF6EF731A408280704730B5002290
:104560000023848B4FF240052C4084830224048472
:10457000828B0C88B4F5007F01D00C8814B94FF4FD
:10458000807308E00C88B4F5407F03D00C88B4F544
:10459000807F00D100238C888D892C434D882C434B
:1045A0001C4344F400642243828330BD0146888961
:1045B00070478181704721B1028842F40052028025
:1045C00004E002884DF6FF731A40028070470188AC
:1045D00041F480510180704702460020012901D03A
:1045E000108B00E0908A70470146088A70471AB124
:1045F00083880B43838002E083888B4383807047EA
:1046000030B5002400230C110125A540ABB2AAB19E
:1046100085881D43858014E000300140003800404B
:10462000003C004000340140005001400054014073
:104630000838024000127A000024F40085889D4367
:10464000858030BD0246002013890B400BB101204C
:1046500000E000207047CA4302817047F0B502466F
:10466000002000240023002501F00F070126BE4092
:10467000B4B20B1101269E40B3B2968806EA030538
:104680001689264016B10DB1012000E00020F0BDD2
:1046900010B5002201F00F040123A3409AB2D343C6
:1046A000038110BD10B5431C02E010F8011B71B16D
:1046B0008107FAD14FF0013202C88C1A8C4314EAF8
:1046C000C211F9D0C01A0A0603D0C01E10BDC01A0C
:1046D00010BD0A0401D0801E10BD0902FCD0401E8E
:1046E00010BD70477047704710B500F009F80068BA
:1046F00010BD10B5044600F003F8046010BD0000C2
:10470000004870477C000020004870477C00002073
:104710007546FFF7F9FFAE4605006946534620F09F
:104720000700854618B020B5FFF782F8BDE82040A5
:104730004FF000064FF000074FF000084FF0000B5D
:1047400021F00701AC46ACE8C009ACE8C009ACE810
:10475000C009ACE8C0098D46704710B50446AFF3F8
:1047600000802046BDE81040FBF757BD01491820E6
:10477000ABBEFEE726000200704700B52DED048BAE
:10478000B0EE409AF0EE609A83B051EC190B00F055
:10479000EDF941EC180B18EE100A18EE901A8DED99
:1047A000008B002818BF0120084320F00040C0F112
:1047B0007F6000F1E040C00F14D019EE101A19EE1E
:1047C000900A8DED009B002918BF0121084320F0BD
:1047D0000040C0F17F6000F1E040C00F04BF012045
:1047E000FFF787FFB0EE480A03B0F0EE680ABDECB1
:1047F000048B00BD491058BFC1F140415B1058BF48
:10480000C3F140438B42EFF3008070474FEA1153EE
:10481000A3F58063D3F11E03A8BFD3F1200C08DBFE
:104820004FF0004242EAC12252EA505232FA03F0FB
:10483000704709420BD4102BC4BF0020704703F50A
:10484000787CBCF1FF3F05D04FF0FF3070474FF050
:104850000000704770B500F0FFF800BF4992248057
:1048600000207047F0E7B0FA80F310FA03F10AD0A5
:10487000C3F11D0303F580634FEA41504FEA035231
:1048800002EBD12170474FF00000704751EA030C52
:1048900017D41CF5801F58BFBCF5801F00F106809F
:1048A000994218BF704708BF9042704707D711F56B
:1048B000801F58BF13F5801F19D499427047894251
:1048C00070471CF5801F08D5BCF5801FF7D58B42BB
:1048D00018BF704708BF824270474FF4001C1CEBA2
:1048E000410F38BF1CEB430F01D28B42704770B5AC
:1048F00000F0B2F8922449004FF000514FF080537D
:10490000FFF778BFDFF848C170B51CEA111E1EBF63
:104910001CEA13159EEA0C0F95EA0C0F00F06F804D
:1049200081EA030423EA4C134EEAD47E21EA4C11B7
:1049300041F4801143F48013AE44A1FB024CA0FB70
:104940000365AEF17F7E361955EB0C05A1FB034CD8
:104950004CF10003A0FB021C16EB0C06654153F161
:104960000003094218BF46F0010613F4007F0BD183
:104970004FEA03314FEA0530340341EA155140EA6A
:1049800016506FF003020AE04FEAC3214FEAC52038
:10499000F40241EA555140EA56506FF0020202EB30
:1049A0002E4201EB025585EACE710AD05FEA440C33
:1049B00018BF24F0004450F1000041F1000120EA4A
:1049C000D47040F2FE7C624500D270BDA84214BF94
:1049D0004FF080444FF04044002E08BF0024BEF149
:1049E000806FA8BFA1F1C041BDE8704080F2828015
:1049F0004FF0000001F1C04101F0004170479EEA14
:104A00000C0F0CEA131518BF95EA0C0F06D04FF0E7
:104A1000000081EA030E0EF0004170BD00F01CF8AA
:104A20008900013E00F007B800F009B84FEA430CD6
:104A30005FEA5C5C08D081EA030100F05BB84FEAF2
:104A4000410C5FEA5C5CF6D14FF000000149704711
:104A50000000FF070000F87F0EF1020E2EF0030E9B
:104A60005EF8046B364205D4012A43EB030515F5C5
:104A7000001F12D8012841EB010C1CF5001F0CD8B7
:104A80000ED14FEAD17C15F5001F0CEB4C0C0CF14C
:104A9000020C08BF4CEBD37C04E04FF0080C01E0A3
:104AA0004FEAD37C0CEB4C0526FA05F606F0070618
:104AB000B6F1040C06D20EEB860CBDE870404CF04B
:104AC000010C6047DFE80CF0090B02024FF00041D7
:104AD0004FF00000A1F5002170BD194610460128D5
:104AE00051EB010418BFD4F5001484BF002001F07D
:104AF000004170BD0808A0F500114FEA3101704770
:104B000053EA010C17D41CF5801F58BFBCF5801F59
:104B100000F106808B4218BF704708BF8242704781
:104B200007D713F5801F58BF11F5801F19D48B428A
:104B300070479B4270471CF5801F08D5BCF5801F4D
:104B4000F7D5994218BF704708BF904270474FF49D
:104B5000001C1CEB430F38BF1CEB410F01D29942E4
:104B600070470FB40CBC03BCFFF7C1BE2DE9F04188
:104B700001F5801CBCF5001FC0F2A9804FEA115C52
:104B800021EA0C510CF1FD0C41F480115FEA5C0C40
:104B90000CF5C07C01D34000494130A4890241EAB0
:104BA000905187028E0E0A0CA45D04FB04F602FBF2
:104BB00006F6C6F14046A4FB0662F60D46EA42261A
:104BC00006FB06F4A4FB01235242C3F1404338BF65
:104BD0005B1EA6FB02420024E6FB0324D20B42EA42
:104BE0004446A6FB0623A1FB02E2A3FB07E4E3FB8A
:104BF00061426442C2F1404E38BFAEF1010EA6FBE5
:104C000004234FF00002E6FB0E32A2FB0346340001
:104C1000E2FB6264A1FB06E6A4FB07E8E4FB616833
:104C20007642C8F1405838BFA8F10108A2FB06E45B
:104C3000A3FB08E5E2FB6854A1FB05E6A7FB04E83B
:104C4000E1FB648618F1200556F10006A809A8F1D9
:104C50001B08B10908F03F08B8F10A0F40EA866066
:104C60001CD901EB0C51BDE8F08100BFFCF5EEE86A
:104C7000E2DDD8D3CFCBC7C3C0BDB9B6B4B1AEACFB
:104C8000A9A7A5A3A19F9D9B9A9896959392908F73
:104C90008D8C8B898887868584838281A0FB0068C0
:104CA00000FB01F208EB4208B8EB872807D534185F
:104CB00058EB0104D5D5401C51F10001D1E7341A5D
:104CC00078EB0104CDD4401E71F10001C9E75FEA21
:104CD0004C0C5FEA9C5C0DD105D34FF0000001F055
:104CE0000041BDE8F081BDE8F04170B5FFF7B4FECA
:104CF0006DDBFFBEBDE8F0414FF00000004970479A
:104D00000000F87F43004FEAD30C4FEA3C0C4340CD
:104D10001FBF40070CF1605113F0FE4F70471CF0AD
:104D2000006F03D100200CF0004170470CF00043ED
:104D300043EA507010B540EACC0000F00EF800BF16
:104D4000000000924FEA0001FFF7D4BE4FF000418F
:104D50004FF00000A1F5002170470EF1020E2EF079
:104D6000030E5EF8044B244204D44FEA4102B2F130
:104D70007F4F11D84FEA4003B3F17F4F0CD80ED1CB
:104D80004FEAD07CB2F17F4F0CEB4C0C0CF1020CD3
:104D900008BF4CEBD17C04E04FF0080C01E04FEA77
:104DA000D17C0CEB4C0324FA03F404F00704B4F1B7
:104DB000040C06D20EEB840CBDE810404CF0010C44
:104DC0006047DFE80CF0070802024FF00040A0F552
:104DD000800010BD0846420018BFD2F1807288BF23
:104DE00000F0004010BD4FF04070E1EE100A704737
:104DF00000000000000000000000000000000404AB
:104E0000040404040004000000140A0A0000000066
:104E100000000000000014143F140A3F0A0A0000BA
:104E200000041E1505060C14150F040000001215D1
:104E30000D0A142C2A1200000000040A0A1E15157F
:104E4000093600000002020100000000000000001E
:104E500000201008080808080810200000020408B4
:104E6000080808080804020000000004150E0E15CA
:104E70000400000000000404041F040404000000F7
:104E8000000000000000000000020201000000001D
:104E9000001F0000000000000000000000000000F3
:104EA00000020000001008080804040202020100C9
:104EB00000000E1111111111110E00000000040666
:104EC00004040404040E000000000E111108040282
:104ED000011F000000000E11100C1010110E000038
:104EE0000000080C0A0A091E0818000000001F0133
:104EF000010F1010110E000000000E09010F11111A
:104F0000110E000000001F0908040404040400003E
:104F100000000E11110E1111110E000000000E11F3
:104F200011111E10120E000000000000040000000D
:104F30000004000000000000000400000004040061
:104F400000201008040204081020000000000000E7
:104F50001F00001F000000000002040810201008BD
:104F60000402000000000E111108040400040000F7
:104F700000000E111915151D011E0000000004048B
:104F80000C0A0A1E1233000000000F12120E121239
:104F9000120F000000001E1101010101110E00009E
:104FA00000000F1212121212120F000000001F1246
:104FB0000A0E0A02121F000000001F120A0E0A0247
:104FC0000207000000001C1201013911120C000040
:104FD00000003312121E12121233000000001F04D0
:104FE00004040404041F000000003E080808080828
:104FF00008090700000037120A060A0A12370000E3
:105000000000070202020202223F000000001B1BF8
:105010001B1B15151515000000003B1216161A1A59
:105020001217000000000E1111111111110E0000D5
:1050300000000F12120E02020207000000000E1103
:1050400011111117190E180000000F12120E0A127A
:105050001237000000001E1101060810110F000099
:1050600000001F1504040404040E000000003312A5
:1050700012121212120C000000003312120A0A0C53
:105080000404000000001515150E0A0A0A0A0000A3
:1050900000001B0A0A04040A0A1B000000001B0A85
:1050A0000A040404040E000000001F09080404029E
:1050B000121F0000001C04040404040404041C0067
:1050C000000202020404080808100000000E08088C
:1050D0000808080808080E0000040A000000000084
:1050E0000000000000000000000000000000003F81
:1050F00000040000000000000000000000000000AC
:10510000000C121C123C000000000302020E1212DE
:10511000120E000000000000001C1202021C000021
:1051200000001810101C1212123C000000000000B9
:10513000000C121E021C000000003804041E0404AF
:10514000041E000000000000003C120C021E221C85
:1051500000000302020E12121237000000000400C9
:1051600000060404040E000000000800000C0808FB
:105170000808080700000302023A0A0E123700006E
:105180000000070404040404041F000000000000E1
:10519000000F15151515000000000000000F121279
:1051A0001237000000000000000C1212120C000068
:1051B00000000000000F1212120E02070000000093
:1051C000001C1212121C103800000000001B060206
:1051D0000207000000000000001E020C101E00006C
:1051E00000000004040E0404041800000000000085
:1051F000001B1212123C0000000000000037120ACF
:105200000C040000000000000015150E0A0A000042
:1052100000000000001B0A040A1B00000000000040
:105220000037120A0C04040300000000001E0804EA
:10523000041E0000001808080804080808081800E0
:1052400008080808080808080808080800060404F0
:1052500004080404040406000225180000000000ED
:10526000000000000000000000000000000000003E
:1052700000000000000000080808080808080000F6
:105280001818000000486C24120000000000000004
:10529000000000000000002424247F1212127F125C
:1052A000121200000000081C2A2A0A0C1828282ABA
:1052B0002A1C080800000022251515152A585454E8
:1052C000542200000000000C1212120A7625291147
:1052D000916E0000000606040300000000000000BC
:1052E00000000000004020101008080808080810FE
:1052F00010204000000204080810101010101008C0
:10530000080402000000000008086B1C1C6B080861
:105310000000000000000000080808087F080808D6
:105320000800000000000000000000000000000075
:10533000060604030000000000000000FE0000005C
:10534000000000000000000000000000000000005D
:1053500006060000000080404020201010080804CD
:10536000040202000000001824424242424242422B
:1053700024180000000000080E08080808080808A3
:10538000083E00000000003C424242202010080479
:10539000427E00000000003C424220182040404273
:1053A000221C0000000000203028242422227E201D
:1053B000207800000000007E0202021A26404042CF
:1053C000221C0000000000382402021A2642424239
:1053D000241800000000007E22221010080808088F
:1053E000080800000000003C4242422418244242C7
:1053F000423C0000000000182442424264584040F1
:10540000241C00000000000000001818000000002C
:105410001818000000000000000000080000000054
:1054200000080804000000402010080402040810CE
:10543000204000000000000000007F0000007F000E
:1054400000000000000000020408102040201008A6
:10545000040200000000003C4242464020101000C0
:10546000181800000000001C225A555555552D42B1
:10547000221C00000000000808181414243C2242DA
:1054800042E700000000001F2222221E2242424268
:10549000221F00000000007C424201010101014284
:1054A000221C00000000001F2242424242424242AF
:1054B000221F00000000003F4212121E1212024280
:1054C000423F00000000003F4212121E1212020270
:1054D000020700000000003C22220101017121228C
:1054E000221C0000000000E7424242427E4242424B
:1054F00042E700000000003E080808080808080805
:10550000083E00000000007C101010101010101059
:105510001010110F0000007722120A0E0A12122238
:1055200022770000000000070202020202020202CB
:10553000427F000000000077363636362A2A2A2AB3
:105540002A6B0000000000E346464A4A525252626B
:10555000624700000000001C22414141414141419D
:10556000221C00000000003F424242423E02020272
:10557000020700000000001C2241414141414D53FF
:10558000321C60000000003F4242423E12122222C2
:1055900042C700000000007C424202041820404242
:1055A000423E00000000007F49080808080808087B
:1055B000081C0000000000E74242424242424242D0
:1055C000423C0000000000E7424222242414141848
:1055D000080800000000006B49494949555536222A
:1055E00022220000000000E7422424181818242476
:1055F00042E700000000007722221414080808087F
:10560000081C00000000007E212010100804044245
:10561000423F000000780808080808080808080841
:10562000080878000000020204040808081010208E
:1056300020204040001E10101010101010101010EC
:1056400010101E00003844000000000000000000A0
:10565000000000000000000000000000000000004A
:10566000000000FF0006080000000000000000002D
:1056700000000000000000000000003C42784442AE
:1056800042FC0000000000030202021A26424242CD
:10569000261A000000000000000000384402020248
:1056A00044380000000000604040407844424242DC
:1056B00064D80000000000000000003C427E0202AE
:1056C000423C0000000000F08808087E0808080836
:1056D000083E0000000000000000007C22221C02A6
:1056E0003C42423C000000030202023A464242426F
:1056F00042E700000000000C0C00000E080808083B
:10570000083E00000000003030000038202020203B
:105710002020221E0000000302020272120A16124A
:10572000227700000000000E080808080808080892
:10573000083E0000000000000000007F929292925C
:1057400092B70000000000000000003B46424242C9
:1057500042E70000000000000000003C42424242DC
:10576000423C0000000000000000001B26424242B4
:10577000221E02070000000000000078444242425E
:10578000447840E000000000000000774C0404046E
:10579000041F0000000000000000007C42023C40AA
:1057A000423E0000000000000008083E080808080B
:1057B0000830000000000000000000634242424246
:1057C00062DC000000000000000000E74224241416
:1057D0000808000000000000000000EB4949555592
:1057E0002222000000000000000000762418181893
:1057F000246E000000000000000000E74224241492
:1058000018080807000000000000007E22100808A9
:10581000447E000000C020202020201020202020D6
:105820002020C000101010101010101010101010B8
:1058300010101010000608080808081008080808CA
:10584000080806000C32C200000000000000000042
:1058500000000000C9EE000027FC140414A481100D
:1058600042084040104017FC2040E0E02150224810
:105870002C4620400040DBDA1104112411241124AD
:105880001124FD24112411241124112411241D2478
:10589000E124422402040404CAD0020001000000F2
:1058A0007FFC0100010001003FF8210821082108C8
:1058B00021082128211001000100C8AB00000000D0
:1058C000018002400430180860061FF90100010041
:1058D00001003FF80100010001007FFEB6AF0000AB
:1058E000000000203E20007C002200227F221022A7
:1058F000102212221222224223423D82009CB5E74E
:105900000000010001001FF0610C410441047FFC14
:105910004104410441047FFC01000102010201FC39
:10592000D7D3000000003FF80010006000800100A5
:1059300000807FFE00400040002000200020184032
:105940000780BCBC10201020102013FEFC2010206B
:10595000102015FC18843088D048105010201050AA
:1059600051882606CAF501000120011001107FFCB4
:1059700003800540054009201110210841048102DF
:10598000010001000100D3D002000200FFFE04006C
:1059900004000FF0081018102FF0481088100FF0B6
:1059A0000810081008500820CFDE00007BF84A08D5
:1059B000520853F8620852084BF84A444A486A3081
:1059C00052204210428843064200B9AB0080048056
:1059D000048008400840102020104208820604007D
:1059E0000440082010203FF010100000CBBE000043
:1059F0003FF8000800087FE8000800081F881088AA
:105A00001088108810881F88108800280010BBB6E6
:105A100000800080FC8004FC050449082A401440F2
:105A2000104028A024A04510811002080404080298
:105A3000D3AD00002080133C122402240224F2245F
:105A40001224122412B4132812201020282047FEFA
:105A50000000C4FA0900090011FC320454489950AE
:105A60001148124414441140108002005104511294
:105A700090120FF0B4BF00000020102013FE202071
:105A800026244A247A241224222423FC7C20002267
:105A900004227822003CC9AB0000000004000FF093
:105AA000102020207FFC20842084208420843FF844
:105AB0002000200220021FFECCEE0000000020404B
:105AC00023FE204079FC220423FC220423FC220430
:105AD00023FC3A0465FA01980204B3E400000100D3
