:020000040800F2
:1000000018050020490100089B2D0008AF160008C4
:10001000992D0008190700082D3000080000000085
:100020000000000000000000000000009F2D0008FC
:10003000B5080008000000009D2D0008A12D000853
:100040006301000863010008630100086301000800
:1000500063010008630100086301000863010008F0
:1000600063010008630100086301000863010008E0
:1000700063010008630100086301000863010008D0
:1000800063010008630100086301000863010008C0
:1000900063010008630100086301000863010008B0
:1000A00063010008630100086301000863010008A0
:1000B0006301000863010008630100086301000890
:1000C0006301000863010008630100086301000880
:1000D0006301000863010008630100086301000870
:1000E0006301000863010008630100086301000860
:1000F0006301000863010008630100086301000850
:10010000630100086301000863010008630100083F
:10011000630100086301000863010008630100082F
:10012000630100086301000863010008630100081F
:10013000DFF810D000F0DEFA00480047A9380008C8
:10014000AFF30080180500200648804706480047A6
:10015000FEE7FEE7FEE7FEE7FEE7FEE7FEE7FEE777
:10016000FEE7FEE7032E000831010008202A04DB29
:10017000203A21FA02F00021704721FA02F3D04020
:10018000C2F120029140084319467047D2B201E003
:1001900000F8012B491EFBD270470022F6E710B58C
:1001A00013460A4604461946FFF7F0FF204610BDE5
:1001B0002DE9FE4F804681EA0300C00F0C460090F7
:1001C00021F0004123F00045B8EB0200A94105D21F
:1001D0004046214690461C460B46024623F000400E
:1001E000104347D0270DC7F30A00C3F30A5102900A
:1001F000401A019040286BDAC3F3130040F4801BCF
:100200000098924620B10023D2EB030A63EB0B0B5C
:1002100001985946C0F14002504600F051F9064697
:100220000D4650465946019A00F059F910EB080066
:100230006141002487EA115284EAE7731A4340D0EF
:10024000009A62B3019A012A4FEA075215DC001B9B
:1002500061EB02014FF0004202EA0752CDE9004291
:10026000001C41F5801132462B4600F059F903B0CD
:10027000BDE8F08F40462146F9E7001B61EB020123
:10028000001C41F5801300185B412018A2F50017EF
:1002900047EB030140EAD570B6196D4111E06D08D6
:1002A0004FEA360645EAC0754FEA0752001B61EB7C
:1002B0000201001C41F5801149084FEA3000001985
:1002C000514132462B4603B0BDE8F04F00F019B95A
:1002D0000098012240000023D0EB020263EBE073A0
:1002E000009821464FEAE074B8EB000061EB04018E
:1002F000E9E783F000435BE781F0004158E72DE92F
:10030000F04D81EA030404F0004B21F0004514464F
:100310004FF0000A23F0004150EA050220D054EAD1
:1003200001021DD0C5F30A570246C5F31303C1F3FA
:100330001300C1F30A5640F4801543F48013A7EB71
:100340000608101BD64608F2FD3873EB050002D3F1
:1003500008F1010801E092185B41B8F1000F03DADF
:1003600000200146BDE8F08D00204FF480110646C4
:1003700084460EE0171B73EB050705D3121B63EBD6
:10038000050306434CEA010C49084FEA3000921875
:100390005B4150EA0107EDD152EA030012D082EA34
:1003A000040083EA0501084305D0101BAB4106D2C7
:1003B0000122002306E000224FF0004302E06FF02C
:1003C000010253101AEB06004CEB085110EB0A0027
:1003D00041EB0B01BDE8F04D00F093B870B521F092
:1003E000004303430CD0C1F30A550024D5EB0405A8
:1003F00064EB0403D617AD1AB34102DB00200146BB
:1004000070BD201841EB025170BD0EB540F2334172
:1004100002910021CDE900110A460B4600F080F858
:1004200003B000BD70B5C1F30A5201F000450024CD
:10043000C1F3130140F2FF3341F480119A4201DA13
:10044000002070BD40F233439A42A2F2334203DCF3
:100450005242FFF78BFE00E090402C43F1D0404227
:1004600070BDC1F30A5210B5C1F3130140F2FF335E
:1004700041F480119A4201DA002010BD40F233436A
:100480009A42A2F2334203DC5242FFF76FFE10BDE4
:10049000904010BD30B50B460146002020220124BB
:1004A00009E021FA02F59D4205D303FA02F5491B42
:1004B00004FA02F52844151EA2F10102F1DC30BD58
:1004C000202A04DB203A00FA02F100207047914014
:1004D000C2F1200320FA03F3194390407047202A09
:1004E00006DBCB17203A41FA02F043EAE07306E05C
:1004F00041FA02F3D040C2F120029140084319466C
:10050000704710B5141E73F1000408DA401C41F165
:10051000000192185B411A4301D120F0010010BD87
:100520002DE9F04D92469B4611B1B1FA81F202E0FD
:10053000B0FA80F220329046FFF7C2FF04460F4621
:1005400040EA0A0041EA0B0153465A46084313D0D9
:10055000114653EA010019D0C8F140025046FFF796
:1005600005FE05460E46504659464246FFF7A8FF8F
:10057000084305D0012004E020463946BDE8F08D4F
:100580000020054346EAE0762C4337430A9863058A
:10059000E40AA0EB08000022FD0A44EA47540A30AE
:1005A00002D500200146E9E7010510196941DDE99E
:1005B000084500196941BDE8F04DA2E72DE9FE4F5D
:1005C00081EA030404F0004421F0004100944FF05C
:1005D000000B23F0004350EA01045ED052EA03040A
:1005E0005BD0C3F30A54C1F30A552C44A4F2F3348C
:1005F0000194A0FB0254C1F3130141F48011C3F331
:10060000130343F4801301FB024400FB034E840AEE
:10061000970A44EA815447EA8357A4FB0768029586
:100620008D0A05FB07854FEA932C04FB0C54270524
:10063000029D4FEA065847EA1637B5EB08056EEB00
:10064000070C870E920E47EA811742EA8312A7FB36
:100650000201B6EB0B0164EB00042B0D43EA0C33F3
:100660005E1844EB1C50DA465146E7FB0201C5F325
:1006700013044FEA0B3343EA14534FEA0432019C4C
:1006800043EA0603A4F10C040294009CCDE900B4F3
:10069000FFF746FF03B0BDE8F08F00200146F9E701
:1006A0000EB5C10F80EAE0700844CA07002140F28D
:1006B00033438DE80E000A460B46FFF731FF03B0C7
:1006C00000BD000030B5041E71F1000404DB4FF0E2
:1006D0000044404264EB0101141E73F1000405DB89
:1006E0001C464FF00043524263EB04038B4208BFA9
:1006F000824230BD064C074D06E0E06840F0010341
:1007000094E8070098471034AC42F6D3FFF714FD85
:10071000A0520008C0520008FEE7000070B5002497
:1007200000F028F8124D04E0641CE4B2012002F04D
:10073000DFFD1021284600F083FA10B1642CF3D3BA
:100740000FE0642C0DD2002404E0641CE4B201200C
:1007500002F0CEFD1021284600F072FA18B1642C88
:1007600004D3012070BD642CEFD3FAE7002070BDE4
:10077000001001401FB51020009000200190694634
:10078000014800F061F91FBD001001401FB51020A5
:10079000009001200190032003906946014800F079
:1007A00053F91FBD0010014010B500F06BF8BDE813
:1007B0001040FFF7B3BF000070B50024134D04E0F4
:1007C000641CE4B2012002F093FD1021284600F0E1
:1007D00037FA08B1642CF3D3002404E0641CE4B2BB
:1007E000012002F085FD1021284600F029FA08B901
:1007F000642CF3D3282002F07BFD1021284600F062
:100800001FFA002800D0012070BD00000010014038
:1008100070B5002004464006050EFFF7CDFF641CAE
:100820002843E4B2082CF6D370BD2DE9FC410D46F7
:10083000064600F027F8FFF771FF10B10120BDE870
:10084000FC8100246F46FFF7E3FF3855641CE4B2D7
:10085000052CF8D39DF800309DF801209DF802107A
:100860009DF803009C180F183C449DF80470BC428E
:1008700005D102EB03222A8000EB0120308000200A
:10088000DDE7000010B5FFF781FF094C00221021C1
:10089000204600F0DAF9142000F084F8012210213B
:1008A000204600F0D2F9BDE810401E2002F020BD25
:1008B00000100140704772B6FEE7000030B5B3F596
:1008C000804F05D06FF0704140F82210002030BDFD
:1008D0008C690B688D6823434C688989240144EA3C
:1008E0000524234343EA014150F82230014C2340C0
:1008F0001943E9E70000F0CF10B50A6850F822303C
:1009000023F0010340F822308C68082C23D0002308
:100910004A682243CC681C430B6922431A434B6943
:100920000E4C1A43CB691A430B6A1A434B6A1A439B
:100930008B6A1A43CB6A1A430B6B1A438B691343B6
:100940004A6B09681A4350F82130A343134340F817
:100950002130002010BD4023DAE700007FFF0F00A8
:1009600030B5D1E9003443EA04138C688D89240240
:1009700044EA054423430C8A094D00EB820005EB51
:10098000045423430C7D6D0105EB04648969234302
:100990000B43416801F040410B434360002030BDF0
:1009A0000000F0FF70B5044600F054F90546601CE5
:1009B00002D004480078044400F04CF9401BA042E7
:1009C000FAD370BD1400002030B585B0002000902F
:1009D00001900290039017480168002927D1012156
:1009E00001601548416941F4807141614069022408
:1009F00000F48070049041F20100CDE90004032569
:100A0000694603950D4800F01FF84FF68070CDE958
:100A10000004694603950A4800F016F84CF233705A
:100A2000CDE9000469460395064800F00DF805B0CD
:100A300030BD0000000000200010024000200140F6
:100A400000180140001401402DE9F84FDFF8C8916B
:100A50000024A9F1040B23460F2709F1040AABF186
:100A6000040ED1E00125A54006EA0502AA4276D18E
:100A7000DFF8A8C14E68A6EB0C0866452BD00DDC4C
:100A8000032E34D005DC36B3012E19D0022E2FD11F
:100A90001BE0112E16D0122E2AD119E0B8F5881FAE
:100AA00019D006DCB8F5803F15D0B8F5801F1FD1EE
:100AB00011E0B8F5001F0ED0B8F5041F18D10AE0F8
:100AC000CB6815E0CB681B1D12E0CB6808330FE044
:100AD000CB680C330CE08B682BB1012B4FF0080373
:100AE00003D0456104E0042302E0056100E0002337
:100AF000FF2A01D8064601E000F104064FEA84050A
:100B000001D9A5F12005D6F8008007FA05FC28EAEE
:100B10000C0803FA05F548EA0508C6F800804D6898
:100B2000ED0070D53E4DAE6946F00106AE61AD698F
:100B300024F0030605F0010500953A4D06EB050C7F
:100B4000DCF80850A607360F07FA06F825EA08056C
:100B5000DFF8D480404503D14FF0000825E052E093
:100B6000DFF8C880404502D14FF001081DE0DFF8F2
:100B7000C080404502D14FF0020816E0DFF8B48093
:100B8000404502D14FF003080FE0DFF8AC8040454C
:100B900002D14FF0040808E0DFF8A080404502D100
:100BA0004FF0050801E04FF0060808FA06F848EA99
:100BB0000508CCF808804D68D9F80060ED024D4674
:100BC00001D5164300E096432E604D68DAF80060C8
:100BD000AD02554601D5164300E096432E604D68A0
:100BE000DBF80060AD035D4601D5164300E0964397
:100BF0002E604D68DEF80060ED03754601D51643A2
:100C000000E096432E60641C0A681646E2407FF4BA
:100C100029AFBDE8F88F0000080401400000111062
:100C2000001002400000014000080140000C01409B
:100C3000001001400014014000180140001C014058
:100C40008068084000D0012070470AB101617047F8
:100C50000904FBE701488068704700001400002089
:100C600002488168027811448160704714000020B6
:100C7000074810B5016841F010010160032000F041
:100C800067F80F2000F006F800F024F8002010BDEF
:100C90000020024070B50D4D04464FF47A7128785B
:100CA000B1FBF0F00A490968B1FBF0F000F002FB7B
:100CB00048B9102C07D200222146501E00F028F817
:100CC00000206C6070BD012070BD00001400002089
:100CD000200000200C4808B5816941F001018161C4
:100CE000816901F001010091C16941F08051C16148
:100CF000C06900F0805000900448416821F0E06134
:100D000041F00071416008BD001002400000014048
:100D1000F0B40E4B1B680C46C3F30223C3F1070566
:100D2000042D00D90425191D072901D2002300E054
:100D3000DB1E012606FA05F1491E214099409E401E
:100D4000761E16403143F0BC02F096B90CED00E07F
:100D5000064900F0070208684FF6FF03184040EA12
:100D60000220034A10430860704700000CED00E0C9
:100D70000000FA052DE9F0470F46050061D0434E0B
:100D8000306800F00700B84209D2306820F0070050
:100D900038433060306800F00700B84251D128680D
:100DA0003B4C810712D5400703D5606840F4E060F2
:100DB00060602878000703D5606840F46050606088
:100DC0006068A96820F0F000084360602878C007D8
:100DD00028D06868012810D02168022810D089071F
:100DE00000292EDA616821F0030101436160FFF7F9
:100DF00031FF804641F288390DE021688903EFE731
:100E00008901EDE7FFF726FFA0EB0801494502D96C
:100E10000320BDE8F0876068696800F00C00B0EB63
:100E2000810FEFD1306800F00700B8420BD930686D
:100E300020F0070038433060306800F00700B84207
:100E400001D00120E5E72878400705D56068E9680A
:100E500020F4E060084360602878000706D56068E9
:100E6000296920F4605040EAC100606000F038F861
:100E70006168084AC1F30311515CC8400649086023
:100E800006480068FFF706FF0020C2E70020024086
:100E900000100240465200082000002018000020E8
:100EA0000448054900684968044AC1F30221515CBD
:100EB000C840704720000020001002405652000831
:100EC0000448054900684968044AC1F3C221515CDD
:100ED000C840704720000020001002405652000811
:100EE0000E4A51680E4801F00C03042B11D0082B58
:100EF0000FD10C48C1F38343C903C05C0AD55168C4
:100F0000084AC1F34041921E515C054A5043B0FB70
:100F1000F1F0704704494843704700000010024058
:100F200000127A003652000800093D002DE9F84F02
:100F3000040070D02078C04DC00749D06868C0F365
:100F40008100012807D06868C0F38100022809D118
:100F50006868C00306D52868800339D56068002812
:100F6000E7D035E06068B0F5803F0BD010B1B0F548
:100F7000A02F11D0286820F480302860286820F441
:100F8000802002E0286840F480302860606890B1DA
:100F9000FFF760FE06460AE0286840F480202860DB
:100FA000F0E700BFFFF756FE801B642873D828685F
:100FB0008003F7D50CE0FFF74DFE064605E000BFC5
:100FC000FFF748FE801B6428F0D828688003F7D418
:100FD00020789A4E80074FF001094FF0000839D56C
:100FE000686810F00C0F07D06868C0F38100022811
:100FF00009D16868C00306D42868800714D5206921
:10100000012808D110E02069B0B1C6F80090FFF7C0
:1010100021FE074605E00AE1FFF71CFEC01B02287F
:10102000C4D828688007F7D52868616920F0F800DF
:1010300040EAC10028600DE0C6F80080FFF70AFE14
:10104000074604E0FFF706FEC01B022823D82868E5
:101050008007F7D4207800072CD57948A169D9B149
:10106000C0F80090FFF7F6FD074604E0FFF7F2FD39
:10107000C01B02280FD8686A8007F7D571484FF463
:10108000FA510068B0FBF1F0009000BF0098411EDB
:101090000091FAD20EE080E0C0F80080FFF7DAFDA0
:1010A000074604E0FFF7D6FDC01B022875D8686A22
:1010B0008007F7D42078400760D5E8690027C00092
:1010C00008D4E86940F08050E861E869012700F041
:1010D000805000905C480168C90513D401688346BC
:1010E00041F480710160FFF7B5FD824606E000BF64
:1010F000FFF7B0FDA0EB0A0064284ED8DBF8000033
:10110000C005F5D5E06801280AD008B1052813D03C
:10111000286A20F001002862286A20F0040002E01A
:10112000286A40F001002862E06841F2883B98B1EB
:10113000FFF790FD82460BE0286A40F00400286229
:10114000EEE700BFFFF786FDA0EB0A0159455AD82C
:10115000286A8007F6D50CE0FFF77CFD824605E0A3
:10116000FFF778FDA0EB0A0159454CD8286A8007A3
:10117000F6D41FB1E86920F08050E861E06988B3D7
:101180006968C1F38101022944D00228C6F8608051
:1011900004D0FFF75FFD044638E034E0FFF75AFD66
:1011A000074604E0FFF756FDC01B02282BD828682D
:1011B0008001F7D4206AB0F5803F05D16868A16846
:1011C00020F4003008436860D4E9080108436968E6
:1011D00021F4741108436860C6F86090FFF73AFD87
:1011E000044606E025E000BFFFF734FD001B02289F
:1011F00009D828688001F7D51BE000BFFFF72AFD5A
:10120000001B022802D90320BDE8F88F286880015E
:10121000F4D40EE00128F7D06868226A00F4803127
:10122000914204D1616A00F47010884201D001201B
:10123000EAE70020E8E70000001002400000424218
:1012400080044242200000200070004070B5154626
:101250000E46040007D0A069B0F5807F03D094F853
:10126000410010B107E0012070BD002084F840006B
:10127000204600F01DF804F108012068FFF73CFB50
:101280003146A2682068FFF76BFBD4E901022946CA
:10129000236BFFF713FBA168206850F8212042F070
:1012A000010240F82120012084F84100002070BD97
:1012B000FFF78ABB10B5401EB0F1807F01D301203B
:1012C00010BD4FF0E02460610F21601701F0D4FEE3
:1012D0000020A06107202061002010BD70B590F8AB
:1012E0003C20012A2CD0012480F83C40022280F8C6
:1012F0003D2003685A689D6822F070060A683243F0
:101300005A60104B02689A420ED00F4B9A420BD093
:10131000B2F1804F08D00D4B9A4205D00C4B9A4247
:1013200002D00C4B9A4204D1496825F0800319433E
:10133000916080F83D40002180F83C10084670BD67
:10134000022070BD002C0140003401400004004028
:1013500000080040000C004010B5040003D094F8D1
:101360003D0010B107E0012010BD002084F83C00D2
:10137000204600F01FF8022084F83D00211D20685F
:1013800001F040FD012084F8460084F83E0084F816
:101390003F0084F8400084F8410084F8420084F85B
:1013A000430084F8440084F8450084F83D000020A0
:1013B00010BD000008B50068B0F1804F08D10548A5
:1013C000C16941F00101C161C06900F001000090F4
:1013D00008BD00000010024090F83D10012901D026
:1013E00001207047022180F83D1000680E498842B4
:1013F0000ED00E4988420BD0B0F1804F08D00C4976
:10140000884205D00B49884202D00B49884204D15A
:10141000816801F00701062903D0016841F001014C
:101420000160002070470000002C014000340140A2
:101430000004004000080040000C004001680A6AF7
:1014400041F211131A4207D10A6A9B101A4203D1C2
:101450000A6822F001020A60012180F83D10002094
:10146000704770B5044690F83C000025012817D05D
:10147000012684F83C60022084F83D0020688268E0
:1014800022F0770222F47F4282600868502838D028
:101490000DDC20284FD005DC90B3102811D14AE094
:1014A000022070BD302846D040280AD13BE0602899
:1014B0002FD070280DD0B0F5805F03D0B0F5005F5D
:1014C00012D0012584F83D60002084F83C002846B5
:1014D00070BDCB68D1E90121206801F0D9FC2068FA
:1014E000816841F0770109E0CB68D1E901212068EA
:1014F00001F0CEFC2068816841F480418160E1E721
:1015000019E0CA684968206801F0D4FC50212068BD
:1015100006E0CA684968206801F0DDFC60212068A7
:1015200001F0C0FCCEE7CA684968206801F0C2FC3F
:1015300040212068F4E7226801461046F0E770B5C4
:10154000040004D094F84100002510B106E0012009
:1015500070BD84F84050204600F024F8242084F820
:1015600041002068C16821F40051C160204601F0AB
:10157000C5FC2068016921F490410161206841693E
:1015800021F02A0141612068C16841F40051C16025
:101590006564202084F8410084F8420065630020DF
:1015A00070BD000030B585B0002400940194029411
:1015B000039400681449884224D11448816941F495
:1015C00080418161816901F480410491816941F028
:1015D0000401816180690E4D00F0040004904FF415
:1015E0000070009002200190032003906946284675
:1015F000FFF72AFA2815CDE9000469462846029427
:10160000FFF722FA05B030BD00380140001002405B
:10161000000801402DE9F843044690F841001F46B8
:1016200016460D46202802D00220BDE8F8837DB181
:1016300076B100206064212084F84100FFF70AFBA6
:10164000A6848046E684A068B0F5805F02D003E0FF
:101650000120EAE7206910B12E4600250EE00026A1
:101660000CE08021204601F0A5FCA0B9AEB116F82F
:10167000010B21684860E08C401EE084E08C43460A
:101680004FF0000200970028EBD14FF040012046B8
:1016900001F090FC30B10320C7E735F8020BC0F32E
:1016A0000800E6E7202084F841000020BDE7FEE7BF
:1016B00070B509490646002408884D8821464543EF
:1016C000204601F03FF901F0FFF9044801E00680EF
:1016D000641CAC42FBD370BD040100200008006C08
:1016E000064881880648A1F5AA42103A02D029216D
:1016F000018070474FF42451FAE7000004010020F4
:10170000FE07006C2DE9F04F2B492C260A46887104
:1017100092884FF4305A4FF4285B4FF4487541F6E5
:10172000631E2B274FF02A0C4FF0F00845F210599A
:101730004FF4A0744FF4F073B8B10C80A1F802809C
:101740004A4532D1A1F808A0A1F80AB03802888130
:101750000D804B80A2F5A640103801D10B804C8043
:10176000BDE8F04F002001F087B8A1F800804C8060
:101770004A4507D1A1F808A0A1F80AB04FF42C50AF
:10178000888105E072450E8105D14F81A1F80CC01A
:101790000B804D8002E0A1F80AC08F81A2F5A6401F
:1017A0001038DDD10C804B80DAE70E81A1F80AC039
:1017B00072458F81CCD0CDE704010020F0B5094DF2
:1017C00009482C46AE88831CA489A6F5AA47103F79
:1017D00000D1641C0480C9B21980298901801A8053
:1017E000F0BD000004010020FE07006C2DE9F05F51
:1017F0003220FFF7D7F8FF4CD320A51C2080288883
:101800004FF6FF78FC4E08EA0021084349F2413ABE
:10181000B08047F2897745F2103945F2105B5045A8
:1018200041D004212180A0F505414346B0805239C2
:1018300044D0B84237D0D4212180B080484532D03E
:1018400055214FF4704001F049F9AA214FF20100EF
:1018500001F044F952214FF2020001F03FF9082152
:101860004FF2030001F03AF901214FF2040001F0B8
:1018700035F928884CF2015203EA002122800843FE
:10188000B08098463220FFF78DF8B18859450AD0CC
:10189000A1202080288808EA00210843A0F5AE4155
:1018A000B08061390CD0B08850450DD1EF20288030
:1018B000112020807820FFF775F80EE0B78005E052
:1018C00041F66310B080FCE3B84208D111202080BB
:1018D0007820FFF767F83F2028802920F2E3484569
:1018E0000AD155202880112020806420FFF75AF863
:1018F000822028802C20F1E758457DD14FF4704993
:101900005521484601F0EAF84FF20103AA21184692
:1019100001F0E4F84FF202065221304601F0DEF801
:10192000751C0821284601F0D9F86F1C01213846A2
:1019300001F0D4F80D214FF4304001F0CFF80D2123
:101940004BF2010001F0CAF80D214BF2020001F048
:10195000C5F84FF4364A3421504601F0BFF834211F
:101960004BF2016001F0BAF834214BF2026001F051
:10197000B5F84FF4314B0D21584601F0AFF80D2169
:101980004BF2011001F0AAF80D214BF2021001F008
:10199000A5F834214FF4374001F0A0F834214BF280
:1019A000017001F09BF834214BF2027001F096F8BF
:1019B00000214FF4324001F091F800214BF2012058
:1019C00001F08CF800214BF2022001F087F824216D
:1019D0004FF4384001F082F824214BF6010001F069
:1019E0007DF824214BF6020001F078F801214FF434
:1019F0003F4001F073F800E0FEE30F214FF4334065
:101A000001F06CF80F214BF2013001F067F80F2163
:101A10004BF2023001F062F834214FF4394001F00A
:101A20005DF834214BF6011001F058F834214BF6E3
:101A3000021001F053F808214FF4354001F04EF840
:101A400008214BF2015001F049F808214BF20250F5
:101A500001F044F803214FF4424001F03FF8242103
:101A60004FF43A4001F03AF824214BF6012001F0FE
:101A700035F824214BF6022001F030F800214FF414
:101A80003C4001F02BF878214BF6014001F026F89C
:101A900000214BF6024001F021F800214FF43D40B7
:101AA00001F01CF878214BF6015001F017F80021E5
:101AB0004BF6025001F012F800214FF43E4001F0C5
:101AC0000DF864214BF6016001F008F800214FF495
:101AD000514001F003F833214DF2011000F0FEFFF8
:101AE00000214DF2021000F0F9FF34214DF20310F5
:101AF00000F0F4FF00214DF2041000F0EFFF3A2156
:101B00004DF2051000F0EAFF00214DF2061000F042
:101B1000E5FF4A214DF2071000F0E0FF00214DF2F1
:101B2000081000F0DBFF5C214DF2091000F0D6FF39
:101B300000214DF20A1000F0D1FF81214DF20B106F
:101B400000F0CCFF00214DF20C1000F0C7FFA621E1
:101B50004DF20D1000F0C2FF00214DF20E1000F00A
:101B6000BDFFE5214DF20F1000F0B8FF01214DF24D
:101B7000101000F0B3FF13214DF2111000F0AEFF72
:101B800001214DF2121000F0A9FF54214DF2131063
:101B900000F0A4FF01214DF2141000F09FFF8221FC
:101BA0004DF2151000F09AFF01214DF2161000F0D1
:101BB00095FFCA214DF2171000F090FF02214DF25F
:101BC000181000F08BFF00214DF2191000F086FF75
:101BD00002214DF21A1000F081FF01214DF21B107D
:101BE00000F07CFF02214DF21C1000F077FF342141
:101BF00004E00000FE07006C040100204DF21D10FF
:101C000000F06CFF02214DF21E1000F067FF67210B
:101C10004DF21F1000F062FF02214DF2201000F083
:101C20005DFF84214DF2211000F058FF02214DF29A
:101C3000221000F053FFA4214DF2231000F04EFFBC
:101C400002214DF2241000F049FFB7214DF225107A
:101C500000F044FF02214DF2261000F03FFFCF219B
:101C60004DF2271000F03AFF02214DF2281000F04B
:101C700035FFDE214DF2291000F030FF02214DF238
:101C80002A1000F02BFFF2214DF22B1000F026FF5E
:101C900002214DF22C1000F021FFFE214DF22D10FB
:101CA00000F01CFF03214DF22E1000F017FF102151
:101CB0004DF22F1000F012FF03214DF2301000F012
:101CC0000DFF33214DF2311000F008FF03214DF2DA
:101CD000321000F003FF6D214DF2331000F0FEFED4
:101CE00000214FF4524000F0F9FE33214DF2012063
:101CF00000F0F4FE00214DF2022000F0EFFE34214E
:101D00004DF2032000F0EAFE00214DF2042000F025
:101D1000E5FE3A214DF2052000F0E0FE00214DF2F3
:101D2000062000F0DBFE4A214DF2072000F0D6FE2F
:101D300000214DF2082000F0D1FE5C214DF2092077
:101D400000F0CCFE00214DF20A2000F0C7FE8121F8
:101D50004DF20B2000F0C2FE00214DF20C2000F0ED
:101D6000BDFEA6214DF20D2000F0B8FE00214DF27F
:101D70000E2000F0B3FEE5214DF20F2000F0AEFE84
:101D800001214DF2102000F0A9FE13214DF2112087
:101D900000F0A4FE01214DF2122000F09FFE54211C
:101DA0004DF2132000F09AFE01214DF2142000F0B4
:101DB00095FE82214DF2152000F090FE01214DF29A
:101DC000162000F08BFECA214DF2172000F086FE8F
:101DD00002214DF2182000F081FE00214DF2192061
:101DE00000F07CFE02214DF21A2000F077FE012166
:101DF0004DF21B2000F072FE02214DF21C2000F07B
:101E00006DFE34214DF21D2000F068FE02214DF2DE
:101E10001E2000F063FE67214DF21F2000F05EFEE1
:101E200002214DF2202000F059FE84214DF22120A4
:101E300000F054FE02214DF2222000F04FFEA421BA
:101E40004DF2232000F04AFE02214DF2242000F042
:101E500045FEB7214DF2252000F040FE02214DF253
:101E6000262000F03BFECF214DF2272000F036FE69
:101E700002214DF2282000F031FEDE214DF2292012
:101E800000F02CFE02214DF22A2000F027FEF22164
:101E90004DF22B2000F022FE02214DF22C2000F00A
:101EA0001DFEFE214DF22D2000F018FE03214DF203
:101EB0002E2000F013FE10214DF22F2000F00EFE18
:101EC00003214DF2302000F009FE33214DF2312084
:101ED00000F004FE03214DF2322000F0FFFD6D21E1
:101EE0004DF2332000F0FAFD00214FF4534000F092
:101EF000F5FD33214DF2013000F0F0FD00214DF2EF
:101F0000023000F0EBFD34214DF2033000F0E6FD2D
:101F100000214DF2043000F0E1FD3A214DF2053090
:101F200000F0DCFD00214DF2063000F0D7FD4A2123
:101F30004DF2073000F0D2FD00214DF2083000F0E4
:101F4000CDFD5C214DF2093000F0C8FD00214DF2BD
:101F50000A3000F0C3FD81214DF20B3000F0BEFDD0
:101F600000214DF20C3000F0B9FDA6214DF20D30EC
:101F700000F0B4FD00214DF20E3000F0AFFDE52180
:101F80004DF20F3000F0AAFD01214DF2103000F0AB
:101F9000A5FD13214DF2113000F0A0FD01214DF2FD
:101FA000123000F09BFD54214DF2133000F096FDED
:101FB00001214DF2143000F091FD82214DF21530D7
:101FC00000F08CFD01214DF2163000F087FDCA2192
:101FD0004DF2173000F082FD02214DF2183000F072
:101FE0007DFD00214DF2193000F078FD02214DF207
:101FF0001A3000F073FD01214DF21B3000F06EFD30
:1020000002214DF21C3000F069FD34214DF21D30EB
:1020100000F064FD02214DF21E3000F05FFD6721EB
:102020004DF21F3000F05AFD02214DF2203000F039
:1020300055FD84214DF2213000F050FD02214DF27A
:10204000223000F04BFDA4214DF2233000F046FD7C
:1020500002214DF2243000F041FDB7214DF2253030
:1020600000F03CFD02214DF2263000F037FDCF217B
:102070004DF2273000F032FD02214DF2283000F001
:102080002DFDDE214DF2293000F028FD02214DF218
:102090002A3000F023FDF2214DF22B3000F01EFD1E
:1020A00002214DF22C3000F019FDFE214DF22D30B1
:1020B00000F014FD03214DF22E3000F00FFD102131
:1020C00001E0A5E39EE34DF22F3000F007FD032170
:1020D0004DF2303000F002FD33214DF2313000F08E
:1020E000FDFC03214DF2323000F0F8FC6D214DF281
:1020F000333000F0F3FC00214FF4544000F0EEFCCC
:1021000033214DF2014000F0E9FC00214DF2024084
:1021100000F0E4FC34214DF2034000F0DFFC00212C
:102120004DF2044000F0DAFC3A214DF2054000F097
:10213000D5FC00214DF2064000F0D0FC4A214DF2C2
:10214000074000F0CBFC00214DF2084000F0C6FC37
:102150005C214DF2094000F0C1FC00214DF20A4023
:1021600000F0BCFC81214DF20B4000F0B7FC0021D7
:102170004DF20C4000F0B2FCA6214DF20D4000F0F3
:10218000ADFC00214DF20E4000F0A8FCE5214DF21F
:102190000F4000F0A3FC01214DF2104000F09EFC26
:1021A00013214DF2114000F099FC01214DF2124033
:1021B00000F094FC54214DF2134000F08FFC0121FB
:1021C0004DF2144000F08AFC82214DF2154000F0DF
:1021D00085FC01214DF2164000F080FCCA214DF231
:1021E000174000F07BFC02214DF2184000F076FC15
:1021F00000214DF2194000E006E300F06FFC0221DF
:102200004DF21A4000F06AFC01214DF21B4000F033
:1022100065FC02214DF21C4000F060FC34214DF2BF
:102220001D4000F05BFC02214DF21E4000F056FC08
:1022300067214DF21F4000F051FC02214DF2204079
:1022400000F04CFC84214DF2214000F047FC0221BB
:102250004DF2224000F042FCA4214DF2234000F058
:102260003DFC02214DF2244000F038FCB7214DF234
:10227000254000F033FC02214DF2264000F02EFCF8
:10228000CF214DF2274000F029FC02214DF22840D9
:1022900000F024FCDE214DF2294000F01FFC022159
:1022A0004DF22A4000F01AFCF2214DF22B4000F0D2
:1022B00015FC02214DF22C4000F010FCFE214DF2E5
:1022C0002D4000F00BFC03214DF22E4000F006FCE7
:1022D00010214DF22F4000F001FC03214DF230405F
:1022E00000F0FCFB33214DF2314000F0F7FB0321FD
:1022F0004DF2324000F0F2FB6D214DF2334000F020
:10230000EDFB00214FF4554000F0E8FB33214DF286
:10231000015000F0E3FB00214DF2025000F0DEFB23
:1023200034214DF2035000F0D9FB00214DF204504E
:1023300000F0D4FB3A214DF2055000F0CFFB002114
:102340004DF2065000F0CAFB4A214DF2075000F052
:10235000C5FB00214DF2085000F0C0FB5C214DF29E
:10236000095000F0BBFB00214DF20A5000F0B6FB13
:1023700081214DF20B5000F0B1FB00214DF20C50C9
:1023800000F0ACFBA6214DF20D5000F0A7FB0021A0
:102390004DF20E5000F0A2FBE5214DF20F5000F07F
:1023A0009DFB01214DF2105000F098FB13214DF2DE
:1023B000115000F093FB01214DF2125000F08EFB02
:1023C00054214DF2135000F089FB01214DF21450BD
:1023D00000F084FB82214DF2155000F07FFB0121BB
:1023E0004DF2165000F07AFBCA214DF2175000F062
:1023F00075FB02214DF2185000F070FB00214DF2E8
:10240000195000F06BFB02214DF21A5000F066FBF0
:1024100001214DF21B5000F061FB02214DF21C50D6
:1024200000F05CFB34214DF21D5000F057FB0221FF
:102430004DF21E5000F052FB67214DF21F5000F08C
:102440004DFB02214DF2205000F048FB84214DF25B
:10245000215000F043FB02214DF2225000F03EFBE0
:10246000A4214DF2235000F039FB02214DF22450FB
:1024700000F034FBB7214DF2255000F02FFB022174
:102480004DF2265000F02AFBCF214DF2275000F0EC
:1024900025FB02214DF2285000F020FBDE214DF2F9
:1024A000295000F01BFB02214DF22A5000F016FBD0
:1024B000F2214DF22B5000F011FB02214DF22C5075
:1024C00000F00CFBFE214DF22D5000F007FB032124
:1024D0004DF22E5000F002FB10214DF22F5000F073
:1024E000FDFA03214DF2305000F0F8FA33214DF29D
:1024F000315000F0F3FA03214DF2325000F0EEFAC1
:102500006D214DF2335000F0E9FA00214FF45640AE
:1025100000F0E4FA33214DF2016000F0DFFA00210F
:102520004DF2026000F0DAFA34214DF2036000F05F
:10253000D5FA00214DF2046000F0D0FA3A214DF2B4
:10254000056000F0CBFA00214DF2066000F0C6FAFB
:102550004A214DF2076000F0C1FA00214DF20860F7
:1025600000F0BCFA5C214DF2096000F0B7FA0021DE
:102570004DF20A6000F0B2FA81214DF20B6000F0DA
:10258000ADFA00214DF20C6000F0A8FAA6214DF240
:102590000D6000F0A3FA00214DF20E6000F09EFAEB
:1025A000E5214DF20F6000F099FA01214DF2106023
:1025B00000F094FA13214DF2116000F08FFA01211E
:1025C0004DF2126000F08AFA54214DF2136000F0CF
:1025D00085FA01214DF2146000F080FA82214DF25B
:1025E000156000F07BFA01214DF2166000F076FADA
:1025F000CA214DF2176000F071FA02214DF2186005
:1026000000F06CFA00214DF2196000F067FA022127
:102610004DF21A6000F062FA01214DF21B6000F0E9
:102620005DFA02214DF21C6000F058FA34214DF29F
:102630001D6000F053FA02214DF21E6000F04EFAC8
:1026400067214DF21F6000F049FA02214DF220602F
:1026500000F044FA84214DF2216000F03FFA02219B
:102660004DF2226000F03AFAA4214DF2236000F00E
:1026700035FA02214DF2246000F030FAB7214DF214
:10268000256000F02BFA02214DF2266000F026FAB8
:10269000CF214DF2276000F021FA02214DF228608F
:1026A00000F01CFADE214DF2296000F017FA022139
:1026B0004DF22A6000F012FAF2214DF22B6000F088
:1026C0000DFA02214DF22C6000F008FAFE214DF2C5
:1026D0002D6000F003FA03214DF22E6000F0FEF9A8
:1026E00010214DF22F6000F0F9F903214DF2306016
:1026F00000F0F4F933214DF2316000F0EFF90321DD
:102700004DF2326000F0EAF96D214DF2336000F0D5
:10271000E5F95521484600F0E1F9AA21184600F0F4
:10272000DDF95221304600F0D9F90821284600F0A1
:10273000D5F90021384600F0D1F9CC21584600F0F7
:10274000CDF900214BF2011000F0C8F905215046E7
:1027500000F0C4F970214FF4374000F0BFF9702148
:102760004BF2017000F0BAF901214FF4384000F04B
:10277000B5F903214BF6010000F0B0F903214BF647
:10278000020000F0ABF903214BF6030000F0A6F9BC
:1027900002214FF43C4000F0A1F900214BF601402A
:1027A00000F09CF900214BF6024000F097F9D0218F
:1027B0004FF4494000F092F902214CF6011000F06C
:1027C0008DF950214CF6021000F088F950214CF69A
:1027D000031000F083F950214CF6041000F07EF94C
:1027E00000214FF4545000F079F955214FF468500E
:1027F00000F074F94FF4885020800120FEF7D2F8E1
:102800004FF42450208024E0A0F5C851633920D132
:10281000E2202080042028800120FEF7C3F8E02079
:102820002080012028800A20FEF7BCF8E0202080CC
:10283000032028800C20FEF7B5F8012020800A2014
:10284000FEF7B0F8BA20208001202880642000F034
:1028500009F80020FEF756FF4046BDE8F05FFEF79E
:1028600027BF00000349BE200880891C0020088083
:1028700070470000FE07006C70B5304B002419460D
:102880009A79898841F66316012A01D01AB10CE0C1
:10289000B14202D109E0B14207D1082805D2DFE8F0
:1028A00000F0161812140C19100E082812D2DFE8C6
:1028B00000F0110406080A0C0E1080240AE04024DF
:1028C00008E0C02406E0202404E0602402E0A02404
:1028D00000E0E02445F21055A94202D14FF45850CF
:1028E00000E03620A1F51342413A03D0A1F5EE42B3
:1028F000893A01D144F00804214600F0EFF89A88A3
:10290000B2420AD0A0061888598802D5884202D35C
:1029100003E0884201D919805880094998898C1CA4
:10292000AA4205D19A78C01C0880521ED0B203E09A
:1029300008809878401EC0B2208070BD040100203D
:10294000FE07006CF0B5144D144C2E46AF88B389C9
:10295000A21C7689A7F5C85CBCF1630C04D0A7F56E
:10296000AA40103812D012E00B49AF79098847B15C
:10297000491E2680C8B210802380A878401EC0B2AD
:1029800007E0081A401E2680C0B2F4E75B1C2380D3
:10299000C8B21080F0BD000004010020FE07006CEA
:1029A0002DE9FF4F1D460C468A46580700D00120EE
:1029B00000EBD50069084843203A00F0FF09D0B287
:1029C0000026DFF89CB0029046E00C2D12D0102DAE
:1029D00015D0182D42D10298224900EBC00000BF4B
:1029E00001EB80004FF00008875D38060CD51E48CB
:1029F00000880DE002981D4900EB4000F0E71C49FB
:102A0000029801EB0010EDE70D9830B91648808868
:102A1000214682B20098FEF7D1FE7806070E641CAC
:102A2000BBF80200A4B2A04218D9A4EB0A00A84245
:102A300009D100985446401C80B20090BBF80010A9
:102A400081420BD906E008F1010000F0FF08B8F15F
:102A5000080FCAD3761CF6B24E45B6D3BDE8FF8F39
:102A600004010020D84400080C000020743A00083B
:102A7000E83E00082DE9F84F044600F0FF09101960
:102A80000D46DDE90AB61FFA80F8581987B24FF0F3
:102A9000000A12E0444503D305EB0B004C4685B217
:102AA000BD420FD25B4629462046CDF800A0FFF775
:102AB00077FF04EB5B0084B2761C3278A2F1200031
:102AC0005E28E7D9BDE8F88F0248034900890880ED
:102AD0007047000004010020FE07006C024A1080CD
:102AE000901C018070470000FE07006C10B58EB08E
:102AF0001C216846FDF751FB1C2107A8FDF74DFB83
:102B00001C484FF02041102201601B494160062102
:102B100081600021C160C0E904128161C1611302BA
:102B20000162C0E909139302C0E90B134163816399
:102B3000022000900F20CDE9010203AC112384E8AC
:102B40000E0004240691CDE9074009AC092084E871
:102B50000F000D9107AA69460648FEF777FB08B1FA
:102B6000FDF7A9FE0548C16941F48061C1610EB05D
:102B700010BD00002C000020040100A00000014056
:102B80002DE9F04F85B00026564800960196029632
:102B90000396816941F040018161816901F0400142
:102BA0000491816941F010018161816901F0100196
:102BB0000491816941F080018161816901F08001A6
:102BC0000491816941F004018161816901F004018E
:102BD0000491816941F008018161816901F0080176
:102BE0000491816941F480718161816901F480718E
:102BF0000491816941F0200181618069DFF8E890EA
:102C000000F020000490002220214846FEF71DF825
:102C1000DFF8D8A04FF48078002241465046FEF7F6
:102C200014F8DFF8CCB000220F215846FEF70DF85B
:102C3000002230212F48FEF708F8002221212E48DB
:102C4000FEF703F81820CDE9000601246946029436
:102C50004846FDF7F9FE2027CDE9007402256946B4
:102C60004846CDE90245FDF7EFFECDF8008003951B
:102C7000CDE9014669465046FDF7E6FE0F20039573
:102C80008DE8510069465846FDF7DEFEF020CDE99B
:102C90000006694602945846FDF7D6FE10200395BB
:102CA0008DE8510069461348FDF7CEFECDE900746A
:102CB00069461048CDE90245FDF7C6FE0094CDE90E
:102CC000014569460C480395FDF7BEFECDE9007449
:102CD00069460948CDE90245FDF7B6FE05B0BDE8F5
:102CE000F08F00000010024000180140001C01405D
:102CF0000008014000100140000C014010B586B0F2
:102D000000241648009401940294039404944FF014
:102D10008041059401604721C0E901144FF6FF711D
:102D2000C0E903148461FEF717FB08B1FDF7C3FD8A
:102D30004FF48050009069460848FEF792FB08B1B6
:102D4000FDF7B9FD049404A904480594FEF7C6FAFA
:102D5000002801D0FDF7AFFD06B010BD74000020C3
:102D60000C4810B50A4901604FF4E131416000217F
:102D700081600C22C160C0E904128161C161FEF76B
:102D8000DEFB002803D0BDE81040FDF794BD10BD68
:102D900000380140BC000020FEE7FEE770477047A6
:102DA000FDF75EBF30B58FB028216846FDF7F5F915
:102DB00014210AA8FDF7F1F901210804CDE900105A
:102DC0000024029402250491CDE907504FF4E0104D
:102DD00009906846FEF7AAF808B172B6FEE70F2020
:102DE000CDE90A054FF48060CDE90C4002210AA824
:102DF0000E94FDF7BFFF002801D072B6FEE70FB0BA
:102E000030BD7047F0B502681C4B1D4D1D4E1E4F66
:102E10001E4C4FF0804C984209D0A04207D060452C
:102E200005D0A84203D0B04201D0B84204D122F06C
:102E3000700E4A6842EA0E02984209D0A04207D0BA
:102E4000604505D0A84203D0B04201D0B84203D1BA
:102E500022F44075CA682A434D6922F080022A4351
:102E600002608A68C2620A688262984201D0A04207
:102E700001D10969016301214161F0BD002C0140CC
:102E80000004004000080040000C004000340140F5
:102E900010B5846842EA032224F47F440A432243A3
:102EA000826010BD826822F070020A4342F007017E
:102EB0008160704710B5036A046A24F0010404625B
:102EC000846924F0F00444EA021423F00A020A435D
:102ED0008461026210BD10B5036A046A24F0100414
:102EE0000462846923F0A00324F4704444EA0232AB
:102EF00043EA01118261016210BD000070B5044611
:102F000000680169E26821F44051114301612169BF
:102F1000A0680843616908432168CA6841F20C63EC
:102F20009A430243CA6020684169A26921F4407152
:102F3000114341611E492068884202D1FDF7C0FF5C
:102F400001E0FDF7ADFF00EBC00101EB001260688E
:102F500064218000B2FBF0F3B3FBF1F36FF01806CD
:102F60007343B2FBF0F5B2FBF0F605EB83053223B9
:102F700003EB0515B5FBF1F5B6FBF1F605F0F00531
:102F800005EB0615B2FBF0F6B2FBF0F0B0FBF1F08A
:102F90006FF01802504306EB800003EB0010B0FB0B
:102FA000F1F0216800F00F002844886070BD000037
:102FB000003801402DE9F041984617460E46044678
:102FC000069D27E0681C25D02DB1FDF743FEA0EB40
:102FD0000800A8421ED920680C3050E8001F21F4D8
:102FE000D07140E80012002AF5D12068143050E872
:102FF000001F21F0010140E80012002AF5D1202035
:1030000084F8410084F84200002084F84000032046
:10301000BDE8F0812068006836EA000004D0002096
:10302000B842CFD00020F3E70120F9E7FEE7000027
:103030000FB4054B10B503A9044A029800F0A8F894
:1030400010BC5DF814FB00002133000824000020B0
:103050000FB4084B10B504A902AA039800F098F821
:10306000044602A9002000F03DF9204610BC5DF89E
:1030700014FB0000E53200080907090E002804DBF4
:1030800000F1E02080F80014704700F00F0000F11C
:10309000E02080F8141D70472DE9F0414F1E00EB31
:1030A000C7010446D1E9000115461E4637F0060265
:1030B0000DD02A463346FDF781FA7F1E04EBC70385
:1030C000D3E90023FDF774F837F00602F1D1022F9F
:1030D00025D0042F13D0062F18BFBDE8F0812A4653
:1030E0003346FDF76BFAD4E90A23FDF761F82A4667
:1030F0003346FDF763FAD4E90823FDF759F82A4669
:103100003346FDF75BFAD4E90623FDF751F82A466A
:103110003346FDF753FAD4E90423FDF749F82A466C
:103120003346FDF74BFAD4E90223FDF741F82A466E
:103130003346FDF743FAD4E90023BDE8F041FDF73B
:1031400037B800000022134610460149FDF7D7B8F2
:103150000000F03F0122FDF741B90022134610465E
:103160001146FDF7CCB802E008C8121F08C1002ABA
:10317000FAD170477047002001E001C1121F002AF8
:10318000FBD170470149086070470000280000200B
:103190002DE9FF4F89B09B460446002506E025280F
:1031A0000BD05A460B999047641C6D1C2078002860
:1031B000F5D10DB02846BDE8F08F0027B8460122B2
:1031C000474900E0074314F8013F203B02FA03F0AF
:1031D0000842F7D120782E2819D114F8010F47F0B2
:1031E00004072A280ED06FF02F022078A0F13001BA
:1031F00009290CD808EB880102EB410100EB01081A
:10320000641CF2E70A98641C50F8048B0A9020783A
:103210000028CED0642808D0692806D075281ED092
:103220005A460B9990476D1C58E00A994FF00A09CD
:1032300001C90A91002802DA40422D2102E0390535
:1032400004D52B218DF82010012103E0F90704D0CB
:103250002021F7E78A4608AE0DE00021FAE70A9937
:103260004FF00A0901C90A91F7E74946FDF712F93B
:10327000303106F8011D0028F7D1ADEB060000F152
:103280002009780701D44FF00108C84502DDA8EBFA
:10329000090000E000208046002706E008A85A4602
:1032A000C05D0B9990476D1C7F1C5745F6DB04E011
:1032B00030205A460B9990476D1CB8F10001A8F1D7
:1032C0000108F5DC05E016F8010B5A460B9990470A
:1032D0006D1CB9F10001A9F10109F4DC641C65E77A
:1032E000092801000A68531C0B6010707047000029
:1032F00070B54FF6FA75094E281A84B230684462E8
:103300003046FEF769F8306801E0416A8CB2AC42A1
:10331000FBD3BDE870400148FEF790B87400002070
:1033200013B54FF0FF33012269460248FEF772F9E8
:1033300000981CBDBC00002010B51446002222607D
:10334000114A21F000439342A8BF10BD53EA000286
:1033500008BF10BDB3F5801FA8BF226807DA362268
:10336000FDF73CF86FF0350221F000432260DFF8F2
:103370001CC06FF31E510CEB23531A4441F0FF5154
:1033800041F00051226010BD0000F07F02FCFFFF01
:1033900070B5002400F00CF8092806D818B1A8422E
:1033A00001D02118CCB20546F4E7204670BD0000DC
:1033B0002DE9F0413A4D28683A4C217808432860BD
:1033C000374F083F386800F0F0060A20FDF7EAFAA8
:1033D0000F20F02E0FD039682278334EF032D2B25F
:1033E000114001F0F002702A41D0B02A30D0D02A2A
:1033F0001ED0E02A0DD02A68217842EA01422A60D4
:10340000C943C1F3420188432070C043000743D041
:1034100044E08843FCF7F9FF00F0FAF90022334654
:10342000FCF76AFF0222FCF7D9FF00221F4B2CE0B9
:103430008843FCF7EAFF00F0EBF900223346FCF783
:103440005BFF0222FCF7CAFF00224FF080431CE022
:103450008843FCF7DAFF00F0DBF900223346FCF783
:103460004BFF0222FCF7BAFF002233460DE08843EF
:10347000FCF7CBFF00F0CCF900223346FCF73CFF11
:103480000222FCF7ABFF0022094BFCF791FEFCF790
:10349000C9FFC0B2BDE8F081072020700020F9E725
:1034A0001008014008000020000008400000F03F24
:1034B000000010402DE9F04DC84A002490B0914220
:1034C00005DA21F00043934201D805D120B110B0B4
:1034D000BDE8F04DFFF73EBEB1F5801F1BDA53EAA1
:1034E000000209D0002911DA0120FFF74BFE10B0CD
:1034F000BDE8F04DFFF731BE0220FFF743FEFFF7B6
:1035000021FE10B081F00041BDE8F08D6FF0350470
:103510003622FCF763FF04EB2152C1F31308B049D4
:10352000A2F2FF33414401F4801282F07F6103EB89
:10353000225281F04051009241EA08010022A94B39
:10354000FCF7D7FE044608F10200A74EC0F31300B3
:103550000D467E44032867D2D6E900232046FDF7B6
:10356000B1F81ED10098002802BFD6E9000110B0C2
:10357000BDE8F08DFDF794F807460C469B4A9C4B3E
:10358000FDF71CF806460D469A4A9B4B38462146E5
:10359000FDF714F810B032462B46BDE8F04DFCF7AD
:1035A00007BE4FF05532954B20462946FDF706F8E9
:1035B0000022934BFCF7A0FE06460F4622462B4600
:1035C00010461946FCF7FAFF32463B46FCF7F6FF79
:1035D000064600980F46F0B1FDF762F880468A462D
:1035E000824A834BFCF7EAFF32463B46FCF784FEF7
:1035F00022462B46FCF77DFE05460C467D4A7E4B57
:1036000040465146FCF7DAFF10B02A462346BDE893
:10361000F04DFCF76EBE0B4610B0324620462946F0
:10362000BDE8F04DFCF765BE00224FF08043204618
:10363000FCF7BEFD02460B4620462946FCF75FFE1E
:1036400006460F460098FDF72BF8CDE904013246F7
:103650003B4610463946FCF7B1FF0C9069480C9A7E
:103660004044019009910B461046FCF7A7FF8246A3
:10367000024665488B46C8F151080B4608F5D72825
:1036800003217844FFF708FD52465B46FCF796FF9E
:103690000A905E480D9152465B4604217844FFF73C
:1036A000FBFC099B0C9AFCF789FF844601980D9B53
:1036B00040EA080860460A9AFCF77AFD83460891BA
:1036C000B8F1000F4EDD4FF0FF3220462946FCF7DF
:1036D00085FE22462B46FCF771FF804600988A46FD
:1036E00060B3DDE90401414A414BFCF767FF0991F2
:1036F00000905A4640465146089BFCF759FD324619
:103700003B46FCF75BFF099B009AFCF751FD4246E4
:103710005346FCF7F1FD22462B46FCF7EAFD044632
:103720000D46DDE90401334A334BFCF747FF10B087
:1037300022462B46BDE8F04DFCF7DBBD5A4640461D
:10374000089BFCF735FD32463B46FCF737FF424607
:103750005346FCF7D1FD10B022462B46BDE8F04D94
:10376000FCF7CABD009840B3DDE904011F4A204BB5
:10377000FCF724FF80468A465A4620462946089B85
:10378000FCF7B7FD32463B46FCF718FF424653466E
:10379000FCF7AFFD22462B46FCF7ABFD04460D4679
:1037A000DDE90401134A144BFCF708FF10B0224670
:1037B0002B46BDE8F04DFCF79CBD0B465A46204613
:1037C0002946FCF796FD32463B46FCF7F7FE10B063
:1037D00022462B46BDE8F04DFCF78EBD0000F07F81
:1037E000645F09000000F03F421D0000763C79351F
:1037F000EF39EA3D0000E0FE422EE63F5555D53F49
:103800000000E03F86EBF9FFDA1B0000D81B000048
:1038100038B504000D4614BF01200020284320F0D5
:103820000040C0F17F6000F1E040C00F05D10022F0
:103830001A4B2046FCF746FF04D120462946FFF7E5
:1038400089FC38BD0022134620462946FCF73AFF82
:1038500005D20120FFF796FCFFF77FFC38BD6A46D2
:1038600020462946FFF768FD009A002A04DD521E13
:1038700000920122FCF7B2FDFFF71CFE084A094B3B
:10388000FCF73DFD04460D460098FCF709FF01B02A
:1038900022462B46BDE83040FCF78ABC0000F07F92
:1038A000EF39FAFE422EE63F9EB0FDF7E1F9FFF751
:1038B00079FAFFF765F9FFF719F9FFF71FFAFFF734
:1038C0004FFAFDF793FFFDF70BFF4FF6FF70FDF783
:1038D000EFFE012211463E48FDF7B7F94FF4FA74A6
:1038E00005E03CA0FFF7A4FB2046FDF75BF8FCF7E2
:1038F0005BFF0028F5D13EA0FFF79AFBFFF748FDDC
:103900000446014641A0FFF793FBDFF818A1DFF85A
:1039100018B10DF108094FF018081CA91BA8FCF7F5
:1039200084FFBDF86C00C2B2010A40A0FFF780FB23
:10393000BDF86C00060AC0B2FCF767FD00225346D2
:10394000FCF7DDFC07460D463046FCF75EFD3A46C7
:103950002B46FCF72DFCFCF784FD82B2ADF86C2001
:103960003BA102A8FFF774FB45461823D222282169
:103970001E20CDE90089FFF77DF83BA0CDE900507E
:103980001823D22228213220FFF774F8BDF86C00EA
:10399000A04209D3012220215846FDF756F9012201
:1039A00011023348FDF751F9BDF86C00A0420AD26C
:1039B000002220215846FDF748F900224FF480717B
:1039C0002B48FDF742F94FF47A70FCF7EBFFA4E7C0
:1039D000000C0140444854313120436865636B65F5
:1039E00064206661696C65642121210D0A00000074
:1039F000444854313120436865636B6564205375D6
:103A0000636573732121210D0A0000006D61782028
:103A100074656D7065726174757265203D202564F2
:103A2000200D0A0000005940001001404448543164
:103A3000312054656D7065726174757265203D202A
:103A400025642E2564206465677265650D0A000093
:103A500044485431312054656D70657261747572DB
:103A600065203D20256400004E45465500000000BD
:103A7000001C0140000000000000000000000000E9
:103A8000000000003F400000000000000000300087
:103A9000400030004000000009000BC03D000BC09A
:103AA0003D00090018C024407FE022403180000022
:103AB000180024C01B000D803240018003801C4090
:103AC00027401C80074000401000600000000000FC
:103AD000000000000000000000001F802040402087
:103AE0000000402020401F80000000000900060068
:103AF0001F80060009000000040004003F8004004D
:103B00000400000000100060000000000000000041
:103B10000400040004000400040000000000004051
:103B20000000000000000000002001C00600380076
:103B3000400000001F802040204020401F800000E7
:103B4000000010403FC000400000000018C02140AD
:103B5000224024401840000010802040244024408F
:103B60001B80000002000D0011003FC0014000005A
:103B70003C80244024402440238000001F802440B7
:103B800024403440038000003000200027C038006B
:103B9000200000001B802440244024401B800000A3
:103BA0001C0022C0224022401F80000000000000B4
:103BB0000840000000000000000000000460000059
:103BC00000000000000004000A00110020804040B6
:103BD0000900090009000900090000000000404038
:103BE000208011000A000400180020002340240057
:103BF000180000001F802040274029401F4000007F
:103C0000004007C039000F0001C0004020403FC005
:103C1000244024401B8000001F8020402040204082
:103C20003080000020403FC0204020401F80000026
:103C300020403FC024402E4030C0000020403FC004
:103C400024402E00300000000F0010802040224051
:103C50003380020020403FC0040004003FC02040E9
:103C6000204020403FC02040204000000060202035
:103C700020203FC02000200020403FC024400B00F7
:103C800030C0204020403FC020400040004000C0E5
:103C90003FC03C0003C03C003FC0000020403FC08C
:103CA0000C4023003FC020001F80204020402040C7
:103CB0001F80000020403FC0244024001800000066
:103CC0001F802140214020E01FA0000020403FC075
:103CD0002440260019C0004018C02440244022403F
:103CE00031800000300020403FC020403000000004
:103CF00020003F80004000403F80200020003E0028
:103D000001C0070038002000380007C03C0007C091
:103D100038000000204039C0060039C020400000B3
:103D20002000384007C0384020000000304021C04B
:103D30002640384020C00000000000007FE0402006
:103D400040200000000070000C00038000400000D4
:103D50000000402040207FE0000000000000200024
:103D600040002000000000000010001000100010B3
:103D700000100010000000004000000000000000E3
:103D8000000002800540054003C0004020003FC005
:103D9000044004400380000000000380044004400D
:103DA0000640000000000380044024403FC0004063
:103DB000000003800540054003400000000004406F
:103DC0001FC0244024402000000002E005500550A0
:103DD0000650042020403FC00440040003C00040BF
:103DE0000000044027C00040000000000010001048
:103DF000041027E00000000020403FC00140070001
:103E000004C00440204020403FC00040004000006B
:103E100007C0040007C0040003C00000044007C03E
:103E20000440040003C0004000000380044004403C
:103E300003800000041007F00450044003800000D9
:103E4000000003800440045007F00010044007C045
:103E50000240040004000000000006400540054048
:103E600004C00000000004001F8004400040000067
:103E7000040007800040044007C000400400070021
:103E800004C0018006000400060001C0070001C054
:103E900006000000044006C0010006C00440000007
:103EA0000410071004E00180060004000000044034
:103EB00005C00640044000000000000004007BE054
:103EC00040200000000000000000FFF000000000A3
:103ED000000040207BE00400000000004000800063
:103EE0004000200020004000000000000000000012
:103EF00000000000000000000000000000001FCCD7
:103F0000000C00000000000000000800300060000D
:103F10000800300060000000022003FC1E20022088
:103F200003FC1E200220000000000E1811043FFFB9
:103F300010840C78000000000F0010840F3800C0BF
:103F4000077818840078000000780F8410C41124CA
:103F50000E9800E40084000808006800700000006B
:103F6000000000000000000000000000000007E06A
:103F70001818200440020000000040022004181815
:103F800007E00000000000000240024001800FF046
:103F900001800240024000000080008000800FF895
:103FA00000800080008000000001000D000E000075
:103FB0000000000000000000000000800080008081
:103FC00000800080008000800000000C000C0000D9
:103FD0000000000000000000000000060018006063
:103FE0000180060018002000000007F008081004F7
:103FF0001004080807F000000000080408041FFC73
:10400000000400040000000000000E0C1014102436
:10401000104411840E0C000000000C181004110450
:10402000110412880C700000000000E0032004243A
:1040300008241FFC0024000000001F9810841104B5
:104040001104108810700000000007F008881104A7
:10405000110418880070000000001C00100010FC03
:1040600013001C001000000000000E3811441084E2
:10407000108411440E38000000000700088C104422
:104080001044088807F00000000000000000030C46
:10409000030C000000000000000000000001010609
:1040A000000000000000000000000080014002202D
:1040B0000410080810040000022002200220022040
:1040C0000220022002200000000010040808041052
:1040D000022001400080000000000E001200100CC1
:1040E000106C10800F00000003E00C1813E414247F
:1040F00017C4082807D000000004003C03C41C407B
:10410000074000E4001C000410041FFC110411040B
:1041100011040E880070000003E00C181004100455
:10412000100410081C10000010041FFC10041004E0
:104130001004080807F0000010041FFC110411040B
:1041400017C410040818000010041FFC110411000B
:1041500017C010000800000003E00C181004100441
:1041600010441C780040000010041FFC10840080E4
:10417000008010841FFC10040000100410041FFCB9
:1041800010041004000000000003000110011001E1
:104190001FFE10001000000010041FFC110403801B
:1041A0001464181C1004000010041FFC1004000408
:1041B00000040004000C000010041FFC1F0000FCA1
:1041C0001F001FFC1004000010041FFC0C0403005F
:1041D00000E010181FFC100007F00808100410047D
:1041E0001004080807F0000010041FFC1084108061
:1041F000108010800F00000007F008181024102411
:10420000101C080A07F2000010041FFC1104110022
:1042100011C011300E0C000400000E1C110410849B
:10422000108410441C3800001800100010041FFCFB
:10423000100410001800000010001FF81004000403
:10424000000410041FF8100010001E0011E0001CF4
:10425000007013801C0010001FC0103C00E01F0005
:1042600000E0103C1FC000001004180C163401C000
:1042700001C01634180C100410001C00130400FCBC
:1042800013041C00100000000804101C10641084AB
:1042900013041C04101800000000000000007FFE42
:1042A0004002400240020000000030000C00038089
:1042B0000060001C000300000000400240024002B9
:1042C0007FFE000000000000000000002000400011
:1042D000400040002000000000010001000100013A
:1042E000000100010001000100004000400020002A
:1042F00000000000000000000000009801240144BC
:104300000144014400FC000410001FFC008801046B
:1043100001040088007000000000007000880104A3
:1043200001040104008800000000007000880104FE
:10433000010411081FFC0004000000F801440144BE
:104340000144014400C800000000010401040FFC06
:104350001104110411001800000000D601290129E0
:10436000012901C90106000010041FFC008401009E
:104370000100010400FC000400000104190419FC00
:10438000000400040000000000000003000101011F
:10439000190119FE0000000010041FFC0024004059
:1043A00001B4010C010400000000100410041FFC03
:1043B0000004000400000000010401FC01040100ED
:1043C00001FC0104010000FC010401FC0084010067
:1043D0000100010400FC0004000000F801040104D5
:1043E0000104010400F80000010101FF008501043F
:1043F00001040088007000000000007000880104C3
:104400000104010501FF00010104010401FC008415
:104410000104010001800000000000CC01240124FF
:10442000012401240198000000000100010007F8A8
:104430000104010400000000010001F80004000470
:104440000004010801FC0004010001800170000C5F
:10445000001001600180010001F0010C003001C07A
:104460000030010C01F0010000000104018C007417
:104470000170018C01040000010101810171000E35
:10448000001801600180010000000184010C01346A
:1044900001440184010C0000000000000000000045
:1044A00001003EFC4002400200000000000000004D
:1044B000FFFF0000000000000000400240023EFC40
:1044C000010000000000000000006000800080008B
:1044D000400040002000200000000000000000001C
:1044E00000000000000000000000000000000000CC
:1044F00000000000000000000000000000000000BC
:1045000000000000000000000000000F80380FFED7
:10451000380F80380000000000000000000000009C
:104520000000000000000100000600000C00003840
:1045300000003100000600000C00003800003000D0
:10454000000000000000000061800067F807F980AB
:104550000061800061800061800061800067F80771
:10456000F98000618000000000000000000001C030
:10457000E003E0F00630080418081FFFFE040E08F0
:104580000787F00381E000000000000001F0000652
:104590000C00040408060C7001F9C0000E00003B7A
:1045A000E000EC18070808040C180003E000000005
:1045B0000001E00007F003F818041C0804170807BE
:1045C000E1D003C0E00023B0003C08002008000058
:1045D0001000000000000001000031000032000067
:1045E0001C000000000000000000000000000000AF
:1045F00000000000000000000000000000000000BB
:1046000000000000000000007F0001FFC00780F0F4
:104610000C00181000042000020000000000002020
:1046200000021000040C00180780F001FFC0007F9A
:10463000000000000000000000000000000000007A
:10464000000000004200006600006600003C000020
:10465000180003FFC0001800003C00006600006660
:1046600000004200000000000800000800000800F0
:1046700000080000080001FFC0000800000800005A
:104680000800000800000800000000000001000011
:104690003100003200001C0000000000000000009B
:1046A000000000000000000000000000000000000A
:1046B00008000008000008000008000008000008CA
:1046C00000000800000800000800000800000000CA
:1046D0000000000000000000380000380000380032
:1046E00000000000000000000000000000000000CA
:1046F0000000000000000000000600001C00007028
:10470000000180000E0000380000C0000700001CFF
:104710000000300000000000000000007F8001FF6A
:10472000E003807006001804000804000806001862
:1047300003807001FFE0007F8000000000000000A7
:10474000000001000801000801000803FFF807FF4E
:10475000F800000800000800000800000000000049
:1047600000000001C03802C0580400980401180479
:104770000218040418061C1803F81801E0F80000D9
:104780000000000000000001C0E003C0F0040008C9
:1047900004080804080806180803F41801E7F000E4
:1047A00001E0000000000000000000000300000D18
:1047B0000000110000610000810803010807FFF8F4
:1047C0000FFFF800010800010800000000000000D1
:1047D00000E007FCD00608080610080610080610BE
:1047E00008061838060FF00607C000000000000099
:1047F000000000003F8001FFE0038430020818043D
:104800001008041008041008071810030FF0000720
:10481000C000000000000000000003C0000700000E
:104820000600000600F80607F806180006E0000774
:10483000000006000000000000000001E1E003F7B6
:10484000F0063410041808041808040C08040C08B6
:1048500006161803F3F001C1E0000000000000009C
:10486000F80003FC300306380402080402080402BE
:10487000080404100308F001FFC0007F00000000DE
:104880000000000000000000000000000000000028
:104890007038007038007038000000000000000020
:1048A0000000000000000000000000000000000008
:1048B00000000000301A00301C0000000000000062
:1048C00000000000000000000000000000000008E0
:1048D0000000140000220000410000808001004020
:1048E0000200200400100800080000000000000082
:1048F00021000021000021000021000021000021F2
:104900000000210000210000210000210000000023
:104910000000000000000800080400100200200150
:1049200000400080800041000022000014000008C8
:104930000000000000000003C00004C000040000EC
:10494000080038080F380808380810000C30000735
:10495000E00003C000000000000000003F8000FFF6
:10496000E0038070020F1006708804C0880483087A
:10497000047F8802C09003012000FE400000080070
:1049800000180001F8003E0801C20007020007E21B
:104990000000FE00001FC80001F8000038000008F9
:1049A00004000807FFF807FFF804080804080804D3
:1049B000080804080806180803F41801E7F00001C5
:1049C000E0000000000000003F8001FFE003807075
:1049D000020018040008040008040008040010067F
:1049E00000200780C000000004000807FFF807FF50
:1049F000F80400080400080400080400180200106D
:104A000003807001FFE0007F8000000004000807C1
:104A1000FFF807FFF8040808040808040808040859
:104A200008043E08040008060018010060000000A9
:104A300004000807FFF807FFF8040808040800044A
:104A40000800040800043E00060000060000018083
:104A500000000000000000003F8001FFE0038070C4
:104A60000600180400080402080402080203F00704
:104A700083F000020000020004000807FFF807FFAF
:104A8000F8040808000800000800000800000800FA
:104A900004080807FFF807FFF804000800000000FA
:104AA000000004000804000804000807FFF807FFDE
:104AB000F8040008040008040008000000000000DA
:104AC00000000000000600000700000104000104CF
:104AD000000104000307FFFE07FFFC0400000400C0
:104AE0000004000004000807FFF807FFF8040C08A2
:104AF000001800003E0004C7800503C80600F80443
:104B0000003804001800000804000807FFF807FF39
:104B1000F804000800000800000800000800000871
:104B200000000800001800006000000004000807F2
:104B3000FFF807800807FC00007FC00003F80007AB
:104B4000C000780007800807FFF807FFF804000896
:104B500004000807FFF807000803C00000E0000099
:104B60003800001E000007000001C00400F007FF2D
:104B7000F8040000000000007F8001FFE003807067
:104B8000060018040008040008060018030030019D
:104B9000FFE0007F8000000004000807FFF807FF27
:104BA000F8040408040400040400040400040400DD
:104BB000060C0003F80001F00000000000000000F7
:104BC0007F8001FFE00380700600880400880400F5
:104BD000C806003C03003E01FFE6007F84000000A1
:104BE00004000807FFF807FFF80408080408000499
:104BF0000C00040F00040BC00610F003F03801E0B5
:104C00000800000800000001E0F803F03006301052
:104C1000041808041808040C08040C0802061802FA
:104C200007F00781E000000001800006000004009A
:104C30000004000004000807FFF807FFF80400085C
:104C400004000004000006000001800004000007CA
:104C5000FFE007FFF0040018000008000008000053
:104C60000800000800000804001007FFE00400002E
:104C700004000006000007E00007FE00041FE0003B
:104C800001F80000380001E0043E0007C000060003
:104C90000004000004000007E00007FFC0041FF844
:104CA0000007C007F80007FF80043FF80007C004B2
:104CB000F8000700000400000000000400080600DF
:104CC0001807C07805F1C8003E00001F800463E8A3
:104CD0000780F80600180400080000000400000621
:104CE000000007800007E008047C08001FF80007A8
:104CF000F800180804E0080700000600000400009F
:104D00000000000100080600380400F80403E8046D
:104D10000F08047C0805F00807C008070018040005
:104D20006000000000000000000000000000000023
:104D30000000003FFFFE20000220000220000220B1
:104D40000002200002000000000000000000080037
:104D50000007000000C0000038000006000001C08D
:104D600000003000000E0000010000000000000004
:104D7000000020000220000220000220000220008B
:104D8000023FFFFE000000000000000000000000E5
:104D900000000000000000000008000010000030CB
:104DA000000020000030000010000008000000009B
:104DB00000000000000001000001000001000001EF
:104DC00000000100000100000100000100000100DE
:104DD00000010000010000010000000000000000D0
:104DE0000020000020000010000010000000000063
:104DF00000000000000000000000000000000000B3
:104E000000F00019F8001B180022080026080024F2
:104E100008002410003FF8001FF8000008000018E8
:104E200000000004000007FFF80FFFF00018180052
:104E30001008002008002008003018001FF0000FA4
:104E4000C00000000000000007C0001FF000183084
:104E5000002008002008002008003C08001C10006A
:104E600000600000000000000000000007C0001FFC
:104E7000F000381800200800200800200804101056
:104E800007FFF80FFFF00000100000000000000016
:104E900000000007C0001FF000123000221800229E
:104EA00008002208003208001E10000E200000003A
:104EB00000000000200000200800200801FFF80387
:104EC000FFF806200804200804200807200003003B
:104ED0000000000000000000000E000E6E001FF336
:104EE0000031B10020B10020B1003191001F13004A
:104EF0002E1E00200E00300000000004000807FFF6
:104F0000F80FFFF800100800200000200000200823
:104F1000003FF8001FF8000008000000000000003B
:104F20000000002008002008002008063FF8063F87
:104F3000F800000800000800000800000000000061
:104F4000000000000000000003000003002001003A
:104F50002001002003063FFE063FFC000000000089
:104F60000000000000000004000807FFF80FFFF831
:104F7000000188000300002FC00038F8002038002E
:104F800020080000080000000000000000000400ED
:104F90000804000804000807FFF80FFFF8000008E5
:104FA00000000800000800000000000000200800C9
:104FB0003FF8003FF8001008002000003FF8003FD5
:104FC000F8001008002000003FF8003FF80000083B
:104FD000000000002008003FF8003FF80010080023
:104FE0001000002000002008003FF8001FF800001B
:104FF000080000000000000007C0000FF00018309B
:105000000030080020080020080030080018300098
:105010000FF00007C0000000000000002001003F6A
:10502000FF003FFF001011002009002008002008A9
:10503000003038001FF0000FC0000000000000002A
:1050400007C0001FF00038180020080020080020CA
:1050500009001011001FFF003FFF000001000000C9
:10506000002008002008002008003FF8003FF8005A
:105070000808001008002008002000003000003060
:1050800000000000000000000000000C78001E1866
:10509000003308002308002108002188002198001F
:1050A00030F0003860000000000000002000002008
:1050B0000000200000FFF003FFF800200800200897
:1050C0000020080000300000000000000000000088
:1050D0002000003FF0007FF80000180000080000EA
:1050E00008002010003FF8007FF0000010000000D2
:1050F000000000002000003000003C00003F800065
:1051000023F0000078000070002380003C00003095
:1051100000002000002000003C00003FE00023F8D9
:105120000000E0002700003E00003FE00021F80002
:1051300001E0003E000020000000000020080020E8
:1051400008003838003E680027800003C8002CF8AB
:10515000003838002018002008000000000000007F
:105160002000003003003C01003F830023EC0000DE
:1051700070002380003C00002000002000000000A0
:105180000000000000000038080020380020F8006F
:1051900023E8002F88003E0800380800201800008F
:1051A000700000000000000000000000000000008F
:1051B0000000000008000014001FF7FC300006206B
:1051C00000020000000000000000000000000000DD
:1051D00000000000000000000000FFFFFF000000D2
:1051E00000000000000000000000000000000000BF
:1051F00000002000023000061FF7FC001400000829
:10520000000000000000000000000000000000009E
:105210000000001800006000004000004000002076
:1052200000001000000800000400000400000C0052
:1052300000100000010202030405060708090A0B1A
:105240000C0D0E0F10100000000000000000010205
:10525000030406070809000000000102030400001F
:1052600004FA97999999D93FAF788E1DC571CC3FB3
:105270009FC678D0099AC33F935555555555E53F7C
:10528000599322942449D23FDE03CB966446C73F0C
:1052900044523EDF12F1C23F000000000000000057
:1052A000C0520008000000202C00000066310008F9
:1052B000EC5200082C000020EC04000076310008BD
:1052C000000000000000000007000000000000FFD8
:1052D000FFFFFFFF010000001000000000000000C1
:0C52E0000024F4000000000000000000AA
:0400000508000131BD
:00000001FF
