:020000040800F2
:1000000060440020A1010008071300088D120008B9
:10001000051300086F0800087F15000800000000A5
:100020000000000000000000000000000B130008AA
:100030007108000800000000091300080D130008F3
:10004000BB010008BB010008BB010008BB010008A0
:10005000BB010008BB010008BB010008BB01000890
:10006000BB010008BB010008BB010008BB01000880
:10007000BB010008BB010008BB010008BB01000870
:10008000BB010008BB010008BB010008BB01000860
:10009000BB010008BB010008BB010008BB01000850
:1000A000BB010008BB010008BB010008BB01000840
:1000B000BB010008BB010008BB010008BB01000830
:1000C000BB010008BB010008BB010008BB01000820
:1000D000BB010008BB010008BB010008BB01000810
:1000E000BB010008BB010008BB010008BB01000800
:1000F000BB010008BB010008BB010008BB010008F0
:10010000BB010008BB010008BB010008BB010008DF
:10011000BB010008BB010008BB010008BB010008CF
:10012000BB010008BB010008BB010008BB010008BF
:10013000BB010008BB010008BB010008BB010008AF
:10014000BB010008BB010008BB010008BB0100089F
:10015000BB010008BB010008BB010008BB0100088F
:10016000BB010008BB010008BB010008BB0100087F
:10017000BB010008BB010008BB0100080000000033
:10018000BB010008BB010008DFF810D000F03EFB07
:100190000048004795330008AFF30080604400201A
:1001A0000648804706480047FEE7FEE7FEE7FEE711
:1001B000FEE7FEE7FEE7FEE7FEE7FEE7A113000825
:1001C000890100082DE9F05F0546002092469B4614
:1001D00088460646814640241BE02846414647465D
:1001E000224600F057FA53465A46C01A914110D39E
:1001F00011461846224600F016F82D1A67EB010842
:100200004F4622460120002100F00DF817EB0009AF
:100210004E41201EA4F10104DFDC484631462A4647
:100220004346BDE8F09F202A04DB203A00FA02F1A1
:10023000002070479140C2F1200320FA03F31943D4
:1002400090407047202A06DBCB17203A41FA02F093
:1002500043EAE07306E041FA02F3D040C2F1200223
:100260009140084319467047D2B201E000F8012BD3
:10027000491EFBD270470022F6E710B513460A4626
:1002800004461946FFF7F0FF204610BD2DE9FE4F4A
:10029000804681EA0300C00F0C46009021F0004127
:1002A00023F00045B8EB0200A94105D240462146A3
:1002B00090461C460B46024623F00040104347D0B0
:1002C000270DC7F30A00C3F30A510290401A0190A8
:1002D00040286BDAC3F3130040F4801B0098924669
:1002E00020B10023D2EB030A63EB0B0B01985946B4
:1002F000C0F140025046FFF796FF06460D465046B5
:100300005946019AFFF79EFF10EB08006141002457
:1003100087EA115284EAE7731A4340D0009A62B325
:10032000019A012A4FEA075215DC001B61EB02011A
:100330004FF0004202EA0752CDE90042001C41F5AD
:10034000801132462B4600F0FBF903B0BDE8F08F78
:1003500040462146F9E7001B61EB0201001C41F514
:10036000801300185B412018A2F5001747EB03012A
:1003700040EAD570B6196D4111E06D084FEA3606B6
:1003800045EAC0754FEA0752001B61EB0201001CF1
:1003900041F5801149084FEA3000001951413246B9
:1003A0002B4603B0BDE8F04F00F0BBB90098012226
:1003B00040000023D0EB020263EBE073009821467B
:1003C0004FEAE074B8EB000061EB0401E9E783F069
:1003D00000435BE781F0004158E72DE9FE4F81EAD9
:1003E000030404F0004421F0004100944FF0000B9E
:1003F00023F0004350EA01045ED052EA03045BD0CC
:10040000C3F30A54C1F30A552C44A4F2F334019403
:10041000A0FB0254C1F3130141F48011C3F3130391
:1004200043F4801301FB024400FB034E840A970A45
:1004300044EA815447EA8357A4FB076802958D0A72
:1004400005FB07854FEA932C04FB0C542705029DFE
:100450004FEA065847EA1637B5EB08056EEB070C6E
:10046000870E920E47EA811742EA8312A7FB020128
:10047000B6EB0B0164EB00042B0D43EA0C335E1862
:1004800044EB1C50DA465146E7FB0201C5F3130466
:100490004FEA0B3343EA14534FEA0432019C43EA18
:1004A0000603A4F10C040294009CCDE900B400F012
:1004B00047F903B0BDE8F08F00200146F9E72DE9C8
:1004C000F04D81EA030404F0004B21F0004514468E
:1004D0004FF0000A23F0004150EA050220D054EA10
:1004E00001021DD0C5F30A570246C5F31303C1F339
:1004F0001300C1F30A5640F4801543F48013A7EBB0
:100500000608101BD64608F2FD3873EB050002D32F
:1005100008F1010801E092185B41B8F1000F03DA1D
:1005200000200146BDE8F08D00204FF48011064602
:1005300084460EE0171B73EB050705D3121B63EB14
:10054000050306434CEA010C49084FEA30009218B3
:100550005B4150EA0107EDD152EA030012D082EA72
:10056000040083EA0501084305D0101BAB4106D205
:100570000122002306E000224FF0004302E06FF06A
:10058000010253101AEB06004CEB085110EB0A0065
:1005900041EB0B01BDE8F04D00F0C3B80EB5C10F43
:1005A00080EAE0700844CA07002140F233438DE836
:1005B0000E000A460B4600F0C3F803B000BD0EB5AE
:1005C00040F2334102910021CDE900110A460B4669
:1005D00000F0B6F803B000BD00F0004230F000407B
:1005E0000AD0C10D01F56071C0F3160042EA015155
:1005F000C2084007114370470020014670470000C1
:1006000030B5041E71F1000404DB4FF00044404299
:1006100064EB0101141E73F1000405DB1C464FF06E
:100620000043524263EB0403994208BF904230BD3D
:1006300001F0004330B421F0004150EA010206D03D
:100640000A0DA2F56072C1F31301002A02DC30BC6E
:1006500000207047440F44EAC104C100E01830BCD8
:1006600000EBC25000F026B830B50B460146002022
:100670002022012409E021FA02F59D4205D303FA64
:1006800002F5491B04FA02F52844151EA2F10102E5
:10069000F1DC30BD202A04DB203A21FA02F00021EF
:1006A000704721FA02F3D040C2F120029140084382
:1006B000194670470029A8BF7047401C490008BF71
:1006C00020F00100704710B4B0FA80FC00FA0CF082
:1006D00050EA010404BF10BC704749B1CCF12004BA
:1006E00021FA04F411FA0CF118BF01212143084347
:1006F000A3EB0C01CB1D4FEA00614FEA102042BF73
:10070000002010BC704700EBC35010440029A4BF68
:1007100010BC7047401C490008BF20F0010010BC0D
:10072000704710B5141E73F1000408DA401C41F143
:10073000000192185B411A4301D120F0010010BD65
:100740002DE9F04D92469B4611B1B1FA81F202E0DB
:10075000B0FA80F220329046FFF765FD04460F465E
:1007600040EA0A0041EA0B0153465A46084313D0B7
:10077000114653EA010019D0C8F140025046FFF774
:1007800089FF05460E46504659464246FFF74BFD47
:10079000084305D0012004E020463946BDE8F08D2D
:1007A0000020054346EAE0762C4337430A98630568
:1007B000E40AA0EB08000022FD0A44EA47540A308C
:1007C00002D500200146E9E7010510196941DDE97C
:1007D000084500196941BDE8F04DA2E7C1F30A528E
:1007E000C1F3130140F2FF3341F480119A4202DA5F
:1007F00000200146704740F233439A42A2F233424E
:1008000002DC5242FFF746BFFFF70DBD064C074D15
:1008100006E0E06840F0010394E8070098471034D0
:10082000AC42F6D3FFF7B4FC5864000878640008C3
:1008300070B5C1F30A5201F000450024C1F3130161
:1008400040F2FF3341F480119A4201DA002070BD7A
:1008500040F233439A42A2F2334203DC5242FFF7A2
:1008600019FF00E090402C43F1D0404270BDFEE7FC
:10087000704772B6FEE7000070B5044600F006F956
:100880000546601C02D004480078044400F0FEF8DD
:10089000401BA042FAD370BD000000202DE9F84FA4
:1008A000DFF8BCA10022012503264FF00F090AF151
:1008B000040BAAF1040E00BF0B6805FA02F42340F2
:1008C000A34270D10F7907F00307012F01D0022F47
:1008D00016D187684FEA420806FA08FC27EA0C0797
:1008E000D1F80CC00CFA08FC4CEA070CC0F808C0A0
:1008F0004768A7430C79C4F3001494403C43446018
:100900000C79E443A4070AD0C4684FEA420C06FA03
:100910000CF7BC438F6807FA0CF72743C7600C79C4
:1009200004F00304022C12D1D40800EB840CDCF890
:1009300020405707FF0E09FA07F824EA0804D1F807
:10094000108008FA07F848EA0408CCF82080046808
:100950004FEA420C06FA0CF7BC430F7907F0030785
:1009600007FA0CF7274307604C6814F4403F70D037
:100970003C4C276847F480472760246822F003072F
:1009800004F480440094384C07EB040CDCF808486D
:1009900097074FEA177809FA08F7BC43334FB84274
:1009A00002D1002724E054E0314FB84201D10127A1
:1009B0001EE0304FB84201D1022719E02E4FB84255
:1009C00001D1032714E02D4FB84201D104270FE0D5
:1009D0002B4FB84201D105270AE02A4FB84201D176
:1009E000062705E0284FB84201D1072700E0082775
:1009F00007FA08F72743CCF80878DAF8004057469A
:100A0000D1F804C09C435FEACC2C00D51C433C6069
:100A1000DBF800405F46D1F804C09C435FEA8C2CB1
:100A200000D51C433C60DEF800407746D1F804C096
:100A30009C435FEA8C3C00D51C433C60084F083F58
:100A40003C68D1F804C09C435FEACC3C00D51C4311
:100A50003C60521C102AFFF42FAFBDE8F88F000055
:100A6000083C014044380240003001400000024090
:100A70000004024000080240000C02400010024046
:100A80000014024000180240001C02400148806827
:100A9000704700000000002002488168027811447D
:100AA00081607047000000200B4810B5016841F4D8
:100AB00000710160016841F480610160016841F4E6
:100AC00080710160032000F061F80F2000F006F84B
:100AD00000F024F8002010BD003C024070B50D4D20
:100AE00004464FF47A712878B1FBF0F00A4909689E
:100AF000B1FBF0F000F0FEFA48B9102C07D200224A
:100B00002146501E00F022F800206C6070BD0120CC
:100B100070BD0000000000200C0000200A4808B54D
:100B2000016841F480410160006800F48040009059
:100B30000548001F016841F080510160006800F025
:100B40008050009008BD000044380240F0B40E4BC5
:100B50001B680C46C3F30223C3F10705042D00D91B
:100B60000425191D072901D2002300E0DB1E012600
:100B700006FA05F1491E214099409E40761E164016
:100B80003143F0BC00F024BD0CED00E0064900F05C
:100B9000070208684FF6FF03184040EA0220034AA4
:100BA00010430860704700000CED00E00000FA05FB
:100BB0002DE9F0470E46050065D0DFF81481D8F81E
:100BC0000000F7B200F00700B04207D288F80070CA
:100BD000D8F8000000F00700B04254D128683D4C1E
:100BE000810712D5400703D5206840F4E05020600B
:100BF0002878000703D5206840F460402060206812
:100C0000A96820F0F000084320602878C0072DD0A4
:100C1000304968680839012812D0022813D0032807
:100C200011D00968890700292DDA216821F0030114
:100C300001432160FFF72AFF814641F2883A0EE026
:100C400009688903EFE709688901ECE7FFF71EFFF0
:100C5000A0EB0901514502D90320BDE8F0872068C7
:100C6000696800F00C00B0EB810FEFD1D8F80010EC
:100C7000404601F00701B14207D90770006800F053
:100C80000700B04201D00120E7E72878400705D5EA
:100C90002068E96820F4E0500843206028780007C5
:100CA00006D52068296920F4604040EAC100206030
:100CB00000F038F82168084AC1F30311515CC840BC
:100CC0000649086006480068FFF708FF0020C4E7EF
:100CD000003C024008380240FC3400080C000020B0
:100CE000040000200448054900680968044AC1F36B
:100CF0008221515CC84070470C0000200838024037
:100D00000C3500080448054900680968044AC1F325
:100D10004231515CC84070470C0000200838024046
:100D20000C350008154810B5006810F00C02144886
:100D300013D01449042A0FD0082A0ED10F4C241FB7
:100D40002268236802F03F025B0207D52068C0F3E7
:100D50008810A0FB010106E0084610BD2168C1F320
:100D60008811A1FB00010023FFF72CFA2168C1F3D1
:100D70000141491C4900B0FBF1F010BD08380240A8
:100D80000024F40040787D012DE9F84F04006ED076
:100D90002078DFF84C93C007A9F104054AD009F187
:100DA00004000168C1F38101012908D00068C0F383
:100DB000810002280AD1D9F80000400206D528682F
:100DC000800337D560680028E1D033E06068B0F573
:100DD000803F10D0B0F5A02F286810D020F48030CC
:100DE0002860286820F4802028606068A8B1FFF798
:100DF0004DFE06460DE0286840F48030F4E740F4EC
:100E000080202860F7E700BFFFF740FE801B6428C2
:100E100073D828688003F7D50CE0FFF737FE064645
:100E200005E000BFFFF732FE801B6428F0D8286879
:100E30008003F7D42078DFF8AC8280074FF0000AF7
:100E40003ED5A748001D016811F00C0F08D00068BE
:100E5000C0F3810002280BD1D9F80000400207D46A
:100E60002868800716D5E068012800D112E033E138
:100E7000E068B8B10120C8F80000FFF707FE064699
:100E800005E000BFFFF702FE801B0228C0D82868DB
:100E90008007F7D52868216920F0F80040EAC100F2
:100EA00028600DE0C8F800A0FFF7F0FD064604E05A
:100EB000FFF7ECFD801B02281FD828688007F7D4B5
:100EC0002078000722D5864F87486169703771B155
:100ED00001210160FFF7DAFD064604E0FFF7D6FDC9
:100EE000801B022809D838688007F7D50EE0C0F8C3
:100EF00000A0FFF7CBFD064605E082E0FFF7C6FD48
:100F0000801B02287DD838688007F7D420784007F6
:100F100068D5DFF8CCB100270BF13C0BDBF8000003
:100F2000C0000BD4DBF8001041F08051CBF800106A
:100F3000DBF80000012700F0805000906B4E306815
:100F4000C00510D4306840F480703060FFF79EFD1B
:100F5000009005E0FFF79AFD0099401A022850D84A
:100F60003068C005F6D55E4EA0686C3601280FD0FB
:100F70000528306810D020F001003060306820F083
:100F800004003060A068B8B1FFF780FD00900FE06A
:100F9000306840F00100F4E740F004003060F7E70B
:100FA000FFF774FD0099411A41F28830814266D8FA
:100FB00030688007F4D50EE0FFF768FD009007E089
:100FC000FFF764FD0099411A41F28830814256D8FA
:100FD00030688007F4D42FB1DBF8001021F0805185
:100FE000CBF80010A069C8B33D49091D0968C1F3D9
:100FF000810102294AD00228504607D0C8F8600073
:1010000000E03CE0FFF742FD04463BE04746C8F8FD
:101010006000FFF73BFD064605E000BFFFF736FD29
:10102000801B02282BD828688001F7D4D4E9070157
:101030000843A16A2E4A490802EB0141626A41EA6B
:101040008211084394F82C1040EA0161C9F800109D
:1010500001203866FFF71AFD044606E03EE000BFB7
:10106000FFF714FD001B022809D828688001F7D576
:1010700034E000BFFFF70AFD001B022802D903205D
:10108000BDE8F88F28688001F4D427E00128F7D064
:10109000D9F80000E26900F4800191421CD1226A73
:1010A00000F03F01914217D147F6C071626A0140DA
:1010B000B1EB821F10D1A26A4FF0FF3300F4403130
:1010C00003EB5202B1EB024F06D194F82C1000F062
:1010D0007060B0EB016F01D00120D1E70020CFE7B5
:1010E0000438024000004742800E47420070004032
:1010F0000000FFFF10B5401EB0F1807F01D301203A
:1011000010BD4FF0E02460610F21601700F060FA1D
:101110000020A06107202061002010BD70B50400F0
:1011200004D094F84100002510B106E0012070BD04
:1011300084F84050204600F023F8242084F8410031
:101140002068C16821F40051C160204600F058F9C0
:101150002068016921F4904101612068416921F012
:101160002A0141612068C16841F40051C160656491
:10117000202084F8410084F842006563002070BD9F
:1011800010B586B0044614216846FFF774F8144978
:101190002068884221D113480021026842F01002E1
:1011A0000260006800F0100005900E4814380268D4
:1011B00042F001020260006800F0010005904FF467
:1011C000C06000900220CDE90101032003900720B8
:1011D000049069460448FFF761FB06B010BD0000AB
:1011E0000010014044380240000002402DE9F8435D
:1011F000044690F84100984616460D46202802D035
:101200000220BDE8F88385B17EB100206064212012
:1012100084F84100FFF73AFCA6848146E684A06882
:101220002027B0F5805F02D003E00120E9E72069C4
:1012300010B12E4600250EE000260CE0802120464D
:1012400000F064F9A8B9C6B116F8010B216848602E
:10125000E08C401EE084E08C4B464FF00002CDF85D
:1012600000800028EAD14FF04001204600F04EF9FE
:1012700040B184F841700320C3E735F8020BC0F396
:101280000800E3E784F841700020BAE7FEE70000B9
:101290000D4808B5016841F004010160016801F0E2
:1012A00004010091016841F080010160016801F0D2
:1012B00080010091016841F001010160006800F0C7
:1012C0000100009008BD0000303802400C4810B505
:1012D0000A4901604FF4E1314160002181600C2234
:1012E000C160C0E904128161C161FFF717FF0028E6
:1012F00003D0BDE81040FFF7BCBA10BD001001409C
:1013000018400020FEE7FEE770477047FFF7C4BBB8
:1013100030B593B030216846FEF7ADFF14210CA81C
:10132000FEF7A9FF1C480024016841F080510160CC
:10133000006800F0805011901848016841F4804125
:1013400001600068022500F48040119001200390A4
:1013500010200490009506950820CDE9074048200C
:10136000CDE9090504200B906846FFF70DFD08B193
:1013700072B6FEE70F20CDE90C054FF48050CDE9A1
:101380000E4002210CA81094FFF712FC002801D097
:1013900072B6FEE713B030BD403802400070004026
:1013A0000248016841F470010160704788ED00E077
:1013B00001680C3151E8002F22F4907241E80023BB
:1013C000002BF5D10168143151E8002F22F0010201
:1013D00041E80023002BF5D1016B012909D10168F7
:1013E0000C3151E8002F22F0100241E80023002BBD
:1013F000F5D1202180F842100021016370470000E0
:1014000070B5044600680169E26821F44051114357
:1014100001612169A068E2690843616911430843D9
:101420002168CA6849F20C639A430243CA60206883
:101430004169A26921F44071114341613149206839
:10144000884202D03049884202D1FFF75BFC01E0BC
:10145000FFF748FCE2690023192164253226B2F522
:10146000004F626828D0A0FB0101930F9200FEF7A5
:10147000A9FE0146B0FBF5F06FF01802504301EBF6
:10148000800006EB0010B0FBF5F000F0F002B1FBBD
:10149000F5F002EB0012B1FBF5F06FF018035843C2
:1014A00001EB800006EB0010B0FBF5F000F00F0040
:1014B00021681044886070BDA0FB010192185B4157
:1014C000FEF780FE0146B0FBF5F00201B1FBF5F03E
:1014D0006FF01803584301EB800006EBC000B0FB2F
:1014E000F5F000F0F80002EB4002B1FBF5F05843D4
:1014F00001EB800006EBC000B0FBF5F000F0070048
:10150000D6E7000000100140001401402DE9F84327
:10151000984617460D460446089E24E0701C22D0CB
:10152000FFF7B4FAA0EB0800B0421AD8CEB1206899
:10153000C168490717D5802D15D0402D13D00168FB
:10154000C94309070FD40168002540680090204670
:10155000FFF72EFF0820606484F840500120BDE8AA
:10156000F8830320FBE72068006835EA000004D018
:101570000020B842D2D00020F1E70120F9E7FEE7D1
:101580000FB4054B10B503A9044A029800F080FD82
:1015900010BC5DF814FB0000793300081000002037
:1015A00003B401984100009850EAC12018BF0420FC
:1015B0004A0D18BF40F0010040F2FF72B2EB515FDC
:1015C00008BF40F00200012808BF052002B07047A4
:1015D0000907090E002804DB00F1E02080F8001460
:1015E000704700F00F0000F1E02080F8141D7047F4
:1015F00010B52F499FED2C1B2DED020B84B00598E3
:1016000020F000408842DCBF00209DED040B32DD5D
:101610002849884209D1049840B94FF0010000F0F0
:101620006FFC00F03DFC06B010BD05DB9DED040B2A
:1016300000F02AFC06B010BD68469DED040B00F0DA
:101640003BF810F0030011D0012818D09DED021BCB
:101650009DED000B02281AD000F04AFA51EC100B55
:1016600081F0004106B041EC100B10BD9DED021B56
:101670009DED000B012000F06FFB06B010BD9DED4D
:10168000021B9DED000B00F033FA06B010BD0120E7
:1016900000F062FB51EC100B81F0004106B041EC10
:1016A000100B10BD00000000000000000000000052
:1016B000FB21E93F0000F07F2DE9F14F04462DEDBD
:1016C000020B2DED088B8AB09FEDE70B80ED020B2E
:1016D000139EE74826F0004585420ADC9DED120B7B
:1016E000002084ED000B0AB0BDEC088B03B0BDE810
:1016F000F08FE0489FEDE0AB9FEDE1BBA84247DDF6
:10170000E14F9FEDE39B9FEDE48B9DED120B53ECBE
:101710001A2B51EC100B002E1CDDFEF758FE41EC8D
:10172000100BBD4208D053EC1B2B51EC100BFEF7F5
:101730004EFEC4E900010BE053EC192B51EC100BE9
:10174000FEF745FE53EC182BFEF741FEC4E90001FD
:101750000120C8E7FEF79AFD41EC100BBD4208D00E
:1017600053EC1B2B51EC100BFEF790FDC4E900016C
:101770000BE053EC192B51EC100BFEF787FD53ECEB
:10178000182BFEF783FDC4E900014FF0FF30AAE7F4
:10179000C348A84279DB9DED120B51EC100B01F010
:1017A000DFFD41EC180B9FEDC00B53EC102BFEF747
:1017B00014FE9FEDBF1B53EC112BFEF767FDFFF7E7
:1017C00037F80746FEF7EAFE41EC190B53EC1A2BEB
:1017D000FEF703FE53EC182BFEF7FCFD41EC180B53
:1017E00053EC1B2B51EC190BFEF7F7FDDFF8C8A2E9
:1017F00041EC100B4FEA15580125FA4453EC102B1D
:1018000051EC180BFEF7E3FD032DC4E900013DD0B8
:10181000C1F30A5005EB4511A8EB000011398142D4
:1018200034DA0AEB051BB0EE48AA9BED000BF0EE94
:1018300068AA53EC102B51EC190BFEF7CEFD41ECCE
:101840001B0B51EC1A0B53EC1B2BFEF7C0FD41ECAC
:10185000180B51EC1A0B53EC182BFEF7B8FD53EC98
:101860001B2BFEF7B4FD9BED020B41EC1A0B53EC66
:10187000102B51EC190BFEF7B0FD53EC1A2BFEF7B1
:10188000A6FD41EC100B6D1CB8E70EE0002EA8BFC2
:101890003846BFF628AF94ED000B51EC100B81F0E9
:1018A0000041C4E9000178421DE7C6F3130040F48B
:1018B000801EC6F30A50A0F2F530471100F01F0554
:1018C000C5F12000DDF848B0089000200690079090
:1018D0000520EC467949002D07EB0002794408BF4A
:1018E00051F8221009D051F8223001EB8201AB40AF
:1018F0004A68089922FA01F11943A1FB0E26A1FBBF
:101900000B131A449A4234BF0123002303EB060849
:101910000CEB8003D3E901A60E448E4234BF0121B3
:10192000002192448A4411B1924502D903E09245C4
:1019300001D2012100E00021C3E901A641444CF895
:101940002010011EA0F10100C4DC029800F100503B
:10195000850F0298DDE903678000DDF81480FEF74B
:101960001DFE41EC1A0B3046FEF729FE9FED541B7D
:1019700053EC112BFEF731FD41EC1B0B3846FEF703
:101980001EFE9FED511B53EC112BFEF726FD41EC83
:10199000180B4046FEF713FE9FED4D1B53EC112B29
:1019A000FEF71BFD41EC190B51EC180B53EC192BF6
:1019B000FEF76CFC53EC1B2BFEF768FC53EC1A2B68
:1019C000FEF764FCCDE90801002008909DED080BAE
:1019D00053EC1A2B51EC100BFEF7F9FC53EC1B2BBC
:1019E000FEF7F5FC53EC182BFEF7F1FC53EC192B2A
:1019F000FEF7F0FC9FED381B53EC112BFEF7EDFCCE
:101A00009FED370B41EC180B53EC102B9DED080BA1
:101A100051EC100BFEF7E1FC53EC182BFEF736FCF3
:101A20009FED310B41EC180B53EC102B9DED080B87
:101A300051EC100BFEF7D1FC53EC182BFEF726FCF3
:101A400041EC100B139810F0004F06D06D4251EC92
:101A5000100B81F0004141EC100B284684ED000B87
:101A600041E600000000000000000000000000004F
:101A7000FB21E93F7CD9024000004054FB21F93FA3
:101A80003163621A61B4D03DFB21F93F00000000D0
:101A90000000601A61B4D03D7370032E8A19A33B15
:101AA000FB2139410000000083C8C96D305FE43F6D
:101AB000000000000000E03F6A4B0000B84A000050
:101AC000000000000000103E000000000000103C7C
:101AD000000000000000103A182D4454FB21F93D8D
:101AE0003326A611460B113C00000054FB21F93DA2
:101AF00010B52DED040B2DED088B82B0B0EE419AA0
:101B0000F0EE619A0B9820F000449FED4BABB4F1DE
:101B1000795F11DA9DED0A0B51EC100BFEF788FE90
:101B2000002801BFB0EE4A0AF0EE6A0A02B0BDEC2E
:101B3000088B04BF04B010BD9DED0A0B53EC102BB5
:101B400051EC100BFEF749FC41EC180B3C48062108
:101B5000B0EE480AF0EE680A784400F081F853ECE1
:101B6000182B51EC100BFEF738FC9DED0A0B41ECE5
:101B70001B0B53EC192B51EC100BFEF72EFC41EC18
:101B8000190B53EC1B2B51EC180BFEF726FC53ECF6
:101B9000192BFEF71CFC9FED2C0B41EC190B53ECA1
:101BA000102B51EC180BFEF718FC41EC100B2848D9
:101BB000844210DA53EC192B51EC100BFEF707FCA2
:101BC00053EC1A2BFEF706FC41EC100B02B0BDECF7
:101BD000088B04B010BD1F48A042BCBF9FED1E1B68
:101BE0008DED001B06DBA4F5001001900020009095
:101BF0009DED001B51EC100B53EC112BFEF7E7FB96
:101C00009DED000B41EC180B53EC102B51EC1A0B13
:101C1000FEF7DDFB41EC1A0B53EC192B51EC180BC2
:101C2000FEF7D5FB53EC1A2BFEF7D4FB41EC100B5F
:101C3000CCE7000000000000000000000000F03FC2
:101C4000DC47000000000000000000000000E03F52
:101C50003333D33F0000E93F000000000000D23FD3
:101C600070B504462DED028B4D1E00EBC500B0EEA5
:101C7000408AF0EE608A90ED000B35F0060017D038
:101C800053EC182B51EC100BFEF7A7FB41EC100B9B
:101C90006D1E04EBC50090ED001B51EC100B53ECD6
:101CA000112BFEF7F3FA41EC100B35F00600E7D1EB
:101CB000022D36D0042D1CD0062D1CBFBDEC028B8E
:101CC00070BD53EC182B51EC100BFEF786FB94ED16
:101CD0000A1B53EC112BFEF7D9FA53EC182BFEF725
:101CE0007CFB94ED081B53EC112BFEF7CFFA41EC73
:101CF000100B53EC182B51EC100BFEF76EFB94ED10
:101D0000061B53EC112BFEF7C1FA53EC182BFEF710
:101D100064FB94ED040B53EC102BFEF7B7FA41EC87
:101D2000100B53EC182B51EC100BFEF756FB94EDF7
:101D3000021B53EC112BFEF7A9FA53EC182BFEF7FC
:101D40004CFB94ED001B53EC112BFEF79FFABDECFE
:101D5000028B41EC100B70BD31B504462DED040B28
:101D60002DED0A8BB0EE41BAF0EE61BA0B989DED05
:101D70000A0B20F00040B0F1795F0DDA51EC100B46
:101D8000FFF70EFC042808BF00F09AF89DED0A0B3F
:101D9000BDEC0A8B05B030BD53EC102B51EC100B91
:101DA000FEF71BFB41EC180B9DED0A0B53EC182BB7
:101DB00051EC100BFEF711FB41EC190B2C48B0EE67
:101DC000480AF0EE680A05217844FFF749FF9FEDC5
:101DD0002ACBB0EE40AAF0EE60AA9CB353EC1C2BC9
:101DE00051EC190BFEF7F9FA41EC1C0B53EC1A2BD2
:101DF00051EC190BFEF7F1FA9FED210B41EC190B99
:101E000053EC102B51EC1B0BFEF7E7FA53EC192B9C
:101E1000FEF7DDFA53EC182BFEF7DFFA53EC1B2B21
:101E2000FEF7D5FA53EC1C2BFEF7D1FA9DED0A1BF9
:101E300053EC112BFEF7CEFABDEC0A8B05B041EC4A
:101E4000100B30BDFFE753EC1A2B51EC180BFEF7CB
:101E5000C4FA53EC1C2BFEF719FA53EC192BFEF7BE
:101E6000BCFA9DED0A1B53EC112BFEF70FFAE3E7CA
:101E70006446000000000000495555555555C5BF42
:101E8000000000000000E03F10B553EC102B51ECB7
:101E9000100BFEF7FBF941EC100B10BD0000000029
:101EA0009FED050B10B553EC102B51EC100BFEF70A
:101EB00006FB41EC100B10BD00000000000000000C
:101EC0009FED050B10B553EC102B51EC100BFEF7EA
:101ED00084FA41EC100B10BD00000000000000105F
:101EE00002E008C8121F08C1002AFAD170477047E3
:101EF000002001E001C1121F002AFBD17047000041
:101F00000149086070470000140000202DE9FF5FC0
:101F100082B00021DDE90430020DDDF840B003435A
:101F200018D044F61050A2F2FF3242431514119813
:101F300001281FD0A5EB0B00401C5FEA000A4FF000
:101F400000064E4FDFF83891B046504615D5CAF11D
:101F5000000413E0119801244AA3012801D16FEA7B
:101F60000B010298119AC0E90031C0E9024206B0A3
:101F7000BDE8F09FCBF10000DFE704460021404AB6
:101F8000491842EB0450CDE9001012E0E00707D0F9
:101F900032463B4640464946FEF71FFA8046894690
:101FA00032463B4610461946FEF717FA06460F46DC
:101FB0006410002CEAD1DDE90401DDE90023BAF167
:101FC000000F06DAFEF709FA42464B46FEF705FA1D
:101FD00005E0FEF774FA42464B46FEF770FA0446F7
:101FE0000E460022284BFEF70BFB03D84FF0FF30C4
:101FF000014607E00022254B20463146FEF746F910
:10200000FEF7ECFB102409E0002C0ADB0A22002377
:10201000FEF7D8F8039B30321A55641E50EA0102CD
:10202000F2D1641C039AC4F111031444119A012AD9
:1020300003D0012208430DD10AE0084304D0002058
:102040004FF0110B119072E7A3EB0B056D1E0DE025
:102050005B4504DD4FF0000205F1010504E003DA01
:102060004FF00002A5F10105002AECD00298119969
:10207000C0E90231C0E9004579E7000000001440E2
:102080000000F03F300000000000F0430000E03F9F
:102090002DE9FF4F95B09A46884606460025EEE1A9
:1020A000252877D100242746F94A0121039400E02E
:1020B000044316F8013F203B01FA03F01042F7D128
:1020C00030782A2811D06FF02F033078A0F1300239
:1020D000092A16D8039A44F0020402EB820203EBA9
:1020E00042021044761C0390EFE758F8042B039249
:1020F000002A03DA504244F40054039044F00204EE
:10210000761C30782E2816D116F8010F44F00404FE
:102110002A280DD06FF02F023078A0F13003092B60
:1021200009D807EB870302EB4303C718761CF3E7D4
:1021300058F8047B761C30786C280FD006DC4C28CD
:1021400017D068280DD06A2814D104E0742810D064
:102150007A280FD10DE044F400140AE044F480140E
:1021600001E044F440147278824202D104F58014F4
:10217000761C761C307866280BD013DC582877D074
:1021800009DC002875D04528F6D04628F4D0472829
:102190001AD193E118E0632835D0642879D06528F6
:1021A00012D18BE1702873D008DC6728F1D0692840
:1021B0006FD06E280DD06F2806D1ACE073282CD0DC
:1021C000752874D0782853D05246179990476D1CC3
:1021D00054E1C4F30250022809D003280DD0D8F8E6
:1021E000001004280DD00D6008F1040846E1D8F86D
:1021F0000010EA17C1E90052F6E7D8F800100D8088
:10220000F2E70D70F0E718F8041B8DF800100020BD
:102210008DF80100EB46012003E058F804BB4FF0B5
:10222000FF3061074FF0000102D40DE009F1010118
:102230008946B9420FDA8145F8DB1BF809100029FD
:10224000F4D108E009F1010189468142FADB1BF86B
:1022500009100029F6D103985346A0EB090721463F
:102260003846179A00F080FA284400EB090507E089
:1022700044E008E10DE01BF8010B52461799904726
:10228000B9F10109F7D2534621463846179AF2E0D0
:1022900039E00A21C4F302524FF0000B0091022AE8
:1022A00006D058F8040BC117032A09D00AE023E02E
:1022B00008F1070020F00702F2E80201904605E06D
:1022C00000B2C117042A01D140B2C117002906DAB1
:1022D0000A460021404261EB02012D2202E0220564
:1022E00004D52B228DF80420012203E0E20701D05F
:1022F0002022F7E7914657E00A2100E010214FF035
:10230000000B00910BE010214FF0000B44F004048F
:102310000827009103E008204FF0000B0090C4F361
:102320000252022A05D058F8040B0021032A08D0D3
:1023300008E008F1070020F00702F2E802019046E9
:1023400003E080B2042A00D1C0B24FF00009220796
:102350002AD53278702A07D0DDF800C08CF0100C36
:102360005CEA0B0C05D00EE040228DF8042001221F
:1023700008E050EA010306D030238DF804308DF8D0
:10238000052002229146009B83F0080353EA0B03C9
:102390000AD150EA010201D1620705D530228DF839
:1023A00004204FF001097F1E3278582A04D039A248
:1023B0000C920CAA02920BE03BA2F9E75B46009A52
:1023C000FDF700FF0C9B9B5C029A521E0292137059
:1023D00050EA0102F2D1029804A9081A00F1200B78
:1023E000600702D524F4803400E001275F4502DD58
:1023F000A7EB0B0000E0002000EB0B01009003981E
:102400004944401A0390E00306D453462146179AE4
:10241000039800F0A9F90544002706E001A85246F8
:10242000C05D179990476D1C7F1C4F45F6DBE0039C
:102430000CD553462146179A039800F095F90544A8
:1024400004E030205246179990476D1C0099481EB1
:1024500000900029F5DC08E00298029952460078C5
:10246000491C0291179990476D1CBBF10001ABF11B
:10247000010BF1DC5BE100F065F90544761C307876
:1024800000287FF40DAE19B02846BDE8F08F00009B
:10249000092801003031323334353637383961623A
:1024A00063646566000000003031323334353637FE
:1024B000383941424344454600000000600700D4DB
:1024C000062708F1070020F00700F0E80223804605
:1024D00003F0004C5FEA0C0001D097A009E0200552
:1024E00001D596A005E0E00701D095A001E0AFF28C
:1024F0004C001390307823F0004365280CD006DCA4
:10250000452809D046281DD047287FD13BE06628C2
:1025100018D067287AD136E00021112F01DB112075
:1025200000E0781CCDE9000104A90CA8FFF7EEFC3F
:10253000DDE90D010C9A4FF0000B07F10109109233
:1025400000914EE04FF000400097CDE9011004A942
:102550000CA8FFF7DBFCDDE90D020C9B0F994FF097
:10256000000B91461093009211B9791C00EB010900
:10257000B7EB090003D4C0F1FF3B07F10109A9EB58
:102580000700019042E0012F00DA01270021112FFE
:1025900001DD112000E03846CDE9000104A90CA8B6
:1025A000FFF7B4FCDDE90D010C9A00914FF0000B30
:1025B000B946109221070FD4009A4A4503DA914692
:1025C00001E0A9F10109B9F1010F05DD109AA9F1A6
:1025D0000101515C3029F4D0B84202DA10F1040F45
:1025E00003DA0121CDE9011010E0002803DC834467
:1025F000A9EB000102E0411C494500DD8946A0EB42
:102600000B00401C01904FF000400290200705D4C1
:102610000198484502DB4FF0FF30019000208DF813
:102620004B0002980DF14B07B0F1004F25D002206E
:102630000C902B200D90029800280CDA404202905A
:102640002D200D9007E00A210298FEF70DF8303199
:10265000029007F8011D0C99481E0C900029F2DC2D
:1026600002980028EFD1791E0D980870307800F09C
:10267000200040F0450007F8020D11A8C01BC01D46
:1026800002901398007800B1012000EB0901019835
:1026900001EBE071029801440398401A401E039038
:1026A000E00306D453462146179A039800F05CF8DD
:1026B00005441398007818B15246179990476D1C3D
:1026C000E00323D553462146179A039800F04CF8AF
:1026D00005441BE0BBF1000F07DB0098584504DD03
:1026E0001098179910F80B0001E017993020524606
:1026F000904701980BF1010B401E05F10105019077
:1027000004D12E205246179990476D1CB9F1000153
:10271000A9F10109DEDC05E017F8010B5246179913
:1027200090476D1C0299481E02900029F4DC534624
:102730002146179A03989EE62D0000002B0000000A
:10274000200000002DE9F041044600251E461746F2
:10275000880404D405E039462020B0476D1C641E6F
:10276000F9D52846BDE8F0812DE9F0410446002561
:102770001E469046C80301D5302700E02027880474
:1027800004D505E041463846B0476D1C641EF9D5B6
:102790002846BDE8F0810000F0B5002318E000BF36
:1027A00002EB430532F813406D88A408AD0850F8D9
:1027B000246050F8257040F8247040F8256000EB44
:1027C000840400EB850566686F6867609B1C6E601B
:1027D0008B42E5D3F0BD2DE9F041058898461746B8
:1027E0000C460646012A0CD1201D002107E090ED81
:1027F000000AB1EE400A80ED000A0830491CA942E7
:10280000F5D3B5F5807F1BD008DC102D13D0202D1B
:1028100016D0402D19D0802D1DD10CE0B5F5007FCC
:1028200013D0B5F5806F06D0B5F5006F08D0B5F5BB
:10283000805F10D109E02146304600F032F80AE00E
:102840002146304600F0F1F805E0294601232046F4
:10285000726800F023FBB8F1000F04D0B189204664
:10286000B268FFF799FF012F19D100EE105AB7EEA9
:10287000001A0020F8EE400A81EE200A0DE0D4EDA7
:10288000000A401C60EE800AC4ED000AD4ED010A83
:1028900060EEC00AC4ED010A0834A842EFD3BDE8D7
:1028A000F0812DE9F04105462DED028B8C46028822
:1028B0006E6801EB82005408804601EB840200EB55
:1028C0008403A7087CD091ED003AD0ED002A91ED69
:1028D000015A90ED014A33EE228AD1ED027A91ED50
:1028E000031A90ED022AD0ED033A92ED007AD2ED70
:1028F000016AD2ED021AD2ED034AD3ED000A93ED3C
:10290000010AD3ED025A93ED036A81ED008A35EE98
:10291000048A33EE623A75EE442A81ED018A37EE7D
:10292000828A31EE635A37EEC24A81ED028A31EE75
:10293000238A37EE201A30EEC72A81ED038A82ED12
:10294000001A36EE801A76EE643A82ED011A31EE04
:10295000A51A75EEE11A82ED021A34EE861A82ED9E
:10296000031A30EE661A96ED000AD6ED010A63EE00
:10297000004A62EEA05A62EE802A23EE203A74EEFC
:10298000A54A72EEC32AC0ED004A22EE203AC0EDFD
:10299000012A61EE002A61EE200A22EE000A33EEDF
:1029A000621A30EE800A83ED001A83ED010A96ED7B
:1029B000020AD6ED030A24EE002A25EE201A00E0D2
:1029C00023E065EE002A24EE203A32EE011A23EECF
:1029D000802A21EE800A80ED021A32EEC31A1031ED
:1029E000103280ED031A21EEA01A63EEA00A103017
:1029F000103631EE421A30EE800A83ED021A83ED72
:102A0000030A10337F1E7FF45EAF21460223604627
:102A10006A6800F043FA6A682146BDEC028B4046C2
:102A2000BDE8F041022300F039BA2DE9F34F2DED56
:102A3000048B87B00B9800884FEA500801EB8800A0
:102A400000EB880303EB8804CDE90043DDF82CC0DC
:102A5000221F02EB8807CDE902014FEA5808DCF893
:102A600004A0CDF810804FF00408CDF818804FF086
:102A70000608CDF81480D1ED000A93ED000AD0EDE0
:102A8000013A94ED013A30EE802A70EEC01AD1ED91
:102A9000010A93ED010A061F1D1F70EE802A30EE19
:102AA000C01A33EEA10AD4ED000A71EEE31A0AF15E
:102AB000080B70EE435A90ED000A71EE831A0AF18A
:102AC000100931EE404A72EE404A30EE011A30EE03
:102AD000020A34EE204A34EEE05A31EE601A30EE4B
:102AE000200A72EEE34A0AF1180A81ED000A90ED1D
:102AF000010AD4ED010A74EEC34A30EE220A30EE28
:102B0000200A81ED010AC0ED005A80ED014A83EDF3
:102B1000005AC3ED014AC4ED001A84ED011ADDF834
:102B200010800830A8F10208083108334FEA580C29
:102B30000834D1ED000A93ED000A5FEA0C0E70EE46
:102B4000804A70EEC01AD1ED010A93ED010A7ED0E1
:102B500090ED015A30EE802A30EEC01A35EE210A8F
:102B6000D4ED013AD0ED000A71EEC51A70EE635A49
:102B700071EE602A94ED000A30EE811A71EEA31A0C
:102B800032EE804A74EEE02A70EEA40A31EE401A6A
:102B900032EEC03A30EE800A72EE452A81ED000A2C
:102BA00090ED010AD4ED010A72EEE32A30EE020A3A
:102BB00030EE200A81ED010A56ED010A12ED010AFC
:102BC00015ED015A57ED017A70EE808A30EEC02A79
:102BD000D6ED000A92ED000A95ED007A30EE808A7B
:102BE00030EEC00AD7ED000A70EE453A37EE609A33
:102BF00073EEA76A78EEC53A37EEC55A39EE026A27
:102C000039EE422A73EEE74A35EE405A37EE080AAB
:102C100078EE473A30EE200A73EEE03A86ED000A8D
:102C200015ED010A57ED010A30EE280A30EE200AB0
:102C300006ED010A9BED000ADBED010A0BF1080B22
:102C400025EE807A64EE207A24EE008A00E074E0BB
:102C500025EEA04A77EE275A0831083EC0ED005A0B
:102C600038EE444A66EEA05A66EE200A80ED014A2C
:102C700026EE004A26EE800A0830AEF1010C35EE51
:102C8000C44A30EE800A85ED004A05ED010AD9ED0F
:102C9000000A99ED010ADDF8188023EE204A62EE61
:102CA000805A62EEA02A23EE003A09EB880934EE3E
:102CB000254A083D72EEC32A83ED004A23EEE03A2E
:102CC000C3ED012A64EE802A64EEA00A23EE800A96
:102CD000083373EE622A30EE600AC2ED002A02ED7C
:102CE000010ADAED000A9AED010ADDF8148021EEFE
:102CF000A03A61EE002A61EE203A21EE801A083AED
:102D000073EE221A0AEB880A33EEC11AC4ED001AD8
:102D100062EE201A84ED011A25EE001A22EE000A56
:102D200065EE200A083431EE611A30EE200A87ED94
:102D3000001A07ED010A083FFBE630EE805A90EDDD
:102D4000011A70EEC05A94ED012A31EE210AD0ED3D
:102D5000000A35EE414A31EEC11A70EE422A94ED76
:102D6000000A35EEE03A74EEE03A70EEA51A70EE25
:102D7000A40A33EE003A73EEC03A71EEC01A30EE98
:102D8000800A34EE424A31EE021A81ED000A90EDDB
:102D9000010AD4ED010A30EE050A30EE200A81ED79
:102DA000010A9BEC020A62EE804A23EE202A23EEFF
:102DB000000A62EEA00A34EE822A30EE600A80ED4C
:102DC000002A80ED010AD9ED000A99ED010A23EEEF
:102DD000A02A64EE002A64EE200A23EE800A32EE76
:102DE000222A30EEC00A83ED002A83ED010A042373
:102DF0009AEC020A21EE002A61EEA02A21EE800A56
:102E000061EE200A32EE221A30EE600A84ED001ADA
:102E100084ED010A0B984268DDE9030100F03EF8F9
:102E20000B98042304994268029800F037F80B9835
:102E3000042304994268019800F030F80B98049933
:102E400004234268009807B0BDEC048B02B0BDE8D3
:102E5000F04F00F023B800009FED0F1A18E000BFFC
:102E600090ED000AD0ED010A0B4620EE000A091D84
:102E7000083000EEA00AB5EEC00AF1EE10FA04DB4D
:102E8000F1EEC00AC3ED000A01E083ED001A521E04
:102E9000002AE5D170470000000000002DE9FF4F37
:102EA0002DED108B84B09FEDFE0A15990291C90893
:102EB00000235E18771807EB010E0EEB010404EBFC
:102EC000010C0CEB010808EB010900EBC305CDF880
:102ED000009000EBC40495ED001AD4ED000A00EB5D
:102EE000C60B00EBCC0671EE201A31EE604A9BED6A
:102EF000001AD6ED000A00EBC70A00EBC80831EE55
:102F0000202A71EE604ADDF80090DAED000A98EDB3
:102F1000001A00EBCE0700EBC90CD7ED003ADCED50
:102F2000002A30EE813A30EEC11A73EEA20A33EE77
:102F3000E25A71EEC32A31EE833A72EE601A72EEF3
:102F4000200A33EE202A73EE600A85ED002AC4EDD4
:102F5000000A95ED013AD4ED010ADBED013ADAED14
:102F6000015A33EE202A33EE603AD6ED010AD7ED4E
:102F7000017A73EEA06A73EEE00AD8ED013A35EEFD
:102F8000A37A75EEE33ADCED015A37EEA56A77EEE7
:102F9000E55A72EE477A32EE077A36EEC62A36EEF8
:102FA000866A77EE066A37EE466AC5ED016A84EDF9
:102FB000016A32EE826A32EEC22A8AED006A88ED38
:102FC000002A37EEE12A77EEA11A8AED012AC8ED30
:102FD000011A74EEC51A21EE802A74EE851A74EE79
:102FE000424A61EE802A70EEE51A70EEA50A34EED0
:102FF000022A61EE801A20EE805A71EE620A31EEEA
:10300000221A73EE612A73EE211A33EEC53A73EE7B
:10301000853A32EE234A32EE632A8BED004A8CED7C
:10302000002A34EE832A86ED002A34EEC32A87ED87
:10303000002A31EEC12A31EE811A8BED012A8CED86
:10304000011A32EEE01A72EEA00A86ED011AC7EDFF
:10305000010A029C2344159CA342FFF42AAF0829CD
:103060007ED30023019301230093179C019B2344EB
:1030700001939E004FEA430CF5180CEB0307EC1884
:103080002344DDF8048002EBC30302EBC80802EB23
:10309000CC0C02EBC70702EBC60602EBC50502EB40
:1030A000C40493ED009A93ED01AAD8ED00DA9CEDEB
:1030B00000DAD7ED00CA96ED00CAD5ED00BA94ED5E
:1030C00000BAD8ED018A9CED018AD7ED01AAD6EDB0
:1030D000017A95ED017AD4ED016A009B5D186E18B6
:1030E00006EB010CCDF80CC08C440CEB010700EB97
:1030F000C30400EBCC0A94ED001ADAED000A00EBF1
:10310000C50E00EBC70B9EED002ADBED001A71EE39
:10311000203A07EB010831EE601A72EE210A00EB4B
:10312000C60500EBC80772EE611AD5ED002A97EDCF
:10313000002ADDF80CC008EB010972EE824A00EBB0
:10314000CC0600EBC90832EEC22A96ED003AD8ED63
:10315000002A33EE224A73EE622A33EEE43A00E0AC
:10316000F9E070EEC45A73EEA43A70EE840A33EEBE
:10317000A04A33EEE0EA84ED004AD4ED013ADAEDFC
:10318000010A9EED014AD5ED014A33EEA0FA73EE35
:10319000E03ADBED010AD6ED01EA98ED015A74EE52
:1031A000209A34EE604AD7ED010A34EEA06A74EE3C
:1031B000E04A7EEE850A3EEEC55A7FEE46EA3FEED5
:1031C000066A39EEE0FA79EEA09A73EE0F0A33EE52
:1031D0004F3A36EE29FA76EE699A3EEEE56A84EDCC
:1031E00001FA7EEEA55A6CEE0EEA27EEA9FA6CEE15
:1031F000299A27EE8EEA7EEE8FEA79EECE9ACAED14
:1032000000EA28EE06EACAED019A6DEE209A2DEE4C
:10321000066A68EE200A79EE8E9A76EE600AC5EDAF
:10322000009A2BEE036A66EEA59AC5ED010A6BEED5
:10323000255A66EE830A36EE293A75EEE00A87EDE6
:10324000003A34EE053AC7ED010A71EEE20A71EE7A
:10325000A21A74EE452A23EE004A60EE800A61EE5F
:10326000801A62EE802A31EE603A71EE200A32EE68
:10327000611A72EE211A33EEE22A73EEA22A74EE7C
:10328000C43A74EE844A30EEA44A70EEE40A73EE57
:10329000234A33EE633A72EEE13A72EEA12A01E07C
:1032A000F304353F72EE411A32EE011A2DEE842AF4
:1032B00028EEA35A6DEEA33A28EE844A32EE052A90
:1032C0008EED002A33EEC42A6AEE223A69EE222AF3
:1032D0008EED012A29EE202A6AEE200A32EE232AF8
:1032E00072EEE00A67EE242A88ED002AC8ED010A92
:1032F0006BEEA40A27EE212A6BEEA11A70EE820A69
:103300002AEE832ACBED000A71EEE20A6AEE811AF8
:103310002CEE811ACBED010A6CEE830A70EEA10A45
:10332000C6ED000A71EE420AC6ED010A029C234472
:10333000159CA342FFF4D2AE009B5B1C00938B4212
:10334000FFF493AE179B4FF6FF7404EAC303179381
:1033500007293FF6ABAD04B0BDEC108BBDE8FF8F85
:1033600082B0CDE9000121F0004001909DED000BFD
:1033700002B051EC100B704738B504468DF80000D0
:103380000223012269460248FDF730FF204638BD7E
:10339000184000202DED088B0024FDF785FBFDF77C
:1033A000B7FFFDF775FFFDF791FF9FED448B9FED94
:1033B000459B9FED46AB474F4FF4806807F540595A
:1033C0002046FDF7EBF80E4646EC100B054653EC95
:1033D000182B51EC100BFDF700F841EC100BFEF729
:1033E00007F9B0EE40BAF0EE60BA46EC105B53EC71
:1033F000192B51EC100BFCF7F0FF41EC100BFEF712
:10340000F7F853EC1A2B51EC100BFCF7E6FF53ECDA
:103410001B2BFCF73BFFFDF70BF947F82400464652
:10342000641CB442CCDBDFF8B0809FED2C8A002016
:103430004FEA080107EB800292ED000A01EBC0029F
:10344000401C82ED000A82ED018AB042F2DB0123CA
:10345000002221492248FFF7BEF9324621491E4881
:10346000FFF7FAFC99ED000ADFED1F0A4D46002038
:1034700020EE200A89ED000A9FED1C0A05EB800171
:10348000401CD1ED000AB04260EE800AC1ED000A96
:10349000F4DB002455F82400FDF79EF841EC100BF6
:1034A000214653EC102B12A0FEF76AF8641CB442BC
:1034B000F0DB41F28830FDF7DFF9B8E700000000EB
:1034C00000A0E33F1F85EB51B81E793F00000000CC
:1034D0000000144018000020181000200000000018
:1034E00024630008183000200000803A0000003BF0
:1034F00025643A09252E32660D0A000000000000FE
:103500000000000001020304060708090000000093
:10351000010203040000803F00000000C4FE7F3F62
:10352000890FC93B11FB7F3F900E493CE6F47F3F7A
:10353000B6C9963C43EC7F3FB00AC93C29E17F3FC6
:10354000B949FB3C98D37F3F2CC3163D8FC37F3FC7
:1035500007E02F3D0FB17F3F2FFB483D189C7F3F79
:103560006814623DAB847F3F742B7B3DC76A7F3F0D
:103570000A208A3D6D4E7F3F05A9963D9D2F7F3FD6
:103580008C30A33D580E7F3F80B6AF3D9DEA7E3F15
:10359000C33ABC3D6DC47E3F36BDC83DC99B7E3F2E
:1035A000B93DD53DB0707E3F2EBCE13D23437E3F0B
:1035B0007638EE3D24137E3F73B2FA3DB1E07D3F95
:1035C0000295033ECCAB7D3F86CF093E74747D3FB0
:1035D000B708103EAC3A7D3F8340163E73FE7C3FF9
:1035E000DE761C3EC9BF7C3FB6AB223EB07E7C3F40
:1035F000FCDE283E283B7C3FA2102F3E31F57B3F6E
:103600009840353ECDAC7B3FCF6E3B3EFC617B3F6F
:10361000379B413EBE147B3FC2C5473E16C57A3F2D
:1036200060EE4D3E02737A3F0115543E841E7A3F90
:1036300097395A3E9DC7793F135C603E4E6E793F85
:10364000667C663E9812793F7F9A6C3E7BB4783FE9
:1036500051B6723EF853783FCCCF783E10F1773FA9
:10366000E1E67E3EC58B773FC07D823E1724773FE3
:10367000CE86853E07BA763F938E883E974D763F3D
:1036800007958B3EC6DE753F229A8E3E976D753F3D
:10369000DD9D913E0BFA743F31A0943E2284743F2D
:1036A00017A1973EDD0B743F86A09A3E3F91733F72
:1036B000789E9D3E4714733FE59AA03EF894723F72
:1036C000C595A33E5213723F128FA63E578F713F8E
:1036D000C486A93E0809713FD47CAC3E6680703F29
:1036E0003A71AF3E73F56F3FEF63B23E30686F3FA4
:1036F000EC54B53E9ED86E3F2A44B83EBE466E3F5F
:10370000A031BB3E93B26D3F4A1DBE3E1D1C6D3FB6
:103710001E07C13E5E836C3F15EFC33E58E86B3F0A
:1037200029D5C63E0C4B6B3F53B9C93E7BAB6A3FB4
:103730008B9BCC3EA7096A3FCA7BCF3E9165693F10
:10374000095AD23E3CBF683F4136D53EA816683F75
:103750006B10D83ED86B673F80E8DA3ECCBE663F40
:1037600079BEDD3E880F663F4F92E03E0B5E653FBF
:10377000FA63E33E59AA643F7533E63E73F4633F50
:10378000B700E93E5A3C633FBBCBEB3E1082623F41
:103790007994EE3E98C5613FEA5AF13EF206613FE8
:1037A000071FF43E2146603FCBE0F63E27835F3F94
:1037B0002DA0F93E05BE5E3F275DFC3EBEF65D3F97
:1037C000B217FF3E532D5D3FE4E7003FC7615C3F0A
:1037D000B142023F1A945B3F3D9C033F50C45A3FA5
:1037E00084F4043F6AF2593F824B063F6A1E593FF8
:1037F00036A1073F5348583F9BF5083F2670573F77
:10380000AD480A3FE595563F6B9A0B3F93B9553F3C
:10381000D0EA0C3F31DB543FDA390E3FC3FA533F55
:1038200084870F3F4918533FCDD3103FC633523FD3
:10383000B01E123F3D4D513F2A68133FAF64503FC9
:1038400039B0143F1F7A4F3FD9F6153F908D4E3F48
:10385000073C173F029F4D3FC07F183F79AE4C3F5A
:1038600000C2193FF8BB4B3FC6021B3F7FC74A3F10
:103870000C421C3F12D1493FD17F1D3FB3D8483F76
:1038800012BC1E3F65DE473FCBF61F3F2AE2463F94
:10389000F92F213F03E4453F9967223FF5E3443F79
:1038A000A99D233F00E2433F25D2243F29DE423F2A
:1038B0000A05263F70D8413F5636273FDAD0403FB1
:1038C0000566283F67C73F3F1594293F1BBC3E3F15
:1038D00082C02A3FF9AE3D3F4AEB2B3F03A03C3F5D
:1038E00069142D3F3B8F3B3FDE3B2E3FA47C3A3F8C
:1038F000A5612F3F4268393FBB85303F1652383FA4
:103900001DA8313F233A373FC9C8323F6C20363FAC
:10391000BCE7333FF304353FF304353FBCE7333FA7
:103920006C20363FC9C8323F233A373F1DA8313F8C
:103930001652383FBB85303F4268393FA5612F3F63
:10394000A47C3A3FDE3B2E3F3B8F3B3F69142D3F2B
:1039500003A03C3F4AEB2B3FF9AE3D3F82C02A3FDC
:103960001BBC3E3F1594293F67C73F3F0566283F74
:10397000DAD0403F5636273F70D8413F0A05263FF0
:1039800029DE423F25D2243F00E2433FA99D233F49
:10399000F5E3443F9967223F03E4453FF92F213F78
:1039A0002AE2463FCBF61F3F65DE473F12BC1E3F73
:1039B000B3D8483FD17F1D3F12D1493F0C421C3F35
:1039C0007FC74A3FC6021B3FF8BB4B3F00C2193FAF
:1039D00079AE4C3FC07F183F029F4D3F073C173FD9
:1039E000908D4E3FD9F6153F1F7A4F3F39B0143FA7
:1039F000AF64503F2A68133F3D4D513FB01E123F08
:103A0000C633523FCDD3103F4918533F84870F3FF1
:103A1000C3FA533FDA390E3F31DB543FD0EA0C3F53
:103A200093B9553F6B9A0B3FE595563FAD480A3F1A
:103A30002670573F9BF5083F5348583F36A1073F34
:103A40006A1E593F824B063F6AF2593F84F4043F95
:103A500050C45A3F3D9C033F1A945B3FB142023F22
:103A6000C7615C3FE4E7003F532D5D3FB217FF3E67
:103A7000BEF65D3F275DFC3E05BE5E3F2DA0F93ED4
:103A800027835F3FCBE0F63E2146603F071FF43EB1
:103A9000F206613FEA5AF13E98C5613F7994EE3EE5
:103AA0001082623FBBCBEB3E5A3C633FB700E93E1E
:103AB00073F4633F7533E63E59AA643FFA63E33E0D
:103AC0000B5E653F4F92E03E880F663F79BEDD3E5C
:103AD000CCBE663F80E8DA3ED86B673F6B10D83EBD
:103AE000A816683F4136D53E3CBF683F095AD23ED2
:103AF0009165693FCA7BCF3EA7096A3F8B9BCC3E4D
:103B00007BAB6A3F53B9C93E0C4B6B3F29D5C63ED0
:103B100058E86B3F15EFC33E5E836C3F1E07C13E06
:103B20001D1C6D3F4A1DBE3E93B26D3FA031BB3E92
:103B3000BE466E3F2A44B83E9ED86E3FEC54B53E1A
:103B400030686F3FEF63B23E73F56F3F3A71AF3E3F
:103B50006680703FD47CAC3E0809713FC486A93EA4
:103B6000578F713F128FA63E5213723FC595A33EE9
:103B7000F894723FE59AA03E4714733F789E9D3EAD
:103B80003F91733F86A09A3EDD0B743F17A1973E8D
:103B90002284743F31A0943E0BFA743FDD9D913E28
:103BA000976D753F229A8E3EC6DE753F07958B3E18
:103BB000974D763F938E883E07BA763FCE86853EF8
:103BC0001724773FC07D823EC58B773FE1E67E3E7E
:103BD00010F1773FCCCF783EF853783F51B6723E24
:103BE0007BB4783F7F9A6C3E9812793F667C663E44
:103BF0004E6E793F135C603E9DC7793F97395A3EC0
:103C0000841E7A3F0115543E02737A3F60EE4D3EAA
:103C100016C57A3FC2C5473EBE147B3F379B413E27
:103C2000FC617B3FCF6E3B3ECDAC7B3F9840353E49
:103C300031F57B3FA2102F3E283B7C3FFCDE283E27
:103C4000B07E7C3FB6AB223EC9BF7C3FDE761C3ED9
:103C500073FE7C3F8340163EAC3A7D3FB708103E72
:103C600074747D3F86CF093ECCAB7D3F0295033E09
:103C7000B1E07D3F73B2FA3D24137E3F7638EE3DCE
:103C800023437E3F2EBCE13DB0707E3FB93DD53D24
:103C9000C99B7E3F36BDC83D6DC47E3FC33ABC3D27
:103CA0009DEA7E3F80B6AF3D580E7F3F8C30A33DEE
:103CB0009D2F7F3F05A9963D6D4E7F3F0A208A3D8F
:103CC000C76A7F3F742B7B3DAB847F3F6814623DA6
:103CD000189C7F3F2FFB483D0FB17F3F07E02F3DF2
:103CE0008FC37F3F2CC3163D98D37F3FB949FB3C20
:103CF00029E17F3FB00AC93C43EC7F3FB6C9963CFF
:103D0000E6F47F3F900E493C11FB7F3F890FC93B92
:103D1000C4FE7F3F000000000000803F890FC9BB48
:103D2000C4FE7F3F900E49BC11FB7F3FB6C996BCD5
:103D3000E6F47F3FB00AC9BC43EC7F3FB949FBBC06
:103D400029E17F3F2CC316BD98D37F3F07E02FBDED
:103D50008FC37F3F2FFB48BD0FB17F3F681462BD0B
:103D6000189C7F3F742B7BBDAB847F3F0A208ABDAC
:103D7000C76A7F3F05A996BD6D4E7F3F8C30A3BDBE
:103D80009D2F7F3F80B6AFBD580E7F3FC33ABCBD6D
:103D90009DEA7E3F36BDC8BD6DC47E3FB93DD5BDF1
:103DA000C99B7E3F2EBCE1BDB0707E3F7638EEBD34
:103DB00023437E3F73B2FABD24137E3F029503BEB8
:103DC000B1E07D3F86CF09BECCAB7D3FB70810BECA
:103DD00074747D3F834016BEAC3A7D3FDE761CBED8
:103DE00073FE7C3FB6AB22BEC9BF7C3FFCDE28BE63
:103DF000B07E7C3FA2102FBE283B7C3F984035BE52
:103E000031F57B3FCF6E3BBECDAC7B3F379B41BE98
:103E1000FC617B3FC2C547BEBE147B3F60EE4DBE1A
:103E200016C57A3F011554BE02737A3F97395ABEC0
:103E3000841E7A3F135C60BE9DC7793F667C66BE78
:103E40004E6E793F7F9A6CBE9812793F51B672BE22
:103E50007BB4783FCCCF78BEF853783FE1E67EBEA6
:103E600010F1773FC07D82BEC58B773FCE8685BE81
:103E70001724773F938E88BE07BA763F07958BBE8F
:103E8000974D763F229A8EBEC6DE753FDD9D91BE70
:103E9000976D753F31A094BE0BFA743F17A197BE82
:103EA0002284743F86A09ABEDD0B743F789E9DBE2F
:103EB0003F91733FE59AA0BE4714733FC595A3BEDB
:103EC000F894723F128FA6BE5213723FC486A9BEE9
:103ED000578F713FD47CACBE0809713F3A71AFBEB9
:103EE0006680703FEF63B2BE73F56F3FEC54B5BEB2
:103EF00030686F3F2A44B8BE9ED86E3FA031BBBE2B
:103F0000BE466E3F4A1DBEBE93B26D3F1E07C1BE88
:103F10001D1C6D3F15EFC3BE5E836C3F29D5C6BE29
:103F200058E86B3F53B9C9BE0C4B6B3F8B9BCCBE63
:103F30007BAB6A3FCA7BCFBEA7096A3F095AD2BE94
:103F40009165693F4136D5BE3CBF683F6B10D8BE16
:103F5000A816683F80E8DABED86B673F79BEDDBE41
:103F6000CCBE663F4F92E0BE880F663FFA63E3BE69
:103F70000B5E653F7533E6BE59AA643FB700E9BEE4
:103F800073F4633FBBCBEBBE5A3C633F7994EEBE08
:103F90001082623FEA5AF1BE98C5613F071FF4BE26
:103FA000F206613FCBE0F6BE2146603F2DA0F9BE90
:103FB00027835F3F275DFCBE05BE5E3FB217FFBE95
:103FC000BEF65D3FE4E700BF532D5D3FB14202BF47
:103FD000C7615C3F3D9C03BF1A945B3F84F404BF00
:103FE00050C45A3F824B06BF6AF2593F36A107BF01
:103FF0006A1E593F9BF508BF5348583FAD480ABF5A
:104000002670573F6B9A0BBFE595563FD0EA0CBF21
:1040100093B9553FDA390EBF31DB543F84870FBF68
:10402000C3FA533FCDD310BF4918533FB01E12BF40
:10403000C633523F2A6813BF3D4D513F39B014BFBC
:10404000AF64503FD9F615BF1F7A4F3F073C17BFEB
:10405000908D4E3FC07F18BF029F4D3F00C219BFD9
:1040600079AE4C3FC6021BBFF8BB4B3F0C421CBF96
:104070007FC74A3FD17F1DBF12D1493F12BC1EBF2F
:10408000B3D8483FCBF61FBF65DE473FF92F21BFAE
:104090002AE2463F996722BF03E4453FA99D23BF1B
:1040A000F5E3443F25D224BF00E2433F0A0526BF83
:1040B00029DE423F563627BF70D8413F056628BFEC
:1040C000DAD0403F159429BF67C73F3F82C02ABF5F
:1040D0001BBC3E3F4AEB2BBFF9AE3D3F69142DBFE1
:1040E00003A03C3FDE3B2EBF3B8F3B3FA5612FBF74
:1040F000A47C3A3FBB8530BF4268393F1DA831BF21
:104100001652383FC9C832BF233A373FBCE733BFE6
:104110006C20363FF30435BFF304353F6C2036BFC7
:10412000BCE7333F233A37BFC9C8323F165238BFC6
:104130001DA8313F426839BFBB85303FA47C3ABFE0
:10414000A5612F3F3B8F3BBFDE3B2E3F03A03CBF13
:1041500069142D3FF9AE3DBF4AEB2B3F1BBC3EBF60
:1041600082C02A3F67C73FBF1594293FDAD040BFBE
:104170000566283F70D841BF5636273F29DE42BF2B
:104180000A05263F00E243BF25D2243FF5E344BFA2
:10419000A99D233F03E445BF9967223F2AE246BF1A
:1041A000F92F213F65DE47BFCBF61F3FB3D848BF8D
:1041B00012BC1E3F12D149BFD17F1D3F7FC74ABFEE
:1041C0000C421C3FF8BB4BBFC6021B3F79AE4CBF35
:1041D00000C2193F029F4DBFC07F183F908D4EBF58
:1041E000073C173F1F7A4FBFD9F6153FAF6450BF4A
:1041F00039B0143F3D4D51BF2A68133FC63352BFFB
:10420000B01E123F491853BFCDD3103FC3FA53BF5E
:1042100084870F3F31DB54BFDA390E3F93B955BF66
:10422000D0EA0C3FE59556BF6B9A0B3F267057BFFF
:10423000AD480A3F534858BF9BF5083F6A1E59BF17
:1042400036A1073F6AF259BF824B063F50C45ABF9E
:1042500084F4043F1A945BBF3D9C033FC7615CBF7D
:10426000B142023F532D5DBFE4E7003FBEF65DBFA4
:10427000B217FF3E05BE5EBF275DFC3E27835FBFD2
:104280002DA0F93E214660BFCBE0F63EF20661BFAD
:10429000071FF43E98C561BFEA5AF13E108262BF23
:1042A0007994EE3E5A3C63BFBBCBEB3E73F463BFE5
:1042B000B700E93E59AA64BF7533E63E0B5E65BFA1
:1042C000FA63E33E880F66BF4F92E03ECCBE66BF06
:1042D00079BEDD3ED86B67BF80E8DA3EA81668BFBE
:1042E0006B10D83E3CBF68BF4136D53E916569BF73
:1042F000095AD23EA7096ABFCA7BCF3E7BAB6ABFD1
:104300008B9BCC3E0C4B6BBF53B9C93E58E86BBF7F
:1043100029D5C63E5E836CBF15EFC33E1D1C6DBF25
:104320001E07C13E93B26DBF4A1DBE3EBE466EBF64
:10433000A031BB3E9ED86EBF2A44B83E30686FBFE6
:10434000EC54B53E73F56FBFEF63B23E668070BF4D
:104350003A71AF3E080971BFD47CAC3E578F71BF34
:10436000C486A93E521372BF128FA63EF89472BF44
:10437000C595A33E471473BFE59AA03E3F9173BF16
:10438000789E9D3EDD0B74BF86A09A3E228474BF4A
:1043900017A1973E0BFA74BF31A0943E976D75BF7D
:1043A000DD9D913EC6DE75BF229A8E3E974D76BF4B
:1043B00007958B3E07BA76BF938E883E172477BF4A
:1043C000CE86853EC58B77BFC07D823E10F177BF1C
:1043D000E1E67E3EF85378BFCCCF783E7BB478BF21
:1043E00051B6723E981279BF7F9A6C3E4E6E79BF7D
:1043F000667C663E9DC779BF135C603E841E7ABFB3
:1044000097395A3E02737ABF0115543E16C57ABFDA
:1044100060EE4D3EBE147BBFC2C5473EFC617BBF14
:10442000379B413ECDAC7BBFCF6E3B3E31F57BBF72
:104430009840353E283B7CBFA2102F3EB07E7CBF0B
:10444000FCDE283EC9BF7CBFB6AB223E73FE7CBFFC
:10445000DE761C3EAC3A7DBF8340163E74747DBF51
:10446000B708103ECCAB7DBF86CF093EB1E07DBF23
:104470000295033E24137EBF73B2FA3D23437EBFF1
:104480007638EE3DB0707EBF2EBCE13DC99B7EBF4D
:10449000B93DD53D6DC47EBF36BDC83D9DEA7EBFEA
:1044A000C33ABC3D580E7FBF80B6AF3D9D2F7FBF46
:1044B0008C30A33D6D4E7FBF05A9963DC76A7FBF77
:1044C0000A208A3DAB847FBF742B7B3D189C7FBF45
:1044D0006814623D0FB17FBF2FFB483D8FC37FBF84
:1044E00007E02F3D98D37FBF2CC3163D29E17FBF46
:1044F000B949FB3C43EC7FBFB00AC93CE6F47FBF3F
:10450000B6C9963C11FB7FBF900E493CC4FE7FBFED
:10451000890FC93B000080BF00000000C4FE7FBFC0
:10452000890FC9BB11FB7FBF900E49BCE6F47FBF6A
:10453000B6C996BC43EC7FBFB00AC9BC29E17FBFB6
:10454000B949FBBC98D37FBF2CC316BD8FC37FBFB7
:1045500007E02FBD0FB17FBF2FFB48BD189C7FBF69
:10456000681462BDAB847FBF742B7BBDC76A7FBFFD
:104570000A208ABD6D4E7FBF05A996BD9D2F7FBFC6
:104580008C30A3BD580E7FBF80B6AFBD9DEA7EBF05
:10459000C33ABCBD6DC47EBF36BDC8BDC99B7EBF1E
:1045A000B93DD5BDB0707EBF2EBCE1BD23437EBFFB
:1045B0007638EEBD24137EBF73B2FABDB1E07DBF85
:1045C000029503BECCAB7DBF86CF09BE74747DBFA0
:1045D000B70810BEAC3A7DBF834016BE73FE7CBFE9
:1045E000DE761CBEC9BF7CBFB6AB22BEB07E7CBF30
:1045F000FCDE28BE283B7CBFA2102FBE31F57BBF5E
:10460000984035BECDAC7BBFCF6E3BBEFC617BBF5F
:10461000379B41BEBE147BBFC2C547BE16C57ABF1D
:1046200060EE4DBE02737ABF011554BE841E7ABF80
:1046300097395ABE9DC779BF135C60BE4E6E79BF75
:10464000667C66BE981279BF7F9A6CBE7BB478BFD9
:1046500051B672BEF85378BFCCCF78BE10F177BF99
:10466000E1E67EBEC58B77BFC07D82BE172477BFD3
:10467000CE8685BE07BA76BF938E88BE974D76BF2D
:1046800007958BBEC6DE75BF229A8EBE976D75BF2D
:10469000DD9D91BE0BFA74BF31A094BE228474BF1D
:1046A00017A197BEDD0B74BF86A09ABE3F9173BF62
:1046B000789E9DBE471473BFE59AA0BEF89472BF62
:1046C000C595A3BE521372BF128FA6BE578F71BF7E
:1046D000C486A9BE080971BFD47CACBE668070BF19
:1046E0003A71AFBE73F56FBFEF63B2BE30686FBF94
:1046F000EC54B5BE9ED86EBF2A44B8BEBE466EBF4F
:10470000A031BBBE93B26DBF4A1DBEBE1D1C6DBFA6
:104710001E07C1BE5E836CBF15EFC3BE58E86BBFFA
:1047200029D5C6BE0C4B6BBF53B9C9BE7BAB6ABFA4
:104730008B9BCCBEA7096ABFCA7BCFBE916569BF00
:10474000095AD2BE3CBF68BF4136D5BEA81668BF65
:104750006B10D8BED86B67BF80E8DABECCBE66BF30
:1047600079BEDDBE880F66BF4F92E0BE0B5E65BFAF
:10477000FA63E3BE59AA64BF7533E6BE73F463BF40
:10478000B700E9BE5A3C63BFBBCBEBBE108262BF31
:104790007994EEBE98C561BFEA5AF1BEF20661BFD8
:1047A000071FF4BE214660BFCBE0F6BE27835FBF84
:1047B0002DA0F9BE05BE5EBF275DFCBEBEF65DBF87
:1047C000B217FFBE532D5DBFE4E700BFC7615CBFFA
:1047D000B14202BF1A945BBF3D9C03BF50C45ABF95
:1047E00084F404BF6AF259BF824B06BF6A1E59BFE8
:1047F00036A107BF534858BF9BF508BF267057BF67
:10480000AD480ABFE59556BF6B9A0BBF93B955BF2C
:10481000D0EA0CBF31DB54BFDA390EBFC3FA53BF45
:1048200084870FBF491853BFCDD310BFC63352BFC3
:10483000B01E12BF3D4D51BF2A6813BFAF6450BFB9
:1048400039B014BF1F7A4FBFD9F615BF908D4EBF38
:10485000073C17BF029F4DBFC07F18BF79AE4CBF4A
:1048600000C219BFF8BB4BBFC6021BBF7FC74ABF00
:104870000C421CBF12D149BFD17F1DBFB3D848BF66
:1048800012BC1EBF65DE47BFCBF61FBF2AE246BF84
:10489000F92F21BF03E445BF996722BFF5E344BF69
:1048A000A99D23BF00E243BF25D224BF29DE42BF1A
:1048B0000A0526BF70D841BF563627BFDAD040BFA1
:1048C000056628BF67C73FBF159429BF1BBC3EBF05
:1048D00082C02ABFF9AE3DBF4AEB2BBF03A03CBF4D
:1048E00069142DBF3B8F3BBFDE3B2EBFA47C3ABF7C
:1048F000A5612FBF426839BFBB8530BF165238BF94
:104900001DA831BF233A37BFC9C832BF6C2036BF9C
:10491000BCE733BFF30435BFF30435BFBCE733BF97
:104920006C2036BFC9C832BF233A37BF1DA831BF7C
:10493000165238BFBB8530BF426839BFA5612FBF53
:10494000A47C3ABFDE3B2EBF3B8F3BBF69142DBF1B
:1049500003A03CBF4AEB2BBFF9AE3DBF82C02ABFCC
:104960001BBC3EBF159429BF67C73FBF056628BF64
:10497000DAD040BF563627BF70D841BF0A0526BFE0
:1049800029DE42BF25D224BF00E243BFA99D23BF39
:10499000F5E344BF996722BF03E445BFF92F21BF68
:1049A0002AE246BFCBF61FBF65DE47BF12BC1EBF63
:1049B000B3D848BFD17F1DBF12D149BF0C421CBF25
:1049C0007FC74ABFC6021BBFF8BB4BBF00C219BF9F
:1049D00079AE4CBFC07F18BF029F4DBF073C17BFC9
:1049E000908D4EBFD9F615BF1F7A4FBF39B014BF97
:1049F000AF6450BF2A6813BF3D4D51BFB01E12BFF8
:104A0000C63352BFCDD310BF491853BF84870FBFE1
:104A1000C3FA53BFDA390EBF31DB54BFD0EA0CBF43
:104A200093B955BF6B9A0BBFE59556BFAD480ABF0A
:104A3000267057BF9BF508BF534858BF36A107BF24
:104A40006A1E59BF824B06BF6AF259BF84F404BF85
:104A500050C45ABF3D9C03BF1A945BBFB14202BF12
:104A6000C7615CBFE4E700BF532D5DBFB217FFBE57
:104A7000BEF65DBF275DFCBE05BE5EBF2DA0F9BEC4
:104A800027835FBFCBE0F6BE214660BF071FF4BEA1
:104A9000F20661BFEA5AF1BE98C561BF7994EEBED5
:104AA000108262BFBBCBEBBE5A3C63BFB700E9BE0E
:104AB00073F463BF7533E6BE59AA64BFFA63E3BEFD
:104AC0000B5E65BF4F92E0BE880F66BF79BEDDBE4C
:104AD000CCBE66BF80E8DABED86B67BF6B10D8BEAD
:104AE000A81668BF4136D5BE3CBF68BF095AD2BEC2
:104AF000916569BFCA7BCFBEA7096ABF8B9BCCBE3D
:104B00007BAB6ABF53B9C9BE0C4B6BBF29D5C6BEC0
:104B100058E86BBF15EFC3BE5E836CBF1E07C1BEF6
:104B20001D1C6DBF4A1DBEBE93B26DBFA031BBBE82
:104B3000BE466EBF2A44B8BE9ED86EBFEC54B5BE0A
:104B400030686FBFEF63B2BE73F56FBF3A71AFBE2F
:104B5000668070BFD47CACBE080971BFC486A9BE94
:104B6000578F71BF128FA6BE521372BFC595A3BED9
:104B7000F89472BFE59AA0BE471473BF789E9DBE9D
:104B80003F9173BF86A09ABEDD0B74BF17A197BE7D
:104B9000228474BF31A094BE0BFA74BFDD9D91BE18
:104BA000976D75BF229A8EBEC6DE75BF07958BBE08
:104BB000974D76BF938E88BE07BA76BFCE8685BEE8
:104BC000172477BFC07D82BEC58B77BFE1E67EBE6E
:104BD00010F177BFCCCF78BEF85378BF51B672BE14
:104BE0007BB478BF7F9A6CBE981279BF667C66BE34
:104BF0004E6E79BF135C60BE9DC779BF97395ABEB0
:104C0000841E7ABF011554BE02737ABF60EE4DBE9A
:104C100016C57ABFC2C547BEBE147BBF379B41BE17
:104C2000FC617BBFCF6E3BBECDAC7BBF984035BE39
:104C300031F57BBFA2102FBE283B7CBFFCDE28BE17
:104C4000B07E7CBFB6AB22BEC9BF7CBFDE761CBEC9
:104C500073FE7CBF834016BEAC3A7DBFB70810BE62
:104C600074747DBF86CF09BECCAB7DBF029503BEF9
:104C7000B1E07DBF73B2FABD24137EBF7638EEBDBE
:104C800023437EBF2EBCE1BDB0707EBFB93DD5BD14
:104C9000C99B7EBF36BDC8BD6DC47EBFC33ABCBD17
:104CA0009DEA7EBF80B6AFBD580E7FBF8C30A3BDDE
:104CB0009D2F7FBF05A996BD6D4E7FBF0A208ABD7F
:104CC000C76A7FBF742B7BBDAB847FBF681462BD96
:104CD000189C7FBF2FFB48BD0FB17FBF07E02FBDE2
:104CE0008FC37FBF2CC316BD98D37FBFB949FBBC10
:104CF00029E17FBFB00AC9BC43EC7FBFB6C996BCEF
:104D0000E6F47FBF900E49BC11FB7FBF890FC9BB82
:104D1000C4FE7FBF00000080000080BF890FC93B38
:104D2000C4FE7FBF900E493C11FB7FBFB6C9963CC5
:104D3000E6F47FBFB00AC93C43EC7FBFB949FB3CF6
:104D400029E17FBF2CC3163D98D37FBF07E02F3DDD
:104D50008FC37FBF2FFB483D0FB17FBF6814623DFB
:104D6000189C7FBF742B7B3DAB847FBF0A208A3D9C
:104D7000C76A7FBF05A9963D6D4E7FBF8C30A33DAE
:104D80009D2F7FBF80B6AF3D580E7FBFC33ABC3D5D
:104D90009DEA7EBF36BDC83D6DC47EBFB93DD53DE1
:104DA000C99B7EBF2EBCE13DB0707EBF7638EE3D24
:104DB00023437EBF73B2FA3D24137EBF0295033EA8
:104DC000B1E07DBF86CF093ECCAB7DBFB708103EBA
:104DD00074747DBF8340163EAC3A7DBFDE761C3EC8
:104DE00073FE7CBFB6AB223EC9BF7CBFFCDE283E53
:104DF000B07E7CBFA2102F3E283B7CBF9840353E42
:104E000031F57BBFCF6E3B3ECDAC7BBF379B413E88
:104E1000FC617BBFC2C5473EBE147BBF60EE4D3E0A
:104E200016C57ABF0115543E02737ABF97395A3EB0
:104E3000841E7ABF135C603E9DC779BF667C663E68
:104E40004E6E79BF7F9A6C3E981279BF51B6723E12
:104E50007BB478BFCCCF783EF85378BFE1E67E3E96
:104E600010F177BFC07D823EC58B77BFCE86853E71
:104E7000172477BF938E883E07BA76BF07958B3E7F
:104E8000974D76BF229A8E3EC6DE75BFDD9D913E60
:104E9000976D75BF31A0943E0BFA74BF17A1973E72
:104EA000228474BF86A09A3EDD0B74BF789E9D3E1F
:104EB0003F9173BFE59AA03E471473BFC595A33ECB
:104EC000F89472BF128FA63E521372BFC486A93ED9
:104ED000578F71BFD47CAC3E080971BF3A71AF3EA9
:104EE000668070BFEF63B23E73F56FBFEC54B53EA2
:104EF00030686FBF2A44B83E9ED86EBFA031BB3E1B
:104F0000BE466EBF4A1DBE3E93B26DBF1E07C13E78
:104F10001D1C6DBF15EFC33E5E836CBF29D5C63E19
:104F200058E86BBF53B9C93E0C4B6BBF8B9BCC3E53
:104F30007BAB6ABFCA7BCF3EA7096ABF095AD23E84
:104F4000916569BF4136D53E3CBF68BF6B10D83E06
:104F5000A81668BF80E8DA3ED86B67BF79BEDD3E31
:104F6000CCBE66BF4F92E03E880F66BFFA63E33E59
:104F70000B5E65BF7533E63E59AA64BFB700E93ED4
:104F800073F463BFBBCBEB3E5A3C63BF7994EE3EF8
:104F9000108262BFEA5AF13E98C561BF071FF43E16
:104FA000F20661BFCBE0F63E214660BF2DA0F93E80
:104FB00027835FBF275DFC3E05BE5EBFB217FF3E85
:104FC000BEF65DBFE4E7003F532D5DBFB142023F37
:104FD000C7615CBF3D9C033F1A945BBF84F4043FF0
:104FE00050C45ABF824B063F6AF259BF36A1073FF1
:104FF0006A1E59BF9BF5083F534858BFAD480A3F4A
:10500000267057BF6B9A0B3FE59556BFD0EA0C3F11
:1050100093B955BFDA390E3F31DB54BF84870F3F58
:10502000C3FA53BFCDD3103F491853BFB01E123F30
:10503000C63352BF2A68133F3D4D51BF39B0143FAC
:10504000AF6450BFD9F6153F1F7A4FBF073C173FDB
:10505000908D4EBFC07F183F029F4DBF00C2193FC9
:1050600079AE4CBFC6021B3FF8BB4BBF0C421C3F86
:105070007FC74ABFD17F1D3F12D149BF12BC1E3F1F
:10508000B3D848BFCBF61F3F65DE47BFF92F213F9E
:105090002AE246BF9967223F03E445BFA99D233F0B
:1050A000F5E344BF25D2243F00E243BF0A05263F73
:1050B00029DE42BF5636273F70D841BF0566283FDC
:1050C000DAD040BF1594293F67C73FBF82C02A3F4F
:1050D0001BBC3EBF4AEB2B3FF9AE3DBF69142D3FD1
:1050E00003A03CBFDE3B2E3F3B8F3BBFA5612F3F64
:1050F000A47C3ABFBB85303F426839BF1DA8313F11
:10510000165238BFC9C8323F233A37BFBCE7333FD6
:105110006C2036BFF304353FF30435BF6C20363FB7
:10512000BCE733BF233A373FC9C832BF1652383FB6
:105130001DA831BF4268393FBB8530BFA47C3A3FD0
:10514000A5612FBF3B8F3B3FDE3B2EBF03A03C3F03
:1051500069142DBFF9AE3D3F4AEB2BBF1BBC3E3F50
:1051600082C02ABF67C73F3F159429BFDAD0403FAE
:10517000056628BF70D8413F563627BF29DE423F1B
:105180000A0526BF00E2433F25D224BFF5E3443F92
:10519000A99D23BF03E4453F996722BF2AE2463F0A
:1051A000F92F21BF65DE473FCBF61FBFB3D8483F7D
:1051B00012BC1EBF12D1493FD17F1DBF7FC74A3FDE
:1051C0000C421CBFF8BB4B3FC6021BBF79AE4C3F25
:1051D00000C219BF029F4D3FC07F18BF908D4E3F48
:1051E000073C17BF1F7A4F3FD9F615BFAF64503F3A
:1051F00039B014BF3D4D513F2A6813BFC633523FEB
:10520000B01E12BF4918533FCDD310BFC3FA533F4E
:1052100084870FBF31DB543FDA390EBF93B9553F56
:10522000D0EA0CBFE595563F6B9A0BBF2670573FEF
:10523000AD480ABF5348583F9BF508BF6A1E593F07
:1052400036A107BF6AF2593F824B06BF50C45A3F8E
:1052500084F404BF1A945B3F3D9C03BFC7615C3F6D
:10526000B14202BF532D5D3FE4E700BFBEF65D3F94
:10527000B217FFBE05BE5E3F275DFCBE27835F3FC2
:105280002DA0F9BE2146603FCBE0F6BEF206613F9D
:10529000071FF4BE98C5613FEA5AF1BE1082623F13
:1052A0007994EEBE5A3C633FBBCBEBBE73F4633FD5
:1052B000B700E9BE59AA643F7533E6BE0B5E653F91
:1052C000FA63E3BE880F663F4F92E0BECCBE663FF6
:1052D00079BEDDBED86B673F80E8DABEA816683FAE
:1052E0006B10D8BE3CBF683F4136D5BE9165693F63
:1052F000095AD2BEA7096A3FCA7BCFBE7BAB6A3FC1
:105300008B9BCCBE0C4B6B3F53B9C9BE58E86B3F6F
:1053100029D5C6BE5E836C3F15EFC3BE1D1C6D3F15
:105320001E07C1BE93B26D3F4A1DBEBEBE466E3F54
:10533000A031BBBE9ED86E3F2A44B8BE30686F3FD6
:10534000EC54B5BE73F56F3FEF63B2BE6680703F3D
:105350003A71AFBE0809713FD47CACBE578F713F24
:10536000C486A9BE5213723F128FA6BEF894723F34
:10537000C595A3BE4714733FE59AA0BE3F91733F06
:10538000789E9DBEDD0B743F86A09ABE2284743F3A
:1053900017A197BE0BFA743F31A094BE976D753F6D
:1053A000DD9D91BEC6DE753F229A8EBE974D763F3B
:1053B00007958BBE07BA763F938E88BE1724773F3A
:1053C000CE8685BEC58B773FC07D82BE10F1773F0C
:1053D000E1E67EBEF853783FCCCF78BE7BB4783F11
:1053E00051B672BE9812793F7F9A6CBE4E6E793F6D
:1053F000667C66BE9DC7793F135C60BE841E7A3FA3
:1054000097395ABE02737A3F011554BE16C57A3FCA
:1054100060EE4DBEBE147B3FC2C547BEFC617B3F04
:10542000379B41BECDAC7B3FCF6E3BBE31F57B3F62
:10543000984035BE283B7C3FA2102FBEB07E7C3FFB
:10544000FCDE28BEC9BF7C3FB6AB22BE73FE7C3FEC
:10545000DE761CBEAC3A7D3F834016BE74747D3F41
:10546000B70810BECCAB7D3F86CF09BEB1E07D3F13
:10547000029503BE24137E3F73B2FABD23437E3FE1
:105480007638EEBDB0707E3F2EBCE1BDC99B7E3F3D
:10549000B93DD5BD6DC47E3F36BDC8BD9DEA7E3FDA
:1054A000C33ABCBD580E7F3F80B6AFBD9D2F7F3F36
:1054B0008C30A3BD6D4E7F3F05A996BDC76A7F3F67
:1054C0000A208ABDAB847F3F742B7BBD189C7F3F35
:1054D000681462BD0FB17F3F2FFB48BD8FC37F3F74
:1054E00007E02FBD98D37F3F2CC316BD29E17F3F36
:1054F000B949FBBC43EC7F3FB00AC9BCE6F47F3F2F
:10550000B6C996BC11FB7F3F900E49BCC4FE7F3FDD
:10551000890FC9BB0800001010000002180000121B
:105520002000000428000014300000063800001697
:1055300040000008480000185000000A5800001AF7
:105540006000000C6800001C7000000E7800001E57
:10555000800000088800401090004002980040122F
:10556000A0004004A8004014B0004006B800401657
:10557000C0004008C8004018D000400AD800401AB7
:10558000E000400CE800401CF000400EF800401E17
:10559000000100080801801010018002180180122B
:1055A0002001800428018014300180063801801613
:1055B00040018008480180185001800A5801801A73
:1055C0006001800C6801801C7001800E7801801ED3
:1055D000800140088801C0109001C0029801C012EB
:1055E000A001C004A801C014B001C006B801C016D3
:1055F000C001C008C801C018D001C00AD801C01A33
:10560000E001C00CE801C01CF001C00EF801C01E92
:105610000002000808020011100200031802001323
:10562000200200052802001530020007380200178A
:1056300040020009480200195002000B5802001BEA
:105640006002000D6802001D7002000F7802001F4A
:1056500080028008880240119002400398024013A3
:10566000A0024005A8024015B0024007B80240174A
:10567000C0024009C8024019D002400BD802401BAA
:10568000E002400DE802401DF002400FF802401F0A
:1056900000034008080380111003800318038013DF
:1056A0002003800528038015300380073803801706
:1056B00040038009480380195003800B5803801B66
:1056C0006003800D6803801D7003800F7803801FC6
:1056D0008003C0088803C0119003C0039803C0135F
:1056E000A003C005A803C015B003C007B803C017C6
:1056F000C003C009C803C019D003C00BD803C01B26
:10570000E003C00DE803C01DF003C00FF803C01F85
:1057100000040010080408101004001118040812F6
:105720002004081028040814300408063804081659
:1057300040040808480408185004080A5804081AC5
:105740006004080C6804081C7004080E7804081E25
:105750008004001888044810900400199804481226
:10576000A0040818A8044814B0044806B804481651
:10577000C0044808C8044818D004480AD804481A85
:10578000E004480CE804481CF004480EF804481EE5
:1057900000054010080588101005401118058812F2
:1057A0002005481028058814300588063805881615
:1057B00040058808480588185005880A5805881A41
:1057C0006005880C6805881C7005880E7805881EA1
:1057D000800540188805C810900540199805C81222
:1057E000A0054818A805C814B005C806B805C8160D
:1057F000C005C808C805C818D005C80AD805C81A01
:10580000E005C80CE805C81CF005C80EF805C81E60
:1058100000068010080608111006801118060813EB
:1058200020068810280608153006080738060817CD
:1058300040060809480608195006080B5806081BB8
:105840006006080D6806081D7006080F7806081F18
:10585000800680188806481190068019980648131B
:10586000A0068818A8064815B0064807B8064817C5
:10587000C0064809C8064819D006480BD806481B78
:10588000E006480DE806481DF006480FF806481FD8
:105890000007C010080788111007C01118078813E7
:1058A0002007C81028078815300788073807881789
:1058B00040078809480788195007880B5807881B34
:1058C0006007880D6807881D7007880F7807881F94
:1058D0008007C0188807C8119007C0199807C81317
:1058E000A007C818A807C815B007C807B807C81781
:1058F000C007C809C807C819D007C80BD807C81BF4
:10590000E007C80DE807C81DF007C80FF807C81F53
:10591000080810101008400818081012200800117C
:10592000280810143008801138081016480810187C
:105930005008100A5808101A6008100C6808101C4B
:105940007008100E7808101E8008000A8808501091
:105950009008000B98085012A008080AA8085014D4
:10596000B008080BB8085016C008100AC80850182C
:10597000D008500AD808501AE008500CE808501C0B
:10598000F008500EF808501E080990101009800900
:10599000180990122009001928099014300980195B
:1059A000380990164009000B480990185009900AD0
:1059B0005809901A6009900C6809901C7009900EA3
:1059C0007809901E8009400A8809D0109009400B80
:1059D0009809D012A009480AA809D014B009480BA8
:1059E000B809D016C009500AC809D018D009D00A81
:1059F000D809D01AE009D00CE809D01CF009D00E63
:105A0000F809D01E080A1011180A1013200A4011B4
:105A1000280A1015300AC011380A1017480A101940
:105A2000500A100B580A101B600A100D680A101D4E
:105A3000700A100F780A101F880A5011900A800B04
:105A4000980A5013A00A5011A80A5015B00A880BE2
:105A5000B80A5017C00A800BC80A5019D00A500B58
:105A6000D80A501BE00A500DE80A501DF00A500FEA
:105A7000F80A501F080B9011180B9013200B4019B7
:105A8000280B9015300BC019380B9017480B901944
:105A9000500B900B580B901B600B900D680B901DDA
:105AA000700B900F780B901F880BD011900BC00BD0
:105AB000980BD013A00B5019A80BD015B00BC80B26
:105AC000B80BD017C80BD019D80BD01BE00BD00DDA
:105AD000E80BD01DF00BD00FF80BD01F000C0012FC
