:020000040800F2
:1000000068040020490100082B1100089310000823
:1000100029110008E5060008C512000800000000CC
:100020000000000000000000000000002F11000888
:10003000E7060008000000002D110008311100083B
:100040006301000863010008630100086301000800
:1000500063010008630100086301000863010008F0
:1000600063010008630100086301000863010008E0
:1000700063010008630100086301000863010008D0
:1000800063010008630100086301000863010008C0
:1000900063010008630100086301000863010008B0
:1000A00063010008630100086301000863010008A0
:1000B0006301000863010008630100086301000890
:1000C0006301000863010008630100086301000880
:1000D0006301000863010008630100086301000870
:1000E0006301000863010008630100086301000860
:1000F0006301000863010008630100086301000850
:10010000630100086301000863010008630100083F
:10011000630100086301000863010008630100082F
:10012000630100086301000863010008630100081F
:10013000DFF810D000F0C4FA00480047C11A0008E8
:10014000AFF3008068040020064880470648004757
:10015000FEE7FEE7FEE7FEE7FEE7FEE7FEE7FEE777
:10016000FEE7FEE79311000831010008202A04DBB6
:10017000203A21FA02F00021704721FA02F3D04020
:10018000C2F120029140084319467047D2B201E003
:1001900000F8012B491EFBD270470022F6E710B58C
:1001A00013460A4604461946FFF7F0FF204610BDE5
:1001B0002DE9FE4F804681EA0300C00F0C460090F7
:1001C00021F0004123F00045B8EB0200A94105D21F
:1001D0004046214690461C460B46024623F000400E
:1001E000104347D0270DC7F30A00C3F30A5102900A
:1001F000401A019040286BDAC3F3130040F4801BCF
:100200000098924620B10023D2EB030A63EB0B0B5C
:1002100001985946C0F14002504600F0C9F8064620
:100220000D4650465946019A00F0D1F810EB0800EF
:100230006141002487EA115284EAE7731A4340D0EF
:10024000009A62B3019A012A4FEA075215DC001B9B
:1002500061EB02014FF0004202EA0752CDE9004291
:10026000001C41F5801132462B4600F0D1F803B056
:10027000BDE8F08F40462146F9E7001B61EB020123
:10028000001C41F5801300185B412018A2F50017EF
:1002900047EB030140EAD570B6196D4111E06D08D6
:1002A0004FEA360645EAC0754FEA0752001B61EB7C
:1002B0000201001C41F5801149084FEA3000001985
:1002C000514132462B4603B0BDE8F04F00F091B8E3
:1002D0000098012240000023D0EB020263EBE073A0
:1002E000009821464FEAE074B8EB000061EB04018E
:1002F000E9E783F000435BE781F0004158E770B520
:1003000021F0004303430CD0C1F30A550024D5EB80
:10031000040564EB0403D617AD1AB34102DB0020D9
:10032000014670BD201841EB025170BD0EB540F280
:10033000334102910021CDE900110A460B4600F03D
:1003400067F803B000BD70B5C1F30A5201F0004573
:100350000024C1F3130140F2FF3341F480119A42AB
:1003600001DA002070BD40F233439A42A2F23342D8
:1003700003DC5242FFF7FAFE00E090402C43F1D03C
:10038000404270BD30B50B460146002020220124BA
:1003900009E021FA02F59D4205D303FA02F5491B53
:1003A00004FA02F52844151EA2F10102F1DC30BD69
:1003B000202A04DB203A00FA02F100207047914025
:1003C000C2F1200320FA03F3194390407047202A1A
:1003D00006DBCB17203A41FA02F043EAE07306E06D
:1003E00041FA02F3D040C2F120029140084319467D
:1003F000704710B5141E73F1000408DA401C41F177
:10040000000192185B411A4301D120F0010010BD98
:100410002DE9F04D92469B4611B1B1FA81F202E00E
:10042000B0FA80F220329046FFF7C2FF04460F4632
:1004300040EA0A0041EA0B0153465A46084313D0EA
:10044000114653EA010019D0C8F140025046FFF7A7
:100450008DFE05460E46504659464246FFF7A8FF18
:10046000084305D0012004E020463946BDE8F08D60
:100470000020054346EAE0762C4337430A9863059B
:10048000E40AA0EB08000022FD0A44EA47540A30BF
:1004900002D500200146E9E7010510196941DDE9AF
:1004A000084500196941BDE8F04DA2E72DE9FE4F6E
:1004B00081EA030404F0004421F0004100944FF06D
:1004C000000B23F0004350EA01045ED052EA03041B
:1004D0005BD0C3F30A54C1F30A552C44A4F2F3349D
:1004E0000194A0FB0254C1F3130141F48011C3F342
:1004F000130343F4801301FB024400FB034E840A00
:10050000970A44EA815447EA8357A4FB0768029597
:100510008D0A05FB07854FEA932C04FB0C54270535
:10052000029D4FEA065847EA1637B5EB08056EEB11
:10053000070C870E920E47EA811742EA8312A7FB47
:100540000201B6EB0B0164EB00042B0D43EA0C3304
:100550005E1844EB1C50DA465146E7FB0201C5F336
:1005600013044FEA0B3343EA14534FEA0432019C5D
:1005700043EA0603A4F10C040294009CCDE900B404
:10058000FFF746FF03B0BDE8F08F00200146F9E712
:100590002DE9F04D81EA030404F0004B21F0004501
:1005A00014464FF0000A23F0004150EA050220D023
:1005B00054EA01021DD0C5F30A570246C5F31303DE
:1005C000C1F31300C1F30A5640F4801543F48013BD
:1005D000A7EB0608101BD64608F2FD3873EB0500A2
:1005E00002D308F1010801E092185B41B8F1000F55
:1005F00003DA00200146BDE8F08D00204FF48011A1
:10060000064684460EE0171B73EB050705D3121B45
:1006100063EB050306434CEA010C49084FEA30003E
:1006200092185B4150EA0107EDD152EA030012D063
:1006300082EA040083EA0501084305D0101BAB41A0
:1006400006D20122002306E000224FF0004302E020
:100650006FF0010253101AEB06004CEB085110EB3F
:100660000A0041EB0B01BDE8F04DFFF7C2BE0EB52D
:10067000C10F80EAE0700844CA07002140F233430A
:100680008DE80E000A460B46FFF7C2FE03B000BD20
:1006900030B5041E71F1000404DB4FF00044404209
:1006A00064EB0101141E73F1000405DB1C464FF0DE
:1006B0000043524263EB04038B4208BF824230BDC9
:1006C000064C074D06E0E06840F0010394E807009F
:1006D00098471034AC42F6D3FFF72EFD581B0008A4
:1006E000781B0008FEE7704772B6FEE770B5044657
:1006F00000F010F90546601C02D00448007804445C
:1007000000F008F9401BA042FAD370BD040000209D
:100710002DE9F84FDFF8C8910024A9F1040B234616
:100720000F2709F1040AABF1040ED1E00125A54021
:1007300006EA0502AA4276D1DFF8A8C14E68A6EB08
:100740000C0866452BD00DDC032E34D005DC36B307
:10075000012E19D0022E2FD11BE0112E16D0122EF1
:100760002AD119E0B8F5881F19D006DCB8F5803F0A
:1007700015D0B8F5801F1FD111E0B8F5001F0ED0BD
:10078000B8F5041F18D10AE0CB6815E0CB681B1D33
:1007900012E0CB6808330FE0CB680C330CE08B68B9
:1007A0002BB1012B4FF0080303D0456104E0042373
:1007B00002E0056100E00023FF2A01D8064601E0BF
:1007C00000F104064FEA840501D9A5F12005D6F809
:1007D000008007FA05FC28EA0C0803FA05F548EA48
:1007E0000508C6F800804D68ED0070D53E4DAE6935
:1007F00046F00106AE61AD6924F0030605F001057F
:1008000000953A4D06EB050CDCF80850A607360FAC
:1008100007FA06F825EA0805DFF8D480404503D139
:100820004FF0000825E052E0DFF8C880404502D1D3
:100830004FF001081DE0DFF8C080404502D14FF0C5
:10084000020816E0DFF8B480404502D14FF00308FB
:100850000FE0DFF8AC80404502D14FF0040808E01B
:10086000DFF8A080404502D14FF0050801E04FF0CD
:10087000060808FA06F848EA0508CCF808804D682A
:10088000D9F80060ED024D4601D5164300E09643CD
:100890002E604D68DAF80060AD02554601D516436A
:1008A00000E096432E604D68DBF80060AD035D46C6
:1008B00001D5164300E096432E604D68DEF80060D7
:1008C000ED03754601D5164300E096432E60641C87
:1008D0000A681646E2407FF429AFBDE8F88F0000B1
:1008E0000804014000001110001002400000014007
:1008F00000080140000C01400010014000140140BC
:1009000000180140001C01400AB101617047090450
:10091000FBE70000014880687047000004000020E9
:100920000248816802781144816070470400002009
:10093000074810B5016841F010010160032000F084
:100940005FF80F2000F006F800F024F8002010BD3A
:100950000020024070B50D4D04464FF47A7128789E
:10096000B1FBF0F00A490968B1FBF0F000F0C6FAFB
:1009700048B9102C07D200222146501E00F020F862
:1009800000206C6070BD012070BD000004000020DC
:1009900010000020094808B5816941F0010181611A
:1009A000816901F001010091C16941F08051C1618B
:1009B000C06900F08050009008BD000000100240A7
:1009C000F0B40E4B1B680C46C3F30223C3F10705BA
:1009D000042D00D90425191D072901D2002300E0A8
:1009E000DB1E012606FA05F1491E214099409E4072
:1009F000761E16403143F0BC00F076BC0CED00E0F2
:100A0000064900F0070208684FF6FF03184040EA65
:100A10000220034A10430860704700000CED00E01C
:100A20000000FA052DE9F0470F46050061D0434E5E
:100A3000306800F00700B84209D2306820F00700A3
:100A400038433060306800F00700B84251D1286860
:100A50003B4C810712D5400703D5606840F4E06045
:100A600060602878000703D5606840F460506060DB
:100A70006068A96820F0F000084360602878C0072B
:100A800028D06868012810D02168022810D0890772
:100A900000292EDA616821F0030101436160FFF74C
:100AA00039FF804641F288390DE021688903EFE77C
:100AB0008901EDE7FFF72EFFA0EB0801494502D9B8
:100AC0000320BDE8F0876068696800F00C00B0EBB7
:100AD000810FEFD1306800F00700B8420BD93068C1
:100AE00020F0070038433060306800F00700B8425B
:100AF00001D00120E5E72878400705D56068E9685E
:100B000020F4E060084360602878000706D560683C
:100B1000296920F4605040EAC100606000F038F8B4
:100B20006168084AC1F30311515CC8400649086076
:100B300006480068FFF70EFF0020C2E700200240D1
:100B400000100240FE1A00081000002008000020DB
:100B50000448054900684968044AC1F30221515C10
:100B6000C840704710000020001002400E1B000813
:100B70000448054900684968044AC1F3C221515C30
:100B8000C840704710000020001002400E1B0008F3
:100B90000E4A51680E4801F00C03042B11D0082BAB
:100BA0000FD10C48C1F38343C903C05C0AD5516817
:100BB000084AC1F34041921E515C054A5043B0FBC4
:100BC000F1F07047044948437047000000100240AC
:100BD00000127A00EE1A000800093D002DE9F84FD6
:100BE000040070D02078C04DC00749D06868C0F3B9
:100BF0008100012807D06868C0F38100022809D16C
:100C00006868C00306D52868800339D56068002865
:100C1000E7D035E06068B0F5803F0BD010B1B0F59B
:100C2000A02F11D0286820F480302860286820F494
:100C3000802002E0286840F480302860606890B12D
:100C4000FFF768FE06460AE0286840F48020286026
:100C5000F0E700BFFFF75EFE801B642873D82868AA
:100C60008003F7D50CE0FFF755FE064605E000BF10
:100C7000FFF750FE801B6428F0D828688003F7D463
:100C800020789A4E80074FF001094FF0000839D5BF
:100C9000686810F00C0F07D06868C0F38100022864
:100CA00009D16868C00306D42868800714D5206974
:100CB000012808D110E02069B0B1C6F80090FFF714
:100CC00029FE074605E00AE1FFF724FEC01B0228C3
:100CD000C4D828688007F7D52868616920F0F80033
:100CE00040EAC10028600DE0C6F80080FFF712FE60
:100CF000074604E0FFF70EFEC01B022823D8286831
:100D00008007F7D4207800072CD57948A169D9B19C
:100D1000C0F80090FFF7FEFD074604E0FFF7FAFD7C
:100D2000C01B02280FD8686A8007F7D571484FF4B6
:100D3000FA510068B0FBF1F0009000BF0098411E2E
:100D40000091FAD20EE080E0C0F80080FFF7E2FDEB
:100D5000074604E0FFF7DEFDC01B022875D8686A6D
:100D60008007F7D42078400760D5E8690027C000E5
:100D700008D4E86940F08050E861E869012700F094
:100D8000805000905C480168C90513D4016883460F
:100D900041F480710160FFF7BDFD824606E000BFAF
:100DA000FFF7B8FDA0EB0A0064284ED8DBF800007E
:100DB000C005F5D5E06801280AD008B1052813D090
:100DC000286A20F001002862286A20F0040002E06E
:100DD000286A40F001002862E06841F2883B98B13F
:100DE000FFF798FD82460BE0286A40F00400286275
:100DF000EEE700BFFFF78EFDA0EB0A0159455AD878
:100E0000286A8007F6D50CE0FFF784FD824605E0EE
:100E1000FFF780FDA0EB0A0159454CD8286A8007EE
:100E2000F6D41FB1E86920F08050E861E06988B32A
:100E30006968C1F38101022944D00228C6F86080A4
:100E400004D0FFF767FD044638E034E0FFF762FDA9
:100E5000074604E0FFF75EFDC01B02282BD8286878
:100E60008001F7D4206AB0F5803F05D16868A16899
:100E700020F4003008436860D4E908010843696839
:100E800021F4741108436860C6F86090FFF742FDD2
:100E9000044606E025E000BFFFF73CFD001B0228EA
:100EA00009D828688001F7D51BE000BFFFF732FDA5
:100EB000001B022802D90320BDE8F88F28688001B2
:100EC000F4D40EE00128F7D06868226A00F480317B
:100ED000914204D1616A00F47010884201D001206F
:100EE000EAE70020E8E7000000100240000042426C
:100EF00080044242100000200070004010B5401EE7
:100F0000B0F1807F01D3012010BD4FF0E02460617B
:100F10000F21601700F0E8F90020A0610720206190
:100F2000002010BD70B5040004D094F841000025E5
:100F300010B106E0012070BD84F84050204600F05A
:100F400023F8242084F841002068C16821F400516E
:100F5000C160204600F01EF92068016921F490412B
:100F600001612068416921F02A0141612068C1685E
:100F700041F40051C1606564202084F8410084F888
:100F800042006563002070BD30B585B00024009438
:100F900001940294039400681449884224D11448AF
:100FA000816941F480418161816901F4804104914A
:100FB000816941F00401816180690E4D00F00400F7
:100FC00004904FF4007000900220019003200390E1
:100FD00069462846FFF79CFB2815CDE900046946C1
:100FE00028460294FFF794FB05B030BD003801405D
:100FF00000100240000801402DE9F843044690F833
:1010000041001F4616460D46202802D00220BDE8AA
:10101000F8837DB176B100206064212084F841001E
:10102000FFF778FCA6848046E684A068B0F5805F70
:1010300002D003E00120EAE7206910B12E46002526
:101040000EE000260CE08021204600F0FFF8A0B959
:10105000AEB116F8010B21684860E08C401EE084B8
:10106000E08C43464FF0000200970028EBD14FF090
:101070004001204600F0EAF830B10320C7E735F818
:10108000020BC0F30800E6E7202084F841000020AE
:10109000BDE7FEE770B586B00024134800940194C4
:1010A00002940394816941F00401816180690F4ECB
:1010B00000F00400049022460F213046FFF724FC84
:1010C0000F200125CDE900050220CDE90240694647
:1010D0003046FFF71DFBF0208DE8310069463046B1
:1010E000FFF716FB06B070BD00100240000801407B
:1010F0000C4810B50A4901604FF4E131416000210C
:1011000081600C22C160C0E904128161C161FFF7F6
:1011100009FF002803D0BDE81040FFF7E5BA10BD75
:10112000003801401C000020FEE7FEE770477047D2
:10113000FFF7F6BB30B58FB028216846FFF72DF8D2
:1011400014210AA8FFF729F801210804CDE90010AD
:101150000024029402250491CDE907504FF4E010D9
:1011600009906846FFF73AFD08B172B6FEE70F2016
:10117000CDE90A054FF48060CDE90C4002210AA8B0
:101180000E94FFF74FFC002801D072B6FEE70FB0B7
:1011900030BD704770B5044600680169E26821F40B
:1011A0004051114301612169A06808436169084306
:1011B0002168CA6841F20C639A430243CA602068FE
:1011C0004169A26921F44071114341611E492068BF
:1011D000884202D1FFF7CCFC01E0FFF7B9FC00EB3D
:1011E000C00101EB0012606864218000B2FBF0F3E3
:1011F000B3FBF1F36FF018067343B2FBF0F5B2FBEB
:10120000F0F605EB8305322303EB0515B5FBF1F58D
:10121000B6FBF1F605F0F00505EB0615B2FBF0F6AE
:10122000B2FBF0F0B0FBF1F06FF01802504306EBA8
:10123000800003EB0010B0FBF1F0216800F00F001C
:101240002844886070BD0000003801402DE9F0415D
:10125000984617460E460446069D27E0681C25D092
:101260002DB1FFF757FBA0EB0800A8421ED920685C
:101270000C3050E8001F21F4D07140E80012002A21
:10128000F5D12068143050E8001F21F0010140E83A
:101290000012002AF5D1202084F8410084F8420091
:1012A000002084F840000320BDE8F0812068006839
:1012B00036EA000004D00020B842CFD00020F3E787
:1012C0000120F9E7FEE700000FB4054B10B503A9B4
:1012D000044A029800F094F810BC5DF814FB00007A
:1012E00055150008140000200907090E002804DB2A
:1012F00000F1E02080F80014704700F00F0000F1CA
:10130000E02080F8141D70472DE9F0414F1E00EBDE
:10131000C7010446D1E9000115461E4637F0060212
:101320000DD02A463346FFF7C1F87F1E04EBC703F2
:10133000D3E90023FEF73CFF37F00602F1D1022F7C
:1013400025D0042F13D0062F18BFBDE8F0812A4600
:101350003346FFF7ABF8D4E90A23FEF729FF2A4604
:101360003346FFF7A3F8D4E90823FEF721FF2A4606
:101370003346FFF79BF8D4E90623FEF719FF2A4608
:101380003346FFF793F8D4E90423FEF711FF2A460A
:101390003346FFF78BF8D4E90223FEF709FF2A460C
:1013A0003346FFF783F8D4E90023BDE8F041FEF7A8
:1013B000FFBE00000022134610460149FFF7E8B8BF
:1013C0000000F03F0122FEF79ABF002213461046AC
:1013D0001146FFF7DDB802E008C8121F08C1002A55
:1013E000FAD170477047002001E001C1121F002AA6
:1013F000FBD17047014908607047000018000020C9
:101400002DE9FF4F89B09B460446002506E02528BC
:101410000BD05A460B999047641C6D1C207800280D
:10142000F5D10DB02846BDE8F08F0027B84601225F
:10143000474900E0074314F8013F203B02FA03F05C
:101440000842F7D120782E2819D114F8010F47F05F
:1014500004072A280ED06FF02F022078A0F1300167
:1014600009290CD808EB880102EB410100EB0108C7
:10147000641CF2E70A98641C50F8048B0A902078E8
:101480000028CED0642808D0692806D075281ED040
:101490005A460B9990476D1C58E00A994FF00A097B
:1014A00001C90A91002802DA40422D2102E03905E3
:1014B00004D52B218DF82010012103E0F90704D079
:1014C0002021F7E78A4608AE0DE00021FAE70A99E5
:1014D0004FF00A0901C90A91F7E74946FEF752FFA2
:1014E000303106F8011D0028F7D1ADEB060000F100
:1014F0002009780701D44FF00108C84502DDA8EBA8
:10150000090000E000208046002706E008A85A46AF
:10151000C05D0B9990476D1C7F1C5745F6DB04E0BE
:1015200030205A460B9990476D1CB8F10001A8F184
:101530000108F5DC05E016F8010B5A460B999047B7
:101540006D1CB9F10001A9F10109F4DC641C65E727
:101550000928010038B504468DF800000223012255
:1015600069460248FFF748FD204638BD1C000020B0
:1015700010B5144600222260114A21F00043934224
:10158000A8BF10BD53EA000208BF10BDB3F5801F0D
:10159000A8BF226807DA3622FEF7B1FE6FF03502E7
:1015A00021F000432260DFF81CC06FF31E510CEBEA
:1015B00023531A4441F0FF5141F00051226010BD05
:1015C0000000F07F02FCFFFF2DE9F0413A4D286852
:1015D0003A4C217808432860374F083F386800F0BC
:1015E000F0060A20FFF782F80F20F02E0FD039689E
:1015F0002278334EF032D2B2114001F0F002702A5C
:1016000041D0B02A30D0D02A1ED0E02A0DD02A688E
:10161000217842EA01422A60C943C1F3420188436A
:101620002070C043000743D044E08843FEF77EFEAD
:1016300000F0FAF900223346FEF75EFE0222FEF7C2
:101640005EFE00221F4B2CE08843FEF76FFE00F089
:10165000EBF900223346FEF74FFE0222FEF74FFE63
:1016600000224FF080431CE08843FEF75FFE00F04D
:10167000DBF900223346FEF73FFE0222FEF73FFE73
:10168000002233460DE08843FEF750FE00F0CCF90F
:1016900000223346FEF730FE0222FEF730FE002223
:1016A000094BFEF785FDFEF74EFEC0B2BDE8F081A6
:1016B000072020700020F9E71008014000000020FA
:1016C000000008400000F03F000010402DE9F04D00
:1016D000C84A002490B0914205DA21F000439342B9
:1016E00001D805D120B110B0BDE8F04DFFF76ABEBA
:1016F000B1F5801F1BDA53EA000209D0002911DA84
:101700000120FFF777FE10B0BDE8F04DFFF75DBE9A
:101710000220FFF76FFEFFF74DFE10B081F0004191
:10172000BDE8F08D6FF035043622FEF7E8FD04EBDE
:101730002152C1F31308B049A2F2FF33414401F42E
:10174000801282F07F6103EB225281F040510092BF
:1017500041EA08010022A94BFEF7CBFD044608F13F
:101760000200A74EC0F313000D467E44032867D243
:10177000D6E900232046FEF78BFF1ED100980028F3
:1017800002BFD6E9000110B0BDE8F08DFEF76FFF93
:1017900007460C469B4A9C4BFEF788FE06460D46C4
:1017A0009A4A9B4B38462146FEF780FE10B03246DF
:1017B0002B46BDE8F04DFEF7FBBC4FF05532954B84
:1017C00020462946FEF772FE0022934BFEF794FD59
:1017D00006460F4622462B4610461946FEF766FE81
:1017E00032463B46FEF762FE064600980F46F0B1D1
:1017F000FEF73DFF80468A46824A834BFEF756FE3F
:1018000032463B46FEF778FD22462B46FEF771FD39
:1018100005460C467D4A7E4B40465146FEF746FE45
:1018200010B02A462346BDE8F04DFEF762BD0B46D8
:1018300010B0324620462946BDE8F04DFEF759BDAE
:1018400000224FF080432046FEF7B2FC02460B46D2
:1018500020462946FEF79CFE06460F460098FEF7F6
:1018600006FFCDE9040132463B4610463946FEF7F5
:101870001DFE0C9069480C9A4044019009910B465A
:101880001046FEF713FE8246024665488B46C8F1B5
:1018900051080B4608F5D72803217844FFF734FD9B
:1018A00052465B46FEF702FE0A905E480D91524694
:1018B0005B4604217844FFF727FD099B0C9AFEF74D
:1018C000F5FD844601980D9B40EA080860460A9A97
:1018D000FEF76EFC83460891B8F1000F4EDD4FF025
:1018E000FF3220462946FEF70AFD22462B46FEF728
:1018F000DDFD804600988A4660B3DDE90401414A77
:10190000414BFEF7D3FD099100905A46404651469F
:10191000089BFEF74DFC32463B46FEF7C7FD099B90
:10192000009AFEF745FC42465346FEF7E5FC224688
:101930002B46FEF7DEFC04460D46DDE90401334A82
:10194000334BFEF7B3FD10B022462B46BDE8F04DF9
:10195000FEF7CFBC5A464046089BFEF729FC3246AC
:101960003B46FEF7A3FD42465346FEF7C5FC10B0CA
:1019700022462B46BDE8F04DFEF7BEBC009840B3B2
:10198000DDE904011F4A204BFEF790FD80468A46A0
:101990005A4620462946089BFEF7ABFC32463B469A
:1019A000FEF784FD42465346FEF7A3FC22462B4633
:1019B000FEF79FFC04460D46DDE90401134A144B73
:1019C000FEF774FD10B022462B46BDE8F04DFEF741
:1019D00090BC0B465A4620462946FEF78AFC324602
:1019E0003B46FEF763FD10B022462B46BDE8F04DA6
:1019F000FEF782BC0000F07F645F09000000F03F4A
:101A0000E2030000763C7935EF39EA3D0000E0FE64
:101A1000422EE63F5555D53F0000E03F86EBF9FFEB
:101A20007A0200007802000038B504000D4614BFA9
:101A300001200020284320F00040C0F17F6000F129
:101A4000E040C00F05D100221A4B2046FEF720FED1
:101A500004D120462946FFF7B5FC38BD00221346C5
:101A600020462946FEF714FE05D20120FFF7C2FCEE
:101A7000FFF7ABFC38BD6A4620462946FFF778FDE4
:101A8000009A002A04DD521E00920122FEF737FC64
:101A9000FFF71CFE084A094BFEF77AFD04460D4687
:101AA0000098FEF7E4FD01B022462B46BDE8304029
:101AB000FEF77EBB0000F07FEF39FAFE422EE63FD4
:101AC000FEF736FFFFF736FBFFF7E4FAFFF710FBF0
:101AD000FFF77AFD040005D0AC4203D0014602A016
:101AE000FFF7F2FB2546F3E725640000010202033D
:101AF0000405060708090A0B0C0D0E0F1010000054
:101B000000000000000001020304060708090000AD
:101B1000000001020304000004FA97999999D93F43
:101B2000AF788E1DC571CC3F9FC678D0099AC33F50
:101B3000935555555555E53F599322942449D23F25
:101B4000DE03CB966446C73F44523EDF12F1C23FEC
:101B50000000000000000000781B000800000020CA
:101B60001C000000D6130008941B00081C00002075
:101B70004C040000E613000807000000010000000C
:101B800010000000000000000024F400000000002D
:041B90000000000051
:0400000508000131BD
:00000001FF
