:020000040800F2
:1000000080040020A1010008A31300089112000839
:10001000A1130008D9020008B7160008000000006C
:100020000000000000000000000000005114000863
:10003000DB02000800000000A513000853140008AC
:10004000BB010008BB010008BB0100084514000803
:10005000BB010008BB010008BB010008BB01000890
:10006000BB010008BB010008BB010008BB01000880
:10007000BB010008BB010008BB010008BB01000870
:10008000BB010008BB010008BB010008BB01000860
:10009000BB010008BB010008BB010008BB01000850
:1000A000BB010008BB010008BB010008BB01000840
:1000B000BB010008BB010008BB010008BB01000830
:1000C000BB010008BB010008BB010008BB01000820
:1000D000BB010008BB010008BB010008BB01000810
:1000E000BB010008BB010008BB010008BB01000800
:1000F000BB010008BB010008BB010008BB010008F0
:10010000BB010008BB010008BB010008BB010008DF
:10011000BB010008BB010008BB010008BB010008CF
:10012000BB010008BB010008BB010008BB010008BF
:10013000BB010008BB010008BB010008BB010008AF
:10014000BB010008BB010008BB010008BB0100089F
:10015000BB010008BB010008BB010008BB0100088F
:10016000BB010008BB010008BB010008BB0100087F
:10017000BB010008BB010008BB0100080000000033
:10018000BB010008BB010008DFF810D000F092F8B6
:1001900000480047A51A0008AFF300808004002043
:1001A0000648804706480047FEE7FEE7FEE7FEE711
:1001B000FEE7FEE7FEE7FEE7FEE7FEE7D9140008EC
:1001C000890100082DE9F05F0546002092469B4614
:1001D00088460646814640241BE02846414647465D
:1001E000224600F057F853465A46C01A914110D3A0
:1001F00011461846224600F03EF82D1A67EB01081A
:100200004F4622460120002100F035F817EB000987
:100210004E41201EA4F10104DFDC484631462A4647
:100220004346BDE8F09FD2B201E000F8012B491E21
:10023000FBD270470022F6E710B513460A46044683
:100240001946FFF7F0FF204610BD30B50B460146BA
:1002500000202022012409E021FA02F59D4205D365
:1002600003FA02F5491B04FA02F52844151EA2F10F
:100270000102F1DC30BD202A04DB203A00FA02F151
:10028000002070479140C2F1200320FA03F3194384
:1002900090407047202A04DB203A21FA02F0002126
:1002A000704721FA02F3D040C2F120029140084386
:1002B00019467047064C074D06E0E06840F0010320
:1002C00094E8070098471034AC42F6D3FFF760FF7C
:1002D000841B0008A41B0008FEE7704772B6FEE707
:1002E00070B5044600F006F90546601C02D00448CB
:1002F0000078044400F0FEF8401BA042FAD370BD21
:10030000000000202DE9F84FDFF8BCA100220125F4
:1003100003264FF00F090AF1040BAAF1040E00BFE7
:100320000B6805FA02F42340A34270D10F7907F05D
:100330000307012F01D0022F16D187684FEA420828
:1003400006FA08FC27EA0C07D1F80CC00CFA08FCE6
:100350004CEA070CC0F808C04768A7430C79C4F3FF
:10036000001494403C4344600C79E443A4070AD051
:10037000C4684FEA420C06FA0CF7BC438F6807FAD0
:100380000CF72743C7600C7904F00304022C12D148
:10039000D40800EB840CDCF820405707FF0E09FA64
:1003A00007F824EA0804D1F8108008FA07F848EAA8
:1003B0000408CCF8208004684FEA420C06FA0CF7D7
:1003C000BC430F7907F0030707FA0CF727430760D0
:1003D0004C6814F4403F70D03C4C276847F4804789
:1003E0002760246822F0030704F480440094384C0A
:1003F00007EB040CDCF8084897074FEA177809FA6E
:1004000008F7BC43334FB84202D1002724E054E040
:10041000314FB84201D101271EE0304FB84201D11F
:10042000022719E02E4FB84201D1032714E02D4FC7
:10043000B84201D104270FE02B4FB84201D1052764
:100440000AE02A4FB84201D1062705E0284FB842FA
:1004500001D1072700E0082707FA08F72743CCF85F
:100460000878DAF800405746D1F804C09C435FEAA8
:10047000CC2C00D51C433C60DBF800405F46D1F833
:1004800004C09C435FEA8C2C00D51C433C60DEF822
:1004900000407746D1F804C09C435FEA8C3C00D50D
:1004A0001C433C60084F083F3C68D1F804C09C43A3
:1004B0005FEACC3C00D51C433C60521C102AFFF480
:1004C0002FAFBDE8F88F0000083C014044380240DF
:1004D00000300140000002400004024000080240D9
:1004E000000C0240001002400014024000180240BC
:1004F000001C024001488068704700000000002096
:100500000248816802781144816070470000002031
:100510000B4810B5016841F400710160016841F4B5
:1005200080610160016841F480710160032000F086
:100530006FF80F2000F006F800F024F8002010BD3E
:10054000003C024070B50D4D04464FF47A71287896
:10055000B1FBF0F00A490968B1FBF0F000F0CCFD06
:1005600048B9102C07D200222146501E00F030F866
:1005700000206C6070BD012070BD000000000020F4
:100580000C0000200A4808B5016841F48041016070
:10059000006800F4804000900548001F016841F0A9
:1005A00080510160006800F08050009008BD00009C
:1005B00044380240002809DB00F01F02012191406D
:1005C0004009800000F1E020C0F8001170470000F1
:1005D000F0B40E4B1B680C46C3F30223C3F10705AE
:1005E000042D00D90425191D072901D2002300E09C
:1005F000DB1E012606FA05F1491E214099409E4066
:10060000761E16403143F0BC01F07AB80CED00E0E4
:10061000064900F0070208684FF6FF03184040EA59
:100620000220034A10430860704700000CED00E010
:100630000000FA052DE9F843054600684FF001096E
:10064000C1074FF0000601D1400727D5DFF80C8124
:10065000C8F86860FFF74EFF0746414C05E000BF51
:10066000FFF748FFC01B022857D820680001F7D4C5
:1006700068688101287A41EA00703949843108604C
:10068000C8F86890FFF736FF074604E0FFF732FF2F
:10069000C01B022841D820680001F7D528788007C0
:1006A00052D52F484030016841F080510160006808
:1006B0002C4C00F080500090206840F48070206046
:1006C000FFF718FF074604E0FFF714FFC01B0228DE
:1006D00023D82068C005F7D5214C7034206810F469
:1006E000407020D0A98901F4407181421BD020685C
:1006F0001D4920F44070C1F800900E602060206811
:10070000C00710D0FFF7F6FE064641F2883707E033
:10071000FFF7F0FE801BB84202D90320BDE8F88342
:1007200020688007F4D5E9680D48C1F3012208303C
:10073000032A0BD0016821F4F81101602068A9890F
:10074000C1F30B01084320600020E7E70268074B74
:1007500022F4F81219400A430260EFE70000474212
:100760000038024000700040400E4742FFFCFF0F7F
:100770002DE9F0470E46050065D0DFF81481D8F862
:100780000000F7B200F00700B04207D288F800700E
:10079000D8F8000000F00700B04254D128683D4C62
:1007A000810712D5400703D5206840F4E05020604F
:1007B0002878000703D5206840F460402060206856
:1007C000A96820F0F000084320602878C0072DD0E9
:1007D000304968680839012812D0022813D003284C
:1007E00011D00968890700292DDA216821F0030159
:1007F00001432160FFF77EFE814641F2883A0EE018
:1008000009688903EFE709688901ECE7FFF772FEE1
:10081000A0EB0901514502D90320BDE8F08720680B
:10082000696800F00C00B0EB810FEFD1D8F8001030
:10083000404601F00701B14207D90770006800F097
:100840000700B04201D00120E7E72878400705D52E
:100850002068E96820F4E050084320602878000709
:1008600006D52068296920F4604040EAC100206074
:1008700000F038F82168084AC1F30311515CC84000
:100880000649086006480068FFF75CFE0020C4E7E0
:10089000003C0240083802406C1B00080C0000209D
:1008A000040000200448054900680968044AC1F3AF
:1008B0008221515CC84070470C000020083802407B
:1008C0007C1B00080448054900680968044AC1F314
:1008D0004231515CC84070470C000020083802408B
:1008E0007C1B0008154810B5006810F00C02144875
:1008F00013D01449042A0FD0082A0ED10F4C241FFC
:100900002268236802F03F025B0207D52068C0F32B
:100910008810A0FB010106E0084610BD2168C1F364
:100920008811A1FB00010023FFF74CFC2168C1F3F3
:100930000141491C4900B0FBF1F010BD08380240EC
:100940000024F40040787D012DE9F84F04006ED0BA
:100950002078DFF84C93C007A9F104054AD009F1CB
:1009600004000168C1F38101012908D00068C0F3C7
:10097000810002280AD1D9F80000400206D5286873
:10098000800337D560680028E1D033E06068B0F5B7
:10099000803F10D0B0F5A02F286810D020F4803010
:1009A0002860286820F4802028606068A8B1FFF7DC
:1009B000A1FD06460DE0286840F48030F4E740F4DD
:1009C00080202860F7E700BFFFF794FD801B6428B4
:1009D00073D828688003F7D50CE0FFF78BFD064637
:1009E00005E000BFFFF786FD801B6428F0D828686B
:1009F0008003F7D42078DFF8AC8280074FF0000A3C
:100A00003ED5A748001D016811F00C0F08D0006802
:100A1000C0F3810002280BD1D9F80000400207D4AE
:100A20002868800716D5E068012800D112E033E17C
:100A3000E068B8B10120C8F80000FFF75BFD06468A
:100A400005E000BFFFF756FD801B0228C0D82868CC
:100A50008007F7D52868216920F0F80040EAC10036
:100A600028600DE0C8F800A0FFF744FD064604E04A
:100A7000FFF740FD801B02281FD828688007F7D4A5
:100A80002078000722D5864F87486169703771B199
:100A900001210160FFF72EFD064604E0FFF72AFD65
:100AA000801B022809D838688007F7D50EE0C0F807
:100AB00000A0FFF71FFD064605E082E0FFF71AFDE4
:100AC000801B02287DD838688007F7D4207840073B
:100AD00068D5DFF8CCB100270BF13C0BDBF8000048
:100AE000C0000BD4DBF8001041F08051CBF80010AF
:100AF000DBF80000012700F0805000906B4E30685A
:100B0000C00510D4306840F480703060FFF7F2FC0C
:100B1000009005E0FFF7EEFC0099401A022850D83B
:100B20003068C005F6D55E4EA0686C3601280FD03F
:100B30000528306810D020F001003060306820F0C7
:100B400004003060A068B8B1FFF7D4FC00900FE05B
:100B5000306840F00100F4E740F004003060F7E74F
:100B6000FFF7C8FC0099411A41F28830814266D8EB
:100B700030688007F4D50EE0FFF7BCFC009007E07A
:100B8000FFF7B8FC0099411A41F28830814256D8EB
:100B900030688007F4D42FB1DBF8001021F08051C9
:100BA000CBF80010A069C8B33D49091D0968C1F31D
:100BB000810102294AD00228504607D0C8F86000B7
:100BC00000E03CE0FFF796FC04463BE04746C8F8EF
:100BD0006000FFF78FFC064605E000BFFFF78AFCC8
:100BE000801B02282BD828688001F7D4D4E907019C
:100BF0000843A16A2E4A490802EB0141626A41EAB0
:100C00008211084394F82C1040EA0161C9F80010E1
:100C100001203866FFF76EFC044606E03EE000BFA8
:100C2000FFF768FC001B022809D828688001F7D567
:100C300034E000BFFFF75EFC001B022802D903204E
:100C4000BDE8F88F28688001F4D427E00128F7D0A8
:100C5000D9F80000E26900F4800191421CD1226AB7
:100C600000F03F01914217D147F6C071626A01401E
:100C7000B1EB821F10D1A26A4FF0FF3300F4403174
:100C800003EB5202B1EB024F06D194F82C1000F0A6
:100C90007060B0EB016F01D00120D1E70020CFE7F9
:100CA0000438024000004742800E47420070004076
:100CB0000000FFFF2DE9F84389463D494FF4FA4C07
:100CC0004FF47A730F68B7FBFCF159430091017F31
:100CD000012965D001250577022141770368CA21E2
:100CE000596203685321596201688B684FF0FF0411
:100CF0005FEA43584FF000034FF003060CD500BFE6
:100D0000DDF80080B8F10108CDF800804AD0D1F8B4
:100D10000C805FEA4878F3D4D1F8088028F4806822
:100D2000C1F808800168D1F80C8008F0800868F4E8
:100D30009068C1F80C80B7FBFCF14FF47A777943E7
:100D400000910168009F7F1E00972BD0CF687F071E
:100D5000F8D58E6826F007068E6001688E68164307
:100D60008E600268C2F8149012490A6842F4800248
:100D70000A60104908310A6842F480020A6001687A
:100D80008A6842F480428A6001688A6842F480621C
:100D90008A6001684C62457703770020BDE8F883DC
:100DA0000220FBE74C62467703770320F6E700005A
:100DB0000C000020003C01407047000010B50A49BB
:100DC00004464FF4800008602068C168490508D5D2
:100DD000C16801F0800161F49061C1602046FFF7B5
:100DE000EBFF0120607710BD143C014010B5006896
:100DF0000B4641680D480140080CD870C1F304242B
:100E00005C7001F03F049C70C1F34231197052B91B
:100E100000F0C9FAD870587800F0C5FA5870987880
:100E200000F0C1FA9870002010BD00003FFFFF00E5
:100E300010B50B460168896A596001680969C1F3F8
:100E40000E019960006801680D480140C1F305403A
:100E50001870C1F306245C7001F07F049C70890D4A
:100E6000D97052B900F09FFA1870587800F09BFAC8
:100E70005870987800F097FA9870002010BD000024
:100E80007F7F7F0010B5040002D0607F10B106E0C4
:100E9000012010BD00202077204600F041F80220FC
:100EA00060772068C168C943C90632D5CA2141624A
:100EB000216853204862204600F08AFA20BB20684F
:100EC0008168164A11408160216888686268104311
:100ED000D4E904231A43104388602168E06808615C
:100EE00020680169228941EA02410161204600F03F
:100EF00093FA48B921680A6C22F480220A642168B6
:100F00000A6CA3691A430A642268FF21516208B17E
:100F100010BD00200121617710BD0000BFFF8FFFD1
:100F20001FB50021009101910291039100680C49C5
:100F3000884214D102200090000203906846FFF717
:100F400079FB08B1FFF7CAF90649012008600022C1
:100F500011460320FFF73CFB0320FFF72BFB1FBDCF
:100F6000002800403C0E474270B50446007F0B4607
:100F7000012819D00126267702206077B2B198782F
:100F8000D97840EA014558781978000240EA4130A2
:100F900005432168CA2048622168532048622046E0
:100FA00000F016FAD0B122E0022070BD5878C106D8
:100FB00003D500F0EF000A305870D87800F0FCF943
:100FC0000204587800F0F8F942EA0022987800F01C
:100FD000F3F90243187842EA4035DAE7074805405A
:100FE00020684560204600F017FA00B9667722684D
:100FF000FF2151620021217770BD00003FFFFF00FB
:101000002DE9F0410446007F0D46012823D04FF022
:10101000010884F81C80022060772068002780681F
:101020004FEA4060D2B1002800DBEF70A878297841
:1010300040EA01466878E978000240EA81500643B8
:101040002168CA204862216853204862204600F087
:10105000BFF9B8B12CE00220BDE8F081002800DB28
:10106000EF70287800F0A8F90204687800F0A4F97D
:1010700042EA0022A87800F09FF90243E87842EAA9
:101080008056DDE70D4806402068066020688168CC
:1010900021F480218160D5E90301084321688A6831
:1010A00010438860204600F0B7F908B984F81D8025
:1010B0002268FF2151622777CEE700007F7F7F0003
:1010C00070B504460B482168C860FFF713FA05465F
:1010D0004FF47A7607E000BFFFF70CFA401BB042EE
:1010E00001D9032070BD2068C0688006F4D50020B7
:1010F00070BD00005F7F010010B5401EB0F1807F21
:1011000001D3012010BD4FF0E02460610F21601772
:1011100000F0F6FA0020A06107202061002010BD39
:1011200070B5040004D094F84100002510B106E029
:10113000012070BD84F84050204600F023F82420A0
:1011400084F841002068C16821F40051C160204644
:1011500000F0F2F92068016921F4904101612068F2
:10116000416921F02A0141612068C16841F40051C0
:10117000C1606564202084F8410084F84200656302
:10118000002070BD10B586B0044614216846FFF7F4
:1011900051F814492068884221D11348002102687F
:1011A00042F010020260006800F0100005900E4846
:1011B0001438026842F001020260006800F0010089
:1011C00005904FF4C06000900220CDE9010103209A
:1011D00003900720049069460448FFF793F806B08F
:1011E00010BD0000001001404438024000000240E1
:1011F0002DE9F843044690F84100984616460D46FE
:10120000202802D00220BDE8F88385B17EB10020FD
:101210006064212084F84100FFF76CF9A6848146C0
:10122000E684A0682027B0F5805F02D003E00120AB
:10123000E9E7206910B12E4600250EE000260CE0FB
:101240008021204600F0FEF9A8B9C6B116F8010BBE
:1012500021684860E08C401EE084E08C4B464FF0F3
:101260000002CDF800800028EAD14FF0400120466E
:1012700000F0E8F940B184F841700320C3E735F885
:10128000020BC0F30800E3E784F841700020BAE7DE
:10129000FEE700000D4808B5016841F00401016057
:1012A000016801F004010091016841F080010160D2
:1012B000016801F080010091016841F001010160C5
:1012C000006800F00100009008BD000030380240C6
:1012D00010B586B014216846FEF7ACFF2148002403
:1012E0001F490594C0E900147F218160FF21C0E9F6
:1012F000031444618461FFF7C5FD08B1FEF7EEFFFA
:1013000017208DF8000030208DF801008DF8024084
:1013100003940122694613480494FFF771FE08B153
:10132000FEF7DCFF05208DF8140003208DF8150072
:1013300024208DF816008DF81700012205A9094810
:10134000FFF712FE08B1FEF7C9FF0022114605485B
:10135000FFF7B0FC002801D0FEF7C0FF06B010BDBB
:1013600000280040140000200C4810B50A49016014
:101370004FF4E1314160002181600C22C160C0E97D
:1013800004128161C161FFF7CBFE002803D0BDE8E4
:101390001040FEF7A3BF10BD001001403400002034
:1013A000FEE7FEE77047010901EB810100F00F0045
:1013B00000EB4100C0B27047002102E00A38C0B221
:1013C000491C0A28FAD2090740EA11607047000058
:1013D0002DE9F041044600680025C168490618D48B
:1013E000C16841F08001C160FFF784F806464FF400
:1013F0007A78042707E000BFFFF77CF8801B4045A0
:1014000001D9677701252068C068400601D4002D06
:10141000F2D02846BDE8F08170B50446006800258A
:10142000C16821F08001C16020688068800606D410
:101430002046FFF745FE10B10420607701252846BD
:1014400070BD00000148FFF7B9BC00001400002087
:101450007047FFF755B8000010B592B030216846CC
:10146000FEF7E8FE14210CA8FEF7E4FE184800245D
:10147000016841F080510160006800F080501190D7
:101480001448016841F4804101600068102100F4B3
:10149000804011900A2000900120CDE90301CDE9A0
:1014A00005046846FFF750FA08B172B6FEE70F2050
:1014B000CDE90C040E940F9400210CA81094FFF7B2
:1014C00057F9002801D072B6FEE712B010BD000037
:1014D00040380240007000400248016841F4700149
:1014E0000160704788ED00E001680C3151E8002F81
:1014F00022F4907241E80023002BF5D101681431E9
:1015000051E8002F22F0010241E80023002BF5D121
:10151000016B012909D101680C3151E8002F22F03B
:10152000100241E80023002BF5D1202180F8421061
:10153000002101637047000070B50446006801692E
:10154000E26821F44051114301612169A068E26918
:1015500008436169114308432168CA6849F20C6372
:101560009A430243CA6020684169A26921F440712C
:101570001143416131492068884202D03049884294
:1015800002D1FFF79FF901E0FFF78CF9E269002330
:10159000192164253226B2F5004F626828D0A0FBDD
:1015A0000101930F9200FEF70DFE0146B0FBF5F02E
:1015B0006FF01802504301EB800006EB0010B0FB07
:1015C000F5F000F0F002B1FBF5F002EB0012B1FB18
:1015D000F5F06FF01803584301EB800006EB0010A4
:1015E000B0FBF5F000F00F0021681044886070BD7A
:1015F000A0FB010192185B41FEF7E4FD0146B0FB40
:10160000F5F00201B1FBF5F06FF01803584301EB60
:10161000800006EBC000B0FBF5F000F0F80002EB34
:101620004002B1FBF5F0584301EB800006EBC0002F
:10163000B0FBF5F000F00700D6E700000010014015
:10164000001401402DE9F843984617460D4604461C
:10165000089E24E0701C22D0FEF74CFFA0EB08008F
:10166000B0421AD8CEB12068C168490717D5802D7D
:1016700015D0402D13D00168C94309070FD4016864
:101680000025406800902046FFF72EFF0820606488
:1016900084F840500120BDE8F8830320FBE7206870
:1016A000006835EA000004D00020B842D2D0002003
:1016B000F1E70120F9E7FEE70FB4054B10B503A9E8
:1016C000044A029800F03CF810BC5DF814FB0000DE
:1016D0008D1A0008100000200FB4084B10B504A9A3
:1016E00002AA039800F02CF8044602A9002000F09A
:1016F000C8F9204610BC5DF814FB0000831A0008EE
:101700000907090E002804DB00F1E02080F800142E
:10171000704700F00F0000F1E02080F8141D7047C2
:1017200002E008C8121F08C1002AFAD170477047AA
:10173000002001E001C1121F002AFBD17047000008
:101740002DE9FF4F8BB088460546002606E0252888
:101750000BD0DDE90D1290476D1C761C287800280F
:10176000F5D10FB03046BDE8F08F0024A146A24667
:101770000122AE4900E0044315F8013F203B02FA84
:1017800003F00842F7D128782A2810D06FF02F02F2
:101790002878A0F13001092915D809EB890102EB5D
:1017A000410144F0020400EB01096D1CF0E758F818
:1017B000041B5FEA010903D544F40054C9F1000990
:1017C00044F002046D1C28782E2817D115F8010F5B
:1017D00044F004042A280ED06FF02F022878A0F1DC
:1017E000300109290AD80AEB8A0102EB410100EB1A
:1017F000010A6D1CF2E758F804AB6D1C28786C28C0
:101800000FD006DC4C2817D068280DD06A2814D1D8
:1018100004E0742810D07A280FD10DE044F40014AD
:101820000AE044F4801401E044F4401469788142F1
:1018300002D104F580146D1C6D1C2878692865D0D0
:1018400006DC00288DD0632827D0642806D15DE00F
:101850006E2808D073282AD0752877D0DDE90D12BC
:101860009047761CE0E0C4F30250022809D0032818
:101870000DD0D8F8001004280DD00E6008F104082F
:10188000D2E0D8F80010F217C1E90062F6E7D8F804
:1018900000100E80F2E70E70F0E718F8041B8DF8C8
:1018A000001000208DF80100EB46012003E058F8FD
:1018B00004BB4FF0FF3061074FF0000701D40AE08E
:1018C0007F1C57450DDA8742FADB1BF80710002909
:1018D000F6D106E07F1C8742FCDB1BF807100029CD
:1018E000F8D1DDE90D23A9EB07008146214600F080
:1018F000B1F83044C61904E0DDE90D121BF8010B04
:1019000090477F1EF8D22146484688E058F8040BDD
:10191000C4F302514FF00A0B032900D100B204298D
:1019200000D140B2002802DA40422D2102E0210518
:1019300005D52B218DF82410012104E006E0E107F4
:1019400010D02021F6E708AF089113E058F8040BF7
:10195000C4F302514FF00A0B032900D180B20429CD
:1019600000D1C0B20021EEE75946FEF76EFC3031DF
:1019700007F8011D0028F7D1ADEB070000F1200B9F
:10198000600702D524F4803401E04FF0010ADA4503
:1019900002DDAAEB0B0000E00020824600EB0B0109
:1019A00008980144A9EB01000A90E00306D4DDE9A0
:1019B0000D2321460A9800F04DF806444FF0000927
:1019C00008E009A911F80900DDE90D12904709F1B5
:1019D0000109761C08998945F3DBE0030CD5DDE9A4
:1019E0000D2321460A9800F035F8064404E0DDE9AD
:1019F0000D1230209047761CBAF10001AAF1010ABD
:101A0000F5DC05E0DDE90D1217F8010B9047761CB7
:101A1000BBF10001ABF1010BF4DC0A982146DDE9D2
:101A20000D2300F005F806446D1C97E60928010017
:101A30002DE9F041044600251E461746880404D4CB
:101A400005E039462020B0476D1C641EF9D52846B4
:101A5000BDE8F0812DE9F041044600251E46904680
:101A6000C80301D5302700E02027880404D505E00D
:101A700041463846B0476D1C641EF9D52846BDE87E
:101A8000F0810A68531C0B601070704713B54FF655
:101A9000FF73012269460248FFF7AAFB00981CBDAC
:101AA0003400002092B0FEF733FDFFF7D5FCFFF7BE
:101AB000F1FBFFF70DFCFFF757FC4FF47A7400229F
:101AC0000BA91A48FFF7B4F99DF82E0000909DF875
:101AD0002D309DF82C2016A101A8FFF7FDFD01A9CE
:101AE00018A0FFF7E9FD002210A91048FFF77EF9C2
:101AF0009DF8420000909DF841309DF8432013A1CD
:101B000001A8FFF7E9FD01A90EA0FFF7D5FD9DF89B
:101B1000402014A101A8FFF7DFFD01A909A0FFF7EC
:101B2000CBFD2046FEF7DCFBC9E7000014000020D7
:101B300054696D653A253032643A253032643A256D
:101B40003032640025730D0A0000000044617465A2
:101B50003A3230253032642D253032642D25303232
:101B6000640000005765656B3A25640000000000C2
:101B7000000000000102030406070809000000003D
:101B800001020304A41B0008000000201400000050
:101B900020170008B81B0008140000206C04000087
:101BA00030170008010000001000000000000000D5
:081BB0000024F4000000000015
:040000050800018965
:00000001FF
