:020000040800F2
:1000000080050020A10100084F2200082F190008D8
:100010004D220008D1080008B54800080000000083
:100020000000000000000000000000005322000853
:10003000750A00080000000051220008552200083F
:10004000BB010008BB010008BB010008BB010008A0
:10005000BB010008BB010008BB010008BB01000890
:10006000BB010008BB010008BB010008BB01000880
:10007000BB010008BB010008BB010008BB01000870
:10008000BB010008BB010008BB010008BB01000860
:10009000BB010008BB010008BB010008BB01000850
:1000A000BB010008BB010008BB010008BB01000840
:1000B000BB010008BB010008BB010008BB01000830
:1000C000BB010008BB010008BB010008BB01000820
:1000D000BB010008BB010008BB010008BB01000810
:1000E000BB010008BB010008BB010008BB01000800
:1000F000BB010008BB010008BB010008BB010008F0
:10010000BB010008BB010008BB010008BB010008DF
:10011000BB010008BB010008BB010008BB010008CF
:10012000BB010008BB010008BB010008BB010008BF
:10013000BB010008BB010008BB010008BB010008AF
:10014000BB010008BB010008BB010008BB0100089F
:10015000BB010008BB010008BB010008BB0100088F
:10016000BB010008BB010008BB010008BB0100087F
:10017000BB010008BB010008BB0100080000000033
:10018000BB010008BB010008DFF810D000F08EFBB7
:1001900000480047D15B0008AFF3008080050020D5
:1001A0000648804706480047FEE7FEE7FEE7FEE711
:1001B000FEE7FEE7FEE7FEE7FEE7FEE7E9220008CE
:1001C000890100082DE9F05F0546002092469B4614
:1001D00088460646814640241BE02846414647465D
:1001E000224600F053FA53465A46C01A914110D3A2
:1001F00011461846224600F03AFA2D1A67EB01081C
:100200004F4622460120002100F031FA17EB000989
:100210004E41201EA4F10104DFDC484631462A4647
:100220004346BDE8F09FD2B201E000F8012B491E21
:10023000FBD270470022F6E710B513460A46044683
:100240001946FFF7F0FF204610BD2DE9FE4F80460E
:1002500081EA0300C00F0C46009021F0004123F01A
:100260000045B8EB0200A94105D240462146904620
:100270001C460B46024623F00040104347D0270D92
:10028000C7F30A00C3F30A510290401A01904028B4
:100290006BDAC3F3130040F4801B0098924620B140
:1002A0000023D2EB030A63EB0B0B01985946C0F114
:1002B0004002504600F0DBF906460D4650465946CE
:1002C000019A00F0F3F910EB08006141002487EA7D
:1002D000115284EAE7731A4340D0009A62B3019A3C
:1002E000012A4FEA075215DC001B61EB02014FF0B7
:1002F000004202EA0752CDE90042001C41F580119C
:1003000032462B4600F02AFA03B0BDE8F08F404693
:100310002146F9E7001B61EB0201001C41F5801347
:1003200000185B412018A2F5001747EB030140EAD3
:10033000D570B6196D4111E06D084FEA360645EAF1
:10034000C0754FEA0752001B61EB0201001C41F52A
:10035000801149084FEA30000019514132462B46BE
:1003600003B0BDE8F04F00F0EAB900980122400068
:100370000023D0EB020263EBE073009821464FEAC2
:10038000E074B8EB000061EB0401E9E783F000439F
:100390005BE781F0004158E72DE9FE4F81EA030455
:1003A00004F0004421F0004100944FF0000B23F0D2
:1003B000004350EA01045ED052EA03045BD0C3F369
:1003C0000A54C1F30A552C44A4F2F3340194A0FB5F
:1003D0000254C1F3130141F48011C3F3130343F436
:1003E000801301FB024400FB034E840A970A44EA8F
:1003F000815447EA8357A4FB076802958D0A05FBE1
:1004000007854FEA932C04FB0C542705029D4FEA05
:10041000065847EA1637B5EB08056EEB070C870E52
:10042000920E47EA811742EA8312A7FB0201B6EB5C
:100430000B0164EB00042B0D43EA0C335E1844EB14
:100440001C50DA465146E7FB0201C5F313044FEA9C
:100450000B3343EA14534FEA0432019C43EA060388
:10046000A4F10C040294009CCDE900B400F076F9EC
:1004700003B0BDE8F08F00200146F9E72DE9F04D0B
:1004800081EA030404F0004B21F0004514464FF0CC
:10049000000A23F0004150EA050220D054EA01028C
:1004A0001DD0C5F30A570246C5F31303C1F3130069
:1004B000C1F30A5640F4801543F48013A7EB0608F5
:1004C000101BD64608F2FD3873EB050002D308F185
:1004D000010801E092185B41B8F1000F03DA002037
:1004E0000146BDE8F08D00204FF480110646844699
:1004F0000EE0171B73EB050705D3121B63EB050317
:1005000006434CEA010C49084FEA300092185B415F
:1005100050EA0107EDD152EA030012D082EA04004A
:1005200083EA0501084305D0101BAB4106D2012226
:10053000002306E000224FF0004302E06FF00102CA
:1005400053101AEB06004CEB085110EB0A0041EB7C
:100550000B01BDE8F04D00F0F2B80EB540F23341AA
:1005600002910021CDE900110A460B4600F0F6F891
:1005700003B000BD70B5C1F30A5201F0004500247C
:10058000C1F3130140F2FF3341F480119A4201DAC2
:10059000002070BD40F233439A42A2F2334203DCA2
:1005A000524200F073F800E090402C43F1D04042FA
:1005B00070BDC1F30A5210B5C1F3130140F2FF330D
:1005C00041F480119A4201DA002010BD40F2334319
:1005D0009A42A2F2334203DC524200F057F810BDB7
:1005E000904010BD00F0004230F000400AD0C10D34
:1005F00001F56071C0F3160042EA0151C2084007DC
:100600001143704700200146704701F0004330B4A9
:1006100021F0004150EA010206D00A0DA2F56072F5
:10062000C1F31301002A02DC30BC00207047440FE4
:1006300044EAC104C100E01830BC00EBC25000F035
:1006400047B830B50B46014600202022012409E0BE
:1006500021FA02F59D4205D303FA02F5491B04FA7B
:1006600002F52844151EA2F10102F1DC30BD202A5A
:1006700004DB203A00FA02F1002070479140C2F1F9
:10068000200320FA03F3194390407047202A04DB2B
:10069000203A21FA02F00021704721FA02F3D040FB
:1006A000C2F120029140084319467047202A06DB18
:1006B000CB17203A41FA02F043EAE07306E041FA30
:1006C00002F3D040C2F1200291400843194670471E
:1006D0000029A8BF7047401C490008BF20F0010056
:1006E000704710B4B0FA80FC00FA0CF050EA010434
:1006F00004BF10BC704749B1CCF1200421FA04F4C6
:1007000011FA0CF118BF012121430843A3EB0C019E
:10071000CB1D4FEA00614FEA102042BF002010BC01
:10072000704700EBC35010440029A4BF10BC7047B1
:10073000401C490008BF20F0010010BC704710B5F4
:10074000141E73F1000408DA401C41F100019218F4
:100750005B411A4301D120F0010010BD2DE9F04D9D
:1007600092469B4611B1B1FA81F202E0B0FA80F2F2
:1007700020329046FFF77BFF04460F4640EA0A000E
:1007800041EA0B0153465A46084313D0114653EA37
:10079000010019D0C8F140025046FFF777FF054627
:1007A0000E46504659464246FFF761FF084305D0C2
:1007B000012004E020463946BDE8F08D00200543C5
:1007C00046EAE0762C4337430A986305E40AA0EB37
:1007D00008000022FD0A44EA47540A3002D50020EE
:1007E0000146E9E7010510196941DDE908450019ED
:1007F0006941BDE8F04DA2E70EB5C10F80EAE07097
:100800000844CA07002140F233438DE80E000A462F
:100810000B46FFF7A3FF03B000BDC1F30A52C1F3BB
:10082000130140F2FF3341F480119A4202DA0020B2
:100830000146704740F233439A42A2F2334202DC4F
:100840005242FFF723BFFFF712BF000030B5041E6E
:1008500071F1000404DB4FF00044404264EB0101FD
:10086000141E73F1000405DB1C464FF00043524296
:1008700063EB04038B4208BF824230BD30B5041ED7
:1008800071F1000404DB4FF00044404264EB0101CD
:10089000141E73F1000405DB1C464FF00043524266
:1008A00063EB0403994208BF904230BD064C074DEC
:1008B00006E0E06840F0010394E807009847103430
:1008C000AC42F6D3FFF764FC1876000838760008CF
:1008D000FEE7000070B5002400F028F8124D04E097
:1008E000641CE4B2012004F08FFF1021284600F0C0
:1008F00097FA10B1642CF3D30FE0642C0DD20024CE
:1009000004E0641CE4B2012004F07EFF10212846BC
:1009100000F086FA18B1642C04D3012070BD642C59
:10092000EFD3FAE7002070BD0008024000B585B0A3
:1009300010200090002001906946024800F078F9EC
:1009400005B000BD0008024000B585B01020009041
:1009500001200190022003906946024800F068F9E6
:1009600005B000BD0008024010B500F06BF8BDE80E
:100970001040FFF7AFBF000070B50024134D04E036
:10098000641CE4B2012004F03FFF1021284600F06F
:1009900047FA08B1642CF3D3002404E0641CE4B2E9
:1009A000012004F031FF1021284600F039FA08B97F
:1009B000642CF3D3282004F027FF1021284600F0F0
:1009C0002FFA002800D0012070BD0000000802406E
:1009D00070B5002004464006050EFFF7CDFF641CED
:1009E0002843E4B2082CF6D370BD2DE9FC410D4636
:1009F000064600F027F8FFF76DFF10B10120BDE8B3
:100A0000FC8100246F46FFF7E3FF3855641CE4B215
:100A1000052CF8D39DF800309DF801209DF80210B8
:100A20009DF803009C180F183C449DF80470BC42CC
:100A300005D102EB03222A8000EB01203080002048
:100A4000DDE7000010B5FFF77FFF094C0022102101
:100A5000204600F0EAF9142000F084F80122102169
:100A6000204600F0E2F9BDE810401E2004F0CCBEA4
:100A700000080240704772B6FEE7000030B5B3F5DB
:100A8000804F05D06FF0704140F82210002030BD3B
:100A90008C690B688D6823434C688989240144EA7A
:100AA0000524234343EA014150F82230014C2340FE
:100AB0001943E9E70000F0CF10B50A6850F822307A
:100AC00023F0010340F822308C68082C23D0002347
:100AD0004A682243CC681C430B6922431A434B6982
:100AE0000E4C1A43CB691A430B6A1A434B6A1A43DA
:100AF0008B6A1A43CB6A1A430B6B1A438B691343F5
:100B0000CA6B09681A4350F82130A343134340F8D5
:100B10002130002010BD4023DAE700007FFF0F00E6
:100B200030B5D1E9003443EA04138C688D8924027E
:100B300044EA054423430C8A094D00EB820005EB8F
:100B4000045423430C7D6D0105EB04648969234340
:100B50000B43416801F040410B434360002030BD2E
:100B60000000F0FF70B5044600F064F90546601C13
:100B700002D004480078044400F05CF9401BA04215
:100B8000FAD370BD140000202DE9F04186B0142185
:100B90006846FFF74FFB20480168002939D1012141
:100BA00001601E480024016841F0010101600068F5
:100BB0004FF4805800F001000C27CDF80080CDE9FB
:100BC0000470032602250396CDE9015469461448B2
:100BD00000F02EF84FF68070CDE9000502AA6946B4
:100BE00082E8D0000F4800F023F84CF23370CDE9D2
:100BF000000502AA694682E8D0000B4800F018F808
:100C000002AA694682E8D000CDE90085074800F0D5
:100C10000FF806B0BDE8F08100000020383802402F
:100C20000014024000100240000C02400018024074
:100C30002DE9F84FDFF8BCA10022012503264FF073
:100C40000F090AF1040BAAF1040E00BF0B6805FAA4
:100C500002F42340A34270D10F7907F00307012F5C
:100C600001D0022F16D187684FEA420806FA08FC25
:100C700027EA0C07D1F80CC00CFA08FC4CEA070C68
:100C8000C0F808C04768A7430C79C4F30014944027
:100C90003C4344600C79E443A4070AD0C4684FEA9B
:100CA000420C06FA0CF7BC438F6807FA0CF727438F
:100CB000C7600C7904F00304022C12D1D40800EBB5
:100CC000840CDCF820405707FF0E09FA07F824EAE5
:100CD0000804D1F8108008FA07F848EA0408CCF8AC
:100CE000208004684FEA420C06FA0CF7BC430F79E7
:100CF00007F0030707FA0CF7274307604C6814F462
:100D0000403F70D03C4C276847F4804727602468F8
:100D100022F0030704F480440094384C07EB040CE1
:100D2000DCF8084897074FEA177809FA08F7BC4338
:100D3000334FB84202D1002724E054E0314FB8428B
:100D400001D101271EE0304FB84201D1022719E03E
:100D50002E4FB84201D1032714E02D4FB84201D1E4
:100D600004270FE02B4FB84201D105270AE02A4F94
:100D7000B84201D1062705E0284FB84201D1072724
:100D800000E0082707FA08F72743CCF80878DAF8D4
:100D900000405746D1F804C09C435FEACC2C00D5F4
:100DA0001C433C60DBF800405F46D1F804C09C4324
:100DB0005FEA8C2C00D51C433C60DEF8004077468F
:100DC000D1F804C09C435FEA8C3C00D51C433C60D6
:100DD000084F083F3C68D1F804C09C435FEACC3C14
:100DE00000D51C433C60521C102AFFF42FAFBDE815
:100DF000F88F0000083C01404438024000300140B8
:100E0000000002400004024000080240000C0240C2
:100E1000001002400014024000180240001C024072
:100E20000069084000D0012070470AB18161704715
:100E30000904FBE7014880687047000014000020A7
:100E400002488168027811448160704714000020D4
:100E50000B4810B5016841F400710160016841F46C
:100E600080610160016841F480710160032000F03D
:100E700061F80F2000F006F800F024F8002010BD03
:100E8000003C024070B50D4D04464FF47A7128784D
:100E9000B1FBF0F00A490968B1FBF0F000F02EFB5D
:100EA00048B9102C07D200222146501E00F022F82B
:100EB00000206C6070BD012070BD00001400002097
:100EC000200000200A4808B5016841F48041016013
:100ED000006800F4804000900548001F016841F060
:100EE00080510160006800F08050009008BD000053
:100EF00044380240F0B40E4B1B680C46C3F3022387
:100F0000C3F10705042D00D90425191D072901D2B5
:100F1000002300E0DB1E012606FA05F1491E2140F0
:100F200099409E40761E16403143F0BC03F0E8BC69
:100F30000CED00E0064900F0070208684FF6FF03D9
:100F4000184040EA0220034A10430860704700003E
:100F50000CED00E00000FA052DE9F0470E46050013
:100F600065D0DFF81481D8F80000F7B200F0070070
:100F7000B04207D288F80070D8F8000000F00700EF
:100F8000B04254D128683D4C810712D5400703D5A3
:100F9000206840F4E05020602878000703D52068DE
:100FA00040F4604020602068A96820F0F000084309
:100FB00020602878C0072DD030496868083901289A
:100FC00012D0022813D0032811D0096889070029FC
:100FD0002DDA216821F0030101432160FFF72AFF88
:100FE000814641F2883A0EE009688903EFE7096813
:100FF0008901ECE7FFF71EFFA0EB0901514502D97B
:101000000320BDE8F0872068696800F00C00B0EBB1
:10101000810FEFD1D8F80010404601F00701B1422E
:1010200007D90770006800F00700B04201D0012026
:10103000E7E72878400705D52068E96820F4E05004
:10104000084320602878000706D52068296920F425
:10105000604040EAC100206000F038F82168084A8A
:10106000C1F30311515CC840064908600648006896
:10107000FFF708FF0020C4E7003C024008380240A8
:10108000BC75000820000020180000200448054915
:1010900000680968044AC1F38221515CC840704766
:1010A0002000002008380240CC750008044805499B
:1010B00000680968044AC1F34231515CC840704776
:1010C0002000002008380240CC750008154810B5F3
:1010D000006810F00C02144813D01449042A0FD0F1
:1010E000082A0ED10F4C241F2268236802F03F0209
:1010F0005B0207D52068C0F38810A0FB010106E061
:10110000084610BD2168C1F38811A1FB000100232E
:10111000FFF758F82168C1F30141491C4900B0FBB1
:10112000F1F010BD083802400024F40040787D0141
:101130002DE9F84F04006ED02078DFF84C93C007FB
:10114000A9F104054AD009F104000168C1F3810145
:10115000012908D00068C0F3810002280AD1D9F81B
:101160000000400206D52868800337D56068002853
:10117000E1D033E06068B0F5803F10D0B0F5A02F2B
:10118000286810D020F480302860286820F480205F
:1011900028606068A8B1FFF74DFE06460DE028689C
:1011A00040F48030F4E740F480202860F7E700BF87
:1011B000FFF740FE801B642873D828688003F7D5AA
:1011C0000CE0FFF737FE064605E000BFFFF732FEF2
:1011D000801B6428F0D828688003F7D42078DFF8D3
:1011E000AC8280074FF0000A3ED5A748001D016879
:1011F00011F00C0F08D00068C0F3810002280BD159
:10120000D9F80000400207D42868800716D5E068A6
:10121000012800D112E033E1E068B8B10120C8F83C
:101220000000FFF707FE064605E000BFFFF702FEDD
:10123000801B0228C0D828688007F7D52868216954
:1012400020F0F80040EAC10028600DE0C8F800A0D6
:10125000FFF7F0FD064604E0FFF7ECFD801B0228D7
:101260001FD828688007F7D42078000722D5864F3A
:1012700087486169703771B101210160FFF7DAFDBC
:10128000064604E0FFF7D6FD801B022809D838681F
:101290008007F7D50EE0C0F800A0FFF7CBFD0646AB
:1012A00005E082E0FFF7C6FD801B02287DD8386884
:1012B0008007F7D42078400768D5DFF8CCB1002745
:1012C0000BF13C0BDBF80000C0000BD4DBF8001086
:1012D00041F08051CBF80010DBF80000012700F04E
:1012E000805000906B4E3068C00510D4306840F4D8
:1012F00080703060FFF79EFD009005E0FFF79AFDDB
:101300000099401A022850D83068C005F6D55E4EC4
:10131000A0686C3601280FD00528306810D020F066
:1013200001003060306820F004003060A068B8B17F
:10133000FFF780FD00900FE0306840F00100F4E717
:1013400040F004003060F7E7FFF774FD0099411AA0
:1013500041F28830814266D830688007F4D50EE0CB
:10136000FFF768FD009007E0FFF764FD0099411A60
:1013700041F28830814256D830688007F4D42FB1CA
:10138000DBF8001021F08051CBF80010A069C8B341
:101390003D49091D0968C1F3810102294AD002288B
:1013A000504607D0C8F8600000E03CE0FFF742FD7F
:1013B00004463BE04746C8F86000FFF73BFD0646A1
:1013C00005E000BFFFF736FD801B02282BD82868F8
:1013D0008001F7D4D4E907010843A16A2E4A4908DD
:1013E00002EB0141626A41EA8211084394F82C1031
:1013F00040EA0161C9F8001001203866FFF71AFDC4
:10140000044606E03EE000BFFFF714FD001B022883
:1014100009D828688001F7D534E000BFFFF70AFD3E
:10142000001B022802D90320BDE8F88F286880013C
:10143000F4D427E00128F7D0D9F80000E26900F4DD
:10144000800191421CD1226A00F03F01914217D1E4
:1014500047F6C071626A0140B1EB821F10D1A26AE7
:101460004FF0FF3300F4403103EB5202B1EB024F77
:1014700006D194F82C1000F07060B0EB016F01D031
:101480000120D1E70020CFE70438024000004742A6
:10149000800E4742007000400000FFFF70B5154607
:1014A0000E46040003D094F8490010B107E0012073
:1014B00070BD002084F84800204600F01DF804F1BB
:1014C00008012068FFF7F8FA3146A2682068FFF7A4
:1014D00027FBD4E901022946236BFFF7CFFA2168E5
:1014E000A06851F8202042F0010241F8202001209C
:1014F00084F84900002070BDFFF746BB10B5401EC0
:10150000B0F1807F01D3012010BD4FF0E024606175
:101510000F21601703F0F4F90020A061072020617B
:10152000002010BD70B590F83C20012A32D0012473
:1015300080F83C40022280F83D2003685A689D688C
:1015400022F070060A6832435A60134B02689A42CE
:1015500014D0B2F1804F11D0104B9A420ED0104BE4
:101560009A420BD00F4B9A4208D00F4B9A4205D0AB
:101570000E4B9A4202D00E4B9A4204D1496825F094
:1015800080031943916080F83D40002180F83C10B1
:10159000084670BD022070BD0000014000040040FC
:1015A00000080040000C00400004014000400140E1
:1015B0000018004010B5040003D094F83D0010B1AD
:1015C00007E0012010BD002084F83C00204600F018
:1015D0001FF8022084F83D00211D206803F00EF85A
:1015E000012084F8460084F83E0084F83F0084F827
:1015F000400084F8410084F8420084F8430084F8F5
:10160000440084F8450084F83D00002010BD00002F
:1016100008B50068B0F1804F08D10548016841F075
:1016200001010160006800F00100009008BD0000A9
:101630004038024090F83D10012901D00120704748
:10164000022180F83D1000681149884214D0B0F1A1
:10165000804F11D00F4988420ED00F4988420BD0DD
:101660000E49884208D00E49884205D00D4988426B
:1016700002D00D49884204D1816801F00701062992
:1016800003D0016841F001010160002070470000B3
:10169000000001400004004000080040000C004031
:1016A00000040140004001400018004001680A6A3F
:1016B00041F211131A4207D10A6A9B101A4203D150
:1016C0000A6822F001020A60012180F83D10002022
:1016D000704770B5044690F83C000025012817D0EB
:1016E000012684F83C60022084F83D00206882686E
:1016F00022F0770222F47F4282600868502838D0B6
:101700000DDC20284FD005DC90B3102811D14AE021
:10171000022070BD302846D040280AD13BE0602826
:101720002FD070280DD0B0F5805F03D0B0F5005FEA
:1017300012D0012584F83D60002084F83C00284642
:1017400070BDCB68D1E90121206802F0BBFF2068A1
:10175000816841F0770109E0CB68D1E90121206877
:1017600002F0B0FF2068816841F480418160E1E7C8
:1017700019E0CA684968206802F0B6FF5021206865
:1017800006E0CA684968206802F0BFFF602120684F
:1017900002F0A2FFCEE7CA684968206802F0A4FF01
:1017A00040212068F4E7226801461046F0E770B552
:1017B000040004D094F83D00002510B106E001209B
:1017C00070BD84F83C50204600F022F8242084F8B4
:1017D0003D002068C16821F40051C160204602F03C
:1017E000A7FF2068016921F49041016120684169E7
:1017F00021F02A0141612068C16841F40051C160B3
:101800002564202084F83D0084F83E00002070BD4F
:1018100010B586B0044614216846FEF70BFD144946
:101820002068884221D113480021026842F010024A
:101830000260006800F0100005900E48143802683D
:1018400042F001020260006800F0010005904FF4D0
:10185000C06000900220CDE9010103200390072021
:10186000049069460448FFF7E3F906B010BD000094
:101870000010014044380240000002402DE9F843C6
:10188000044690F83D001F4616460D4620284CD1D0
:10189000C5B1BEB194F83C00012846D0012084F8BF
:1018A0003C004FF00008C4F84080212084F83D003F
:1018B000FFF7C0FAA6848146E684A068B0F5805F91
:1018C00003D004E00120BDE8F883206928B12E464A
:1018D0005FF0000584F83C800EE00026FAE78021E6
:1018E000204602F0ABFFA0B9AEB116F8010B21689B
:1018F0004860E08C401EE084E08C4B464FF00002D4
:1019000000970028EBD14FF04001204602F096FFEF
:1019100030B10320D7E735F8020BC0F30800E6E743
:10192000202084F83D000020CDE70220CBE7FEE731
:1019300070B50B490646002408884D88214645436A
:10194000204600F017FA00F043FBB0B24FF0D84148
:1019500003E000BFA1F88000641CAC42FAD370BD64
:101960006C0100202DE9F04F33492C240A46887180
:101970002A2592882B2645F2105B4FF4305E4FF4F7
:1019800048774FF0F00949F2413A4FF4A07845F218
:10199000103C4FF4F07358B1A1F80080A1F8029008
:1019A000524501D0624529D10C814D818E8139E0AB
:1019B000A1F80090A1F80280524501D0624508D1FB
:1019C0000C814D818E81624531D1A1F800804B8020
:1019D0002DE05A4508D1A1F808E04FF4285048817D
:1019E0004FF42C50888106E0A2F5C85063381ED110
:1019F0000C814E818D810B804F8018E05A4508D1B3
:101A0000A1F808E04FF4285048814FF42C50888109
:101A100006E0A2F5C850633804D10C814D818E8157
:101A20000F804B80624502D10B80A1F80280BDE897
:101A3000F04F002000F0C2B86C0100202DE9F04307
:101A4000444C91460246A08823460D464FEA112891
:101A5000160A5B89A0F51341413917D0A0F5A641BC
:101A6000103913D0A0F5AA41103914D02646A0F59C
:101A7000C857B1793688B61A761E633F25D0A0F5CF
:101A8000D047043F3DD0012951D051E0184600F025
:101A900093FA30463CE0184600F08EFA304600F0EB
:101AA0007FFA6089401C80B200F086FAD0B200F064
:101AB00077FAA08900F080FA404600F071FAA08918
:101AC000401C80B200F078FA2DE001B9B2B218469D
:101AD00000F072FA160A304600F062FAD0B200F056
:101AE0005FFA304600F05CFAD0B200F059FAA089F3
:101AF00000F062FA404600F053FAE8B200F050FA03
:101B00000EE0012900D1B2B2184600F055FA100AD1
:101B100000F046FAD0B200F043FAA08900F04CFA87
:101B2000404600F03DFAE8B200F03AFA08E0B2B2FE
:101B30001146184600F056FAA089294600F052FADC
:101B40004FF0D840218920F87E1FA0F80290BDE810
:101B5000F08300006C01002008B54FF0D840B0F8C9
:101B60008000ADF80000BDF8000008BD10B50246C9
:101B7000BE2000F021FA052000F012FA1046FEF710
:101B8000ECFC9FED0C1B53EC112BFEF705FCFEF754
:101B900010FD80B200F004FA012000F001FAFF20ED
:101BA00000F0FEF9002000F0FBF9BDE81040002035
:101BB00000F0F6B96666666666660440F0B56C4C81
:101BC00000232146A279898841F66316012A01D0B3
:101BD0001AB11BE0B14202D118E0B14216D1082877
:101BE00014D2DFE800F00406080A0C0E10120620DA
:101BF0000CE007200AE0042008E0052006E00120B0
:101C000004E0002002E0032000E00220A1F51347D9
:101C100045F2103245F21055413F05D0914203D0B4
:101C2000A94201D0B14277D1082812D2DFE800F0F2
:101C3000110406080A0C0E1080230AE0402308E075
:101C4000C02306E0202304E0602302E0A02300E09C
:101C5000E023A94202D14FF4585000E036209142CF
:101C600005D0A94203D0B14201D043F00803194680
:101C700000F0B8F9A188B1420AD09806208862889D
:101C800002D5904202D303E0904201D922806080C5
:101C90006089A94241D100F08FF9002000F080F95D
:101CA0006089401C80B200F087F9002000F078F9CC
:101CB0006089801C80B200F07FF92088401EC0F34C
:101CC0000F2000F06DF96089C01C80B200F074F93B
:101CD0002078401EC0B200F063F9A08900F06CF9D2
:101CE000002000F05DF9A089401C80B200F064F98A
:101CF000002000F055F9A089801C80B200F05CF94A
:101D00006088401EC0F30F2000F04AF9A089C01C73
:101D100080B200F051F922E028E000F04DF90020F7
:101D200000F03EF9002000F03BF92088401EC0F38F
:101D30000F2000F035F92078401EC0B200F030F9D5
:101D4000A08900F039F9002000F02AF9002000F005
:101D500027F96088401EC0F30F2000F021F9A07819
:101D6000BDE8F040401EC0B200F01AB9F0BD00005E
:101D70006C010020F0B53F4A0D460446060A9188E2
:101D800010462F0A4089A1F51343413B28D0A1F505
:101D9000A643103B24D0A1F5C853633B2FD0A1F537
:101DA000AA43103B64D100F007F9304600F0F8F880
:101DB0005089401C80B200F0FFF8E0B200F0F0F86B
:101DC000908900F0F9F8384600F0EAF89089401C54
:101DD00080B200F0F1F8E8B2BDE8F04000F0E0B801
:101DE00000F0EAF8304600F0DBF8E0B200F0D8F896
:101DF000908900F0E1F8384600F0D2F8EBE79179ED
:101E000029B300F0D9F8304600F0CAF8E0B200F08B
:101E1000C7F81088401EC0F30F2000F0C1F81078FA
:101E2000401EC0B200F0BCF8908900F0C5F83846FA
:101E300000F0B6F8E8B200F0B3F85088401EC0F3E6
:101E40000F2000F0ADF89078401EC0B2C4E71188B2
:101E5000091B491E8CB200F0AFF8002000F0A0F87A
:101E6000002000F09DF8200A00F09AF8E0B2D9E7CF
:101E7000F0BD00006C0100202DE9FF4F1D460C460F
:101E80008A46580700D0012000EBD500690810FBF6
:101E900001F0203A00F0FF09D0B20026DFF898B038
:101EA000029044E00C2D11D0102D14D0182D40D1EB
:101EB0000298224900EBC00001EB80004FF00008BF
:101EC000875D38060CD51E4802680DE002981D4952
:101ED00000EB4000F0E71C49029801EB0010EDE731
:101EE0000D9828B91648426821460098FFF7A6FDCC
:101EF0007806070E641CBBF80200A4B2A04218D9F1
:101F0000A4EB0A00A84209D100985446401C80B2B4
:101F10000090BBF8001081420BD906E008F10100E7
:101F200000F0FF08B8F1080FCBD3761CF6B24E458F
:101F3000B8D3BDE8FF8F00006C0100206068000886
:101F40000C000020FC5D0008706200082DE9F84FCD
:101F5000044600F0FF0910190D46DDE90AB61FFA24
:101F600080F8581987B24FF0000A12E0444503D3B5
:101F700005EB0B004C4685B2BD420FD25B462946AD
:101F80002046CDF800A0FFF777FF04EB5B0084B29A
:101F9000761C3278A2F120005E28E7D9BDE8F88FE0
:101FA00001B5BDF80000ADF80000BDF800004FF02D
:101FB000D841A1F8800008BD01B5BDF80000ADF81A
:101FC0000000BDF800004FF0D841A1F87E0008BD28
:101FD00003484FF0D8410089A1F87E007047000007
:101FE0006C0100204FF0D84222F87E0F51807047DC
:101FF00010B58EB01C216846FEF71CF91C2107A8FD
:10200000FEF718F91A484FF02041102201601949D3
:102010004160062181600021C160C0E90412816134
:10202000C16113020162C0E909139302C0E90B13F5
:102030004163816341640F203C230090CDE901039B
:1020400003AC112384E80E0009240691CDE9074072
:1020500009AC082084E80F000D9107AA69460448DE
:10206000FFF71CFA002801D0FEF705FD0EB010BDE9
:1020700090000020040100A02DE9F04186B0142159
:102080006846FEF7D7F846480025016841F004018C
:102090000160016801F004010591016841F08001CF
:1020A0000160016801F080010591016841F00101C2
:1020B0000160016801F001010591016841F0020130
:1020C0000160016801F002010591016841F0200101
:1020D0000160016801F020010591016841F01001E3
:1020E0000160016801F010010591016841F00801EB
:1020F0000160016801F008010591016841F04001AB
:1021000001600068274E00F04000059000220F217A
:102110003046FEF78AFE244F002230213846FEF773
:1021200084FEDFF88880002248F201014046FEF775
:102130007CFE0F2001248DE831006946304603956E
:10214000FEF776FDF020CDE90005694602943046A1
:10215000FEF76EFD10208DE8310069463846039584
:10216000FEF766FD2020CDE9000469463846CDE93A
:102170000245FEF75DFD0094CDE901456946404604
:102180000395FEF755FDE003CDE900040220CDE9FB
:10219000024069464046FEF74BFD06B0BDE8F081BF
:1021A00030380240000002400008024000040240B3
:1021B00010B586B00024164800940194029403944C
:1021C00004944FF08041059401604721C0E9011457
:1021D0004FF6FF71C0E903148461FFF7EBF908B112
:1021E000FEF749FC4FF48050009069460848FFF71D
:1021F00070FA08B1FEF73FFC049404A90448059462
:10220000FFF790F9002801D0FEF735FC06B010BDAD
:10221000E00000200C4810B50A4901604FF4E1319C
:102220004160002181600C22C160C0E9041281611B
:10223000C161FFF7BCFA002803D0BDE81040FEF7EB
:102240001ABC10BD0010014028010020FEE7FEE787
:1022500070477047FEF7F4BD30B593B03021684643
:10226000FDF7E8FF14210CA8FDF7E4FF1C4800244B
:10227000016841F080510160006800F080501190C9
:102280001848016841F4804101600068022500F4AB
:102290008040119001200390102004900095069535
:1022A0000820CDE907404820CDE9090504200B901E
:1022B0006846FEF73DFF08B172B6FEE70F20CDE994
:1022C0000C054FF48050CDE90E4002210CA810946B
:1022D000FEF742FE002801D072B6FEE713B030BD13
:1022E00040380240007000400248016841F470012B
:1022F0000160704788ED00E02DE9F05F3220FEF7C5
:1023000031FCD320FFF758FEFFF726FCFE4CA080DF
:10231000FFF722FCA080FFF71FFC4FF6FF7909EAC8
:102320000020A080FFF718FCA18849F2413608433D
:10233000A08045F2103745F2105541F66318B042BF
:1023400047D0D420FFF738FEFFF706FCA080FFF748
:1023500003FCA080FFF700FC09EA00204A46A080A9
:10236000FFF7FAFBA1880843A080B84231D04FF4B0
:102370005A40FFF721FEFFF7EFFBA0804FF45B40D0
:10238000FFF71AFEFFF7E8FB02EA0020A0804FF4F7
:102390005C40FFF711FEFFF7DFFBA1880843A08038
:1023A000B0F5004F7DD0A84213D0A120FFF704FE66
:1023B000FFF7D2FBA080FFF7CFFB02EA0020A0804E
:1023C000FFF7CAFBA1880843A0F5AE41A0806139A0
:1023D00068D080B2B04266D1CF20FFF7EDFD00207B
:1023E000FFF7DEFDC120FFF7DBFD3020FFF7D8FD52
:1023F000ED20FFF7E1FD6420FFF7D2FD0320FFF79A
:10240000CFFD1220FFF7CCFD8120FFF7C9FDE820AA
:10241000FFF7D2FD8520FFF7C3FD1020FFF7C0FDB9
:102420007A20FFF7BDFDCB20FFF7C6FD3920FFF76F
:10243000B7FD2C20FFF7B4FD0020FFF7B1FD3420DD
:10244000FFF7AEFD0220FFF7ABFDF720FFF7B4FD6D
:102450002020FFF7A5FDEA20FFF7AEFD0020FFF7E3
:102460009FFD0020FFF79CFDC020FFF7A5FD1B206E
:10247000FFF796FDC120FFF79FFD0120FFF790FDBC
:10248000C520FFF799FD3020FFF78AFD3020FFF7C8
:1024900087FDC720FFF790FDB720FFF781FD3620AD
:1024A00002E0B5E0B0E0B5E0FFF786FD4820FFF7B9
:1024B00077FD3A20FFF780FD5520FFF771FDB12031
:1024C000FFF77AFD0020FFF76BFD1A20FFF768FD8C
:1024D000B620FFF771FD0A20FFF762FDA220FFF78B
:1024E0005FFDF220FFF768FD0020FFF759FD262071
:1024F000FFF762FD0120FFF753FDE020FFF75CFDD1
:102500000F20FFF74DFD2A20FFF74AFD2820FFF797
:1025100047FD0820FFF744FD0E20FFF741FD08208E
:10252000FFF73EFD5420FFF73BFDA920FFF738FDE4
:102530004320FFF735FD0A20FFF732FD0F20FFF79C
:102540002FFD0020FFF72CFD0020FFF729FD0020C4
:10255000FFF726FD0020FFF723FDE120FFF72CFD0C
:102560000020FFF71DFD1520FFF71AFD1720FFF7CC
:1025700017FD0720FFF714FD1120FFF711FD0620BE
:10258000FFF70EFD2B20FFF70BFD5620FFF708FD90
:102590003C20FFF705FD0520FFF702FD1020FFF7A7
:1025A000FFFC0F20FFF7FCFC3F20FFF7F9FC3F206A
:1025B000FFF7F6FC0F20FFF7F3FC2B20FFF7FCFCE6
:1025C0000020FFF7EDFC0020FFF7EAFC0120FFF7F9
:1025D000E7FC3F20FFF7E4FC2A20FFF7EDFC00209A
:1025E000FFF7DEFC0020FFF7DBFC0020FFF7D8FC44
:1025F000EF20FFF7D5FC1120FFF7DEFC7820FEF777
:10260000B1FA292001F009BFA4F8048001F00ABF43
:10261000A580FDE3B84276D1ED20FFF7CDFC012087
:10262000FFF7BEFCFE20FFF7BBFCEE20FFF7C4FC6B
:10263000DE20FFF7B5FC2120FFF7B2FCF120FFF709
:10264000BBFC0120FFF7ACFCDF20FFF7B5FC10203E
:10265000FFF7A6FCC420FFF7AFFC8F20FFF7A0FC1C
:10266000C620FFF7A9FC0020FFF79AFCE220FFF745
:1026700097FCE220FFF794FCE220FFF791FCBF20DB
:10268000FFF79AFCAA20FFF78BFCB020FFF794FC21
:102690000D20FFF785FC0020FFF782FC0D20FFF7DF
:1026A0007FFC0020FFF77CFC1120FFF779FC002065
:1026B000FFF776FC1920FFF773FC0020FFF770FC92
:1026C0002120FFF76DFC0020FFF76AFC2D20FFF7AB
:1026D00067FC0020FFF764FC3D20FFF761FC002051
:1026E000FFF75EFC5D20FFF75BFC0020FFF758FC66
:1026F0005D20FFF755FC0020FFF752FCB120FFF7EB
:102700005BFC802002E0FDE36C010020FFF748FC49
:102710000020FFF745FC8B20FFF742FC0020FFF76D
:102720003FFC9620FFF73CFC0020FFF739FCB2206D
:10273000FFF742FC0020FFF733FC0020FFF730FCDE
:102740000220FFF72DFC0020FFF72AFC0320FFF7F3
:1027500027FC0020FFF724FCB320FFF72DFC00200E
:10276000FFF71EFC0020FFF71BFC0020FFF718FC02
:102770000020FFF715FC0020FFF712FC0020FFF7F8
:102780000FFC0020FFF70CFC0020FFF709FC0020E5
:10279000FFF706FC0020FFF703FC0020FFF700FC1A
:1027A0000020FFF7FDFB0020FFF7FAFB0020FFF7FA
:1027B000F7FB0020FFF7F4FB0020FFF7F1FB002000
:1027C000FFF7EEFB0020FFF7EBFB0020FFF7E8FB35
:1027D0000020FFF7E5FB0020FFF7E2FB0020FFF7FA
:1027E000DFFB0020FFF7DCFB0020FFF7D9FBB42064
:1027F000FFF7E2FB8B20FFF7D3FB0020FFF7D0FBB6
:102800009620FFF7CDFB0020FFF7CAFBA120FFF7C2
:10281000C7FB0020FFF7C4FBB520FFF7CDFB02206C
:10282000FFF7BEFB0020FFF7BBFB0320FFF7B8FB61
:102830000020FFF7B5FB0420FFF7B2FB0020FFF7F5
:10284000AFFBB620FFF7B8FB0020FFF7A9FB002085
:10285000FFF7A6FBB720FFF7AFFB0020FFF7A0FBB9
:102860000020FFF79DFB3F20FFF79AFB0020FFF7BA
:1028700097FB5E20FFF794FB0020FFF791FB64209D
:10288000FFF78EFB0020FFF78BFB8C20FFF788FB08
:102890000020FFF785FBAC20FFF782FB0020FFF74D
:1028A0007FFBDC20FFF77CFB0020FFF779FB70202B
:1028B000FFF776FB0020FFF773FB9020FFF770FB1C
:1028C0000020FFF76DFBEB20FFF76AFB0020FFF70E
:1028D00067FBDC20FFF764FB0020FFF761FBB820FB
:1028E000FFF76AFB0020FFF75BFB0020FFF758FBB8
:1028F0000020FFF755FB0020FFF752FB0020FFF7F9
:102900004FFB0020FFF74CFB0020FFF749FB0020A6
:10291000FFF746FBBA20FFF74FFB2420FFF740FBF1
:102920000020FFF73DFB0020FFF73AFB0020FFF7F8
:1029300037FBC120FFF740FB2020FFF731FB0020D1
:10294000FFF72EFB5420FFF72BFB0020FFF728FB9F
:10295000FF20FFF725FB0020FFF722FBC220FFF737
:102960002BFB0A20FFF71CFB0020FFF719FB0420BC
:10297000FFF716FB0020FFF713FBC320FFF71CFB3C
:102980003C20FFF70DFB0020FFF70AFB3A20FFF782
:1029900007FB0020FFF704FB3920FFF701FB0020B5
:1029A000FFF7FEFA3720FFF7FBFA0020FFF7F8FAEF
:1029B0003C20FFF7F5FA0020FFF7F2FA3620FFF788
:1029C000EFFA0020FFF7ECFA3220FFF7E9FA0020D7
:1029D000FFF7E6FA2F20FFF7E3FA0020FFF7E0FA0F
:1029E0002C20FFF7DDFA0020FFF7DAFA2920FFF7A5
:1029F000D7FA0020FFF7D4FA2620FFF7D1FA0020FB
:102A0000FFF7CEFA2420FFF7CBFA0020FFF7C8FA31
:102A10002420FFF7C5FA0020FFF7C2FA2320FFF7B2
:102A2000BFFA0020FFF7BCFA3C20FFF7B9FA0020FC
:102A3000FFF7B6FA3620FFF7B3FA0020FFF7B0FA37
:102A40003220FFF7ADFA0020FFF7AAFA2F20FFF798
:102A5000A7FA0020FFF7A4FA2C20FFF7A1FA002024
:102A6000FFF79EFA2920FFF79BFA0020FFF798FA5C
:102A70002620FFF795FA0020FFF792FA2420FFF7AF
:102A80008FFA0020FFF78CFA2420FFF789FA002044
:102A9000FFF786FA2320FFF783FA0020FFF780FA7A
:102AA000C420FFF789FA6220FFF77AFA0020FFF7C7
:102AB00077FA0520FFF774FA0020FFF771FA8420F7
:102AC000FFF76EFA0020FFF76BFAF020FFF768FAC5
:102AD0000020FFF765FA1820FFF762FA0020FFF7E1
:102AE0005FFAA420FFF75CFA0020FFF759FA1820DC
:102AF000FFF756FA0020FFF753FA5020FFF750FA7D
:102B00000020FFF74DFA0C20FFF74AFA0020FFF7EC
:102B100047FA1720FFF744FA0020FFF741FA952003
:102B2000FFF73EFA0020FFF73BFAF320FFF738FAF1
:102B30000020FFF735FAE620FFF732FA0020FFF712
:102B40002FFAC520FFF738FA3220FFF729FA0020C4
:102B5000FFF726FA4420FFF723FA0020FFF720FAB8
:102B60006520FFF71DFA0020FFF71AFA7620FFF71D
:102B700017FA0020FFF714FA8820FFF711FA002057
:102B8000FFF70EFAC620FFF717FA2020FFF708FA22
:102B90000020FFF705FA1720FFF702FA0020FFF7E1
:102BA000FFF90120FFF7FCF90020FFF7F9F9C72032
:102BB000FFF702FA0020FFF7F3F90020FFF7F0F922
:102BC0000020FFF7EDF90020FFF7EAF9C820FFF732
:102BD000F3F90020FFF7E4F90020FFF7E1F9002006
:102BE000FFF7DEF90020FFF7DBF9C920FFF7E4F972
:102BF0000020FFF7D5F90020FFF7D2F90020FFF7FA
:102C0000CFF90020FFF7CCF90020FFF7C9F9002029
:102C1000FFF7C6F90020FFF7C3F90020FFF7C0F95E
:102C20000020FFF7BDF90020FFF7BAF90020FFF7F9
:102C3000B7F90020FFF7B4F90020FFF7B1F9002041
:102C4000FFF7AEF90020FFF7ABF90020FFF7A8F976
:102C5000E020FFF7B1F91620FFF7A2F90020FFF7F7
:102C60009FF91C20FFF79CF90020FFF799F921201C
:102C7000FFF796F90020FFF793F93620FFF790F958
:102C80000020FFF78DF94620FFF78AF90020FFF7B3
:102C900087F95220FFF784F90020FFF781F96420BB
:102CA000FFF77EF90020FFF77BF97A20FFF778F92C
:102CB0000020FFF775F98B20FFF772F90020FFF76E
:102CC0006FF99920FFF76CF90020FFF769F9A82048
:102CD000FFF766F90020FFF763F9B920FFF760F905
:102CE0000020FFF75DF9C420FFF75AF90020FFF735
:102CF00057F9CA20FFF754F90020FFF751F9D22005
:102D0000FFF74EF90020FFF74BF9D920FFF748F9FC
:102D10000020FFF745F9E020FFF742F90020FFF718
:102D20003FF9F320FFF73CF90020FFF739F9E120E4
:102D3000FFF742F91620FFF733F90020FFF730F9CB
:102D40001C20FFF72DF90020FFF72AF92220FFF7BA
:102D500027F90020FFF724F93620FFF721F900209A
:102D6000FFF71EF94520FFF71BF90020FFF718F9C0
:102D70005220FFF715F90020FFF712F96420FFF742
:102D80000FF90020FFF70CF97A20FFF709F900206E
:102D9000FFF706F98B20FFF703F90020FFF700F992
:102DA0009920FFF7FDF80020FFF7FAF8A820FFF7B9
:102DB000F7F80020FFF7F4F8B920FFF7F1F800204A
:102DC000FFF7EEF8C420FFF7EBF80020FFF7E8F874
:102DD000CA20FFF7E5F80020FFF7E2F8D220FFF75E
:102DE000DFF80020FFF7DCF8D820FFF7D9F8002043
:102DF000FFF7D6F8E020FFF7D3F80020FFF7D0F870
:102E0000F320FFF7CDF80020FFF7CAF8E22000E03A
:102E100082E3FFF7D1F80520FFF7C2F80020FFF7A3
:102E2000BFF80B20FFF7BCF80020FFF7B9F81B2014
:102E3000FFF7B6F80020FFF7B3F83420FFF7B0F83B
:102E40000020FFF7ADF84420FFF7AAF80020FFF7B5
:102E5000A7F84F20FFF7A4F80020FFF7A1F86120A2
:102E6000FFF79EF80020FFF79BF87920FFF798F80E
:102E70000020FFF795F88820FFF792F80020FFF771
:102E80008FF89720FFF78CF80020FFF789F8A6202D
:102E9000FFF786F80020FFF783F8B720FFF780F8E8
:102EA0000020FFF77DF8C220FFF77AF80020FFF737
:102EB00077F8C720FFF774F80020FFF771F8D120EA
:102EC000FFF76EF80020FFF76BF8D620FFF768F8E1
:102ED0000020FFF765F8DD20FFF762F80020FFF71C
:102EE0005FF8F320FFF75CF80020FFF759F8E320C4
:102EF000FFF762F80520FFF753F80020FFF750F8BE
:102F00000A2000E006E3FFF74BF80020FFF748F83F
:102F10001C20FFF745F80020FFF742F83320FFF7A9
:102F20003FF80020FFF73CF84420FFF739F8002075
:102F3000FFF736F85020FFF733F80020FFF730F89E
:102F40006220FFF72DF80020FFF72AF87820FFF71E
:102F500027F80020FFF724F88820FFF721F8002049
:102F6000FFF71EF89720FFF71BF80020FFF718F86F
:102F7000A620FFF715F80020FFF712F8B720FFF79B
:102F80000FF80020FFF70CF8C220FFF709F8002027
:102F9000FFF706F8C720FFF703F80020FFF700F857
:102FA000D120FEF7FDFF0020FEF7FAFFD520FEF747
:102FB000F7FF0020FEF7F4FFDD20FEF7F1FF002011
:102FC000FEF7EEFFF320FEF7EBFF0020FEF7E8FF31
:102FD000E420FEF7F1FF0120FEF7E2FF0020FEF7FC
:102FE000DFFF0120FEF7DCFF0020FEF7D9FF022003
:102FF000FEF7D6FF0020FEF7D3FF2A20FEF7D0FF12
:103000000020FEF7CDFF3C20FEF7CAFF0020FEF7B0
:10301000C7FF4B20FEF7C4FF0020FEF7C1FF5D2075
:10302000FEF7BEFF0020FEF7BBFF7420FEF7B8FFDF
:103030000020FEF7B5FF8420FEF7B2FF0020FEF768
:10304000AFFF9320FEF7ACFF0020FEF7A9FFA22000
:10305000FEF7A6FF0020FEF7A3FFB320FEF7A0FFB8
:103060000020FEF79DFFBE20FEF79AFF0020FEF72E
:1030700097FFC420FEF794FF0020FEF791FFCD20BC
:10308000FEF78EFF0020FEF78BFFD320FEF788FFB0
:103090000020FEF785FFDD20FEF782FF0020FEF70F
:1030A0007FFFF320FEF77CFF0020FEF779FFE5208D
:1030B000FEF782FF0020FEF773FF0020FEF770FF8F
:1030C0000020FEF76DFF0020FEF76AFF0220FEF7EA
:1030D00067FF0020FEF764FF2920FEF761FF002054
:1030E000FEF75EFF3C20FEF75BFF0020FEF758FF77
:1030F0004B20FEF755FF0020FEF752FF5D20FEF744
:103100004FFF0020FEF74CFF7420FEF749FF002020
:10311000FEF746FF8420FEF743FF0020FEF740FF46
:103120009320FEF73DFF0020FEF73AFFA220FEF7B6
:1031300037FF0020FEF734FFB320FEF731FF0020F9
:10314000FEF72EFFBE20FEF72BFF0020FEF728FF24
:10315000C420FEF725FF0020FEF722FFCD20FEF75A
:103160001FFF0020FEF71CFFD320FEF719FF0020F1
:10317000FEF716FFDC20FEF713FF0020FEF710FF1E
:10318000F320FEF70DFF0020FEF70AFFE620FEF712
:1031900013FF1120FEF704FF0020FEF701FF34208B
:1031A000FEF7FEFE0020FEF7FBFE5620FEF7F8FEBF
:1031B0000020FEF7F5FE7620FEF7F2FE0020FEF777
:1031C000EFFE7720FEF7ECFE0020FEF7E9FE66201A
:1031D000FEF7E6FE0020FEF7E3FE8820FEF7E0FEA5
:1031E0000020FEF7DDFE9920FEF7DAFE0020FEF754
:1031F000D7FEBB20FEF7D4FE0020FEF7D1FE9920BB
:10320000FEF7CEFE0020FEF7CBFE6620FEF7C8FEDE
:103210000020FEF7C5FE5520FEF7C2FE0020FEF797
:10322000BFFE5520FEF7BCFE0020FEF7B9FE45208C
:10323000FEF7B6FE0020FEF7B3FE4320FEF7B0FE19
:103240000020FEF7ADFE4420FEF7AAFE0020FEF7A8
:10325000A7FEE720FEF7B0FE3220FEF7A1FE002019
:10326000FEF79EFE5520FEF79BFE0020FEF798FE1F
:103270007620FEF795FE0020FEF792FE6620FEF710
:103280008FFE0020FEF78CFE6720FEF789FE0020EF
:10329000FEF786FE6720FEF783FE0020FEF780FE25
:1032A0008720FEF77DFE0020FEF77AFE9920FEF7CC
:1032B00077FE0020FEF774FEBB20FEF771FE0020B3
:1032C000FEF76EFE9920FEF76BFE0020FEF768FE0B
:1032D0007720FEF765FE0020FEF762FE4420FEF731
:1032E0005FFE0020FEF75CFE5620FEF759FE002030
:1032F000FEF756FE2320FEF753FE0020FEF750FE99
:103300003320FEF74DFE0020FEF74AFE4520FEF773
:1033100047FE0020FEF744FEE820FEF74DFE0020A9
:10332000FEF73EFE0020FEF73BFE9920FEF738FE3A
:103330000020FEF735FE8720FEF732FE0020FEF764
:103340002FFE8820FEF72CFE0020FEF729FE7720B6
:10335000FEF726FE0020FEF723FE6620FEF720FE85
:103360000020FEF71DFE8820FEF71AFE0020FEF763
:1033700017FEAA20FEF714FE0020FEF711FEBB2068
:10338000FEF70EFE0020FEF70BFE9920FEF708FE6A
:103390000020FEF705FE6620FEF702FE0020FEF785
:1033A000FFFD5520FEF7FCFD0020FEF7F9FD55203E
:1033B000FEF7F6FD0020FEF7F3FD4420FEF7F0FDDA
:1033C0000020FEF7EDFD4420FEF7EAFD0020FEF7A9
:1033D000E7FD5520FEF7E4FD0020FEF7E1FDE920C2
:1033E000FEF7EAFDAA20FEF7DBFD0020FEF7D8FD80
:1033F0000020FEF7D5FD0020FEF7D2FD0020FEF7ED
:10340000DBFDAA20FEF7CCFDCF20FEF7D5FD002086
:10341000FEF7C6FD0020FEF7C3FD0020FEF7C0FD4D
:103420000020FEF7BDFD0020FEF7BAFD0020FEF7EC
:10343000B7FD0020FEF7B4FD0020FEF7B1FD00202F
:10344000FEF7AEFD0020FEF7ABFD0020FEF7A8FD65
:103450000020FEF7A5FD0020FEF7A2FD0020FEF7EC
:103460009FFD0020FEF79CFD0020FEF799FD002047
:10347000FEF796FDF020FEF79FFD0020FEF790FD81
:103480005020FEF78DFD0020FEF78AFD0020FEF79C
:1034900087FD0020FEF784FDF320FEF78DFD002060
:1034A000FEF77EFDF920FEF787FD0620FEF778FD8A
:1034B0001020FEF775FD2920FEF772FD0020FEF7B3
:1034C0006FFD3A20FEF778FD5520FEF769FD1120CB
:1034D000FEF772FD6420FDF745FB2920FEF76CFD29
:1034E0003520FEF769FD0020FEF75AFD5120FEF75A
:1034F00063FDFF20FEF754FD5320FEF75DFD2C20F9
:10350000FEF74EFD5520FEF757FD8220FEF748FDE1
:103510002C20FCE3A8427CD14FF47043552118467F
:10352000FEF760FD4FF2010AAA215046FEF75AFD50
:103530004FF2020B52215846FEF754FD08214FF27C
:103540000300FEF74FFD01214FF20400FEF74AFD94
:103550000D214FF43040FEF745FD0D214BF20100E7
:10356000FEF740FD0D214BF20200FEF73BFD34213A
:103570004FF43640FEF736FD34214BF20160FEF782
:1035800031FD34214BF20260FEF72CFD0D214FF48A
:103590003140FEF727FD0D214BF20110FEF722FD11
:1035A0000D214BF20210FEF71DFD34214FF4374080
:1035B000FEF718FD34214BF20170FEF713FD3421A4
:1035C0004BF20270FEF70EFD00214FF43240FEF781
:1035D00009FD00214BF20120FEF704FD00214BF212
:1035E0000220FEF7FFFC24214FF43840FEF7FAFCDE
:1035F00024214BF60100FEF7F5FC24214BF60200D6
:10360000FEF7F0FC01214FF43F40FEF7EBFC0F21E9
:1036100000E0FDE34FF43340FEF7E4FC0F214BF2F2
:103620000130FEF7DFFC0F214BF20230FEF7DAFC2F
:1036300034214FF43940FEF7D5FC34214BF601100C
:10364000FEF7D0FC34214BF60210FEF7CBFC08212C
:103650004FF43540FEF7C6FC08214BF20150FEF74F
:10366000C1FC08214BF20250FEF7BCFC03214FF4D1
:103670004240FEF7B7FC24214FF43A40FEF7B2FC7B
:1036800024214BF60120FEF7ADFC24214BF602204D
:10369000FEF7A8FC00214FF43C40FEF7A3FC782184
:1036A0004BF60140FEF79EFC00214BF60240FEF770
:1036B00099FC00214FF43D40FEF794FC78214BF635
:1036C0000150FEF78FFC00214BF60250FEF78AFCFA
:1036D00000214FF43E40FEF785FC64214BF601606B
:1036E000FEF780FC00214FF45140FEF77BFC3321B4
:1036F0004DF20110FEF776FC00214DF20210FEF7AC
:1037000071FC34214DF20310FEF76CFC00214DF2E8
:103710000410FEF767FC3A214DF20510FEF762FC3B
:1037200000214DF20610FEF75DFC4A214DF2071014
:10373000FEF758FC00214DF20810FEF753FC5C2107
:103740004DF20910FEF74EFC00214DF20A10FEF773
:1037500049FC81214DF20B10FEF744FC00214DF293
:103760000C10FEF73FFCA6214DF20D10FEF73AFCBF
:1037700000214DF20E10FEF735FCE5214DF20F1041
:10378000FEF730FC01214DF21010FEF72BFC132147
:103790004DF21110FEF726FC01214DF21210FEF73A
:1037A00021FC54214DF21310FEF71CFC01214DF2B7
:1037B0001410FEF717FC82214DF21510FEF712FCD3
:1037C00001214DF21610FEF70DFCCA214DF2171023
:1037D000FEF708FC02214DF21810FEF703FC002151
:1037E0004DF21910FEF7FEFB02214DF21A10FEF702
:1037F000F9FB01214DF21B10FEF7F4FB02214DF203
:103800001C10FEF7EFFB34214DF21D10FEF7EAFB12
:1038100002214DF21E10FEF7E5FB67214DF21F104D
:10382000FEF7E0FB02214DF22010FEF7DBFB8421C6
:103830004DF22110FEF7D6FB02214DF22210FEF7C9
:10384000D1FBA4214DF22310FEF7CCFB02214DF257
:103850002410FEF7C7FBB7214DF22510FEF7C2FB7F
:1038600002214DF22610FEF7BDFBCF214DF22710AD
:10387000FEF7B8FB02214DF22810FEF7B3FBDE2164
:103880004DF22910FEF7AEFB02214DF22A10FEF791
:10389000A9FBF2214DF22B10FEF7A4FB02214DF201
:1038A0002C10FEF79FFBFE214DF22D10FEF79AFB28
:1038B00003214DF22E10FEF795FB10214DF22F1033
:1038C000FEF790FB03214DF23010FEF78BFB332106
:1038D0004DF23110FEF786FB03214DF23210FEF758
:1038E00081FB6D214DF23310FEF77CFB00214FF47C
:1038F0005240FEF777FB33214DF20120FEF772FBB9
:1039000000214DF20220FEF76DFB34214DF2032021
:10391000FEF768FB00214DF20420FEF763FB3A211D
:103920004DF20520FEF75EFB00214DF20620FEF76A
:1039300059FB4A214DF20720FEF754FB00214DF2BE
:103940000820FEF74FFB5C214DF20920FEF74AFBF1
:1039500000214DF20A20FEF745FB81214DF20B209C
:10396000FEF740FB00214DF20C20FEF73BFBA621A9
:103970004DF20D20FEF736FB00214DF20E20FEF732
:1039800031FBE5214DF20F20FEF72CFB01214DF21A
:103990001020FEF727FB13214DF21120FEF722FB2A
:1039A00001214DF21220FEF71DFB54214DF2132090
:1039B000FEF718FB01214DF21420FEF713FB8221C4
:1039C0004DF21520FEF70EFB01214DF21620FEF7F9
:1039D00009FBCA214DF21720FEF704FB02214DF22C
:1039E0001820FEF7FFFA00214DF21920FEF7FAFA2F
:1039F00002214DF21A20FEF7F5FA01214DF21B20AB
:103A0000FEF7F0FA02214DF21C20FEF7EBFA34210A
:103A10004DF21D20FEF7E6FA02214DF21E20FEF7C0
:103A2000E1FA67214DF21F20FEF7DCFA02214DF288
:103A30002020FEF7D7FA84214DF22120FEF7D2FA9A
:103A400002214DF22220FEF7CDFAA4214DF22320CF
:103A5000FEF7C8FA02214DF22420FEF7C3FAB7217F
:103A60004DF22520FEF7BEFA02214DF22620FEF788
:103A7000B9FACF214DF22720FEF7B4FA02214DF218
:103A80002820FEF7AFFADE214DF22920FEF7AAFA30
:103A900002214DF22A20FEF7A5FAF2214DF22B2049
:103AA000FEF7A0FA02214DF22C20FEF79BFAFE2130
:103AB0004DF22D20FEF796FA03214DF22E20FEF74F
:103AC00091FA10214DF22F20FEF78CFA03214DF2CE
:103AD0003020FEF787FA33214DF23120FEF782FACB
:103AE00003214DF23220FEF77DFA6D214DF2332095
:103AF000FEF778FA00214FF45340FEF773FA3321B2
:103B00004DF20130FEF76EFA00214DF20230FEF761
:103B100069FA34214DF20330FEF764FA00214DF2C8
:103B20000430FEF75FFA3A214DF20530FEF75AFAFB
:103B300000214DF20630FEF755FA4A214DF20730CA
:103B4000FEF750FA00214DF20830FEF74BFA5C21E7
:103B50004DF20930FEF746FA00214DF20A30FEF729
:103B600041FA81214DF20B30FEF73CFA00214DF273
:103B70000C30FEF737FAA6214DF20D30FEF732FA7F
:103B800000214DF20E30FEF72DFAE5214DF20F30F7
:103B9000FEF728FA01214DF21030FEF723FA132127
:103BA0004DF21130FEF71EFA01214DF21230FEF7F0
:103BB00019FA54214DF21330FEF714FA01214DF297
:103BC0001430FEF70FFA82214DF21530FEF70AFA93
:103BD00001214DF21630FEF705FACA214DF21730D9
:103BE000FEF700FA02214DF21830FEF7FBF9002132
:103BF0004DF21930FEF7F6F902214DF21A30FEF7B8
:103C0000F1F901214DF21B30FEF7ECF902214DF2E2
:103C10001C30FEF7E7F934214DF21D30FEF7E2F9D2
:103C200002214DF21E30FEF7DDF967214DF21F3003
:103C3000FEF7D8F902214DF22030FEF7D3F98421A6
:103C40004DF22130FEF7CEF902214DF22230FEF77F
:103C5000C9F9A4214DF22330FEF7C4F902214DF237
:103C60002430FEF7BFF9B7214DF22530FEF7BAF93F
:103C700002214DF22630FEF7B5F9CF214DF2273063
:103C8000FEF7B0F902214DF22830FEF7ABF9DE2144
:103C90004DF22930FEF7A6F902214DF22A30FEF747
:103CA000A1F9F2214DF22B30FEF79CF902214DF2E1
:103CB0002C30FEF797F9FE214DF22D30FEF792F9E8
:103CC00003214DF22E30FEF78DF910214DF22F30E9
:103CD000FEF788F903214DF23030FEF783F93321E6
:103CE0004DF23130FEF77EF903214DF23230FEF70E
:103CF00079F96D214DF23330FEF774F900214FF45C
:103D00005440FEF76FF933214DF2014000E084E3A7
:103D1000FEF768F900214DF20240FEF763F9342105
:103D20004DF20340FEF75EF900214DF20440FEF72C
:103D300059F93A214DF20540FEF754F900214DF2B0
:103D40000640FEF74FF94A214DF20740FEF74AF9C7
:103D500000214DF20840FEF745F95C214DF2094083
:103D6000FEF740F900214DF20A40FEF73BF98121B0
:103D70004DF20B40FEF736F900214DF20C40FEF7F4
:103D800031F9A6214DF20D40FEF72CF900214DF23C
:103D90000E40FEF727F9E5214DF20F40FEF722F91C
:103DA00001214DF21040FEF71DF913214DF2114093
:103DB000FEF718F901214DF21240FEF713F95421D4
:103DC0004DF21340FEF70EF901214DF21440FEF7BB
:103DD00009F982214DF21540FEF704F901214DF257
:103DE0001640FEF7FFF8CA214DF21740FEF7FAF829
:103DF00002214DF21840FEF7F5F800214DF219406E
:103E0000FEF7F0F802214DF21A40FEF7EBF800E061
:103E100006E301214DF21B40FEF7E4F802214DF2CA
:103E20001C40FEF7DFF834214DF21D40FEF7DAF8B2
:103E300002214DF21E40FEF7D5F867214DF21F40DA
:103E4000FEF7D0F802214DF22040FEF7CBF8842196
:103E50004DF22140FEF7C6F802214DF22240FEF756
:103E6000C1F8A4214DF22340FEF7BCF802214DF227
:103E70002440FEF7B7F8B7214DF22540FEF7B2F81F
:103E800002214DF22640FEF7ADF8CF214DF227403A
:103E9000FEF7A8F802214DF22840FEF7A3F8DE2134
:103EA0004DF22940FEF79EF802214DF22A40FEF71E
:103EB00099F8F2214DF22B40FEF794F802214DF2D1
:103EC0002C40FEF78FF8FE214DF22D40FEF78AF8C8
:103ED00003214DF22E40FEF785F810214DF22F40C0
:103EE000FEF780F803214DF23040FEF77BF83321D6
:103EF0004DF23140FEF776F803214DF23240FEF7E5
:103F000071F86D214DF23340FEF76CF800214FF44B
:103F10005540FEF767F833214DF20150FEF762F885
:103F200000214DF20250FEF75DF834214DF20350AE
:103F3000FEF758F800214DF20450FEF753F83A21ED
:103F40004DF20550FEF74EF800214DF20650FEF7F7
:103F500049F84A214DF20750FEF744F800214DF28E
:103F60000850FEF73FF85C214DF20950FEF73AF891
:103F700000214DF20A50FEF735F881214DF20B5029
:103F8000FEF730F800214DF20C50FEF72BF8A62179
:103F90004DF20D50FEF726F800214DF20E50FEF7BF
:103FA00021F8E5214DF20F50FEF71CF801214DF2EA
:103FB0001050FEF717F813214DF21150FEF712F8CA
:103FC00001214DF21250FEF70DF854214DF213501D
:103FD000FEF708F801214DF21450FEF703F8822194
:103FE0004DF21550FDF7FEFF01214DF21650FDF781
:103FF000F9FFCA214DF21750FDF7F4FF02214DF2EF
:104000001850FDF7EFFF00214DF21950FDF7EAFFC0
:1040100002214DF21A50FDF7E5FF01214DF21B5030
:10402000FDF7E0FF02214DF21C50FDF7DBFF3421CC
:104030004DF21D50FDF7D6FF02214DF21E50FDF747
:10404000D1FF67214DF21F50FDF7CCFF02214DF249
:104050002050FDF7C7FF84214DF22150FDF7C2FF2C
:1040600002214DF22250FDF7BDFFA4214DF2235055
:10407000FDF7B8FF02214DF22450FDF7B3FFB72141
:104080004DF22550FDF7AEFF02214DF22650FDF70F
:10409000A9FFCF214DF22750FDF7A4FF02214DF2D9
:1040A0002850FDF79FFFDE214DF22950FDF79AFFC2
:1040B00002214DF22A50FDF795FFF2214DF22B50CF
:1040C000FDF790FF02214DF22C50FDF78BFFFE21F2
:1040D0004DF22D50FDF786FF03214DF22E50FDF7D6
:1040E00081FF10214DF22F50FDF77CFF03214DF28F
:1040F0003050FDF777FF33214DF23150FDF772FF5D
:1041000003214DF23250FDF76DFF6D214DF233501A
:10411000FDF768FF00214FF45640FDF763FF3321A0
:104120004DF20160FDF75EFF00214DF20260FDF7E8
:1041300059FF34214DF20360FDF754FF00214DF289
:104140000460FDF74FFF3A214DF20560FDF74AFF8D
:1041500000214DF20660FDF745FF4A214DF2076050
:10416000FDF740FF00214DF20860FDF73BFF5C21A9
:104170004DF20960FDF736FF00214DF20A60FDF7B0
:1041800031FF81214DF20B60FDF72CFF00214DF234
:104190000C60FDF727FFA6214DF20D60FDF722FF11
:1041A00000214DF20E60FDF71DFFE5214DF20F607D
:1041B000FDF718FF01214DF21060FDF713FF1321E9
:1041C0004DF21160FDF70EFF01214DF21260FDF777
:1041D00009FF54214DF21360FDF704FF01214DF258
:1041E0001460FDF7FFFE82214DF21560FDF7FAFE27
:1041F00001214DF21660FDF7F5FECA214DF2176060
:10420000FDF7F0FE02214DF21860FDF7EBFE0021F4
:104210004DF21960FDF7E6FE02214DF21A60FDF73E
:10422000E1FE01214DF21B60FDF7DCFE02214DF2A3
:104230001C60FDF7D7FE34214DF21D60FDF7D2FE64
:1042400002214DF21E60FDF7CDFE67214DF21F6089
:10425000FDF7C8FE02214DF22060FDF7C3FE842168
:104260004DF22160FDF7BEFE02214DF22260FDF706
:10427000B9FEA4214DF22360FDF7B4FE02214DF2F8
:104280002460FDF7AFFEB7214DF22560FDF7AAFED1
:1042900002214DF22660FDF7A5FECF214DF22760E9
:1042A000FDF7A0FE02214DF22860FDF79BFEDE2106
:1042B0004DF22960FDF796FE02214DF22A60FDF7CE
:1042C00091FEF2214DF22B60FDF78CFE02214DF2A2
:1042D0002C60FDF787FEFE214DF22D60FDF782FE7A
:1042E00003214DF22E60FDF77DFE10214DF22F606F
:1042F000FDF778FE03214DF23060FDF773FE3321A8
:104300004DF23160FDF76EFE03214DF23260FDF794
:1043100069FE6D214DF23360FDF764FE55211846AC
:10432000FDF760FEAA215046FDF75CFE522158467B
:10433000FDF758FE08214FF20300FDF753FE002160
:104340004FF20400FDF74EFECC214FF43140FDF753
:1043500049FE00214BF20110FDF744FE05214FF408
:104360003640FDF73FFE70214FF43740FDF73AFE2F
:1043700070214BF20170FDF735FE01214FF43840FA
:10438000FDF730FE03214BF60100FDF72BFE032164
:104390004BF60200FDF726FE03214BF60300FDF766
:1043A00021FE02214FF43C40FDF71CFE00214BF69C
:1043B0000140FDF717FE00214BF60240FDF712FE0B
:1043C000D0214FF44940FDF70DFE02214CF60110BB
:1043D000FDF708FE50214CF60210FDF703FE5021B8
:1043E0004CF60310FDF7FEFD50214CF60410FDF7CE
:1043F000F9FD00214FF45450FDF7F4FD55214FF421
:104400006850FDF7EFFD4FF48850FDF7D5FD77209C
:10441000401EC0B2FCD24FF42450FDF7CDFDBAE0EF
:104420004045FCD1E220FDF7C7FD1D20FDF7B8FD9A
:104430000220FDF7B5FD0420FDF7B2FD6320401E0C
:10444000C0B2FCD2E020FDF7B7FD0120FDF7A8FDCA
:104450000A20FCF787FBE020FDF7AEFD0320FDF707
:104460009FFD0C20FCF77EFB0120FDF7A5FD0A2037
:10447000FCF778FBE620FDF79FFD2F20FDF790FD70
:10448000FF20FDF78DFDFF20FDF78AFDB020FDF731
:1044900093FD2020FDF784FD0020FDF781FD032022
:1044A000FDF77EFD40F21F30FDF77AFD0120FDF79C
:1044B00077FD40F2DF10FDF773FD0020FDF770FD82
:1044C000B420FDF779FD0420FDF76AFD40F21F409E
:1044D000FDF766FD0020FDF763FD2E20FDF760FD72
:1044E0000020FDF75DFD0020FDF75AFD0020FDF7DF
:1044F00057FD0020FDF754FDB620FDF75DFD0220BD
:10450000FDF74EFD4FF40370FDF74AFD0020FDF767
:1045100047FD1720FDF744FD1520FDF741FD002064
:10452000FDF73EFD0020FDF73BFDF020FDF744FDCB
:104530000320FDF735FD2920FDF73EFDD020FDF7D6
:104540003BFD0020FDF72CFDBE20FDF735FD0520CD
:10455000FDF726FDFE20FDF723FD0120FDF720FDE0
:104560000020FDF71DFD0020FDF71AFD0020FDF7DE
:1045700017FDB820FDF720FD0320FDF711FD0120F8
:10458000FDF70EFDBA20FDF717FD0120FDF708FD30
:104590006420FDF7EBFAA088B04205D0B84203D002
:1045A000A84201D0404519D14FF02040D0F81C114D
:1045B00021F00F01C0F81C11D0F81C1121F470611A
:1045C000C0F81C11D0F81C1141F00301C0F81C11F7
:1045D000D0F81C1141F40071C0F81C110020FDF747
:1045E000C1F90548016841F4004101604846BDE851
:1045F000F05FFDF79DB9000014040240F0B50268B9
:10460000254C264D264E274F274B4FF0804CA0427D
:1046100009D0604507D0A84205D0B04203D0B842C7
:1046200001D0984204D122F0700E4A6842EA0E028C
:10463000A0421BD0604519D0A84217D0B04215D077
:10464000B84213D0984211D0184DA8420ED0184D40
:10465000A8420BD0174DA84208D0174DA84205D04C
:10466000164DA84202D0164DA84203D122F440753F
:10467000CA682A434D6922F080022A4302608A6890
:10468000C2620A688262A04201D0984201D10969DF
:10469000016301214161F0BD0000014000040040C0
:1046A00000080040000C00400004014000400140B0
:1046B000004401400048014000180040001C004038
:1046C0000020004010B5846842EA032224F47F44AD
:1046D0000A432243826010BD826822F070020A43BE
:1046E00042F007018160704710B5036A046A24F044
:1046F00001040462846924F0F00444EA021423F003
:104700000A020A438461026210BD10B5036A23F0F5
:10471000100303628369046A23F4704343EA02329C
:1047200024F0A00343EA01118261016210BD000080
:1047300070B5044600680169E26821F440511143F4
:1047400001612169A068E269084361691143084376
:104750002168CA6849F20C639A430243CA60206820
:104760004169A26921F440711143416131492068D6
:10477000884202D03049884202D1FCF797FC01E020
:10478000FCF784FCE2690023192164253226B2F586
:10479000004F626828D0A0FB0101930F9200FBF745
:1047A00011FD0146B0FBF5F06FF01802504301EB2C
:1047B000800006EB0010B0FBF5F000F0F002B1FB5A
:1047C000F5F002EB0012B1FBF5F06FF0180358435F
:1047D00001EB800006EB0010B0FBF5F000F00F00DD
:1047E00021681044886070BDA0FB010192185B41F4
:1047F000FBF7E8FC0146B0FBF5F00201B1FBF5F078
:104800006FF01803584301EB800006EBC000B0FBCB
:10481000F5F000F0F80002EB4002B1FBF5F0584370
:1048200001EB800006EBC000B0FBF5F000F00700E4
:10483000D6E7000000100140001401402DE9F041CE
:10484000984617460E460446069D27E0681C25D06C
:104850002DB1FCF7EFFAA0EB0800A8421ED92068A2
:104860000C3050E8001F21F4D07140E80012002AFB
:10487000F5D12068143050E8001F21F0010140E814
:104880000012002AF5D1202084F83D0084F83E0073
:10489000002084F83C000320BDE8F0812068006817
:1048A00036EA000004D00020B842CFD00020F3E761
:1048B0000120F9E7FEE700000FB4054B10B503A98E
:1048C000044A029800F018FC10BC5DF814FB0000CC
:1048D00039580008240000200FB4084B10B504A973
:1048E00002AA039800F008FC044602A9002000F088
:1048F00086FF204610BC5DF814FB0000FF5700083F
:104900000907090E002804DB00F1E02080F80014FC
:10491000704700F00F0000F1E02080F8141D704790
:1049200070B5D94B00242DED020B2DED108BDDE978
:104930001010984205DA20F000429A4201D809D1BD
:1049400041B19DED100BBDEC108B02B0BDE8704085
:1049500000F0DEBAB0F5801F26DA11430BD0002834
:1049600013DA012000F000FBBDEC108B02B0BDE8B3
:10497000704000F0D9BA022000F0F6FA00F0B0FA68
:1049800051EC100B81F000419EE06FF035049FED7B
:10499000C00B53EC102B9DED100B51EC100BFBF7E3
:1049A000FBFCCDE91001084604EB2051C0F31304D1
:1049B000B948A1F2FF31204400F4801080F07F62FA
:1049C00082F04052224301EB20559FEDB50B11922E
:1049D00053EC102B9DED100B51EC100BFBF7D6FC9C
:1049E00041EC180BA01CC0F313009FEDAFDB9FED53
:1049F000B0EBB14E7E4403286CD296ED000B51EC27
:104A0000180B53EC102BFBF721FF1DD1002D01BF1C
:104A100096ED000BBDEC108B02B070BD2846FBF785
:104A2000EBFE41EC180B53EC1D2BFBF7B5FC41ECF6
:104A3000190B53EC1E2B51EC180BFBF7ADFC53EC90
:104A4000192BFBF702FC3FE09FED9D0B51EC180B7F
:104A500053EC102BFBF7A0FC9FED9B1B53EC112B91
:104A6000FBF797FC41EC190B53EC182B51EC180B8E
:104A7000FBF792FC53EC192BFBF78EFC41EC190B66
:104A8000002D04BF53EC192B51EC180B1AD02846FB
:104A9000FBF7B2FE41EC1A0B53EC1D2BFBF77CFC31
:104AA00053EC192BFBF775FC53EC182BFBF76EFC42
:104AB00041EC180B53EC1E2B51EC1A0BFBF76CFC62
:104AC00053EC182BFBF762FCBDEC108B02B041ECF1
:104AD000100B70BD9FED7E0B51EC180B53EC102B9F
:104AE000FBF7B3FB41EC100B51EC180B53EC102B04
:104AF000FBF7C4FC41EC190B2846FBF77DFE41ECAB
:104B00001B0B53EC192B51EC190BFBF745FC41EC3B
:104B10001A0B714853EC1A2B261851EC1A0BFBF7A1
:104B20003BFC41EC1F0B6D48C4F1510404F5D72444
:104B3000B0EE4F0AF0EE6F0A0321784400F054F90A
:104B400053EC1F2B51EC100BFBF726FC41EC1C0B1C
:104B50006348B0EE4F0AF0EE6F0A0421784400F08B
:104B600043F953EC1A2B51EC100BFBF715FC3443B3
:104B700053EC1C2BFBF769FB41EC1C0B002C4CDDB0
:104B80009FED510B51EC180B53EC102BFBF704FC71
:104B900053EC182BFBF700FC41EC1A0B55B353EC0C
:104BA0001D2B51EC1B0BFBF7F7FB41EC1D0B53ECE2
:104BB0001C2B51EC1A0BFBF748FB53EC192BFBF7A2
:104BC000EBFB53EC1D2BFBF740FB53EC1A2BFBF7D5
:104BD000E0FB53EC182BFBF7D9FB41EC180B53EC23
:104BE0001E2B51EC1B0BFBF7D7FB53EC182BFBF7E1
:104BF000CDFB69E753EC1C2B51EC1A0BFBF725FBA3
:104C000053EC192BFBF7C8FB53EC1A2BFBF7C1FB3A
:104C100053EC182BFBF7BDFB56E735B353EC1D2BBC
:104C200051EC1B0BFBF7B8FB41EC1A0B53EC1C2BA4
:104C300051EC180BFBF7AAFB53EC192BFBF7ACFB61
:104C400053EC1A2BFBF7A2FB53EC182BFBF79EFB44
:104C500041EC180B53EC1E2B51EC1B0BFBF79CFB90
:104C600053EC182BFBF792FB2EE753EC1C2B51EC6B
:104C7000180BFBF78BFB53EC192BFBF78DFB53EC5D
:104C8000182BFBF786FB1FE70000F07F00000000F9
:104C90000000000000005043645F090000000000B5
:104CA000000000000000F03F763C7935EF39EA3D26
:104CB0000000E0FE422EE63F182C0000000000003D
:104CC000555555555555D53F000000000000E03FB3
:104CD000000000000000004086EBF9FF9A2A000067
:104CE000902A00000000000000B52DED028BB0EE10
:104CF000408AF0EE608A18EE101A85B018EE900A1D
:104D00008DED028B002918BF0121084320F00040DF
:104D1000C0F17F6000F1E040C00F08D151EC180BEA
:104D20009FED290B53EC102BFBF790FD09D1B0EE52
:104D3000480AF0EE680A00F0EBF805B0BDEC028B13
:104D400000BD9FED230B51EC180B53EC102BFBF720
:104D50007DFD08D2012000F007F900F0E5F805B06C
:104D6000BDEC028B00BD6A4651EC180B00F070FDE3
:104D700041EC100B009800280BDD401E9FED161B28
:104D8000009053EC112B51EC100BFBF705FB41ECA1
:104D9000100B51EC100B00F013FF9FED111B53ECA7
:104DA000112BFBF76BFB41EC180B0098FBF724FD74
:104DB00053EC182BFBF749FA05B041EC100BBDEC96
:104DC000028B00BD00000000000000000000F07F2A
:104DD0000000000000000000000000000000004093
:104DE000EF39FAFE422EE63F70B504462DED028BF8
:104DF0004D1E00EBC500B0EE408AF0EE608A90EDEB
:104E0000000B35F0060017D053EC182B51EC100BAB
:104E1000FBF7C2FA41EC100B6D1E04EBC50090EDE0
:104E2000001B51EC100B53EC112BFBF70EFA41EC6D
:104E3000100B35F00600E7D1022D36D0042D1CD022
:104E4000062D1CBFBDEC028B70BD53EC182B51EC32
:104E5000100BFBF7A1FA94ED0A1B53EC112BFBF797
:104E6000F4F953EC182BFBF797FA94ED081B53EC6D
:104E7000112BFBF7EAF941EC100B53EC182B51EC1A
:104E8000100BFBF789FA94ED061B53EC112BFBF783
:104E9000DCF953EC182BFBF77FFA94ED040B53EC81
:104EA000102BFBF7D2F941EC100B53EC182B51EC03
:104EB000100BFBF771FA94ED021B53EC112BFBF76F
:104EC000C4F953EC182BFBF767FA94ED001B53EC75
:104ED000112BFBF7BAF9BDEC028B41EC100B70BD46
:104EE0009FED070B10B553EC102B9FED070B51EC0A
:104EF000100BFBF7C3FA41EC100B10BD00000000D3
:104F00000000000000000000000000000000F03F72
:104F100010B553EC102B51EC100BFBF796F941EC4C
:104F2000100B10BD000000009FED050B10B553ECF9
:104F3000102B51EC100BFBF7A1FA41EC100B10BD3C
:104F4000000000000000000002E008C8121F08C1B5
:104F5000002AFAD170477047002001E001C1121FFA
:104F6000002AFBD17047000001490860704700002B
:104F7000280000202DE9FF5F82B00021DDE9043028
:104F8000020DDDF840B0034318D044F61050A2F2F1
:104F9000FF3242431514119801281FD0A5EB0B00D6
:104FA000401C5FEA000A4FF000064E4FDFF83891D0
:104FB000B046504615D5CAF1000413E011980124FB
:104FC0004AA3012801D16FEA0B010298119AC0E9A6
:104FD0000031C0E9024206B0BDE8F09FCBF100000D
:104FE000DFE704460021404A491842EB0450CDE96E
:104FF000001012E0E00707D032463B4640464946E3
:10500000FBF7CAF98046894632463B4610461946A8
:10501000FBF7C2F906460F466410002CEAD1DDE921
:105020000401DDE90023BAF1000F06DAFBF7B4F959
:1050300042464B46FBF7B0F905E0FBF71FFA424644
:105040004B46FBF71BFA04460E460022284BFBF7A3
:1050500015FC03D84FF0FF30014607E00022254B36
:1050600020463146FBF7F1F8FBF7D7FB102409E0A7
:10507000002C0ADB0A220023FBF7A4F8039B303242
:105080001A55641E50EA0102F2D1641C039AC4F15D
:1050900011031444119A012A03D0012208430DD1AF
:1050A0000AE0084304D000204FF0110B119072E782
:1050B000A3EB0B056D1E0DE05B4504DD4FF0000218
:1050C00005F1010504E003DA4FF00002A5F1010546
:1050D000002AECD002981199C0E90231C0E90045DC
:1050E00079E70000000014400000F03F30000000AD
:1050F0000000F0430000E03F2DE9FF4F95B09A46D5
:10510000884606460025EEE1252877D1002427466B
:10511000F94A0121039400E0044316F8013F203BC3
:1051200001FA03F01042F7D130782A2811D06FF03D
:105130002F033078A0F13002092A16D8039A44F0E0
:10514000020402EB820203EB42021044761C03903D
:10515000EFE758F8042B0392002A03DA504244F494
:105160000054039044F00204761C30782E2816D1A7
:1051700016F8010F44F004042A280DD06FF02F0216
:105180003078A0F13003092B09D807EB870302EB35
:105190004303C718761CF3E758F8047B761C307875
:1051A0006C280FD006DC4C2817D068280DD06A2850
:1051B00014D104E0742810D07A280FD10DE044F403
:1051C00000140AE044F4801401E044F440147278BE
:1051D000824202D104F58014761C761C3078662851
:1051E0000BD013DC582877D009DC002875D045286F
:1051F000F6D04628F4D047281AD193E118E0632866
:1052000035D0642879D0652812D18BE1702873D00D
:1052100008DC6728F1D069286FD06E280DD06F2880
:1052200006D1ACE073282CD0752874D0782853D0E0
:105230005246179990476D1C54E1C4F3025002285E
:1052400009D003280DD0D8F8001004280DD00D6027
:1052500008F1040846E1D8F80010EA17C1E9005245
:10526000F6E7D8F800100D80F2E70D70F0E718F8B7
:10527000041B8DF8001000208DF80100EB46012082
:1052800003E058F804BB4FF0FF3061074FF0000116
:1052900002D40DE009F101018946B9420FDA8145D6
:1052A000F8DB1BF809100029F4D108E009F101012D
:1052B00089468142FADB1BF809100029F6D10398D0
:1052C0005346A0EB090721463846179A00F080FAAA
:1052D000284400EB090507E044E008E10DE01BF875
:1052E000010B524617999047B9F10109F7D253467D
:1052F00021463846179AF2E039E00A21C4F30252F7
:105300004FF0000B0091022A06D058F8040BC11789
:10531000032A09D00AE023E008F1070020F0070281
:10532000F2E80201904605E000B2C117042A01D15B
:1053300040B2C117002906DA0A460021404261EB5B
:1053400002012D2202E0220504D52B228DF8042033
:10535000012203E0E20701D02022F7E7914657E05F
:105360000A2100E010214FF0000B00910BE010210A
:105370004FF0000B44F004040827009103E00820DC
:105380004FF0000B0090C4F30252022A05D058F8E7
:10539000040B0021032A08D008E008F1070020F0E0
:1053A0000702F2E80201904603E080B2042A00D12D
:1053B000C0B24FF0000922072AD53278702A07D0F0
:1053C000DDF800C08CF0100C5CEA0B0C05D00EE090
:1053D00040228DF80420012208E050EA010306D0A3
:1053E00030238DF804308DF8052002229146009B71
:1053F00083F0080353EA0B030AD150EA010201D1FA
:10540000620705D530228DF804204FF001097F1E78
:105410003278582A04D039A20C920CAA02920BE0DE
:105420003BA2F9E75B46009AFAF7CCFE0C9B9B5C2B
:10543000029A521E0292137050EA0102F2D10298AF
:1054400004A9081A00F1200B600702D524F4803467
:1054500000E001275F4502DDA7EB0B0000E0002024
:1054600000EB0B01009003984944401A0390E003BD
:1054700006D453462146179A039800F0A9F905442B
:10548000002706E001A85246C05D179990476D1CA1
:105490007F1C4F45F6DBE0030CD553462146179A97
:1054A000039800F095F9054404E03020524617991E
:1054B00090476D1C0099481E00900029F5DC08E01B
:1054C0000298029952460078491C02911799904718
:1054D0006D1CBBF10001ABF1010BF1DC5BE100F0F5
:1054E00065F90544761C307800287FF40DAE19B0BC
:1054F0002846BDE8F08F0000092801003031323322
:1055000034353637383961626364656600000000FF
:1055100030313233343536373839414243444546E9
:1055200000000000600700D4062708F1070020F003
:105530000700F0E80223804603F0004C5FEA0C000D
:1055400001D097A009E0200501D596A005E0E0076D
:1055500001D095A001E0AFF24C001390307823F019
:10556000004365280CD006DC452809D046281DD00C
:1055700047287FD13BE0662818D067287AD136E0EB
:105580000021112F01DB112000E0781CCDE9000182
:1055900004A90CA8FFF7EEFCDDE90D010C9A4FF011
:1055A000000B07F10109109200914EE04FF000400E
:1055B0000097CDE9011004A90CA8FFF7DBFCDDE999
:1055C0000D020C9B0F994FF0000B91461093009227
:1055D00011B9791C00EB0109B7EB090003D4C0F144
:1055E000FF3B07F10109A9EB0700019042E0012F01
:1055F00000DA01270021112F01DD112000E03846DB
:10560000CDE9000104A90CA8FFF7B4FCDDE90D0108
:105610000C9A00914FF0000BB946109221070FD45D
:10562000009A4A4503DA914601E0A9F10109B9F16E
:10563000010F05DD109AA9F10101515C3029F4D068
:10564000B84202DA10F1040F03DA0121CDE90110AA
:1056500010E0002803DC8344A9EB000102E0411CB8
:10566000494500DD8946A0EB0B00401C01904FF03E
:1056700000400290200705D40198484502DB4FF016
:10568000FF30019000208DF84B0002980DF14B0780
:10569000B0F1004F25D002200C902B200D900298E5
:1056A00000280CDA404202902D200D9007E00A21DC
:1056B0000298FAF7C6FF3031029007F8011D0C99E5
:1056C000481E0C900029F2DC02980028EFD1791EC8
:1056D0000D980870307800F0200040F0450007F881
:1056E000020D11A8C01BC01D02901398007800B1D4
:1056F000012000EB0901019801EBE07102980144DF
:105700000398401A401E0390E00306D453462146F6
:10571000179A039800F05CF805441398007818B1C4
:105720005246179990476D1CE00323D553462146F6
:10573000179A039800F04CF805441BE0BBF1000FEA
:1057400007DB0098584504DD1098179910F80B00F6
:1057500001E0179930205246904701980BF1010B58
:10576000401E05F10105019004D12E2052461799E3
:1057700090476D1CB9F10001A9F10109DEDC05E0DB
:1057800017F8010B5246179990476D1C0299481E55
:1057900002900029F4DC53462146179A03989EE6AE
:1057A0002D0000002B000000200000002DE9F0413A
:1057B000044600251E461746880404D405E03946F1
:1057C0002020B0476D1C641EF9D52846BDE8F08145
:1057D0002DE9F041044600251E469046C80301D538
:1057E000302700E02027880404D505E041463846EC
:1057F000B0476D1C641EF9D52846BDE8F0810A68E3
:10580000531C0B601070704770B54FF6FA75094E57
:10581000281A84B2306844623046FBF70BFF3068C8
:1058200001E0416A8CB2AC42FBD3BDE87040014854
:10583000FBF73CBFE000002013B54FF0FF3301221F
:1058400069460248FCF71AF800981CBD28010020A0
:1058500010B582B01446CDE900010023009A236000
:10586000194B21F0004098422ADA024328D0B0F5C3
:10587000801FA8BF226810DA9FED150B53EC102B88
:105880009DED000B51EC100BFAF786FDCDE9000100
:105890006FF0350221F0004022600F4B6FF31E5174
:1058A00003EB20501044206041F0FF5040F00050C6
:1058B00001909DED000B00BF02B051EC100B10BD2C
:1058C0009DED000BF8E700000000F07F00000000F5
:1058D000000000000000504302FCFFFF10B500F084
:1058E000C1F811282AD2DFE800F029090B0D0F11A9
:1058F000131517191B1D1F2123252700012010BD7B
:10590000022010BD032010BDFE2010BD042010BDDC
:10591000052010BD062010BDFD2010BD072010BDC4
:10592000082010BD092010BDFC2010BDFB2010BDBB
:10593000002010BDF92010BDF82010BDFF2010BDC3
:10594000F0B52DED068B83B0FFF7C8FF9FED378ACA
:105950000446F7EE008AFB2859D12546FFF7BEFF23
:105960000446F92853D0092C22D8AC4220D018EE96
:10597000900AFAF737FE41EC190B2046FAF7EDFDD5
:1059800041EC1A0B18EE100AFAF72CFE9FED281BBB
:1059900053EC112BFAF700FD53EC1A2BFAF755FCD8
:1059A00053EC192BFAF76AFDFAF72FFE08EE100AEE
:1059B00018EE100AFAF716FE41EC100B1EA153EC7C
:1059C000102B2248FEF788FF4FF6FF70FBF7B0FF61
:1059D00018261FA0CDE900604FF49B7733463A4666
:1059E00028211E20FCF7B2FA18481823CDE90060E0
:1059F0003A4678210520FCF7A9FAFE2C03D1FE2DAA
:105A000001D0F2EE048A3220FBF7ACF8A5E7B5EE40
:105A1000C08AF1EE10FA05D0B0EE480A03B0BDEC32
:105A2000068BF0BD9FED0E0AF8E7000000000000B5
:105A300000000000000024406D617854656D7065C1
:105A40007261747572653D252E3166002C00002050
:105A5000696E707574206D61782074656D700000DA
:105A600000007F4370B54C4C2DED048BA0694B4D6D
:105A700029780843A061206900F0F0060A20FBF7AE
:105A800071F80F20F02E12D021692A78F032D2B2AC
:105A9000114001F0F0029FED428B9FED439B702A75
:105AA00057D0B02A3FD0D02A25D0E02A0DD0A26905
:105AB000297842EA0142A261C943C1F34201884305
:105AC0002870C043000763D064E08843FAF745FDBF
:105AD00041EC100BFFF708F953EC182B51EC100BAD
