:020000040800F2
:10000000B806002029020008C710000819100008CF
:10001000C510000851060008691200080000000021
:10002000000000000000000000000000CB100008ED
:100030009106000800000000C9100008CD1000085B
:10004000430200084302000843020008430200087C
:10005000430200084302000843020008430200086C
:10006000430200084302000843020008430200085C
:10007000430200084302000843020008430200084C
:10008000430200084302000843020008430200083C
:10009000430200084302000843020008430200082C
:1000A000430200084302000843020008430200081C
:1000B000430200084302000843020008430200080C
:1000C00043020008430200084302000843020008FC
:1000D00043020008430200084302000843020008EC
:1000E00043020008430200084302000843020008DC
:1000F00043020008430200084302000843020008CC
:1001000043020008430200084302000843020008BB
:1001100043020008430200084302000843020008AB
:10012000430200084302000843020008430200089B
:10013000430200084302000843020008430200088B
:10014000430200084302000843020008430200087B
:10015000430200084302000843020008430200086B
:10016000430200084302000843020008430200085B
:100170004302000843020008430200080000000098
:10018000430200084302000800F002F800F03CF8C7
:100190000AA090E8000C82448344AAF10107DA45E2
:1001A00001D100F031F8AFF2090EBAE80F0013F0F8
:1001B000010F18BFFB1A43F001031847D4130000C6
:1001C000F4130000103A24BF78C878C1FAD8520757
:1001D00024BF30C830C144BF04680C6070470000C1
:1001E0000023002400250026103A28BF78C1FBD840
:1001F000520728BF30C148BF0B6070471FB501F0E0
:10020000B5F91FBD10B510BD00F0CFF81146FFF7CE
:10021000F5FF01F03BF800F0EDF803B4FFF7F2FF53
:1002200003BC00F0F5F80000094880470948004782
:10023000FEE7FEE7FEE7FEE7FEE7FEE7FEE7FEE796
:10024000FEE7FEE704480549054A064B70470000F3
:100250004D11000889010008B8000020B8060020F0
:10026000B8020020B802002053EA020C00F06980B6
:100270002DE9F04B4FF00006002B1FBFB3FA83F5BA
:1002800003FA05F424FA05F65E4012BF1643B2FAEB
:1002900082F502FA05F4C5F120051EBF22FA05FC1D
:1002A00044EA0C04203556EA044C4FEA144418BFC3
:1002B000641C4FF000084FF00009904271EB030CF2
:1002C00039D3002919BFB1FA81F701FA07F6B0FA5C
:1002D00080F700FA07F6C7F120071EBF20FA07FCD7
:1002E00046EA0C062037B6FBF4FCA7EB0507103FE7
:1002F00007F01F0BCBF120060CFA0BFB2CFA06F6CD
:1003000044BFB3460026202FA4BF5E464FF0000B2B
:100310005BEA060C08BF4FF0010B19EB0B09ABFBB6
:10032000027C48EB0608C01B06FB02CC0BFB03CC8F
:1003300071EB0C01C1E70B46024641464846BDE859
:10034000F08B13B54FF000004FF00001AFF30080C9
:10035000BDE81C4070474FF0000200B513469446BC
:100360009646203922BFA0E80C50A0E80C50B1F10D
:100370002001BFF4F7AF090728BFA0E80C5048BF21
:100380000CC05DF804EB890028BF40F8042B08BFBF
:10039000704748BF20F8022B11F0804F18BF00F8BB
:1003A000012B7047704770477047754600F02CF876
:1003B000AE4605006946534620F00700854618B052
:1003C00020B5FFF73FFFBDE820404FF000064FF09B
:1003D00000074FF000084FF0000B21F00701AC467A
:1003E000ACE8C009ACE8C009ACE8C009ACE8C00999
:1003F0008D46704710B50446AFF300802046BDE837
:100400001040FFF70ABF0000004870475800002066
:1004100001491820ABBEFEE726000200704700002D
:1004200010B4114A124C114B50709170236000248B
:10043000012310B1012802D002E0147000E0137013
:1004400061B101290DD10B48C0F884320A48C0F8C7
:10045000A832C0F8A44210BC00F02EB810BC00F0C6
:100460001BB810BC70470000000000200000FFFF18
:10047000180C0240000041420080424205498A783F
:1004800009781AB1012A03D100F07AB800F030B827
:10049000704700000000002006480021C0F88012CC
:1004A000C0F88C12C0F888120122C0F88822C0F867
:1004B00088127047000041420C480021C0F88012A9
:1004C000C0F88C12C0F888120122C0F88822C0F847
:1004D0008812C0F88012C0F88022C0F88012C0F8DC
:1004E0008C12C0F88C22C0F88C1270470000414278
:1004F00070B50C46054600F0ADF844EAC5011E4C47
:1005000081F0FF0241EA024121601C490122C1F849
:1005100080220023C1F88032050E85F0FF0645EAEF
:1005200006452560C1F88022C1F88032C0F3074536
:1005300085F0FF0645EA06452560C1F88022C1F82E
:100540008032C0F3072585F0FF0645EA06452560A1
:10055000C1F88022C1F88032C0B280F0FF0540EAC5
:1005600005402060C1F88022C1F88032C1F88C2299
:10057000C1F88C3270BD0000180C024000004142EE
:100580002DE9F0410C46804600F064F800262F4A21
:10059000C5B233465FF0010125FA06F707F00107FF
:1005A000C2F88472C2F88012C2F88032761CF6B2A9
:1005B000082EF1D3C0F307265FF0000526FA05F7F1
:1005C00007F00107C2F88472C2F88012C2F88032C4
:1005D0006D1CEDB2082DF1D3C0F307465FF00005A6
:1005E00026FA05F707F00107C2F88472C2F88012F4
:1005F000C2F880326D1CEDB2082DF1D3000E00253B
:1006000020FA05F606F00106C2F88462C2F88012EC
:10061000C2F880326D1CEDB2082DF1D344EAC80057
:10062000C0B2002420FA04F505F00105C2F8845296
:10063000C2F88012C2F88032641CE4B2082CF1D3F4
:10064000C2F88C12C2F88C32BDE8F0810000414241
:10065000FEE70000094810B5407858B19FED081B2F
:1006600051EC100B53EC112B00F082FEBDE8104052
:1006700000F03ABE9FED041BF2E7000000000020EE
:1006800079A7DFDE65DC374095D626E80B2E4140A2
:10069000704772B6FEE7000070B5044600F00CF932
:1006A0000546601C02D004480078044400F004F9B8
:1006B000401BA042FAD370BD040000202DE9F84F82
:1006C000DFF8BCA10022012503264FF00F090AF133
:1006D000040BAAF1040E00BF0B6805FA02F42340D4
:1006E000A34270D10F7907F00307012F01D0022F29
:1006F00016D187684FEA420806FA08FC27EA0C0779
:10070000D1F80CC00CFA08FC4CEA070CC0F808C081
:100710004768A7430C79C4F3001494403C434460F9
:100720000C79E443A4070AD0C4684FEA420C06FAE5
:100730000CF7BC438F6807FA0CF72743C7600C79A6
:1007400004F00304022C12D1D40800EB840CDCF872
:1007500020405707FF0E09FA07F824EA0804D1F8E9
:10076000108008FA07F848EA0408CCF820800468EA
:100770004FEA420C06FA0CF7BC430F7907F0030767
:1007800007FA0CF7274307604C6814F4403F70D019
:100790003C4C276847F480472760246822F0030711
:1007A00004F480440094384C07EB040CDCF808484F
:1007B00097074FEA177809FA08F7BC43334FB84256
:1007C00002D1002724E054E0314FB84201D1012783
:1007D0001EE0304FB84201D1022719E02E4FB84237
:1007E00001D1032714E02D4FB84201D104270FE0B7
:1007F0002B4FB84201D105270AE02A4FB84201D158
:10080000062705E0284FB84201D1072700E0082756
:1008100007FA08F72743CCF80878DAF8004057467B
:10082000D1F804C09C435FEACC2C00D51C433C604B
:10083000DBF800405F46D1F804C09C435FEA8C2C93
:1008400000D51C433C60DEF800407746D1F804C078
:100850009C435FEA8C3C00D51C433C60084F083F3A
:100860003C68D1F804C09C435FEACC3C00D51C43F3
:100870003C60521C102AFFF42FAFBDE8F88F000037
:10088000083C014044380240003001400000024072
:100890000004024000080240000C02400010024028
:1008A0000014024000180240001C02400AB181619D
:1008B00070470904FBE700000148806870470000AA
:1008C000040000200248816802781144816070476A
:1008D000040000200B4810B5016841F4007101606C
:1008E000016841F480610160016841F48071016038
:1008F000032000F061F80F2000F006F800F024F863
:10090000002010BD003C024070B50D4D04464FF470
:100910007A712878B1FBF0F00A490968B1FBF0F070
:1009200000F0FEFA48B9102C07D200222146501ED2
:1009300000F022F800206C6070BD012070BD000046
:1009400004000020100000200A4808B5016841F4A6
:1009500080410160006800F4804000900548001F5D
:10096000016841F080510160006800F08050009003
:1009700008BD000044380240F0B40E4B1B680C4622
:10098000C3F30223C3F10705042D00D90425191D63
:10099000072901D2002300E0DB1E012606FA05F13B
:1009A000491E214099409E40761E16403143F0BCBE
:1009B00000F05BBC0CED00E0064900F0070208689F
:1009C0004FF6FF03184040EA0220034A1043086034
:1009D000704700000CED00E00000FA052DE9F0473B
:1009E0000E46050065D0DFF81481D8F80000F7B294
:1009F00000F00700B04207D288F80070D8F8000075
:100A000000F00700B04254D128683D4C810712D550
:100A1000400703D5206840F4E050206028780007A4
:100A200003D5206840F4604020602068A96820F069
:100A3000F000084320602878C0072DD0304968684E
:100A40000839012812D0022813D0032811D00968D0
:100A5000890700292DDA216821F003010143216073
:100A6000FFF72AFF814641F2883A0EE009688903C0
:100A7000EFE709688901ECE7FFF71EFFA0EB09012A
:100A8000514502D90320BDE8F0872068696800F06D
:100A90000C00B0EB810FEFD1D8F80010404601F008
:100AA0000701B14207D90770006800F00700B042A3
:100AB00001D00120E7E72878400705D52068E968DC
:100AC00020F4E050084320602878000706D520680D
:100AD000296920F4604040EAC100206000F038F845
:100AE0002168084AC1F30311515CC84006490860F7
:100AF00006480068FFF708FF0020C4E7003C0240FA
:100B00000838024076150008100000200800002078
:100B10000448054900680968044AC1F38221515C10
:100B2000C8407047100000200838024086150008B1
:100B30000448054900680968044AC1F34231515C20
:100B4000C840704710000020083802408615000891
:100B5000154810B5006810F00C02144813D0144961
:100B6000042A0FD0082A0ED10F4C241F22682368B4
:100B700002F03F025B0207D52068C0F38810A0FB9B
:100B8000010106E0084610BD2168C1F38811A1FBF0
:100B900000010023FFF768FB2168C1F30141491CF4
:100BA0004900B0FBF1F010BD083802400024F40009
:100BB00040787D012DE9F84F04006ED02078DFF8F1
:100BC0004C93C007A9F104054AD009F1040001685B
:100BD000C1F38101012908D00068C0F38100022817
:100BE0000AD1D9F80000400206D52868800337D51D
:100BF00060680028E1D033E06068B0F5803F10D035
:100C0000B0F5A02F286810D020F480302860286824
:100C100020F4802028606068A8B1FFF74DFE0646EA
:100C20000DE0286840F48030F4E740F4802028602C
:100C3000F7E700BFFFF740FE801B642873D82868E1
:100C40008003F7D50CE0FFF737FE064605E000BF4E
:100C5000FFF732FE801B6428F0D828688003F7D4A1
:100C60002078DFF8AC8280074FF0000A3ED5A74815
:100C7000001D016811F00C0F08D00068C0F381005E
:100C800002280BD1D9F80000400207D42868800759
:100C900016D5E068012800D112E033E1E068B8B170
:100CA0000120C8F80000FFF707FE064605E000BF78
:100CB000FFF702FE801B0228C0D828688007F7D5FE
:100CC0002868216920F0F80040EAC10028600DE0A2
:100CD000C8F800A0FFF7F0FD064604E0FFF7ECFDC2
:100CE000801B02281FD828688007F7D420780007C7
:100CF00022D5864F87486169703771B10121016043
:100D0000FFF7DAFD064604E0FFF7D6FD801B022858
:100D100009D838688007F7D50EE0C0F800A0FFF7C3
:100D2000CBFD064605E082E0FFF7C6FD801B0228EA
:100D30007DD838688007F7D42078400768D5DFF879
:100D4000CCB100270BF13C0BDBF80000C0000BD44A
:100D5000DBF8001041F08051CBF80010DBF8000008
:100D6000012700F0805000906B4E3068C00510D411
:100D7000306840F480703060FFF79EFD009005E021
:100D8000FFF79AFD0099401A022850D83068C00534
:100D9000F6D55E4EA0686C3601280FD00528306865
:100DA00010D020F001003060306820F00400306086
:100DB000A068B8B1FFF780FD00900FE0306840F008
:100DC0000100F4E740F004003060F7E7FFF774FD3E
:100DD0000099411A41F28830814266D83068800714
:100DE000F4D50EE0FFF768FD009007E0FFF764FD23
:100DF0000099411A41F28830814256D83068800704
:100E0000F4D42FB1DBF8001021F08051CBF80010A2
:100E1000A069C8B33D49091D0968C1F381010229D0
:100E20004AD00228504607D0C8F8600000E03CE0F5
:100E3000FFF742FD04463BE04746C8F86000FFF775
:100E40003BFD064605E000BFFFF736FD801B02288C
:100E50002BD828688001F7D4D4E907010843A16A98
:100E60002E4A490802EB0141626A41EA82110843B5
:100E700094F82C1040EA0161C9F80010012038668E
:100E8000FFF71AFD044606E03EE000BFFFF714FD41
:100E9000001B022809D828688001F7D534E000BF7C
:100EA000FFF70AFD001B022802D90320BDE8F88FD6
:100EB00028688001F4D427E00128F7D0D9F8000091
:100EC000E26900F4800191421CD1226A00F03F01E6
:100ED000914217D147F6C071626A0140B1EB821F9F
:100EE00010D1A26A4FF0FF3300F4403103EB5202FD
:100EF000B1EB024F06D194F82C1000F07060B0EB0B
:100F0000016F01D00120D1E70020CFE70438024073
:100F100000004742800E4742007000400000FFFF83
:100F200010B5401EB0F1807F01D3012010BD4FF0FD
:100F3000E02460610F21601700F097F90020A061A4
:100F400007202061002010BD70B5040004D094F883
:100F50003D00002510B106E0012070BD84F83C5032
:100F6000204600F023F8242084F83D002068C16862
:100F700021F40051C160204600F0F0F820680169BA
:100F800021F4904101612068416921F02A01416109
:100F90002068C16841F40051C1602564202084F8B4
:100FA0003D0084F83E00002070BD000010B586B002
:100FB000044614216846FFF7CEF914492068884298
:100FC00021D113480021026842F01002026000683B
:100FD00000F0100005900E481438026842F001023B
:100FE0000260006800F0010005904FF4C0600090BE
:100FF0000220CDE9010103200390072004906946F7
:101000000448FFF75BFB06B010BD00000010014074
:101010004438024000000240FEE7000030B587B0CF
:1010200014216846FFF797F916480024016841F03B
:1010300080010160016801F080010591016841F0C3
:1010400004010160016801F004010591016841F0AB
:101050000101016000680C4D00F0010005900022C4
:101060000F212846FFF722FC0F2000900120CDE938
:1010700001040220039069462846FFF71FFB07B0D2
:1010800030BD000030380240000802400C4810B566
:101090000A4901604FF4E1314160002181600C2276
:1010A000C160C0E904128161C161FFF74DFF0028F2
:1010B00003D0BDE81040FFF7ECBA10BD00100140AE
:1010C00014000020FEE7FEE770477047FFF7FABB09
:1010D00010B592B030216846FFF73DF914210CA8F5
:1010E000FFF739F917480024016841F08051016089
:1010F000006800F0805011901348016841F480416D
:1011000001600068069400F4804011900220009075
:1011100001200390102004906846FFF74BFD08B1B2
:1011200072B6FEE70F20CDE90C040E940F94002157
:101130000CA81094FFF752FC002801D072B6FEE70D
:1011400012B010BD403802400070004002480168F3
:1011500041F470010160704788ED00E070B504460D
:1011600000680169E26821F440511143016121697D
:10117000A068E26908436169114308432168CA68AD
:1011800049F20C639A430243CA6020684169A2692C
:1011900021F440711143416131492068884202D0F5
:1011A0003049884202D1FFF7C3FC01E0FFF7B0FCF1
:1011B000E2690023192164253226B2F5004F6268E6
:1011C00028D0A0FB0101930F9200FFF74DF80146D4
:1011D000B0FBF5F06FF01802504301EB800006EB16
:1011E0000010B0FBF5F000F0F002B1FBF5F002EBFF
:1011F0000012B1FBF5F06FF01803584301EB8000CB
:1012000006EB0010B0FBF5F000F00F002168104471
:10121000886070BDA0FB010192185B41FFF724F8C4
:101220000146B0FBF5F00201B1FBF5F06FF01803D9
:10123000584301EB800006EBC000B0FBF5F000F076
:10124000F80002EB4002B1FBF5F0584301EB8000DF
:1012500006EBC000B0FBF5F000F00700D6E7000099
:101260000010014000140140FEE70907090E0028A4
:1012700004DB00F1E02080F80014704700F00F005C
:1012800000F1E02080F8141D70470000FFF722FBFA
:10129000FFF71EFFFFF7C2FEFFF7F8FE0121084629
:1012A000FFF7BEF842F210740E4E01254FF0FF38E2
:1012B0002746204600F045F841EC100B0820FFF7C8
:1012C000DDF805EBC50000EB051004EB4004B4426B
:1012D00000DD4546BC4200DA01250220FFF7DCF9BB
:1012E000E7E7000020A107004FEA1153A3F5806350
:1012F000D3F11E03A8BFD3F1200C08DB4FF000424E
:1013000042EAC12252EA505232FA03F070470942CF
:101310000BD4102BC4BF0020704703F5787CBCF1C0
:10132000FF3F05D04FF0FF3070474FF0000070478F
:1013300070B500F0C7F800BF4992248000207047C4
:10134000F0E710F0004248BF4042B0FA80F310FAD4
:1013500003F10AD0C3F11D0303F580634FEA415046
:1013600002EB035202EBD12170474FF000007047AF
:10137000DFF848C170B51CEA111E1EBF1CEA131528
:101380009EEA0C0F95EA0C0F00F06F8081EA0304CF
:1013900023EA4C134EEAD47E21EA4C1141F4801129
:1013A00043F48013AE44A1FB024CA0FB0365AEF1F5
:1013B0007F7E361955EB0C05A1FB034C4CF1000365
:1013C000A0FB021C16EB0C06654153F10003094219
:1013D00018BF46F0010613F4007F0BD14FEA03312A
:1013E0004FEA0530340341EA155140EA16506FF0D8
:1013F00003020AE04FEAC3214FEAC520F40241EAA2
:10140000555140EA56506FF0020202EB2E4201EBBA
:10141000025585EACE710AD05FEA440C18BF24F069
:10142000004450F1000041F1000120EAD47040F284
:10143000FE7C624500D270BDA84214BF4FF08044CC
:101440004FF04044002E08BF0024BEF1806FA8BFBB
:10145000A1F1C041BDE8704080F282804FF00000F1
:1014600001F1C04101F0004170479EEA0C0F0CEA07
:10147000131518BF95EA0C0F06D04FF0000081EA53
:10148000030E0EF0004170BD00F01CF88900013E13
:1014900000F007B800F009B84FEA430C5FEA5C5C63
:1014A00008D081EA030100F05BB84FEA410C5FEA23
:1014B0005C5CF6D14FF00000014970470000FF0767
:1014C0000000F87F0EF1020E2EF0030E5EF8046BA2
:1014D000364205D4012A43EB030515F5001F12D847
:1014E000012841EB010C1CF5001F0CD80ED14FEA6E
:1014F000D17C15F5001F0CEB4C0C0CF1020C08BF55
:101500004CEBD37C04E04FF0080C01E04FEAD37CB5
:101510000CEB4C0526FA05F606F00706B6F1040CAE
:1015200006D20EEB860CBDE870404CF0010C604713
:10153000DFE80CF0090B02024FF000414FF0000011
:10154000A1F5002170BD19461046012851EB010498
:1015500018BFD4F5001484BF002001F0004170BD15
:101560000808A0F500114FEA310170474FF04070B4
:10157000E1EE100A704700000000000000000102C8
:10158000030406070809000000000102030400002C
:10159000B01500080000002014000000C40100087D
:1015A000C415000814000020A4060000E001000893
:1015B000000000000100000010000000000000001A
:0415C0000024F4000F
:040000050800018965
:00000001FF
