:020000040800F2
:10000000B804002049010008031300080B1200087F
:100010000113000817040008A515000800000000DF
:1000200000000000000000000000000009130008AC
:100030001904000800000000051300080B13000855
:100040006301000863010008630100086301000800
:1000500063010008071300081B040008630100087F
:1000600063010008630100086301000863010008E0
:1000700063010008630100086301000863010008D0
:1000800063010008630100086301000863010008C0
:1000900063010008630100086301000863010008B0
:1000A0006301000871130008630100086301000880
:1000B0006301000863010008630100086301000890
:1000C0006301000863010008630100086301000880
:1000D0006301000863010008630100086301000870
:1000E0006301000863010008630100086301000860
:1000F0006301000863010008630100086301000850
:10010000630100086301000863010008630100083F
:10011000630100086301000863010008630100082F
:10012000630100086301000863010008630100081F
:10013000DFF810D000F04EF90048004779170008AA
:10014000AFF30080B8040020064880470648004707
:10015000FEE7FEE7FEE7FEE7FEE7FEE7FEE7FEE777
:10016000FEE7FEE76D13000831010008202A04DBDA
:10017000203A21FA02F00021704721FA02F3D04020
:10018000C2F120029140084319467047D2B201E003
:1001900000F8012B491EFBD270470022F6E710B58C
:1001A00013460A4604461946FFF7F0FF204610BDE5
:1001B0002DE9F04D81EA030404F0004B21F00045E5
:1001C00014464FF0000A23F0004150EA050220D007
:1001D00054EA01021DD0C5F30A570246C5F31303C2
:1001E000C1F31300C1F30A5640F4801543F48013A1
:1001F000A7EB0608101BD64608F2FD3873EB050086
:1002000002D308F1010801E092185B41B8F1000F38
:1002100003DA00200146BDE8F08D00204FF4801184
:10022000064684460EE0171B73EB050705D3121B29
:1002300063EB050306434CEA010C49084FEA300022
:1002400092185B4150EA0107EDD152EA030012D047
:1002500082EA040083EA0501084305D0101BAB4184
:1002600006D20122002306E000224FF0004302E004
:100270006FF0010253101AEB06004CEB085110EB23
:100280000A0041EB0B01BDE8F04D00F046B80EB599
:10029000C10F80EAE0700844CA07002140F23343EE
:1002A0008DE80E000A460B4600F046F803B000BD8C
:1002B00070B5C1F30A5201F000450024C1F31301E7
:1002C00040F2FF3341F480119A4201DA002070BD00
:1002D00040F233439A42A2F2334203DC5242FFF728
:1002E00045FF00E090402C43F1D0404270BD30B556
:1002F0000B46014600202022012409E021FA02F5E4
:100300009D4205D303FA02F5491B04FA02F528447D
:10031000151EA2F10102F1DC30BD10B5141E73F1FF
:10032000000408DA401C41F1000192185B411A43B5
:1003300001D120F0010010BD2DE9F04D92469B4601
:1003400011B1B1FA81F202E0B0FA80F220329046A7
:1003500000F052F804460F4640EA0A0041EA0B0159
:1003600053465A46084313D0114653EA010019D0A8
:10037000C8F140025046FFF7F9FE05460E465046CA
:100380005946424600F038F8084305D0012004E001
:1003900020463946BDE8F08D0020054346EAE07668
:1003A0002C4337430A986305E40AA0EB08000022B7
:1003B000FD0A44EA47540A3002D500200146E9E725
:1003C000010510196941DDE9084500196941BDE8D9
:1003D000F04DA2E7064C074D06E0E06840F001034F
:1003E00094E8070098471034AC42F6D3FFF7A4FE18
:1003F000EC1700080C180008202A04DB203A00FA49
:1004000002F1002070479140C2F1200320FA03F36B
:10041000194390407047FEE77047012000F00CB888
:1004200072B6FEE7012803D10248C168491CC160C9
:100430007047000000000020044910B50A6802421D
:1004400002D00860FFF7EEFF10BD00001404014069
:100450002DE9F84FDFF8C8910024A9F1040B2346D9
:100460000F2709F1040AABF1040ED1E00125A540E4
:1004700006EA0502AA4276D1DFF8A8C14E68A6EBCB
:100480000C0866452BD00DDC032E34D005DC36B3CA
:10049000012E19D0022E2FD11BE0112E16D0122EB4
:1004A0002AD119E0B8F5881F19D006DCB8F5803FCD
:1004B00015D0B8F5801F1FD111E0B8F5001F0ED080
:1004C000B8F5041F18D10AE0CB6815E0CB681B1DF6
:1004D00012E0CB6808330FE0CB680C330CE08B687C
:1004E0002BB1012B4FF0080303D0456104E0042336
:1004F00002E0056100E00023FF2A01D8064601E082
:1005000000F104064FEA840501D9A5F12005D6F8CB
:10051000008007FA05FC28EA0C0803FA05F548EA0A
:100520000508C6F800804D68ED0070D53E4DAE69F7
:1005300046F00106AE61AD6924F0030605F0010541
:1005400000953A4D06EB050CDCF80850A607360F6F
:1005500007FA06F825EA0805DFF8D480404503D1FC
:100560004FF0000825E052E0DFF8C880404502D196
:100570004FF001081DE0DFF8C080404502D14FF088
:10058000020816E0DFF8B480404502D14FF00308BE
:100590000FE0DFF8AC80404502D14FF0040808E0DE
:1005A000DFF8A080404502D14FF0050801E04FF090
:1005B000060808FA06F848EA0508CCF808804D68ED
:1005C000D9F80060ED024D4601D5164300E0964390
:1005D0002E604D68DAF80060AD02554601D516432D
:1005E00000E096432E604D68DBF80060AD035D4689
:1005F00001D5164300E096432E604D68DEF800609A
:10060000ED03754601D5164300E096432E60641C49
:100610000A681646E2407FF429AFBDE8F88F000073
:1006200008040140000011100010024000000140C9
:1006300000080140000C014000100140001401407E
:1006400000180140001C014001488068704700000C
:1006500010000020024881680278114481607047D0
:1006600010000020074810B5016841F0100101603A
:10067000032000F075F80F2000F006F800F024F8D1
:10068000002010BD0020024070B50D4D04464FF40F
:100690007A712878B1FBF0F00A490968B1FBF0F0F3
:1006A00000F0DCFA48B9102C07D200222146501E77
:1006B00000F036F800206C6070BD012070BD0000B5
:1006C000100000201C0000200D4808B5816941F091
:1006D00001018161816901F001010091C16941F06D
:1006E0008051C161C069002200F080500090114625
:1006F000052000F015F8BDE80840052000F002B81C
:1007000000100240002809DB00F01F020121914087
:100710004009800000F1E020C0F80011704700009F
:10072000F0B40E4B1B680C46C3F30223C3F107055C
:10073000042D00D90425191D072901D2002300E04A
:10074000DB1E012606FA05F1491E214099409E4014
:10075000761E16403143F0BC00F036BF0CED00E0D1
:10076000064900F0070208684FF6FF03184040EA08
:100770000220034A10430860704700000CED00E0BF
:100780000000FA052DE9F0470F46050061D0434E01
:10079000306800F00700B84209D2306820F0070046
:1007A00038433060306800F00700B84251D1286803
:1007B0003B4C810712D5400703D5606840F4E060E8
:1007C00060602878000703D5606840F4605060607E
:1007D0006068A96820F0F000084360602878C007CE
:1007E00028D06868012810D02168022810D0890715
:1007F00000292EDA616821F0030101436160FFF7EF
:1008000023FF804641F288390DE021688903EFE734
:100810008901EDE7FFF718FFA0EB0801494502D970
:100820000320BDE8F0876068696800F00C00B0EB59
:10083000810FEFD1306800F00700B8420BD9306863
:1008400020F0070038433060306800F00700B842FD
:1008500001D00120E5E72878400705D56068E96800
:1008600020F4E060084360602878000706D56068DF
:10087000296920F4605040EAC100606000F038F857
:100880006168084AC1F30311515CC8400649086019
:1008900006480068FFF7F8FE0020C2E7002002408B
:1008A00000100240D21700081C0000201400002095
:1008B0000448054900684968044AC1F30221515CB3
:1008C000C84070471C00002000100240E2170008DA
:1008D0000448054900684968044AC1F3C221515CD3
:1008E000C84070471C00002000100240E2170008BA
:1008F0000E4A51680E4801F00C03042B11D0082B4E
:100900000FD10C48C1F38343C903C05C0AD55168B9
:10091000084AC1F34041921E515C054A5043B0FB66
:10092000F1F070470449484370470000001002404E
:1009300000127A00C217000800093D002DE9F84FA7
:10094000040070D02078C04DC00749D06868C0F35B
:100950008100012807D06868C0F38100022809D10E
:100960006868C00306D52868800339D56068002808
:10097000E7D035E06068B0F5803F0BD010B1B0F53E
:10098000A02F11D0286820F480302860286820F437
:10099000802002E0286840F480302860606890B1D0
:1009A000FFF752FE06460AE0286840F480202860DF
:1009B000F0E700BFFFF748FE801B642873D8286863
:1009C0008003F7D50CE0FFF73FFE064605E000BFC9
:1009D000FFF73AFE801B6428F0D828688003F7D41C
:1009E00020789A4E80074FF001094FF0000839D562
:1009F000686810F00C0F07D06868C0F38100022807
:100A000009D16868C00306D42868800714D5206916
:100A1000012808D110E02069B0B1C6F80090FFF7B6
:100A200013FE074605E00AE1FFF70EFEC01B022891
:100A3000C4D828688007F7D52868616920F0F800D5
:100A400040EAC10028600DE0C6F80080FFF7FCFD19
:100A5000074604E0FFF7F8FDC01B022823D82868EA
:100A60008007F7D4207800072CD57948A169D9B13F
:100A7000C0F80090FFF7E8FD074604E0FFF7E4FD4B
:100A8000C01B02280FD8686A8007F7D571484FF459
:100A9000FA510068B0FBF1F0009000BF0098411ED1
:100AA0000091FAD20EE080E0C0F80080FFF7CCFDA4
:100AB000074604E0FFF7C8FDC01B022875D8686A26
:100AC0008007F7D42078400760D5E8690027C00088
:100AD00008D4E86940F08050E861E869012700F037
:100AE000805000905C480168C90513D401688346B2
:100AF00041F480710160FFF7A7FD824606E000BF68
:100B0000FFF7A2FDA0EB0A0064284ED8DBF8000036
:100B1000C005F5D5E06801280AD008B1052813D032
:100B2000286A20F001002862286A20F0040002E010
:100B3000286A40F001002862E06841F2883B98B1E1
:100B4000FFF782FD82460BE0286A40F0040028622D
:100B5000EEE700BFFFF778FDA0EB0A0159455AD830
:100B6000286A8007F6D50CE0FFF76EFD824605E0A7
:100B7000FFF76AFDA0EB0A0159454CD8286A8007A7
:100B8000F6D41FB1E86920F08050E861E06988B3CD
:100B90006968C1F38101022944D00228C6F8608047
:100BA00004D0FFF751FD044638E034E0FFF74CFD78
:100BB000074604E0FFF748FDC01B02282BD8286831
:100BC0008001F7D4206AB0F5803F05D16868A1683C
:100BD00020F4003008436860D4E9080108436968DC
:100BE00021F4741108436860C6F86090FFF72CFD8B
:100BF000044606E025E000BFFFF726FD001B0228A3
:100C000009D828688001F7D51BE000BFFFF71CFD5D
:100C1000001B022802D90320BDE8F88F2868800154
:100C2000F4D40EE00128F7D06868226A00F480311D
:100C3000914204D1616A00F47010884201D0012011
:100C4000EAE70020E8E7000000100240000042420E
:100C5000800442421C0000200070004010B5401E7D
:100C6000B0F1807F01D3012010BD4FF0E02460611E
:100C70000F21601700F0A8FC0020A0610720206170
:100C8000002010BD7047704770B590F83C20012AD5
:100C90002CD0012480F83C40022280F83D200368DB
:100CA0005A689D6822F070060A6832435A60104BF9
:100CB00002689A420ED00F4B9A420BD0B2F1804F8D
:100CC00008D00D4B9A4205D00C4B9A4202D00C4BE7
:100CD0009A4204D1496825F080031943916080F855
:100CE0003D40002180F83C10084670BD022070BDD8
:100CF000002C014000340140000400400008004086
:100D0000000C004010B5040003D094F83D0010B171
:100D100007E0012010BD002084F83C00204600F0D0
:100D20001FF8022084F83D00211D206800F026FBFA
:100D3000012084F8460084F83E0084F83F0084F8DF
:100D4000400084F8410084F8420084F8430084F8AD
:100D5000440084F8450084F83D00002010BD0000E8
:100D600008B500680B49884212D10B48816941F4EB
:100D7000006181618069002200F4006000901146EA
:100D80001920FFF7CDFCBDE808401920FFF7BABCD9
:100D900008BD0000002C01400010024090F83D10FA
:100DA000012901D001207047022180F83D1001681F
:100DB000CA6842F00102CA6000680E4988420ED03B
:100DC0000D4988420BD0B0F1804F08D00B498842C2
:100DD00005D00B49884202D00A49884204D1816873
:100DE00001F00701062903D0016841F0010101600B
:100DF00000207047002C01400034014000040040F6
:100E000000080040000C004070B5044690F83C001B
:100E10000025012817D0012684F83C60022084F8C0
:100E20003D002068826822F0770222F47F428260CF
:100E30000868502838D00DDC20284FD005DC90B34E
:100E4000102811D14AE0022070BD302846D0402839
:100E50000AD13BE060282FD070280DD0B0F5805F1C
:100E600003D0B0F5005F12D0012584F83D6000206A
:100E700084F83C00284670BDCB68D1E90121206888
:100E800000F0C2FA2068816841F0770109E0CB6880
:100E9000D1E90121206800F0B7FA2068816841F4A7
:100EA00080418160E1E719E0CA684968206800F084
:100EB000BDFA5021206806E0CA684968206800F041
:100EC000C6FA6021206800F0A9FACEE7CA6849682E
:100ED000206800F0ABFA40212068F4E72268014660
:100EE0001046F0E7704770B50446006801694FF09E
:100EF0000005C943890715D4C168C943890711D4BE
:100F0000E91E016101202077206880698007204662
:100F100002D0FFF7E7FF04E000F098F8204600F069
:100F200096F8257720680169C943490717D4C16835
:100F3000C943490713D46FF00401016102202077EF
:100F40002068806910F4407F204602D0FFF7CAFF76
:100F500004E000F07BF8204600F079F8257720685F
:100F60000169C943090716D4C168C943090712D4E6
:100F70006FF008010161042020772068C0698007B4
:100F8000204602D0FFF7AEFF04E000F05FF82046F5
:100F900000F05DF8257720680169C943C90617D4B8
:100FA000C168C943C90613D46FF01001016108205C
:100FB00020772068C06910F4407F204602D0FFF7F8
:100FC00091FF04E000F042F8204600F040F8257759
:100FD00020680169C943C90708D1C168C943C90765
:100FE00004D1891E0161204600F032F820680169B1
:100FF000C943090609D4C168C943090605D46FF07D
:10100000800101612046FFF73DFE20680169C94368
:10101000490609D4C168C943490605D46FF04001A7
:101020000161204600F038F820680169C94389064B
:101030000BD4C168C943890607D46FF02001016150
:101040002046BDE87040FFF71EBE70BD7047704778
:1010500010B50E4900680968884215D10C4CE0684B
:10106000616800EB800001EB4000A168401A6060FD
:10107000FFF70DF90022074BFFF79AF8FFF718F971
:10108000A06020600020E06010BD0000240000206F
:101090000000002000001440704770B5040004D028
:1010A00094F84100002510B106E0012070BD84F8DD
:1010B0004050204600F024F8242084F841002068A5
:1010C000C16821F40051C160204600F0D3F92068C6
:1010D000016921F4904101612068416921F02A01F0
:1010E00041612068C16841F40051C16065642020FD
:1010F00084F8410084F842006563002070BD000060
:1011000030B585B0002400940194029403940068E3
:101110001449884224D11448816941F48041816195
:10112000816901F480410491816941F00401816188
:1011300080690E4D00F0040004904FF400700090A0
:10114000022001900320039069462846FFF780F9AA
:101150002815CDE90004694628460294FFF778F97E
:1011600005B030BD003801400010024000080140C9
:101170002DE9F843044690F841001F4616460D46F7
:10118000202802D00220BDE8F8837DB176B100208E
:101190006064212084F84100FFF756FAA684804657
:1011A000E684A068B0F5805F02D003E00120EAE7A2
:1011B000206910B12E4600250EE000260CE08021AB
:1011C000204600F0B3F9A0B9AEB116F8010B2168C2
:1011D0004860E08C401EE084E08C43464FF0000203
:1011E00000970028EBD14FF04001204600F09EF917
:1011F00030B10320C7E735F8020BC0F30800E6E77B
:10120000202084F841000020BDE7FEE700B585B04E
:10121000002003900E48816941F0040181618069DA
:10122000694600F0040004900120009009480190F4
:10123000022002900848FFF70BF900221146062011
:10124000FFF76EFA0620FFF75DFA05B000BD00005B
:1012500000100240000011100008014010B586B0D7
:1012600000241848009401940294039404941449AF
:101270000594016040F2CF21C0E9011442F20F71E0
:10128000C0E903148021C0E90541FFF73BFD08B127
:10129000FFF7C6F84FF48050009069460948FFF701
:1012A000B3FD08B1FFF7BCF8049404A90548059400
:1012B000FFF7EAFC002801D0FFF7B2F806B010BD36
:1012C000002C0140240000200C4810B50A490160A0
:1012D0004FF4E1314160002181600C22C160C0E91E
:1012E00004128161C161FFF7D8FE002803D0BDE878
:1012F0001040FFF795B810BD003801406C00002089
:10130000FEE7FEE7704770477047FFF7A3B930B5B7
:101310008FB028216846FEF740FF14210AA8FEF787
:101320003CFF01210804CDE90010002402940225AD
:101330000491CDE907504FF4E01009906846FFF79B
:10134000FDFA08B172B6FEE70F20CDE90A054FF4A9
:101350008060CDE90C4002210AA80E94FFF712FA32
:10136000002801D072B6FEE70FB030BD7047000014
:101370000148FFF7B8BD000024000020F0B5026866
:101380001C4B1D4D1D4E1E4F1E4C4FF0804C984265
:1013900009D0A04207D0604505D0A84203D0B04292
:1013A00001D0B84204D122F0700E4A6842EA0E021F
:1013B000984209D0A04207D0604505D0A84203D08A
:1013C000B04201D0B84203D122F44075CA682A4322
:1013D0004D6922F080022A4302608A68C2620A686C
:1013E0008262984201D0A04201D1096901630121C2
:1013F0004161F0BD002C01400004004000080040A5
:10140000000C00400034014010B5846842EA032219
:1014100024F47F440A432243826010BD826822F094
:1014200070020A4342F007018160704710B5036AF9
:10143000046A24F001040462846924F0F00444EA9C
:10144000021423F00A020A438461026210BD10B53F
:10145000036A046A24F010040462846923F0A00380
:1014600024F4704444EA023243EA011182610162C9
:1014700010BD000070B5044600680169E26821F4FF
:101480004051114301612169A06808436169084323
:101490002168CA6841F20C639A430243CA6020681B
:1014A0004169A26921F44071114341611E492068DC
:1014B000884202D1FFF70CFA01E0FFF7F9F900EBDF
:1014C000C00101EB0012606864218000B2FBF0F300
:1014D000B3FBF1F36FF018067343B2FBF0F5B2FB08
:1014E000F0F605EB8305322303EB0515B5FBF1F5AB
:1014F000B6FBF1F605F0F00505EB0615B2FBF0F6CC
:10150000B2FBF0F0B0FBF1F06FF01802504306EBC5
:10151000800003EB0010B0FBF1F0216800F00F0039
:101520002844886070BD0000003801402DE9F0417A
:10153000984617460E460446069D27E0681C25D0AF
:101540002DB1FFF781F8A0EB0800A8421ED9206852
:101550000C3050E8001F21F4D07140E80012002A3E
:10156000F5D12068143050E8001F21F0010140E857
:101570000012002AF5D1202084F8410084F84200AE
:10158000002084F840000320BDE8F0812068006856
:1015900036EA000004D00020B842CFD00020F3E7A4
:1015A0000120F9E7FEE700000FB4054B10B503A9D1
:1015B000044A029800F028F810BC5DF814FB000003
:1015C0005D170008200000200907090E002804DB31
:1015D00000F1E02080F80014704700F00F0000F1E7
:1015E000E02080F8141D704702E008C8121F08C1EF
:1015F000002AFAD170477047002001E001C1121F94
:10160000002AFBD1704700002DE9FF4F89B09B46AF
:101610000446002506E025280BD05A460B99904732
:10162000641C6D1C20780028F5D10DB02846BDE85B
:10163000F08F0027B8460122474900E0074314F81D
:10164000013F203B02FA03F00842F7D120782E2810
:1016500019D114F8010F47F004072A280ED06FF0B3
:101660002F022078A0F1300109290CD808EB88015D
:1016700002EB410100EB0108641CF2E70A98641CCC
:1016800050F8048B0A9020780028CED0642808D027
:10169000692806D075281ED05A460B9990476D1CB4
:1016A00058E00A994FF00A0901C90A91002802DAA4
:1016B00040422D2102E0390504D52B218DF8201060
:1016C000012103E0F90704D02021F7E78A4608AE9C
:1016D0000DE00021FAE70A994FF00A0901C90A91C1
:1016E000F7E74946FEF703FE303106F8011D0028F2
:1016F000F7D1ADEB060000F12009780701D44FF0D7
:101700000108C84502DDA8EB090000E00020804682
:10171000002706E008A85A46C05D0B9990476D1C4B
:101720007F1C5745F6DB04E030205A460B99904762
:101730006D1CB8F10001A8F10108F5DC05E016F810
:10174000010B5A460B9990476D1CB9F10001A9F1A4
:101750000109F4DC641C65E70928010038B504467A
:101760008DF800000223012269460248FFF700FDC0
:10177000204638BD6C000020FEF774FFFFF7C7FD60
:10178000FFF744FDFFF76AFDFFF79EFD0448FFF7F2
:1017900005FB044C04A02168FFF706FFFAE70000F0
:1017A000240000200000002070776D5F76616C756A
:1017B00065203D20256420487A200D0A00000000A5
:1017C000010202030405060708090A0B0C0D0E0F9F
:1017D00010100000000000000000010203040607D2
:1017E0000809000000000102030400000C180008B2
:1017F0000000002024000000E81500083018000850
:101800002400002094040000F815000800000000E7
:1018100000000000000000000000000001000000C7
:1018200010000000000000000024F4000000000090
:0400000508000131BD
:00000001FF
