:020000040800F2
:10000000200C0020A10100088F270008931D000884
:100010008D27000851090008C14C000800000000AD
:10002000000000000000000000000000932700080E
:10003000050A000800000000912700089527000825
:10004000BB010008BB010008BB010008BB010008A0
:10005000BB010008BB010008BB010008BB01000890
:10006000BB010008BB010008BB010008BB01000880
:10007000BB010008BB010008BB010008BB01000870
:10008000BB010008BB010008BB010008BB01000860
:10009000BB010008BB010008BB010008BB01000850
:1000A000BB010008BB010008BB010008BB01000840
:1000B000BB010008BB010008BB010008BB01000830
:1000C000BB010008BB010008BB010008BB01000820
:1000D000BB010008BB010008BB010008BB01000810
:1000E000BB010008BB010008BB010008BB01000800
:1000F000BB010008BB010008BB010008BB010008F0
:10010000BB010008BB010008BB010008BB010008DF
:10011000BB010008BB010008BB010008BB010008CF
:1001200055090008BB010008BB010008BB0100081D
:10013000BB010008BB010008BB010008BB010008AF
:10014000BB010008BB010008BB010008BB0100089F
:10015000BB010008BB010008BB010008BB0100088F
:10016000BB010008BB010008BB010008BB0100087F
:10017000BB010008BB010008BB0100080000000033
:10018000BB010008BB010008DFF810D000F0E0FA66
:100190000048004705560008AFF30080200C0020FF
:1001A0000648804706480047FEE7FEE7FEE7FEE711
:1001B000FEE7FEE7FEE7FEE7FEE7FEE72928000888
:1001C000890100082DE9F05F0546002092469B4614
:1001D00088460646814640241BE02846414647465D
:1001E000224600F002F953465A46C01A914110D3F4
:1001F00011461846224600F0E9F82D1A67EB01086F
:100200004F4622460120002100F0E0F817EB0009DC
:100210004E41201EA4F10104DFDC484631462A4647
:100220004346BDE8F09FD2B201E000F8012B491E21
:10023000FBD270470022F6E710B513460A46044683
:100240001946FFF7F0FF204610BD2DE9FE4F81EA69
:10025000030404F0004421F0004100944FF0000B2F
:1002600023F0004350EA01045ED052EA03045BD05D
:10027000C3F30A54C1F30A552C44A4F2F334019495
:10028000A0FB0254C1F3130141F48011C3F3130323
:1002900043F4801301FB024400FB034E840A970AD7
:1002A00044EA815447EA8357A4FB076802958D0A04
:1002B00005FB07854FEA932C04FB0C542705029D90
:1002C0004FEA065847EA1637B5EB08056EEB070C00
:1002D000870E920E47EA811742EA8312A7FB0201BA
:1002E000B6EB0B0164EB00042B0D43EA0C335E18F4
:1002F00044EB1C50DA465146E7FB0201C5F31304F8
:100300004FEA0B3343EA14534FEA0432019C43EAA9
:100310000603A4F10C040294009CCDE900B400F0A3
:1003200083F803B0BDE8F08F00200146F9E70EB571
:1003300040F2334102910021CDE900110A460B46FB
:1003400000F072F803B000BDC1F30A5210B5C1F35A
:10035000130140F2FF3341F480119A4201DA002088
:1003600010BD40F233439A42A2F2334203DC5242C0
:1003700000F03BF810BD904010BD00F0004230F09E
:1003800000400AD0C10D01F56071C0F3160042EAC9
:100390000151C208400711437047002001467047D1
:1003A00030B50B46014600202022012409E021FA45
:1003B00002F59D4205D303FA02F5491B04FA02F542
:1003C0002844151EA2F10102F1DC30BD202A04DB15
:1003D000203A00FA02F1002070479140C2F1200358
:1003E00020FA03F3194390407047202A04DB203A97
:1003F00021FA02F00021704721FA02F3D040C2F145
:100400002002914008431946704710B5141E73F13D
:10041000000408DA401C41F1000192185B411A43C4
:1004200001D120F0010010BD2DE9F04D92469B4610
:1004300011B1B1FA81F202E0B0FA80F220329046B6
:10044000FFF7C4FF04460F4640EA0A0041EA0B01E9
:1004500053465A46084313D0114653EA010019D0B7
:10046000C8F140025046FFF7C0FF05460E46504611
:1004700059464246FFF7AAFF084305D0012004E091
:1004800020463946BDE8F08D0020054346EAE07677
:100490002C4337430A986305E40AA0EB08000022C6
:1004A000FD0A44EA47540A3002D500200146E9E734
:1004B000010510196941DDE9084500196941BDE8E8
:1004C000F04DA2E72DE9FE4F804681EA0300C00F00
:1004D0000C46009021F0004123F00045B8EB0200EB
:1004E000A94105D24046214690461C460B4602468D
:1004F00023F00040104347D0270DC7F30A00C3F391
:100500000A510290401A019040286BDAC3F313009D
:1005100040F4801B0098924620B10023D2EB030ADE
:1005200063EB0B0B01985946C0F140025046FFF7B0
:100530004DFF06460D4650465946019A00F01AF9FD
:1005400010EB08006141002487EA115284EAE77346
:100550001A4340D0009A62B3019A012A4FEA075227
:1005600015DC001B61EB02014FF0004202EA07526A
:10057000CDE90042001C41F5801132462B46FFF7C1
:1005800053FF03B0BDE8F08F40462146F9E7001B5A
:1005900061EB0201001C41F5801300185B4120183B
:1005A000A2F5001747EB030140EAD570B6196D417B
:1005B00011E06D084FEA360645EAC0754FEA07526A
:1005C000001B61EB0201001C41F5801149084FEA54
:1005D00030000019514132462B4603B0BDE8F04FC0
:1005E000FFF713BF0098012240000023D0EB020266
:1005F00063EBE073009821464FEAE074B8EB00002B
:1006000061EB0401E9E783F000435BE781F000411F
:1006100058E72DE9F04D81EA030404F0004B21F086
:10062000004514464FF0000A23F0004150EA05024D
:1006300020D054EA01021DD0C5F30A570246C5F383
:100640001303C1F31300C1F30A5640F4801543F4B9
:100650008013A7EB0608101BD64608F2FD3873EB93
:10066000050002D308F1010801E092185B41B8F1DE
:10067000000F03DA00200146BDE8F08D00204FF4A2
:100680008011064684460EE0171B73EB050705D361
:10069000121B63EB050306434CEA010C49084FEAC1
:1006A000300092185B4150EA0107EDD152EA030095
:1006B00012D082EA040083EA0501084305D0101B2A
:1006C000AB4106D20122002306E000224FF0004396
:1006D00002E06FF0010253101AEB06004CEB0851D8
:1006E00010EB0A0041EB0B01BDE8F04DFFF78DBEAA
:1006F000C1F30A52C1F3130140F2FF3341F48011F8
:100700009A4202DA00200146704740F233439A428F
:10071000A2F2334202DC5242FFF767BEFFF756BE39
:1007200030B5041E71F1000404DB4FF00044404278
:1007300064EB0101141E73F1000405DB1C464FF04D
:100740000043524263EB0403994208BF904230BD1C
:10075000064C074D06E0E06840F0010394E807000E
:1007600098471034AC42F6D3FFF712FDA86F00088B
:10077000C86F0008202A06DBCB17203A41FA02F0A6
:1007800043EAE07306E041FA02F3D040C2F12002EE
:10079000914008431946704710B50146806B026CC2
:1007A00012F0500F05D0026CD20626D500F04AFA9E
:1007B00010BD016C41F40071016401688A6812F097
:1007C000405F17D1027EAAB9CA6A12F4700F02D034
:1007D0008A6852050ED44A6822F020024A60016CF1
:1007E00021F480710164016CC90403D4016C41F0EF
:1007F0000101016400F024FA10BD806BC26CBDE8F9
:1008000010400846104710B5806B40210164416CD0
:1008100041F00401416400F015FA10BD10B5806B81
:1008200000F00FFA10BD0000464910B54A6822F4E6
:1008300040324A604A6843681A434A6001684A681D
:1008400022F480724A6001684A68036942EA03221E
:100850004A6001684A6822F040724A6001684A684A
:1008600083681A434A6001688A6822F400628A60D9
:1008700001688A68C3681A438A60816A6FF070628F
:10088000D14201688A6822F070628A6001688A68D1
:100890000CD0836A1A438A6001688A6822F0405249
:1008A0008A6001688A68C36A1A4301E022F04052F4
:1008B0008A6001688A6822F002028A6001688A6898
:1008C000037E42EA43028A6090F820100029016802
:1008D0004A680FD042F400624A6001684A6822F414
:1008E00060424A6001684A68174C436A04EB43332C
:1008F0001A4301E022F400624A600168CA6A22F4E5
:100900007002CA620168CA6A838B104C04EB0353FD
:100910001A43CA6201688A6822F400728A60016818
:100920008A6890F8303042EA43228A6001688A6817
:1009300022F480628A6001688A68406942EA802005
:10094000886010BD0023014000E0FFFF0000F0FFC1
:10095000FEE70000014800F0FFBA00000807002091
:1009600001681823CAB2103AB2FBF3F2054B6FF3D9
:100970000901032A9B5CC36500D9091D81650846EE
:1009800070470000886F000810B5014600208B6991
:100990008A6A4FF0C07453B1B3F5005F15D072B1DD
:1009A000012A0CD0022A0AD0032A09D104E01AB184
:1009B000012A06D0022A03D1C96AC90100D5012043
:1009C00010BDC96AA142FAD010BD002AF7D0012A91
:1009D000F2D0022AF3D0032AF3D010BD30B5046858
:1009E000256825F480252560046863608368402BB2
:1009F000036803D099600068C26030BD9A600068E7
:100A0000C16030BD704772B6FEE7000030B5B3F587
:100A1000804F05D06FF0704140F82210002030BDAB
:100A20008C690B688D6823434C688989240144EAEA
:100A30000524234343EA014150F82230014C23406E
:100A40001943E9E70000F0CF10B50A6850F82230EA
:100A500023F0010340F822308C68082C23D00023B7
:100A60004A682243CC681C430B6922431A434B69F2
:100A70000E4C1A43CB691A430B6A1A434B6A1A434A
:100A80008B6A1A43CB6A1A430B6B1A438B69134365
:100A9000CA6B09681A4350F82130A343134340F846
:100AA0002130002010BD4023DAE700007FFF0F0057
:100AB00030B5D1E9003443EA04138C688D892402EF
:100AC00044EA054423430C8A094D00EB820005EB00
:100AD000045423430C7D6D0105EB046489692343B1
:100AE0000B43416801F040410B434360002030BD9F
:100AF0000000F0FF78B50024009490F83C20012A13
:100B000019D0012280F83C200A6807230568092AC9
:100B100013D9EE680A3A02EB420293409E43EE601C
:100B20000B788A680A3B03EB43039A400368DD684D
:100B30002A43DA6010E0022078BD2E6902EB4202FF
:100B400093409E432E610B788A6803EB43039A40DF
:100B500003681D692A431A614A681F23072A13D2B2
:100B600005686E6B521E02EB820293409E436E63D9
:100B70000B790A885B1E92B203EB83039A400368E9
:100B80005D6B2A435A6327E005680D2A12D22E6B4B
:100B9000D21F02EB820293409E432E630B790A8898
:100BA000DB1F92B203EB83039A4003681D6B2A4359
:100BB0001A6311E0EE6A0D3A02EB820293409E4303
:100BC000EE620B790A880D3B92B203EB83039A40E5
:100BD0000368DD6A2A43DA62164B0568144A9D42AF
:100BE00006D10D68122D03D1556845F48005556076
:100BF00005689D4218D10B68102B01D0112B13D121
:100C0000536843F400035360096810290CD10A4962
:100C10000A4A0968B1FBF2F101EB8101490000E0E9
:100C2000491E00910029FBD180F83C40002078BD8E
:100C300000230140002001402800002040420F0016
:100C400070477047704770B504004FF0000503D03F
:100C5000206C002610B107E0012070BD204600F096
:100C60001DF8666484F83C60206CC00610D4206CCB
:100C700020F4885040F0020020642046FFF7D4FDA5
:100C80006664206C20F0020040F00100206400E067
:100C9000012584F83C60284670BD000070B586B020
:100CA000064614216846FFF7C5FA1D493068884298
:100CB00033D11C480025016841F48071016000684F
:100CC00000F48070059017481438016841F0010164
:100CD00001600068694600F0010005900320009063
:100CE000CDE90105104800F00FFB114C0F48C4E995
:100CF00000050015A560C4E9035080006061800014
:100D0000A0618011C4E907052046656200F0F4F98E
:100D100008B1FFF778FEB463A66306B070BD0000AB
:100D200000200140443802400000024010640240AC
:100D300008070020F8B5044600200E46009094F8FD
:100D40003C10012907D0012184F83C1021688B68F0
:100D5000DB0702D011E00220F8BD8B6843F00103ED
:100D60008B604049404B0968B1FBF3F101EB410155
:100D700000E0491E00910029FBD121688B68DB054A
:100D800003D58B6823F480738B6021688B68DB0745
:100D90005DD0236C40F20165AB4343F48073236460
:100DA0004968490505D5216C21F4005141F4805171
:100DB0002164216CC90404D5616C21F006016164D1
:100DC00000E0606484F83C00A16B2948274DC863AB
:100DD000A16B28480864A16B2748C86421686FF09C
:100DE000220008602068416841F08061416020680D
:100DF000816841F4807181602168134632464C312C
:100E0000A06B00F0E3F968681C49C006206806D0B2
:100E1000884224D1816811F0405F13D01FE08842DE
:100E2000F8D0174A904203D1D1F80423D206F1D06A
:100E3000144A904213D1D1F8041301F01F01102974
:100E4000E8D30CE0816841F08041816007E0206CCC
:100E500040F010002064606C40F0010060640020ED
:100E6000F8BD00002800002040420F000023014090
:100E7000990700081D080008070800080020014025
:100E8000002101400022014070B54379012B1CD0A4
:100E9000012646710223037105682B6802F01004D5
:100EA00040F6FE72A2409343D1E900210A43A240DA
:100EB0001A432A6001680A68C023A3409A430A6063
:100EC000067100214171084670BD022070BD70B5E9
:100ED000040003D02079002510B105E0012070BD89
:100EE0006571204600F008F802202071256101207C
:100EF0002071002070BD000010B586B0044614219A
:100F00006846FFF797F91149206888421CD11048BC
:100F10000021026842F000520260006800F00050B8
:100F200005900B481038026842F001020260006828
:100F300000F001000590302000900320CDE9010170
:100F40006946044800F0E0F906B010BD00740040A6
:100F500040380240000002402DE9F84304464FF0BB
:100F60000009CDF8009063484FF41651A56D006854
:100F7000B0FBF1F72E6894F85C10082000FA01F13C
:100F800031420FD021680A6852070BD50A6822F057
:100F900004020A6094F85C108840A860606D40F01C
:100FA0000100606594F85C104FF0010808FA01F048
:100FB000304208D021684969090604D5A860606DEF
:100FC00040F00200606594F85C10042088403042D4
:100FD00008D021680968890704D5A860606D40F0D1
:100FE0000400606594F85C1010208840304218D0EE
:100FF00021680968090714D5A860206801684903B9
:1010000004D50068000308D5A16C07E00168C90594
:1010100003D4016821F008010160216C09B1204668
:10102000884794F85C1020208840304231D02168F5
:101030000968C9062DD5A86094F8350005282068F0
:10104000016806D0490347D5006800031DD4616CD0
:101050001CE021F0160101602068416921F0800147
:101060004161206C08B9A06C20B12068016821F0B2
:101070000801016094F85C103F208840A86084F863
:10108000358084F83490216D1FE0E16B09B1204672
:101090008847606D00282BD0606DC00714D00520F4
:1010A00084F835002068016821F001010160009892
:1010B000401C0090B84203D820680068C007F6D1F1
:1010C00084F8358084F83490E16C002910D001B0A8
:1010D0002046BDE8F04308470168C905D5D401683A
:1010E00021F01001016084F8358084F83490CCE759
:1010F000BDE8F883280000202DE9F041044600F007
:1011000001FA06465CB1022084F83500002584F817
:1011100034502068016821F0010101600DE00120D8
:10112000BDE8F08100F0EEF9801B052805D92020EC
:101130006065032084F83500F2E720680068C00786
:10114000F0D12268116820480140D4E90103184316
:10115000D4E903363343184363691843A36918433A
:10116000E3691843236A18430843616A042903D1D9
:10117000D4E90B1319430843106020684069666A7C
:1011800020F0070130460E43012704280CD1A06A45
:101190000643E06A40B12046FFF7F6FB20B140204D
:1011A000606584F83570BAE7206846612046FFF72D
:1011B000D7FB94F85C203F2191408160656584F8FD
:1011C00035700020ACE700003F8010F02DE9F041C1
:1011D0000446866D90F83400002501280DD00120CA
:1011E00084F8340094F835700020012F07D084F87B
:1011F000340002252846BDE8F0810220FBE70227E3
:1012000084F8357060652046FFF7E8FB94F85C10C1
:101210003F208840B0602068016841F016010160FD
:10122000206C20B12068016841F00801016020684D
:10123000016841F001010160DCE7000070B504467F
:1012400000F060F90546601C02D0044800780444B0
:1012500000F058F9401BA042FAD370BD1C000020DA
:101260002DE9F04186B014216846FEF7E3FF2048DF
:101270000168002939D1012101601E48002401685C
:1012800041F00101016000684FF4805800F0010056
:101290000C27CDF80080CDE90470032602250396C3
:1012A000CDE901546946144800F02EF84FF68070DD
:1012B000CDE9000502AA694682E8D0000F4800F097
:1012C00023F84CF23370CDE9000502AA694682E8A2
:1012D000D0000B4800F018F802AA694682E8D00056
:1012E000CDE90085074800F00FF806B0BDE8F081B1
:1012F0000C00002038380240001402400010024068
:10130000000C0240001802402DE9F84FDFF8BCA1A4
:101310000022012503264FF00F090AF1040BAAF160
:10132000040E00BF0B6805FA02F42340A34270D1FB
:101330000F7907F00307012F01D0022F16D187681C
:101340004FEA420806FA08FC27EA0C07D1F80CC05D
:101350000CFA08FC4CEA070CC0F808C04768A74321
:101360000C79C4F3001494403C4344600C79E4438A
:10137000A4070AD0C4684FEA420C06FA0CF7BC4333
:101380008F6807FA0CF72743C7600C7904F0030451
:10139000022C12D1D40800EB840CDCF82040570753
:1013A000FF0E09FA07F824EA0804D1F8108008FAB9
:1013B00007F848EA0408CCF8208004684FEA420C99
:1013C00006FA0CF7BC430F7907F0030707FA0CF78E
:1013D000274307604C6814F4403F70D03C4C2768AA
:1013E00047F480472760246822F0030704F4804410
:1013F0000094384C07EB040CDCF8084897074FEAD8
:10140000177809FA08F7BC43334FB84202D10027D6
:1014100024E054E0314FB84201D101271EE0304FA3
:10142000B84201D1022719E02E4FB84201D103275B
:1014300014E02D4FB84201D104270FE02B4FB842E2
:1014400001D105270AE02A4FB84201D1062705E05D
:10145000284FB84201D1072700E0082707FA08F70C
:101460002743CCF80878DAF800405746D1F804C092
:101470009C435FEACC2C00D51C433C60DBF8004069
:101480005F46D1F804C09C435FEA8C2C00D51C4316
:101490003C60DEF800407746D1F804C09C435FEA28
:1014A0008C3C00D51C433C60084F083F3C68D1F899
:1014B00004C09C435FEACC3C00D51C433C60521CFA
:1014C000102AFFF42FAFBDE8F88F0000083C014060
:1014D0004438024000300140000002400004024055
:1014E00000080240000C02400010024000140240BC
:1014F00000180240001C02400AB1816170470904D3
:10150000FBE7000001488068704700001C000020D5
:101510000248816802781144816070471C000020F5
:101520000B4810B5016841F400710160016841F495
:1015300080610160016841F480710160032000F066
:101540006FF80F2000F006F800F024F8002010BD1E
:10155000003C024070B50D4D04464FF47A71287876
:10156000B1FBF0F00A490968B1FBF0F000F03CFB78
:1015700048B9102C07D200222146501E00F030F846
:1015800000206C6070BD012070BD00001C000020B8
:10159000280000200A4808B5016841F48041016034
:1015A000006800F4804000900548001F016841F089
:1015B00080510160006800F08050009008BD00007C
:1015C00044380240002809DB00F01F02012191404D
:1015D0004009800000F1E020C0F8001170470000D1
:1015E000F0B40E4B1B680C46C3F30223C3F107058E
:1015F000042D00D90425191D072901D2002300E07C
:10160000DB1E012606FA05F1491E214099409E4045
:10161000761E16403143F0BC03F064BB0CED00E0D5
:10162000064900F0070208684FF6FF03184040EA39
:101630000220034A10430860704700000CED00E0F0
:101640000000FA052DE9F0470E46050065D0DFF8E9
:101650001481D8F80000F7B200F00700B04207D2BA
:1016600088F80070D8F8000000F00700B04254D1AC
:1016700028683D4C810712D5400703D5206840F407
:10168000E05020602878000703D5206840F46040CF
:1016900020602068A96820F0F000084320602878C6
:1016A000C0072DD0304968680839012812D00228B7
:1016B00013D0032811D00968890700292DDA216881
:1016C00021F0030101432160FFF71CFF814641F235
:1016D000883A0EE009688903EFE709688901ECE7B9
:1016E000FFF710FFA0EB0901514502D90320BDE827
:1016F000F0872068696800F00C00B0EB810FEFD133
:10170000D8F80010404601F00701B14207D9077030
:10171000006800F00700B04201D00120E7E7287818
:10172000400705D52068E96820F4E05008432060B0
:101730002878000706D52068296920F4604040EA2F
:10174000C100206000F038F82168084AC1F3031195
:10175000515CC8400649086006480068FFF7FAFE79
:101760000020C4E7003C024008380240906F0008A7
:10177000280000202000002004480549006809686E
:10178000044AC1F38221515CC84070472800002000
:1017900008380240A06F000804480549006809683D
:1017A000044AC1F34231515CC84070472800002010
:1017B00008380240A06F0008154810B5006810F006
:1017C0000C02144813D01449042A0FD0082A0ED151
:1017D0000F4C241F2268236802F03F025B0207D5EA
:1017E0002068C0F38810A0FB010106E0084610BD88
:1017F0002168C1F38811A1FB00010023FEF7E2FC80
:101800002168C1F30141491C4900B0FBF1F010BD52
:10181000083802400024F40040787D012DE9F84F9B
:1018200004006ED02078DFF84C93C007A9F10405BE
:101830004AD009F104000168C1F38101012908D0EF
:101840000068C0F3810002280AD1D9F800004002E4
:1018500006D52868800337D560680028E1D033E0DA
:101860006068B0F5803F10D0B0F5A02F286810D088
:1018700020F480302860286820F480202860606888
:10188000A8B1FFF73FFE06460DE0286840F480301F
:10189000F4E740F480202860F7E700BFFFF732FE4E
:1018A000801B642873D828688003F7D50CE0FFF705
:1018B00029FE064605E000BFFFF724FE801B6428D2
:1018C000F0D828688003F7D42078DFF8AC8280074E
:1018D0004FF0000A3ED5A748001D016811F00C0F1B
:1018E00008D00068C0F3810002280BD1D9F80000AD
:1018F000400207D42868800716D5E068012800D187
:1019000012E033E1E068B8B10120C8F80000FFF749
:10191000F9FD064605E000BFFFF7F4FD801B022835
:10192000C0D828688007F7D52868216920F0F8001A
:1019300040EAC10028600DE0C8F800A0FFF7E2FD12
:10194000064604E0FFF7DEFD801B02281FD828684A
:101950008007F7D42078000722D5864F8748616931
:10196000703771B101210160FFF7CCFD064604E03C
:10197000FFF7C8FD801B022809D838688007F7D513
:101980000EE0C0F800A0FFF7BDFD064605E082E0CE
:10199000FFF7B8FD801B02287DD838688007F7D490
:1019A0002078400768D5DFF8CCB100270BF13C0B5D
:1019B000DBF80000C0000BD4DBF8001041F08051D0
:1019C000CBF80010DBF80000012700F080500090F9
:1019D0006B4E3068C00510D4306840F480703060C1
:1019E000FFF790FD009005E0FFF78CFD0099401A8D
:1019F000022850D83068C005F6D55E4EA0686C3617
:101A000001280FD00528306810D020F00100306088
:101A1000306820F004003060A068B8B1FFF772FDB4
:101A200000900FE0306840F00100F4E740F004005F
:101A30003060F7E7FFF766FD0099411A41F2883000
:101A4000814266D830688007F4D50EE0FFF75AFD72
:101A5000009007E0FFF756FD0099411A41F28830E7
:101A6000814256D830688007F4D42FB1DBF80010DB
:101A700021F08051CBF80010A069C8B33D49091D81
:101A80000968C1F3810102294AD00228504607D0D3
:101A9000C8F8600000E03CE0FFF734FD04463BE09E
:101AA0004746C8F86000FFF72DFD064605E000BF79
:101AB000FFF728FD801B02282BD828688001F7D467
:101AC000D4E907010843A16A2E4A490802EB014103
:101AD000626A41EA8211084394F82C1040EA0161DD
:101AE000C9F8001001203866FFF70CFD044606E037
:101AF0003EE000BFFFF706FD001B022809D828685A
:101B00008001F7D534E000BFFFF7FCFC001B022882
:101B100002D90320BDE8F88F28688001F4D427E0BB
:101B20000128F7D0D9F80000E26900F48001914261
:101B30001CD1226A00F03F01914217D147F6C071D3
:101B4000626A0140B1EB821F10D1A26A4FF0FF33ED
:101B500000F4403103EB5202B1EB024F06D194F88E
:101B60002C1000F07060B0EB016F01D00120D1E7C4
:101B70000020CFE70438024000004742800E474271
:101B8000007000400000FFFF70B515460E460400CF
:101B900003D094F8490010B107E0012070BD002087
:101BA00084F84800204600F01DF804F10801206880
:101BB000FEF74AFF3146A2682068FEF779FFD4E9B4
:101BC00001022946236BFEF721FF2168A06851F826
:101BD000202042F0010241F82020012084F8490031
:101BE000002070BDFFF73CBB10B5401EB0F1807FF8
:101BF00001D3012010BD4FF0E02460610F21601778
:101C000003F070F80020A06107202061002010BDC3
:101C100070B5040004D094F83D00002510B106E032
:101C2000012070BD84F83C50204600F023F82420A9
:101C300084F83D002068C16821F40051C16020464D
:101C400002F07CFF2068016921F490410161206865
:101C5000416921F02A0141612068C16841F40051C5
:101C6000C1602564202084F83D0084F83E000020F7
:101C700070BD000010B586B0044614216846FEF71A
:101C8000D9FA14492068884221D1134800210268FA
:101C900042F010020260006800F0100005900E484B
:101CA0001438026842F001020260006800F001008E
:101CB00005904FF4C06000900220CDE9010103209F
:101CC00003900720049069460448FFF71DFB06B007
:101CD00010BD0000001001404438024000000240E6
:101CE0002DE9F843044690F83D001F4616460D4680
:101CF00020284CD1C5B1BEB194F83C00012846D093
:101D0000012084F83C004FF00008C4F840802120F6
:101D100084F83D00FFF7F6FBA6848146E684A068C0
:101D2000B0F5805F03D004E00120BDE8F8832069AE
:101D300028B12E465FF0000584F83C800EE00026B6
:101D4000FAE78021204602F07FFFA0B9AEB116F875
:101D5000010B21684860E08C401EE084E08C4B461B
:101D60004FF0000200970028EBD14FF040012046D1
:101D700002F06AFF30B10320D7E735F8020BC0F359
:101D80000800E6E7202084F83D000020CDE702208F
:101D9000CBE7FEE770B50B490646002408884D885E
:101DA00021464543204600F073FA00F09FFBB0B295
:101DB0004FF0D84103E000BFA1F88000641CAC42A2
:101DC000FAD370BD100800202DE9F04F33492C24C0
:101DD0000A4688712A2592882B2645F2105B4FF41B
:101DE000305E4FF448774FF0F00949F2413A4FF432
:101DF000A07845F2103C4FF4F07358B1A1F8008080
:101E0000A1F80290524501D0624529D10C814D8143
:101E10008E8139E0A1F80090A1F80280524501D0EE
:101E2000624508D10C814D818E81624531D1A1F886
:101E300000804B802DE05A4508D1A1F808E04FF40E
:101E4000285048814FF42C50888106E0A2F5C850F4
:101E500063381ED10C814E818D810B804F8018E03C
:101E60005A4508D1A1F808E04FF4285048814FF4B2
:101E70002C50888106E0A2F5C850633804D10C814B
:101E80004D818E810F804B80624502D10B80A1F87D
:101E90000280BDE8F04F002000F01EB910080020BD
:101EA0002DE9FE4F161ACDE900104FF000085D1A1B
:101EB00047464FF0FF30002E02DD4FF0010102E0F7
:101EC00003D14FF000018B4602E08346C6F10006C5
:101ED000002D02DD4FF0010002E003D14FF00000C1
:101EE000824602E08246C5F10005AE4201DD34467D
:101EF00000E02C46601C4FF00009029018E00098AA
:101F000081B2019880B200F019F8B0442F44A04586
:101F100004DD0198A8EB040858440190A74203DDB2
:101F200000983F1B5044009009F101001FFA80F90E
:101F300002998945E3DDBDE8FE8F000000B500F0A1
:101F4000A7F900F0D3FA03484FF0D8410088A1F870
:101F5000800000BD140000202DE9F043444C914660
:101F60000246A08823460D464FEA1128160A5B89CF
:101F7000A0F51341413917D0A0F5A641103913D06F
:101F8000A0F5AA41103914D02646A0F5C857B1795A
:101F90003688B61A761E633F25D0A0F5D047043F99
:101FA0003DD0012951D051E0184600F093FA304657
:101FB0003CE0184600F08EFA304600F07FFA608967
:101FC000401C80B200F086FAD0B200F077FAA08907
:101FD00000F080FA404600F071FAA089401C80B2FF
:101FE00000F078FA2DE001B9B2B2184600F072FAAA
:101FF000160A304600F062FAD0B200F05FFA3046BE
:1020000000F05CFAD0B200F059FAA08900F062FA50
:10201000404600F053FAE8B200F050FA0EE0012911
:1020200000D1B2B2184600F055FA100A00F046FA94
:10203000D0B200F043FAA08900F04CFA404600F01C
:102040003DFAE8B200F03AFA08E0B2B2114618469A
:1020500000F056FAA089294600F052FA4FF0D84015
:10206000218920F87E1FA0F80290BDE8F0830000CF
:102070001008002008B54FF0D840B0F88000ADF847
:102080000000BDF8000008BD10B50246BE2000F0FB
:1020900021FA052000F012FA1046FEF748F99FEDEC
:1020A0000C1B53EC112BFEF7D0F8FEF74DF980B264
:1020B00000F004FA012000F001FAFF2000F0FEF920
:1020C000002000F0FBF9BDE81040002000F0F6B958
:1020D0006666666666660440F0B56C4C0023214671
:1020E000A279898841F66316012A01D01AB11BE052
:1020F000B14202D118E0B14216D1082814D2DFE86B
:1021000000F00406080A0C0E101206200CE007204E
:102110000AE0042008E0052006E0012004E0002099
:1021200002E0032000E00220A1F5134745F210323F
:1021300045F21055413F05D0914203D0A94201D04C
:10214000B14277D1082812D2DFE800F01104060866
:102150000A0C0E1080230AE0402308E0C02306E0AA
:10216000202304E0602302E0A02300E0E023A94252
:1021700002D14FF4585000E03620914205D0A942D8
:1021800003D0B14201D043F00803194600F0B8F97A
:10219000A188B1420AD098062088628802D5904270
:1021A00002D303E0904201D9228060806089A94275
:1021B00041D100F08FF9002000F080F96089401CC7
:1021C00080B200F087F9002000F078F96089801C67
:1021D00080B200F07FF92088401EC0F30F2000F08D
:1021E0006DF96089C01C80B200F074F92078401E3F
:1021F000C0B200F063F9A08900F06CF9002000F093
:102200005DF9A089401C80B200F064F9002000F064
:1022100055F9A089801C80B200F05CF96088401EEE
:10222000C0F30F2000F04AF9A089C01C80B200F072
:1022300051F922E028E000F04DF9002000F03EF9CD
:10224000002000F03BF92088401EC0F30F2000F072
:1022500035F92078401EC0B200F030F9A08900F0B6
:1022600039F9002000F02AF9002000F027F96088F1
:10227000401EC0F30F2000F021F9A078BDE8F04027
:10228000401EC0B200F01AB9F0BD000010080020D6
:10229000F0B53F4A0D460446060A918810462F0ABB
:1022A0004089A1F51343413B28D0A1F5A643103B3B
:1022B00024D0A1F5C853633B2FD0A1F5AA43103B0E
:1022C00064D100F007F9304600F0F8F85089401C5E
:1022D00080B200F0FFF8E0B200F0F0F8908900F072
:1022E000F9F8384600F0EAF89089401C80B200F016
:1022F000F1F8E8B2BDE8F04000F0E0B800F0EAF82C
:10230000304600F0DBF8E0B200F0D8F8908900F039
:10231000E1F8384600F0D2F8EBE7917929B300F004
:10232000D9F8304600F0CAF8E0B200F0C7F81088DB
:10233000401EC0F30F2000F0C1F81078401EC0B25C
:1023400000F0BCF8908900F0C5F8384600F0B6F807
:10235000E8B200F0B3F85088401EC0F30F2000F040
:10236000ADF89078401EC0B2C4E71188091B491E21
:102370008CB200F0AFF8002000F0A0F8002000F0D0
:102380009DF8200A00F09AF8E0B2D9E7F0BD00000D
:10239000100800202DE9FF4F1D460C468A465807BD
:1023A00000D0012000EBD500690810FB01F0203AB5
:1023B00000F0FF09D0B20026DFF898B0029044E0A8
:1023C0000C2D11D0102D14D0182D40D10298224977
:1023D00000EBC00001EB80004FF00008875D38067D
:1023E0000CD51E4802680DE002981D4900EB400024
:1023F000F0E71C49029801EB0010EDE70D9828B9B1
:102400001648426821460098FFF7A6FD7806070E99
:10241000641CBBF80200A4B2A04218D9A4EB0A00C5
:10242000A84209D100985446401C80B20090BBF8E5
:10243000001081420BD906E008F1010000F0FF080E
:10244000B8F1080FCBD3761CF6B24E45B8D3BDE831
:10245000FF8F0000100800202C62000814000020EC
:10246000C85700083C5C00082DE9F84F044600F00E
:10247000FF0910190D46DDE90AB61FFA80F8581950
:1024800087B24FF0000A12E0444503D305EB0B007E
:102490004C4685B2BD420FD25B4629462046CDF858
:1024A00000A0FFF777FF04EB5B0084B2761C327864
:1024B000A2F120005E28E7D9BDE8F88F01B5BDF88C
:1024C0000000ADF80000BDF800004FF0D841A1F8C1
:1024D000800008BD01B5BDF80000ADF80000BDF8F2
:1024E00000004FF0D841A1F87E0008BD03484FF02E
:1024F000D8410089A1F87E00704700001008002034
:102500004FF0D84222F87E0F518070477FB50025EA
:10251000194800950195029516490395C0E90015E3
:10252000012485600461047680F820501349C0E9D5
:102530000A150226C661C56080F830404461FEF786
:1025400082FB08B1FEF75FFACDE9005469460A48FC
:102550000295FEF7CFFA08B1FEF755FACDE900462D
:1025600069460548FEF7C6FA002801D0FEF74BFA87
:102570007FBD000000200140C00600200100000FC8
:102580001CB50024104900940E48019408600846C8
:10259000FEF79DFC08B1FEF736FA0094002269466A
:1025A00009480194FEF770FC08B1FEF72CFA1022DE
:1025B00069460548FEF768FC002801D0FEF723FABB
:1025C0001CBD00000074004068070020094808B5E1
:1025D000016841F4800101600068002200F480007D
:1025E000009011463820FEF7FBFFBDE80840382078
:1025F000FEF7E8BF3038024010B58EB01C216846A7
:10260000FDF718FE1C2107A8FDF714FE1A484FF02D
:10261000204110220160194941600621816000219A
:10262000C160C0E904128161C16113020162C0E9A5
:1026300009139302C0E90B134163816341640F20C6
:102640003C230090CDE9010303AC112384E80E0084
:1026500009240691CDE9074009AC082084E80F0061
:102660000D9107AA69460448FFF78EFA002801D0A9
:10267000FEF7C9F90EB010BD7C070020040100A0D0
:1026800070B586B014216846FDF7D4FD2F480025AB
:10269000016841F004010160016801F00401059145
:1026A000016841F080010160016801F0800105913D
:1026B000016841F001010160016801F0010105912B
:1026C000016841F020010160016801F020010591DD
:1026D000016841F010010160016801F010010591ED
:1026E000016841F002010160016801F002010591F9
:1026F000016841F008010160016801F008010591DD
:10270000016841F0400101600068114E00F0400096
:102710004FF400440590002221463046FEF7ECFEBF
:10272000009401240220CDE902406946019430461C
:10273000FEF7EAFD4FF44070CDE9000569460294CA
:102740003046FEF7E1FD06B070BD000030380240B3
:10275000000402400C4810B50A4901604FF4E13111
:102760004160002181600C22C160C0E904128161D6
:10277000C161FFF74DFA002803D0BDE81040FEF715
:1027800042B910BD00100140CC070020FEE7FEE773
:1027900070477047FEF7BCBE30B593B03021684635
:1027A000FDF748FD14210CA8FDF744FD1C4800244A
:1027B000016841F080510160006800F08050119084
:1027C0001848016841F4804101600068022500F466
:1027D00080401190012003901020049000950695F0
:1027E0000820CDE907404820CDE9090504200B90D9
:1027F0006846FFF713F808B172B6FEE70F20CDE97F
:102800000C054FF48050CDE90E4002210CA8109425
:10281000FEF718FF002801D072B6FEE713B030BDF6
:1028200040380240007000400248016841F47001E5
:102830000160704788ED00E02DE9F05F3220FEF77F
:10284000FDFCD320FFF746FEFFF714FCFE4CA080F2
:10285000FFF710FCA080FFF70DFC4FF6FF7909EAA7
:102860000020A080FFF706FCA18849F2413608430A
:10287000A08045F2103745F2105541F66318B0427A
:1028800047D0D420FFF726FEFFF7F4FBA080FFF728
:10289000F1FBA080FFF7EEFB09EA00204A46A0808A
:1028A000FFF7E8FBA1880843A080B84231D04FF47D
:1028B0005A40FFF70FFEFFF7DDFBA0804FF45B40AF
:1028C000FFF708FEFFF7D6FB02EA0020A0804FF4D6
:1028D0005C40FFF7FFFDFFF7CDFBA1880843A08018
:1028E000B0F5004F7DD0A84213D0A120FFF7F2FD34
:1028F000FFF7C0FBA080FFF7BDFB02EA0020A0802D
:10290000FFF7B8FBA1880843A0F5AE41A08061396C
:1029100068D080B2B04266D1CF20FFF7DBFD002047
:10292000FFF7CCFDC120FFF7C9FD3020FFF7C6FD42
:10293000ED20FFF7CFFD6420FFF7C0FD0320FFF778
:10294000BDFD1220FFF7BAFD8120FFF7B7FDE8209B
:10295000FFF7C0FD8520FFF7B1FD1020FFF7AEFDAA
:102960007A20FFF7ABFDCB20FFF7B4FD3920FFF74E
:10297000A5FD2C20FFF7A2FD0020FFF79FFD3420CE
:10298000FFF79CFD0220FFF799FDF720FFF7A2FD5E
:102990002020FFF793FDEA20FFF79CFD0020FFF7C2
:1029A0008DFD0020FFF78AFDC020FFF793FD1B205F
:1029B000FFF784FDC120FFF78DFD0120FFF77EFDAD
:1029C000C520FFF787FD3020FFF778FD3020FFF7A7
:1029D00075FDC720FFF77EFDB720FFF76FFD36209E
:1029E00002E0B5E0B0E0B5E0FFF774FD4820FFF786
:1029F00065FD3A20FFF76EFD5520FFF75FFDB12022
:102A0000FFF768FD0020FFF759FD1A20FFF756FD7C
:102A1000B620FFF75FFD0A20FFF750FDA220FFF769
:102A20004DFDF220FFF756FD0020FFF747FD262061
:102A3000FFF750FD0120FFF741FDE020FFF74AFDC1
:102A40000F20FFF73BFD2A20FFF738FD2820FFF776
:102A500035FD0820FFF732FD0E20FFF72FFD08207F
:102A6000FFF72CFD5420FFF729FDA920FFF726FDD5
:102A70004320FFF723FD0A20FFF720FD0F20FFF77B
:102A80001DFD0020FFF71AFD0020FFF717FD0020B5
:102A9000FFF714FD0020FFF711FDE120FFF71AFDFD
:102AA0000020FFF70BFD1520FFF708FD1720FFF7AB
:102AB00005FD0720FFF702FD1120FFF7FFFC0620B0
:102AC000FFF7FCFC2B20FFF7F9FC5620FFF7F6FC84
:102AD0003C20FFF7F3FC0520FFF7F0FC1020FFF788
:102AE000EDFC0F20FFF7EAFC3F20FFF7E7FC3F205B
:102AF000FFF7E4FC0F20FFF7E1FC2B20FFF7EAFCD7
:102B00000020FFF7DBFC0020FFF7D8FC0120FFF7D7
:102B1000D5FC3F20FFF7D2FC2A20FFF7DBFC00208A
:102B2000FFF7CCFC0020FFF7C9FC0020FFF7C6FC34
:102B3000EF20FFF7C3FC1120FFF7CCFC7820FEF755
:102B40007DFB292001F009BFA4F8048001F00ABF31
:102B5000A580FDE3B84276D1ED20FFF7BBFC012054
:102B6000FFF7ACFCFE20FFF7A9FCEE20FFF7B2FC5C
:102B7000DE20FFF7A3FC2120FFF7A0FCF120FFF7E8
:102B8000A9FC0120FFF79AFCDF20FFF7A3FC10202F
:102B9000FFF794FCC420FFF79DFC8F20FFF78EFC0D
:102BA000C620FFF797FC0020FFF788FCE220FFF724
:102BB00085FCE220FFF782FCE220FFF77FFCBF20CC
:102BC000FFF788FCAA20FFF779FCB020FFF782FC12
:102BD0000D20FFF773FC0020FFF770FC0D20FFF7BE
:102BE0006DFC0020FFF76AFC1120FFF767FC002056
:102BF000FFF764FC1920FFF761FC0020FFF75EFC83
:102C00002120FFF75BFC0020FFF758FC2D20FFF789
:102C100055FC0020FFF752FC3D20FFF74FFC002041
:102C2000FFF74CFC5D20FFF749FC0020FFF746FC56
:102C30005D20FFF743FC0020FFF740FCB120FFF7C9
:102C400049FC802002E0FDE310080020FFF736FC7D
:102C50000020FFF733FC8B20FFF730FC0020FFF74C
:102C60002DFC9620FFF72AFC0020FFF727FCB2205E
:102C7000FFF730FC0020FFF721FC0020FFF71EFCCF
:102C80000220FFF71BFC0020FFF718FC0320FFF7D2
:102C900015FC0020FFF712FCB320FFF71BFC0020FF
:102CA000FFF70CFC0020FFF709FC0020FFF706FCF3
:102CB0000020FFF703FC0020FFF700FC0020FFF7D7
:102CC000FDFB0020FFF7FAFB0020FFF7F7FB0020D9
:102CD000FFF7F4FB0020FFF7F1FB0020FFF7EEFB0E
:102CE0000020FFF7EBFB0020FFF7E8FB0020FFF7D9
:102CF000E5FB0020FFF7E2FB0020FFF7DFFB0020F1
:102D0000FFF7DCFB0020FFF7D9FB0020FFF7D6FB25
:102D10000020FFF7D3FB0020FFF7D0FB0020FFF7D8
:102D2000CDFB0020FFF7CAFB0020FFF7C7FBB42054
:102D3000FFF7D0FB8B20FFF7C1FB0020FFF7BEFBA6
:102D40009620FFF7BBFB0020FFF7B8FBA120FFF7A1
:102D5000B5FB0020FFF7B2FBB520FFF7BBFB02205D
:102D6000FFF7ACFB0020FFF7A9FB0320FFF7A6FB52
:102D70000020FFF7A3FB0420FFF7A0FB0020FFF7D4
:102D80009DFBB620FFF7A6FB0020FFF797FB002076
:102D9000FFF794FBB720FFF79DFB0020FFF78EFBAA
:102DA0000020FFF78BFB3F20FFF788FB0020FFF799
:102DB00085FB5E20FFF782FB0020FFF77FFB64208E
:102DC000FFF77CFB0020FFF779FB8C20FFF776FBF9
:102DD0000020FFF773FBAC20FFF770FB0020FFF72C
:102DE0006DFBDC20FFF76AFB0020FFF767FB70201C
:102DF000FFF764FB0020FFF761FB9020FFF75EFB0D
:102E00000020FFF75BFBEB20FFF758FB0020FFF7EC
:102E100055FBDC20FFF752FB0020FFF74FFBB820EB
:102E2000FFF758FB0020FFF749FB0020FFF746FBA8
:102E30000020FFF743FB0020FFF740FB0020FFF7D7
:102E40003DFB0020FFF73AFB0020FFF737FB002097
:102E5000FFF734FBBA20FFF73DFB2420FFF72EFBE2
:102E60000020FFF72BFB0020FFF728FB0020FFF7D7
:102E700025FBC120FFF72EFB2020FFF71FFB0020C2
:102E8000FFF71CFB5420FFF719FB0020FFF716FB90
:102E9000FF20FFF713FB0020FFF710FBC220FFF716
:102EA00019FB0A20FFF70AFB0020FFF707FB0420AD
:102EB000FFF704FB0020FFF701FBC320FFF70AFB2D
:102EC0003C20FFF7FBFA0020FFF7F8FA3A20FFF763
:102ED000F5FA0020FFF7F2FA3920FFF7EFFA0020A9
:102EE000FFF7ECFA3720FFF7E9FA0020FFF7E6FAE0
:102EF0003C20FFF7E3FA0020FFF7E0FA3620FFF767
:102F0000DDFA0020FFF7DAFA3220FFF7D7FA0020C7
:102F1000FFF7D4FA2F20FFF7D1FA0020FFF7CEFAFF
:102F20002C20FFF7CBFA0020FFF7C8FA2920FFF783
:102F3000C5FA0020FFF7C2FA2620FFF7BFFA0020EB
:102F4000FFF7BCFA2420FFF7B9FA0020FFF7B6FA22
:102F50002420FFF7B3FA0020FFF7B0FA2320FFF791
:102F6000ADFA0020FFF7AAFA3C20FFF7A7FA0020ED
:102F7000FFF7A4FA3620FFF7A1FA0020FFF79EFA28
:102F80003220FFF79BFA0020FFF798FA2F20FFF777
:102F900095FA0020FFF792FA2C20FFF78FFA002015
:102FA000FFF78CFA2920FFF789FA0020FFF786FA4D
:102FB0002620FFF783FA0020FFF780FA2420FFF78E
:102FC0007DFA0020FFF77AFA2420FFF777FA002035
:102FD000FFF774FA2320FFF771FA0020FFF76EFA6B
:102FE000C420FFF777FA6220FFF768FA0020FFF7A6
:102FF00065FA0520FFF762FA0020FFF75FFA8420E8
:10300000FFF75CFA0020FFF759FAF020FFF756FAB5
:103010000020FFF753FA1820FFF750FA0020FFF7BF
:103020004DFAA420FFF74AFA0020FFF747FA1820CC
:10303000FFF744FA0020FFF741FA5020FFF73EFA6D
:103040000020FFF73BFA0C20FFF738FA0020FFF7CB
:1030500035FA1720FFF732FA0020FFF72FFA9520F4
:10306000FFF72CFA0020FFF729FAF320FFF726FAE2
:103070000020FFF723FAE620FFF720FA0020FFF7F1
:103080001DFAC520FFF726FA3220FFF717FA0020B5
:10309000FFF714FA4420FFF711FA0020FFF70EFAA9
:1030A0006520FFF70BFA0020FFF708FA7620FFF7FC
:1030B00005FA0020FFF702FA8820FFF7FFF9002049
:1030C000FFF7FCF9C620FFF705FA2020FFF7F6F915
:1030D0000020FFF7F3F91720FFF7F0F90020FFF7C2
:1030E000EDF90120FFF7EAF90020FFF7E7F9C72023
:1030F000FFF7F0F90020FFF7E1F90020FFF7DEF914
:103100000020FFF7DBF90020FFF7D8F9C820FFF710
:10311000E1F90020FFF7D2F90020FFF7CFF90020F6
:10312000FFF7CCF90020FFF7C9F9C920FFF7D2F962
:103130000020FFF7C3F90020FFF7C0F90020FFF7D8
:10314000BDF90020FFF7BAF90020FFF7B7F900201A
:10315000FFF7B4F90020FFF7B1F90020FFF7AEF94F
:103160000020FFF7ABF90020FFF7A8F90020FFF7D8
:10317000A5F90020FFF7A2F90020FFF79FF9002032
:10318000FFF79CF90020FFF799F90020FFF796F967
:10319000E020FFF79FF91620FFF790F90020FFF7D6
:1031A0008DF91C20FFF78AF90020FFF787F921200D
:1031B000FFF784F90020FFF781F93620FFF77EF949
:1031C0000020FFF77BF94620FFF778F90020FFF792
:1031D00075F95220FFF772F90020FFF76FF96420AC
:1031E000FFF76CF90020FFF769F97A20FFF766F91D
:1031F0000020FFF763F98B20FFF760F90020FFF74D
:103200005DF99920FFF75AF90020FFF757F9A82038
:10321000FFF754F90020FFF751F9B920FFF74EF9F5
:103220000020FFF74BF9C420FFF748F90020FFF713
:1032300045F9CA20FFF742F90020FFF73FF9D220F5
:10324000FFF73CF90020FFF739F9D920FFF736F9ED
:103250000020FFF733F9E020FFF730F90020FFF7F7
:103260002DF9F320FFF72AF90020FFF727F9E120D5
:10327000FFF730F91620FFF721F90020FFF71EF9BC
:103280001C20FFF71BF90020FFF718F92220FFF799
:1032900015F90020FFF712F93620FFF70FF900208B
:1032A000FFF70CF94520FFF709F90020FFF706F9B1
:1032B0005220FFF703F90020FFF700F96420FFF721
:1032C000FDF80020FFF7FAF87A20FFF7F7F8002062
:1032D000FFF7F4F88B20FFF7F1F80020FFF7EEF886
:1032E0009920FFF7EBF80020FFF7E8F8A820FFF798
:1032F000E5F80020FFF7E2F8B920FFF7DFF800203B
:10330000FFF7DCF8C420FFF7D9F80020FFF7D6F864
:10331000CA20FFF7D3F80020FFF7D0F8D220FFF73C
:10332000CDF80020FFF7CAF8D820FFF7C7F8002033
:10333000FFF7C4F8E020FFF7C1F80020FFF7BEF860
:10334000F320FFF7BBF80020FFF7B8F8E22000E019
:1033500082E3FFF7BFF80520FFF7B0F80020FFF782
:10336000ADF80B20FFF7AAF80020FFF7A7F81B2005
:10337000FFF7A4F80020FFF7A1F83420FFF79EF82C
:103380000020FFF79BF84420FFF798F80020FFF794
:1033900095F84F20FFF792F80020FFF78FF8612093
:1033A000FFF78CF80020FFF789F87920FFF786F8FF
:1033B0000020FFF783F88820FFF780F80020FFF750
:1033C0007DF89720FFF77AF80020FFF777F8A6201E
:1033D000FFF774F80020FFF771F8B720FFF76EF8D9
:1033E0000020FFF76BF8C220FFF768F80020FFF716
:1033F00065F8C720FFF762F80020FFF75FF8D120DB
:10340000FFF75CF80020FFF759F8D620FFF756F8D1
:103410000020FFF753F8DD20FFF750F80020FFF7FA
:103420004DF8F320FFF74AF80020FFF747F8E320B4
:10343000FFF750F80520FFF741F80020FFF73EF8AE
:103440000A2000E006E3FFF739F80020FFF736F81E
:103450001C20FFF733F80020FFF730F83320FFF788
:103460002DF80020FFF72AF84420FFF727F8002066
:10347000FFF724F85020FFF721F80020FFF71EF88F
:103480006220FFF71BF80020FFF718F87820FFF7FD
:1034900015F80020FFF712F88820FFF70FF800203A
:1034A000FFF70CF89720FFF709F80020FFF706F860
:1034B000A620FFF703F80020FFF700F8B720FEF77B
:1034C000FDFF0020FEF7FAFFC220FEF7F7FF002005
:1034D000FEF7F4FFC720FEF7F1FF0020FEF7EEFF36
:1034E000D120FEF7EBFF0020FEF7E8FFD520FEF726
:1034F000E5FF0020FEF7E2FFDD20FEF7DFFF002002
:10350000FEF7DCFFF320FEF7D9FF0020FEF7D6FF21
:10351000E420FEF7DFFF0120FEF7D0FF0020FEF7DA
:10352000CDFF0120FEF7CAFF0020FEF7C7FF0220F3
:10353000FEF7C4FF0020FEF7C1FF2A20FEF7BEFF02
:103540000020FEF7BBFF3C20FEF7B8FF0020FEF78F
:10355000B5FF4B20FEF7B2FF0020FEF7AFFF5D2066
:10356000FEF7ACFF0020FEF7A9FF7420FEF7A6FFD0
:103570000020FEF7A3FF8420FEF7A0FF0020FEF747
:103580009DFF9320FEF79AFF0020FEF797FFA220F1
:10359000FEF794FF0020FEF791FFB320FEF78EFFA9
:1035A0000020FEF78BFFBE20FEF788FF0020FEF70D
:1035B00085FFC420FEF782FF0020FEF77FFFCD20AD
:1035C000FEF77CFF0020FEF779FFD320FEF776FFA1
:1035D0000020FEF773FFDD20FEF770FF0020FEF7EE
:1035E0006DFFF320FEF76AFF0020FEF767FFE5207E
:1035F000FEF770FF0020FEF761FF0020FEF75EFF80
:103600000020FEF75BFF0020FEF758FF0220FEF7C8
:1036100055FF0020FEF752FF2920FEF74FFF002044
:10362000FEF74CFF3C20FEF749FF0020FEF746FF67
:103630004B20FEF743FF0020FEF740FF5D20FEF722
:103640003DFF0020FEF73AFF7420FEF737FF002011
:10365000FEF734FF8420FEF731FF0020FEF72EFF37
:103660009320FEF72BFF0020FEF728FFA220FEF795
:1036700025FF0020FEF722FFB320FEF71FFF0020EA
:10368000FEF71CFFBE20FEF719FF0020FEF716FF15
:10369000C420FEF713FF0020FEF710FFCD20FEF739
:1036A0000DFF0020FEF70AFFD320FEF707FF0020E2
:1036B000FEF704FFDC20FEF701FF0020FEF7FEFE10
:1036C000F320FEF7FBFE0020FEF7F8FEE620FEF7F3
:1036D00001FF1120FEF7F2FE0020FEF7EFFE34207E
:1036E000FEF7ECFE0020FEF7E9FE5620FEF7E6FEB0
:1036F0000020FEF7E3FE7620FEF7E0FE0020FEF756
:10370000DDFE7720FEF7DAFE0020FEF7D7FE66200A
:10371000FEF7D4FE0020FEF7D1FE8820FEF7CEFE95
:103720000020FEF7CBFE9920FEF7C8FE0020FEF732
:10373000C5FEBB20FEF7C2FE0020FEF7BFFE9920AB
:10374000FEF7BCFE0020FEF7B9FE6620FEF7B6FECF
:103750000020FEF7B3FE5520FEF7B0FE0020FEF776
:10376000ADFE5520FEF7AAFE0020FEF7A7FE45207D
:10377000FEF7A4FE0020FEF7A1FE4320FEF79EFE0A
:103780000020FEF79BFE4420FEF798FE0020FEF787
:1037900095FEE720FEF79EFE3220FEF78FFE00200A
:1037A000FEF78CFE5520FEF789FE0020FEF786FE10
:1037B0007620FEF783FE0020FEF780FE6620FEF7EF
:1037C0007DFE0020FEF77AFE6720FEF777FE0020E0
:1037D000FEF774FE6720FEF771FE0020FEF76EFE16
:1037E0008720FEF76BFE0020FEF768FE9920FEF7AB
:1037F00065FE0020FEF762FEBB20FEF75FFE0020A4
:10380000FEF75CFE9920FEF759FE0020FEF756FEFB
:103810007720FEF753FE0020FEF750FE4420FEF70F
:103820004DFE0020FEF74AFE5620FEF747FE002020
:10383000FEF744FE2320FEF741FE0020FEF73EFE89
:103840003320FEF73BFE0020FEF738FE4520FEF752
:1038500035FE0020FEF732FEE820FEF73BFE00209A
:10386000FEF72CFE0020FEF729FE9920FEF726FE2B
:103870000020FEF723FE8720FEF720FE0020FEF743
:103880001DFE8820FEF71AFE0020FEF717FE7720A7
:10389000FEF714FE0020FEF711FE6620FEF70EFE76
:1038A0000020FEF70BFE8820FEF708FE0020FEF742
:1038B00005FEAA20FEF702FE0020FEF7FFFDBB205A
:1038C000FEF7FCFD0020FEF7F9FD9920FEF7F6FD5E
:1038D0000020FEF7F3FD6620FEF7F0FD0020FEF766
:1038E000EDFD5520FEF7EAFD0020FEF7E7FD55202F
:1038F000FEF7E4FD0020FEF7E1FD4420FEF7DEFDCB
:103900000020FEF7DBFD4420FEF7D8FD0020FEF787
:10391000D5FD5520FEF7D2FD0020FEF7CFFDE920B2
:10392000FEF7D8FDAA20FEF7C9FD0020FEF7C6FD70
:103930000020FEF7C3FD0020FEF7C0FD0020FEF7CB
:10394000C9FDAA20FEF7BAFDCF20FEF7C3FD002077
:10395000FEF7B4FD0020FEF7B1FD0020FEF7AEFD3E
:103960000020FEF7ABFD0020FEF7A8FD0020FEF7CB
:10397000A5FD0020FEF7A2FD0020FEF79FFD002020
:10398000FEF79CFD0020FEF799FD0020FEF796FD56
:103990000020FEF793FD0020FEF790FD0020FEF7CB
:1039A0008DFD0020FEF78AFD0020FEF787FD002038
:1039B000FEF784FDF020FEF78DFD0020FEF77EFD72
:1039C0005020FEF77BFD0020FEF778FD0020FEF77B
:1039D00075FD0020FEF772FDF320FEF77BFD002051
:1039E000FEF76CFDF920FEF775FD0620FEF766FD7B
:1039F0001020FEF763FD2920FEF760FD0020FEF792
:103A00005DFD3A20FEF766FD5520FEF757FD1120BB
:103A1000FEF760FD6420FDF711FC2920FEF75AFD3A
:103A20003520FEF757FD0020FEF748FD5120FEF738
:103A300051FDFF20FEF742FD5320FEF74BFD2C20E9
:103A4000FEF73CFD5520FEF745FD8220FEF736FDD2
:103A50002C20FCE3A8427CD14FF47043552118463A
:103A6000FEF74EFD4FF2010AAA215046FEF748FD2F
:103A70004FF2020B52215846FEF742FD08214FF249
:103A80000300FEF73DFD01214FF20400FEF738FD73
:103A90000D214FF43040FEF733FD0D214BF20100B4
:103AA000FEF72EFD0D214BF20200FEF729FD342119
:103AB0004FF43640FEF724FD34214BF20160FEF74F
:103AC0001FFD34214BF20260FEF71AFD0D214FF469
:103AD0003140FEF715FD0D214BF20110FEF710FDF0
:103AE0000D214BF20210FEF70BFD34214FF437404D
:103AF000FEF706FD34214BF20170FEF701FD342183
:103B00004BF20270FEF7FCFC00214FF43240FEF74E
:103B1000F7FC00214BF20120FEF7F2FC00214BF2F2
:103B20000220FEF7EDFC24214FF43840FEF7E8FCBC
:103B300024214BF60100FEF7E3FC24214BF60200A2
:103B4000FEF7DEFC01214FF43F40FEF7D9FC0F21C8
:103B500000E0FDE34FF43340FEF7D2FC0F214BF2BF
:103B60000130FEF7CDFC0F214BF20230FEF7C8FC0E
:103B700034214FF43940FEF7C3FC34214BF60110D9
:103B8000FEF7BEFC34214BF60210FEF7B9FC08210B
:103B90004FF43540FEF7B4FC08214BF20150FEF71C
:103BA000AFFC08214BF20250FEF7AAFC03214FF4B0
:103BB0004240FEF7A5FC24214FF43A40FEF7A0FC5A
:103BC00024214BF60120FEF79BFC24214BF602201A
:103BD000FEF796FC00214FF43C40FEF791FC782163
:103BE0004BF60140FEF78CFC00214BF60240FEF73D
:103BF00087FC00214FF43D40FEF782FC78214BF614
:103C00000150FEF77DFC00214BF60250FEF778FCD8
:103C100000214FF43E40FEF773FC64214BF6016037
:103C2000FEF76EFC00214FF45140FEF769FC332192
:103C30004DF20110FEF764FC00214DF20210FEF778
:103C40005FFC34214DF20310FEF75AFC00214DF2C7
:103C50000410FEF755FC3A214DF20510FEF750FC1A
:103C600000214DF20610FEF74BFC4A214DF20710E1
:103C7000FEF746FC00214DF20810FEF741FC5C21E6
:103C80004DF20910FEF73CFC00214DF20A10FEF740
:103C900037FC81214DF20B10FEF732FC00214DF272
:103CA0000C10FEF72DFCA6214DF20D10FEF728FC9E
:103CB00000214DF20E10FEF723FCE5214DF20F100E
:103CC000FEF71EFC01214DF21010FEF719FC132126
:103CD0004DF21110FEF714FC01214DF21210FEF707
:103CE0000FFC54214DF21310FEF70AFC01214DF296
:103CF0001410FEF705FC82214DF21510FEF700FCB2
:103D000001214DF21610FEF7FBFBCA214DF21710F0
:103D1000FEF7F6FB02214DF21810FEF7F1FB002131
:103D20004DF21910FEF7ECFB02214DF21A10FEF7CE
:103D3000E7FB01214DF21B10FEF7E2FB02214DF2E1
:103D40001C10FEF7DDFB34214DF21D10FEF7D8FBF1
:103D500002214DF21E10FEF7D3FB67214DF21F101A
:103D6000FEF7CEFB02214DF22010FEF7C9FB8421A5
:103D70004DF22110FEF7C4FB02214DF22210FEF796
:103D8000BFFBA4214DF22310FEF7BAFB02214DF236
:103D90002410FEF7B5FBB7214DF22510FEF7B0FB5E
:103DA00002214DF22610FEF7ABFBCF214DF227107A
:103DB000FEF7A6FB02214DF22810FEF7A1FBDE2143
:103DC0004DF22910FEF79CFB02214DF22A10FEF75E
:103DD00097FBF2214DF22B10FEF792FB02214DF2E0
:103DE0002C10FEF78DFBFE214DF22D10FEF788FB07
:103DF00003214DF22E10FEF783FB10214DF22F1000
:103E0000FEF77EFB03214DF23010FEF779FB3321E4
:103E10004DF23110FEF774FB03214DF23210FEF724
:103E20006FFB6D214DF23310FEF76AFB00214FF45A
:103E30005240FEF765FB33214DF20120FEF760FB97
:103E400000214DF20220FEF75BFB34214DF20320EE
:103E5000FEF756FB00214DF20420FEF751FB3A21FC
:103E60004DF20520FEF74CFB00214DF20620FEF737
:103E700047FB4A214DF20720FEF742FB00214DF29D
:103E80000820FEF73DFB5C214DF20920FEF738FBD0
:103E900000214DF20A20FEF733FB81214DF20B2069
:103EA000FEF72EFB00214DF20C20FEF729FBA62188
:103EB0004DF20D20FEF724FB00214DF20E20FEF7FF
:103EC0001FFBE5214DF20F20FEF71AFB01214DF2F9
:103ED0001020FEF715FB13214DF21120FEF710FB09
:103EE00001214DF21220FEF70BFB54214DF213205D
:103EF000FEF706FB01214DF21420FEF701FB8221A3
:103F00004DF21520FEF7FCFA01214DF21620FEF7C6
:103F1000F7FACA214DF21720FEF7F2FA02214DF20C
:103F20001820FEF7EDFA00214DF21920FEF7E8FA0D
:103F300002214DF21A20FEF7E3FA01214DF21B2077
:103F4000FEF7DEFA02214DF21C20FEF7D9FA3421E9
:103F50004DF21D20FEF7D4FA02214DF21E20FEF78D
:103F6000CFFA67214DF21F20FEF7CAFA02214DF267
:103F70002020FEF7C5FA84214DF22120FEF7C0FA79
:103F800002214DF22220FEF7BBFAA4214DF223209C
:103F9000FEF7B6FA02214DF22420FEF7B1FAB7215E
:103FA0004DF22520FEF7ACFA02214DF22620FEF755
:103FB000A7FACF214DF22720FEF7A2FA02214DF2F7
:103FC0002820FEF79DFADE214DF22920FEF798FA0F
:103FD00002214DF22A20FEF793FAF2214DF22B2016
:103FE000FEF78EFA02214DF22C20FEF789FAFE210F
:103FF0004DF22D20FEF784FA03214DF22E20FEF71C
:104000007FFA10214DF22F20FEF77AFA03214DF2AC
:104010003020FEF775FA33214DF23120FEF770FAA9
:1040200003214DF23220FEF76BFA6D214DF2332061
:10403000FEF766FA00214FF45340FEF761FA332190
:104040004DF20130FEF75CFA00214DF20230FEF72E
:1040500057FA34214DF20330FEF752FA00214DF2A7
:104060000430FEF74DFA3A214DF20530FEF748FADA
:1040700000214DF20630FEF743FA4A214DF2073097
:10408000FEF73EFA00214DF20830FEF739FA5C21C6
:104090004DF20930FEF734FA00214DF20A30FEF7F6
:1040A0002FFA81214DF20B30FEF72AFA00214DF252
:1040B0000C30FEF725FAA6214DF20D30FEF720FA5E
:1040C00000214DF20E30FEF71BFAE5214DF20F30C4
:1040D000FEF716FA01214DF21030FEF711FA132106
:1040E0004DF21130FEF70CFA01214DF21230FEF7BD
:1040F00007FA54214DF21330FEF702FA01214DF276
:104100001430FEF7FDF982214DF21530FEF7F8F973
:1041100001214DF21630FEF7F3F9CA214DF21730A6
:10412000FEF7EEF902214DF21830FEF7E9F9002111
:104130004DF21930FEF7E4F902214DF21A30FEF784
:10414000DFF901214DF21B30FEF7DAF902214DF2C1
:104150001C30FEF7D5F934214DF21D30FEF7D0F9B1
:1041600002214DF21E30FEF7CBF967214DF21F30D0
:10417000FEF7C6F902214DF22030FEF7C1F9842185
:104180004DF22130FEF7BCF902214DF22230FEF74C
:10419000B7F9A4214DF22330FEF7B2F902214DF216
:1041A0002430FEF7ADF9B7214DF22530FEF7A8F91E
:1041B00002214DF22630FEF7A3F9CF214DF2273030
:1041C000FEF79EF902214DF22830FEF799F9DE2123
:1041D0004DF22930FEF794F902214DF22A30FEF714
:1041E0008FF9F2214DF22B30FEF78AF902214DF2C0
:1041F0002C30FEF785F9FE214DF22D30FEF780F9C7
:1042000003214DF22E30FEF77BF910214DF22F30B5
:10421000FEF776F903214DF23030FEF771F93321C4
:104220004DF23130FEF76CF903214DF23230FEF7DA
:1042300067F96D214DF23330FEF762F900214FF43A
:104240005440FEF75DF933214DF2014000E084E374
:10425000FEF756F900214DF20240FEF751F93421E4
:104260004DF20340FEF74CF900214DF20440FEF7F9
:1042700047F93A214DF20540FEF742F900214DF28F
:104280000640FEF73DF94A214DF20740FEF738F9A6
:1042900000214DF20840FEF733F95C214DF2094050
:1042A000FEF72EF900214DF20A40FEF729F981218F
:1042B0004DF20B40FEF724F900214DF20C40FEF7C1
:1042C0001FF9A6214DF20D40FEF71AF900214DF21B
:1042D0000E40FEF715F9E5214DF20F40FEF710F9FB
:1042E00001214DF21040FEF70BF913214DF2114060
:1042F000FEF706F901214DF21240FEF701F95421B3
:104300004DF21340FEF7FCF801214DF21440FEF788
:10431000F7F882214DF21540FEF7F2F801214DF237
:104320001640FEF7EDF8CA214DF21740FEF7E8F807
:1043300002214DF21840FEF7E3F800214DF219403A
:10434000FEF7DEF802214DF21A40FEF7D9F800E040
:1043500006E301214DF21B40FEF7D2F802214DF297
:104360001C40FEF7CDF834214DF21D40FEF7C8F891
:1043700002214DF21E40FEF7C3F867214DF21F40A7
:10438000FEF7BEF802214DF22040FEF7B9F8842175
:104390004DF22140FEF7B4F802214DF22240FEF723
:1043A000AFF8A4214DF22340FEF7AAF802214DF206
:1043B0002440FEF7A5F8B7214DF22540FEF7A0F8FE
:1043C00002214DF22640FEF79BF8CF214DF2274007
:1043D000FEF796F802214DF22840FEF791F8DE2113
:1043E0004DF22940FEF78CF802214DF22A40FEF7EB
:1043F00087F8F2214DF22B40FEF782F802214DF2B0
:104400002C40FEF77DF8FE214DF22D40FEF778F8A6
:1044100003214DF22E40FEF773F810214DF22F408C
:10442000FEF76EF803214DF23040FEF769F83321B4
:104430004DF23140FEF764F803214DF23240FEF7B1
:104440005FF86D214DF23340FEF75AF800214FF42A
:104450005540FEF755F833214DF20150FEF750F864
:1044600000214DF20250FEF74BF834214DF203507B
:10447000FEF746F800214DF20450FEF741F83A21CC
:104480004DF20550FEF73CF800214DF20650FEF7C4
:1044900037F84A214DF20750FEF732F800214DF26D
:1044A0000850FEF72DF85C214DF20950FEF728F870
:1044B00000214DF20A50FEF723F881214DF20B50F6
:1044C000FEF71EF800214DF20C50FEF719F8A62158
:1044D0004DF20D50FEF714F800214DF20E50FEF78C
:1044E0000FF8E5214DF20F50FEF70AF801214DF2C9
:1044F0001050FEF705F813214DF21150FEF700F8A9
:1045000001214DF21250FDF7FBFF54214DF21350E3
:10451000FDF7F6FF01214DF21450FDF7F1FF822166
:104520004DF21550FDF7ECFF01214DF21650FDF74D
:10453000E7FFCA214DF21750FDF7E2FF02214DF2CD
:104540001850FDF7DDFF00214DF21950FDF7D8FF9F
:1045500002214DF21A50FDF7D3FF01214DF21B50FD
:10456000FDF7CEFF02214DF21C50FDF7C9FF3421AB
:104570004DF21D50FDF7C4FF02214DF21E50FDF714
:10458000BFFF67214DF21F50FDF7BAFF02214DF228
:104590002050FDF7B5FF84214DF22150FDF7B0FF0B
:1045A00002214DF22250FDF7ABFFA4214DF2235022
:1045B000FDF7A6FF02214DF22450FDF7A1FFB72120
:1045C0004DF22550FDF79CFF02214DF22650FDF7DC
:1045D00097FFCF214DF22750FDF792FF02214DF2B8
:1045E0002850FDF78DFFDE214DF22950FDF788FFA1
:1045F00002214DF22A50FDF783FFF2214DF22B509C
:10460000FDF77EFF02214DF22C50FDF779FFFE21D0
:104610004DF22D50FDF774FF03214DF22E50FDF7A2
:104620006FFF10214DF22F50FDF76AFF03214DF26D
:104630003050FDF765FF33214DF23150FDF760FF3B
:1046400003214DF23250FDF75BFF6D214DF23350E7
:10465000FDF756FF00214FF45640FDF751FF33217F
:104660004DF20160FDF74CFF00214DF20260FDF7B5
:1046700047FF34214DF20360FDF742FF00214DF268
:104680000460FDF73DFF3A214DF20560FDF738FF6C
:1046900000214DF20660FDF733FF4A214DF207601D
:1046A000FDF72EFF00214DF20860FDF729FF5C2188
:1046B0004DF20960FDF724FF00214DF20A60FDF77D
:1046C0001FFF81214DF20B60FDF71AFF00214DF213
:1046D0000C60FDF715FFA6214DF20D60FDF710FFF0
:1046E00000214DF20E60FDF70BFFE5214DF20F604A
:1046F000FDF706FF01214DF21060FDF701FF1321C8
:104700004DF21160FDF7FCFE01214DF21260FDF744
:10471000F7FE54214DF21360FDF7F2FE01214DF238
:104720001460FDF7EDFE82214DF21560FDF7E8FE05
:1047300001214DF21660FDF7E3FECA214DF217602C
:10474000FDF7DEFE02214DF21860FDF7D9FE0021D3
:104750004DF21960FDF7D4FE02214DF21A60FDF70B
:10476000CFFE01214DF21B60FDF7CAFE02214DF282
:104770001C60FDF7C5FE34214DF21D60FDF7C0FE43
:1047800002214DF21E60FDF7BBFE67214DF21F6056
:10479000FDF7B6FE02214DF22060FDF7B1FE842147
:1047A0004DF22160FDF7ACFE02214DF22260FDF7D3
:1047B000A7FEA4214DF22360FDF7A2FE02214DF2D7
:1047C0002460FDF79DFEB7214DF22560FDF798FEB0
:1047D00002214DF22660FDF793FECF214DF22760B6
:1047E000FDF78EFE02214DF22860FDF789FEDE21E5
:1047F0004DF22960FDF784FE02214DF22A60FDF79B
:104800007FFEF2214DF22B60FDF77AFE02214DF280
:104810002C60FDF775FEFE214DF22D60FDF770FE58
:1048200003214DF22E60FDF76BFE10214DF22F603B
:10483000FDF766FE03214DF23060FDF761FE332186
:104840004DF23160FDF75CFE03214DF23260FDF761
:1048500057FE6D214DF23360FDF752FE552118468B
:10486000FDF74EFEAA215046FDF74AFE522158465A
:10487000FDF746FE08214FF20300FDF741FE00213F
:104880004FF20400FDF73CFECC214FF43140FDF720
:1048900037FE00214BF20110FDF732FE05214FF4E7
:1048A0003640FDF72DFE70214FF43740FDF728FE0E
:1048B00070214BF20170FDF723FE01214FF43840C7
:1048C000FDF71EFE03214BF60100FDF719FE032143
:1048D0004BF60200FDF714FE03214BF60300FDF733
:1048E0000FFE02214FF43C40FDF70AFE00214BF67B
:1048F0000140FDF705FE00214BF60240FDF700FEEA
:10490000D0214FF44940FDF7FBFD02214CF6011088
:10491000FDF7F6FD50214CF60210FDF7F1FD502198
:104920004CF60310FDF7ECFD50214CF60410FDF79A
:10493000E7FD00214FF45450FDF7E2FD55214FF4FF
:104940006850FDF7DDFD4FF48850FDF7C3FD77207B
:10495000401EC0B2FCD24FF42450FDF7BBFDBAE0BC
:104960004045FCD1E220FDF7B5FD1D20FDF7A6FD79
:104970000220FDF7A3FD0420FDF7A0FD6320401EEB
:10498000C0B2FCD2E020FDF7A5FD0120FDF796FDA9
:104990000A20FCF753FCE020FDF79CFD0320FDF707
:1049A0008DFD0C20FCF74AFC0120FDF793FD0A2049
:1049B000FCF744FCE620FDF78DFD2F20FDF77EFD82
:1049C000FF20FDF77BFDFF20FDF778FDB020FDF710
:1049D00081FD2020FDF772FD0020FDF76FFD032013
:1049E000FDF76CFD40F21F30FDF768FD0120FDF77B
:1049F00065FD40F2DF10FDF761FD0020FDF75EFD73
:104A0000B420FDF767FD0420FDF758FD40F21F407C
:104A1000FDF754FD0020FDF751FD2E20FDF74EFD62
:104A20000020FDF74BFD0020FDF748FD0020FDF7BD
:104A300045FD0020FDF742FDB620FDF74BFD0220AD
:104A4000FDF73CFD4FF40370FDF738FD0020FDF746
:104A500035FD1720FDF732FD1520FDF72FFD002055
:104A6000FDF72CFD0020FDF729FDF020FDF732FDBC
:104A70000320FDF723FD2920FDF72CFDD020FDF7B5
:104A800029FD0020FDF71AFDBE20FDF723FD0520BE
:104A9000FDF714FDFE20FDF711FD0120FDF70EFDD1
:104AA0000020FDF70BFD0020FDF708FD0020FDF7BD
:104AB00005FDB820FDF70EFD0320FDF7FFFC0120EA
:104AC000FDF7FCFCBA20FDF705FD0120FDF7F6FC23
:104AD0006420FDF7D9FAA088B04205D0B84203D0CF
:104AE000A84201D0404519D14FF02040D0F81C1108
:104AF00021F00F01C0F81C11D0F81C1121F47061D5
:104B0000C0F81C11D0F81C1141F00301C0F81C11B1
:104B1000D0F81C1141F40071C0F81C110020FDF701
:104B200053F90548016841F4004101604846BDE879
:104B3000F05FFDF72FB900001404024070B5044681
:104B400000680169E26821F4405111430161216963
:104B5000A068E26908436169114308432168CA6893
:104B600049F20C639A430243CA6020684169A26912
:104B700021F440711143416131492068884202D0DB
:104B80003049884202D1FCF707FE01E0FCF7F4FD52
:104B9000E2690023192164253226B2F5004F6268CC
:104BA00028D0A0FB0101930F9200FBF70BFB0146FD
:104BB000B0FBF5F06FF01802504301EB800006EBFC
:104BC0000010B0FBF5F000F0F002B1FBF5F002EBE5
:104BD0000012B1FBF5F06FF01803584301EB8000B1
:104BE00006EB0010B0FBF5F000F00F002168104458
:104BF000886070BDA0FB010192185B41FBF7E2FAEF
:104C00000146B0FBF5F00201B1FBF5F06FF01803BF
:104C1000584301EB800006EBC000B0FBF5F000F05C
:104C2000F80002EB4002B1FBF5F0584301EB8000C5
:104C300006EBC000B0FBF5F000F00700D6E700007F
:104C400000100140001401402DE9F041984617463C
:104C50000E460446069D27E0681C25D02DB1FCF7C2
:104C600051FCA0EB0800A8421ED920680C3050E887
:104C7000001F21F4D07140E80012002AF5D120680D
:104C8000143050E8001F21F0010140E80012002A12
:104C9000F5D1202084F83D0084F83E00002084F8FF
:104CA0003C000320BDE8F0812068006836EA00007F
:104CB00004D00020B842CFD00020F3E70120F9E76C
:104CC000FEE700000FB4054B10B503A9044A029893
:104CD00000F0EAF810BC5DF814FB0000B1550008C4
:104CE0002C0000200907090E002804DB00F1E02059
:104CF00080F80014704700F00F0000F1E02080F809
:104D0000141D704702E008C8121F08C1002AFAD11A
:104D100070477047002001E001C1121F002AFBD13B
:104D2000704700002DE9FF5F82B00021DDE904300B
:104D3000020DDDF840B0034318D044F61050A2F243
:104D4000FF3242431514119801281FD0A5EB0B0028
:104D5000401C5FEA000A4FF000064E4FDFF8389122
:104D6000B046504615D5CAF1000413E0119801244D
:104D70004AA3012801D16FEA0B010298119AC0E9F8
:104D80000031C0E9024206B0BDE8F09FCBF100005F
:104D9000DFE704460021404A491842EB0450CDE9C0
:104DA000001012E0E00707D032463B464046494635
:104DB000FBF74BFA8046894632463B461046194679
:104DC000FBF743FA06460F466410002CEAD1DDE9F2
:104DD0000401DDE90023BAF1000F06DAFBF735FA2A
:104DE00042464B46FBF731FA05E0FBF712FC424620
:104DF0004B46FBF70EFC04460E460022284BFBF701
:104E00008FFC03D84FF0FF30014607E00022254B0E
:104E100020463146FBF756FBFBF76AFC102409E0FD
:104E2000002C0ADB0A220023FBF7CCF9039B30326B
:104E30001A55641E50EA0102F2D1641C039AC4F1AF
:104E400011031444119A012A03D0012208430DD101
:104E50000AE0084304D000204FF0110B119072E7D4
:104E6000A3EB0B056D1E0DE05B4504DD4FF000026A
:104E700005F1010504E003DA4FF00002A5F1010598
:104E8000002AECD002981199C0E90231C0E900452E
:104E900079E70000000014400000F03F30000000FF
:104EA0000000F0430000E03F2DE9FF4F95B09A4627
:104EB000884606460025EEE1252877D100242746BE
:104EC000F94A0121039400E0044316F8013F203B16
:104ED00001FA03F01042F7D130782A2811D06FF090
:104EE0002F033078A0F13002092A16D8039A44F033
:104EF000020402EB820203EB42021044761C039090
:104F0000EFE758F8042B0392002A03DA504244F4E6
:104F10000054039044F00204761C30782E2816D1F9
:104F200016F8010F44F004042A280DD06FF02F0268
:104F30003078A0F13003092B09D807EB870302EB87
:104F40004303C718761CF3E758F8047B761C3078C7
:104F50006C280FD006DC4C2817D068280DD06A28A2
:104F600014D104E0742810D07A280FD10DE044F455
:104F700000140AE044F4801401E044F44014727810
:104F8000824202D104F58014761C761C30786628A3
:104F90000BD013DC582877D009DC002875D04528C1
:104FA000F6D04628F4D047281AD193E118E06328B8
:104FB00035D0642879D0652812D18BE1702873D060
:104FC00008DC6728F1D069286FD06E280DD06F28D3
:104FD00006D1ACE073282CD0752874D0782853D033
:104FE0005246179990476D1C54E1C4F302500228B1
:104FF00009D003280DD0D8F8001004280DD00D607A
:1050000008F1040846E1D8F80010EA17C1E9005297
:10501000F6E7D8F800100D80F2E70D70F0E718F809
:10502000041B8DF8001000208DF80100EB460120D4
:1050300003E058F804BB4FF0FF3061074FF0000168
:1050400002D40DE009F101018946B9420FDA814528
:10505000F8DB1BF809100029F4D108E009F101017F
:1050600089468142FADB1BF809100029F6D1039822
:105070005346A0EB090721463846179A00F080FAFC
:10508000284400EB090507E044E008E10DE01BF8C7
:10509000010B524617999047B9F10109F7D25346CF
:1050A00021463846179AF2E039E00A21C4F3025249
:1050B0004FF0000B0091022A06D058F8040BC117DC
:1050C000032A09D00AE023E008F1070020F00702D4
:1050D000F2E80201904605E000B2C117042A01D1AE
:1050E00040B2C117002906DA0A460021404261EBAE
:1050F00002012D2202E0220504D52B228DF8042086
:10510000012203E0E20701D02022F7E7914657E0B1
:105110000A2100E010214FF0000B00910BE010215C
:105120004FF0000B44F004040827009103E008202E
:105130004FF0000B0090C4F30252022A05D058F839
:10514000040B0021032A08D008E008F1070020F032
:105150000702F2E80201904603E080B2042A00D17F
:10516000C0B24FF0000922072AD53278702A07D042
:10517000DDF800C08CF0100C5CEA0B0C05D00EE0E2
:1051800040228DF80420012208E050EA010306D0F5
:1051900030238DF804308DF8052002229146009BC3
:1051A00083F0080353EA0B030AD150EA010201D14C
:1051B000620705D530228DF804204FF001097F1ECB
:1051C0003278582A04D039A20C920CAA02920BE031
:1051D0003BA2F9E75B46009AFAF7F4FF0C9B9B5C55
:1051E000029A521E0292137050EA0102F2D1029802
:1051F00004A9081A00F1200B600702D524F48034BA
:1052000000E001275F4502DDA7EB0B0000E0002076
:1052100000EB0B01009003984944401A0390E0030F
:1052200006D453462146179A039800F0A9F905447D
:10523000002706E001A85246C05D179990476D1CF3
:105240007F1C4F45F6DBE0030CD553462146179AE9
:10525000039800F095F9054404E030205246179970
:1052600090476D1C0099481E00900029F5DC08E06D
:105270000298029952460078491C0291179990476A
:105280006D1CBBF10001ABF1010BF1DC5BE100F047
:1052900065F90544761C307800287FF40DAE19B00E
:1052A0002846BDE8F08F0000092801003031323374
:1052B0003435363738396162636465660000000052
:1052C000303132333435363738394142434445463C
:1052D00000000000600700D4062708F1070020F056
:1052E0000700F0E80223804603F0004C5FEA0C0060
:1052F00001D097A009E0200501D596A005E0E007C0
:1053000001D095A001E0AFF24C001390307823F06B
:10531000004365280CD006DC452809D046281DD05E
:1053200047287FD13BE0662818D067287AD136E03D
:105330000021112F01DB112000E0781CCDE90001D4
:1053400004A90CA8FFF7EEFCDDE90D010C9A4FF063
:10535000000B07F10109109200914EE04FF0004060
:105360000097CDE9011004A90CA8FFF7DBFCDDE9EB
:105370000D020C9B0F994FF0000B91461093009279
:1053800011B9791C00EB0109B7EB090003D4C0F196
:10539000FF3B07F10109A9EB0700019042E0012F53
:1053A00000DA01270021112F01DD112000E038462D
:1053B000CDE9000104A90CA8FFF7B4FCDDE90D015B
:1053C0000C9A00914FF0000BB946109221070FD4B0
:1053D000009A4A4503DA914601E0A9F10109B9F1C1
:1053E000010F05DD109AA9F10101515C3029F4D0BB
:1053F000B84202DA10F1040F03DA0121CDE90110FD
:1054000010E0002803DC8344A9EB000102E0411C0A
:10541000494500DD8946A0EB0B00401C01904FF090
:1054200000400290200705D40198484502DB4FF068
:10543000FF30019000208DF84B0002980DF14B07D2
:10544000B0F1004F25D002200C902B200D90029837
:1054500000280CDA404202902D200D9007E00A212E
:105460000298FAF79DFF3031029007F8011D0C9960
:10547000481E0C900029F2DC02980028EFD1791E1A
:105480000D980870307800F0200040F0450007F8D3
:10549000020D11A8C01BC01D02901398007800B126
:1054A000012000EB0901019801EBE0710298014431
:1054B0000398401A401E0390E00306D45346214649
:1054C000179A039800F05CF805441398007818B117
:1054D0005246179990476D1CE00323D55346214649
:1054E000179A039800F04CF805441BE0BBF1000F3D
:1054F00007DB0098584504DD1098179910F80B0049
:1055000001E0179930205246904701980BF1010BAA
:10551000401E05F10105019004D12E205246179935
:1055200090476D1CB9F10001A9F10109DEDC05E02D
:1055300017F8010B5246179990476D1C0299481EA7
:1055400002900029F4DC53462146179A03989EE600
:105550002D0000002B000000200000002DE9F0418C
:10556000044600251E461746880404D405E0394643
:105570002020B0476D1C641EF9D52846BDE8F08197
:105580002DE9F041044600251E469046C80301D58A
:10559000302700E02027880404D505E0414638463E
:1055A000B0476D1C641EF9D52846BDE8F0810000A7
:1055B00038B504468DF800000223012269460248EE
:1055C000FCF78EFB204638BDCC07002010B50A49F9
:1055D00000200A4A4FF49F74C1F8000002EB8003D8
:1055E000401CD3ED010AA042C3ED000AF6DD0860BD
:1055F000034880ED3F0A10BD00000020300000206D
:10560000300400202DED028BFBF78AFFFDF7C4F874
:10561000FDF736F8FCF7DAFFFCF778FFFCF7B0FF90
:10562000FCF7EAFFFDF796F8FDF706F96422294931
:105630002948FBF77FFB9FED298A264F284D00263E
:10564000B0EE480A2E6085ED010A85ED020A344667
:10565000F0EE400A57F82400641C01EE100A57F8D7
:105660002400641CB8EE411A642C71EE200A01EE8D
:10567000100AB8EE411A31EE000AEBDB2C609FED08
:10568000191ADFED191A80EE812AC0EE012A62EEA6
:10569000210A9FED162A60EE820AC5ED010A10EE7E
:1056A000900A22EEA10A20EE020A85ED020AFAF71C
:1056B00064FE41EC100B0EA053EC102BFFF702FB25
:1056C00095ED010AFFF782FF00F016F80120FBF7C5
:1056D000B5FDB5E730050020C00600200000000041
:1056E000000000200000484233335340000080395E
:1056F000252E3566200D0A002DE9F04300242DEDFE
:10570000028B83B025464FF6FF70FCF743FB102653
:1057100026A0CDE900603346324605212D20FCF756
:10572000A3FE23A0CDE9006010231A4605217320B3
:10573000FCF79AFE1FA0CDE9006010231A46052150
:10574000A520FCF791FE1CA0CDE9006010231A46AD
:105750000521E120FCF788FE184840F23F11804601
:10576000DFF85C909FED178A0160084609EB800125
:10577000C0F5A07791ED000ABBB2A9B220EE080AED
:10578000A0B2BDEEC00A10EE106AB2B2FCF788FB00
:10579000D8F800003446401E3D46C8F80000E5D564
:1057A00003B0BDEC028BBDE8F08300003156000071
:1057B000325600003356000034560000000000202E
:1057C00030000020000070420000000000000000D7
:1057D00000000000000000003F400000000000004A
:1057E00000003000400030004000000009000BC005
:1057F0003D000BC03D00090018C024407FE022405E
:1058000031800000180024C01B000D803240018050
:1058100003801C4027401C800740004010006000AF
:1058200000000000000000000000000000001F80D9
:10583000204040200000402020401F800000000049
:10584000090006001F800600090000000400040093
:105850003F80040004000000001000600000000011
:105860000000000004000400040004000400000024
:10587000000000400000000000000000002001C007
:1058800006003800400000001F80204020402040DB
:105890001F800000000010403FC0004000000000DA
:1058A00018C02140224024401840000010802040B1
:1058B000244024401B80000002000D0011003FC066
:1058C000014000003C80244024402440238000000C
:1058D0001F8024402440344003800000300020001A
:1058E00027C03800200000001B80244024402440B2
:1058F0001B8000001C0022C0224022401F800000AC
:10590000000000000840000000000000000000004F
:105910000460000000000000000004000A00110004
:10592000208040400900090009000900090000002A
:1059300000004040208011000A00040018002000F0
:1059400023402400180000001F80204027402940E9
:105950001F400000004007C039000F0001C0004098
:1059600020403FC0244024401B8000001F80204076
:10597000204020403080000020403FC02040204098
:105980001F80000020403FC024402E4030C0000057
:1059900020403FC024402E00300000000F00108047
:1059A000204022403380020020403FC00400040019
:1059B0003FC02040204020403FC020402040000009
:1059C0000060202020203FC02000200020403FC059
:1059D00024400B0030C0204020403FC02040004009
:1059E000004000C03FC03C0003C03C003FC000007E
:1059F00020403FC00C4023003FC020001F802040BB
:105A0000204020401F80000020403FC02440240050
:105A1000180000001F802140214020E01FA000004E
:105A200020403FC02440260019C0004018C0244038
:105A30002440224031800000300020403FC0204000
:105A40003000000020003F80004000403F802000E8
:105A500020003E0001C0070038002000380007C0C9
:105A60003C0007C038000000204039C0060039C0A3
:105A7000204000002000384007C0384020000000CF
:105A8000304021C02640384020C000000000000007
:105A90007FE0402040200000000070000C000380E8
:105AA000004000000000402040207FE00000000097
:105AB0000000200040002000000000000010001046
:105AC0000010001000100010000000004000000056
:105AD00000000000000002800540054003C00040B7
