:020000040800F2
:100000002807002055020008512000088D10000824
:100010004D2000084D040008AD70000800000000ED
:10002000000000000000000000000000592000084F
:100030005104000800000000552000085D20000861
:100040006F0200086F0200086F0200086F020008CC
:100050006F0200086F0200086F0200086F020008BC
:100060006F0200086F0200086F0200086F020008AC
:100070006F0200086F0200086F0200086F0200089C
:100080006F0200086F0200086F0200086F0200088C
:100090006F0200086F0200086F0200086F0200087C
:1000A0006F0200086F0200086F0200086F0200086C
:1000B0006F0200086F0200086F0200086F0200085C
:1000C0006F0200086F0200086F0200086F0200084C
:1000D0006F0200086F0200086F0200086F0200083C
:1000E0006F0200086F0200086F0200086F0200082C
:1000F0006F0200086F0200086F0200086F0200081C
:100100006F0200086F0200086F0200086F0200080B
:100110006F0200086F0200086F0200086F020008FB
:100120006F0200086F0200086F0200086F020008EB
:100130006F0200086F0200086F0200086F020008DB
:100140006F0200086F0200086F0200086F020008CB
:100150006F0200086F0200086F0200086F020008BB
:100160006F0200086F0200086F0200086F020008AB
:100170006F0200086F0200086F0200080000000014
:100180006F0200086F02000800F002F800F052F859
:1001900014A696E8000CB244B344DA4501D100F04D
:1001A00049F8BAE80F000FA696E83000A5EB040561
:1001B00004EB0607AAEB0704A7F101074FEA1515A0
:1001C0004FEA3414A4F10104AC4201D300F032F838
:1001D00013F0010F18BFFB1A43F0010300F001F800
:1001E000DBE718476487000084870000103A24BFCB
:1001F00078C878C1FAD8520724BF30C830C144BF8C
:1002000004680C6070470000704700000023002461
:1002100000250026103A28BF78C1FBD8520728BF16
:1002200030C148BF0B6070471FB506F08DFF1FBD82
:1002300010B510BD00F0D0F81146FFF7F5FF06F03D
:1002400037FF00F0EEF803B4FFF7F2FF03BC00F055
:10025000F5F800000948804709480047FEE7FEE737
:10026000FEE7FEE7FEE7FEE7FEE7FEE7FEE7FEE766
:1002700004480549054A064B704700000D21000857
:1002800089010008280100202807002028030020F9
:100290002803002053EA020C00F069802DE9F04B9E
:1002A0004FF00006002B1FBFB3FA83F503FA05F4E5
:1002B00024FA05F65E4012BF1643B2FA82F502FA3E
:1002C00005F4C5F120051EBF22FA05FC44EA0C0422
:1002D000203556EA044C4FEA144418BF641C4FF012
:1002E00000084FF00009904271EB030C39D300294C
:1002F00019BFB1FA81F701FA07F6B0FA80F700FAF0
:1003000007F6C7F120071EBF20FA07FC46EA0C06D5
:100310002037B6FBF4FCA7EB0507103F07F01F0BD7
:10032000CBF120062CFA06F60CFA0BFB44BFB346C1
:100330000026202FA4BF5E464FF0000B5BEA060CA0
:1003400008BF4FF0010B19EB0B0948EB0608ABFB9C
:10035000027C06FB02CC0BFB03CCC01B71EB0C0137
:10036000C1E70B46024641464846BDE8F08B13B54F
:10037000084318BF4FF0FF300146AFF30080BDE8DF
:100380001C4070474FF0000200B513469446964655
:10039000203922BFA0E80C50A0E80C50B1F1200198
:1003A000BFF4F7AF090728BFA0E80C5048BF0CC046
:1003B0005DF804EB890028BF40F8042B08BF7047A4
:1003C00048BF20F8022B11F0804F18BF00F8012B16
:1003D0007047704770477047754600F02BF8AE467F
:1003E00005006946534620F00700854618B020B541
:1003F000FFF73EFFBDE820404FF000064FF000073A
:100400004FF000084FF0000BAC46ACE8C009ACE878
:10041000C009ACE8C009ACE8C00921F007018D466D
:10042000704710B50446AFF300802046BDE8104089
:10043000FFF709BF00487047180000200149182045
:10044000ABBEFEE72600020070470000FEE700009A
:1004500070470000EFF3108072B600BFFEE70000A7
:10046000B3F5804F03461DD1B0B553F822C000202C
:10047000CCF6F0700CEA000E91E83100D1F818C00B
:1004800040EA0E0040EA0410C96840EA052040EA4C
:100490000C0040EA0141BDE8B040002043F82210C2
:1004A000704700BF6FF07041002043F82210704782
:1004B0002DE9F04F83B00B68024650F8230001F19C
:1004C000240B20F0010042F82300D1E902C0D1E959
:1004D00000E301908869D1E9049A0290C86BD1E9E0
:1004E000077600909BE83008D1F8308052F82E0053
:1004F0008021CFF6F0710840BCF1080F08BF43F02F
:1005000040030199194341EA090141EA0A013943CB
:1005100031432143294341EA0B01029B41EA08018F
:100520001943009B1943084340EA0C01002042F89C
:100530002E1003B0BDE8F08FF0B500EB82025068DA
:10054000D1E902E400F0404CD1E90030D1E9045691
:1005500043EA0C03002743EA0010CFF6F07740EAA5
:100560000E20896907EB055540EA04402843FE3612
:10057000084340EA066100205160F0BDB0B5044672
:1005800000F0E6F8054640F20800C2F200000078EC
:10059000611C18BF044400BF00F0DAF8401BA04201
:1005A000FAD3B0BD2DE9F04F83B000F1200200F185
:1005B0003E4741F60045009207F1FF77C4F202057D
:1005C00008224FEAB726A84208BF072200254FF0AD
:1005D00000084FF00009072E38BF4FEAB7220192FA
:1005E0000AE000BF09F1010908F10208B9F1100F92
:1005F00005F1040500F0A2800F68012202FA09FE4D
:1006000017EA0E0AEED0D1F804C003220CF003075B
:100610007E1E02FA08F4012E6FEA040B12D88468D9
:10062000CE6804EA0B0406FA08F634438460446892
:1006300024EA0E06CCF3001404FA09F426434660BB
:1006400004E000BF032F01D103271EE0C6688C68B9
:1006500006EA0B0604FA08F42643022FC66014D1FA
:100660006FF00302009E02EA590756F807C005F032
:100670001C040F220B69A2402CEA0202A3401A4379
:10068000F251D1F804C00CF00307026807FA08F32E
:1006900002EA0B021A431CF4403F0260A2D000227F
:1006A00043F644030292C4F202031A6843F600447C
:1006B00042F480421A601A68C4F2010402F48042D3
:1006C0000292029A29F003024FF6084C2244CFF618
:1006D000FF7C52F80C3005F00C070F26BE40B343E8
:1006E000019E06FA07F73B4342F80C30A2684B68BC
:1006F00042EA0A0743F60C4CDE0258BF22EA0A0718
:10070000A760C4F2010CDCF800209E0242EA0A074E
:1007100058BF22EA0A07CCF8007062689E0342EADA
:100720000A0758BF22EA0A0767602268DB0342EA29
:100730000A0758BF22EA0A07276053E703B0BDE85B
:10074000F08F0000002A08BF090481617047000093
:1007500040F22010C2F200000068704740F208002A
:1007600040F22011C2F20000C2F2000100780A68D3
:10077000104408607047000080B543F60040C4F2A2
:100780000200016841F400710160016841F4806178
:100790000160016841F480710160032000F074F889
:1007A0000F2000F005F800F027F8002080BD0000C1
:1007B00070B540F20806C2F2000640F2100132782D
:1007C000C2F200014FF47A730968B3FBF2F20446F7
:1007D000B1FBF2F1084600F0D7FB0F2C4FF00105FA
:1007E00008D838B94FF0FF3021460022002500F02C
:1007F0001FF87460284670BD82B0002043F64001A7
:100800000190C4F202014A6842F480424A604A6898
:1008100002F480420192019A0090086840F08050F2
:100820000860086800F080500090009802B070479F
:1008300010B54EF60C5CCEF2000CDCF80030C3F3C1
:10084000022E8EF00704042C28BF0424BEF10303FB
:100850004FF0FF3E0EFA04F438BF0023A143994045
:100860000EFA03F39A43114300F00F0200F16043C4
:100870000901043A03F564436244002848BF02F1C9
:100880000C03197010BD00004EF60C51CEF20001A1
:100890000A684FF6FF031A4060F30A2242F08060B4
:1008A00040F0FD7008607047002804BF01207047C9
:1008B0002DE9F04143F60808C4F202080446D8F8CE
:1008C000F8030D4600F00700884207D288F8F85375
:1008D000D8F8F80300F00700A84277D12068810714
:1008E00017D5410705D5D8F8001041F4E051C8F8F4
:1008F0000010010705D5D8F8001041F46041C8F890
:100900000010D8F80010A26821F0F0011143C8F8D7
:100910000010C00740D1D8F8F80300F00700A84243
:1009200007D988F8F853D8F8F80300F00700A84270
:100930004CD12068410707D5D8F80010E26821F4AF
:10094000E0511143C8F80010000708D5D8F800009E
:10095000216920F4604040EAC100C8F8000000F0BE
:100960007DF8D8F8001047F27012C1F30311C0F6F9
:100970000002515C40F2100220FA01F140F20C003A
:10098000C2F200000068C2F200021160FFF710FF1F
:100990000020BDE8F08100BF6068811E022907D2F7
:1009A00058F8081C89015CBF0120BDE8F08111E006
:1009B000012807D158F8081C89035CBF0120BDE855
:1009C000F08107E058F8081C890703D40120BDE82E
:1009D000F08100BFD8F8001021F003010843C8F8E7
:1009E0000000FFF7B5FE064641F28837D8F8000050
:1009F000616800F00C00B0EB810F8CD0FFF7A8FE0F
:100A0000801BB842F2D90320BDE8F08140F210000B
:100A100043F60801C2F20000C4F20201006809684E
:100A200047F28012C1F38221C0F60002515CC84037
:100A30007047000040F2100043F60801C2F20000C7
:100A4000C4F202010068096847F28012C1F3423122
:100A5000C0F60002515CC8407047000010B543F674
:100A60000404C4F20204606800F00C0008280BD0F3
:100A7000042819BF42F20040C0F2F40047F64000DB
:100A8000C0F27D1010BD00BF2068216823684902B4
:100A900047F64001C0F27D1100F03F02C3F3881019
:100AA0005CBF42F20041C0F2F401A1FB000100234F
:100AB000FFF7F0FB21680222C1F3014102EB410183
:100AC000B0FBF1F010BD0000002804BF012070470A
:100AD0002DE9F04182B00446007843F60006C007D5
:100AE000C4F202060CD0B06800F00C00042840F0FC
:100AF00081803068800303D56068002800F0688139
:100B0000207880071BD5B06810F00C0F09D0B068B2
:100B100000F00C00082840F087807068400200F167
:100B200083803068800703D5E068012840F0508159
:100B30003068216920F0F80040EAC1003060207878
:100B4000000713D4207840072AD4A569002D00F0AF
:100B50003A81B06800F00C00082840F0A580012D13
:100B600040F00E81012002B0BDE8F08160690028EC
:100B700000F082800020C4F247200121C0F8801ECE
:100B8000FFF7E6FD054600BF706F8007DAD4FFF778
:100B9000DFFD401B0228F7D9032002B0BDE8F08139
:100BA000306C5FEAC0080AD400200190306C40F03D
:100BB00080503064306C00F080500190019847F212
:100BC0000007C4F200073868C00547D4386840F40D
:100BD00080703860FFF7BCFD054600BF3868C0056F
:100BE0003CD4FFF7B5FD401B0228F7D9032002B023
:100BF000BDE8F081B06800F00C00082803D17068EF
:100C000040023FF576AF61683068B1F5803F07D0AC
:100C1000B1F5A02F40F09A8040F480203060306819
:100C200040F4803030609AE0E068002840F2000034
:100C3000C4F247205CD001210160FFF789FD054621
:100C4000306880073FF574AFFFF782FD401B022834
:100C5000F6D9032002B0BDE8F08100BFA168306F73
:100C6000012905D0052955D140F004003067306FC7
:100C700040F00100306756E00020C4F24720002118
:100C8000C0F8801EFFF764FD054600BF706F800747
:100C90007FF558AFFFF75CFD401B0228F6D9032013
:100CA00002B0BDE8F08100BF0027C4F24727002052
:100CB0003866FFF74DFD022D05460DD130688001E5
:100CC00040F18A80FFF744FD401B02284FF00300EB
:100CD000F4D902B0BDE8F0813068800173D5FFF728
:100CE00037FD401B02284FF00300F5D9F1E700BFA4
:100CF00000210160FFF72CFD054600BF306880072A
:100D00007FF51DAFFFF724FD401B02284FF00300C5
:100D1000F4D9DEE720F001003067306F002920F0C1
:100D2000040030677AD0FFF713FD054641F288379B
:100D3000306F800700F18480FFF70AFD401BB84246
:100D4000F6D9032002B0BDE8F08100BF20F4803066
:100D500030603068002920F4802030607AD0FFF7BE
:100D6000F7FC0546306880033FF5CAAEFFF7F0FC9C
:100D7000401B6428F6D9032002B0BDE8F08100BF13
:100D80007068E16900F480028A4221D1216A00F092
:100D90003F028A421CD147F6C071626A0140B1EB42
:100DA000821F15D1A16A4FF6FF73C903994300F45E
:100DB0004032A1F580318A420AD1E16A00F07060C8
:100DC000B0EB016F04D1002002B0BDE8F08100BF9C
:100DD000012002B0BDE8F08104F11C052FCD0843CD
:100DE00040EA8210D9034FF6FF729143A1F580319A
:100DF00040EA05600843706001203866FFF7A8FCF0
:100E0000044600BF30688001DDD4FFF7A1FC001B61
:100E100002284FF00300F5D95BE700BFFFF798FC0D
:100E2000054641F2883700BF306F800708D5FFF7CD
:100E30008FFC401BB8424FF00300F5D949E700BFD3
:100E4000B8F1000F3FF581AE306C20F08050306477
:100E50007BE600BFFFF77CFC054600BF30688003DF
:100E60007FF54EAEFFF774FC401B64284FF0030083
:100E7000F4D92EE7002804BF0120704770B504465E
:100E800090F8490015460E4628B9002084F848001D
:100E9000204600F01DF8206804F10801FFF708FB68
:100EA0002068A2683146FFF747FBD4E90102236BB3
:100EB0002946FFF7D5FA2068A16850F8212042F0B2
:100EC000010240F82120012084F84900002070BD73
:100ED0002DE9F04786B040F27800C2F200000178B8
:100EE000002600290596CDE903660296019648D1B1
:100EF0000121017043F638000096C4F20200016837
:100F000040F6004441F0010101600068C4F20204AF
:100F100000F001000090009801AD4FF480584FF0B0
:100F200002094FF0030A0C2704F500602946CDF8AA
:100F30000480CDE90296CDF810A00597FFF732FBAB
:100F40004FF68070CDE9010904F580602946CDE9AE
:100F5000036A0597FFF726FB4CF23370CDE90109D0
:100F600020462946CDE9036A0597FFF71BFB04F5E8
:100F700040602946CDE90189CDE9036A0597FFF76D
:100F800011FB06B0BDE8F087411E0020B0EB116FE9
:100F90001CBF012070474EF21002CEF200025160D9
:100FA0004EF62351CEF20001F0230B700721906022
:100FB00011607047002804BF0120704710B5044637
:100FC00090F83D0028B9002084F83C00204600F04D
:100FD00021F8242084F83D002068C16821F40051E4
:100FE000C160204605F0EEFF2068016921F49041C0
:100FF0000161416921F02A014161C16841F4005158
:10100000C16000202021206484F83D1084F83E1047
:1010100010BD000080B586B041F200010068C4F246
:101020000101002288420592CDE903220292019239
:1010300002D006B080BD00BF43F630000092C4F27B
:101040000200436943F010034361436903F0100356
:101050000093009B0092036843F001030360006863
:1010600000F00100009000984FF4C0600190022051
:10107000CDE90202032004900720059001F570409D
:1010800001A9FFF78FFA06B080BD0000FEE700005F
:10109000F0B581B040F21017C2F20007044638885C
:1010A0007988802501FB00F600200021C6F6004566
:1010B00000F00AFB388925F8020C9EB1042E06F0D8
:1010C000030007D326F0030104392C802C802C80E8
:1010D0002C80F9D130B101282C8003D002282C803B
:1010E00018BF2C8001B0F0BDB0B581B040F2101C2B
:1010F000C2F2000CBCF8044045F20F5340F2800EDF
:101100009C42C6F6004E1BDD45F210539C4237D080
:1011100046F604039C4200F0838049F241339C422E
:1011200017D1BCF80A30ADF80230BDF80230ADF886
:101130000230BDF802302EF8023C030A87E000BFFF
:1011400041F663139C4200F0C18045F210339C428B
:10115000E7D09CF80630BCF80040012BBCF80A3000
:101160006FEA000508BF60192EF8023CAEF80000D7
:10117000BCF80C002EF8020CAEF800109EE000BF88
:10118000BCF80A30ADF80230BDF802400133ADF8CA
:101190000240BDF802402EF8024C040AADF80240AD
:1011A000BDF80240C0B2ADF80240BDF80240AEF852
:1011B0000040ADF80230BDF80230ADF80230BDF8A5
:1011C00002302EF8023CADF80200BDF80200ADF886
:1011D0000200BDF80200AEF80000BCF80C00ADF84B
:1011E0000200BDF802300130ADF80230BDF8023027
:1011F0002EF8023C0B0AADF80230BDF80230ADF813
:101200000230BDF80230AEF80030ADF80200BDF893
:101210000200ADF80200BDF802002EF8020C42E018
:101220009CF80630BCF80040012BBCF80A306FEA8D
:101230000005ADF80230BDF8023008BF6019ADF806
:101240000230BDF8023084B22EF8023C230AADF819
:101250000230BDF80230C0B2ADF80230BDF8023045
:10126000AEF80030ADF80200BDF80200ADF80200A3
:10127000BDF80200AEF80000BCF80C00ADF80200AA
:10128000BDF80200ADF80200BDF802002EF8020C15
:10129000080AADF80200BDF80200ADF80200BDF882
:1012A0000200AEF80000C8B2ADF80200BDF80200BE
:1012B000ADF80200BDF80200AEF80000BCF808006E
:1012C0002EF8020CAEF8002001B0B0BDBCF80A50F8
:1012D0009CF80630BCF80040ADF80250002BBDF879
:1012E00002306FEA0005ADF80230BDF8023008BFE9
:1012F00060192EF8023CC0F30723ADF80230BDF8A8
:101300000240C0B2ADF80240BDF80240AEF8004065
:10131000ADF80200BDF80240ADF80240BDF8024051
:10132000AEF80040ADF80230BDF80230ADF8023042
:10133000BDF80230AEF80030ADF80200BDF8020092
:10134000ADF80200BDF80200AEF80000BCF80C00D9
:10135000ADF80200BDF80200ADF80200BDF80200D1
:101360002EF8020C080AADF80200BDF80230C9B22E
:10137000ADF80230BDF80230AEF80030ADF8021022
:10138000BDF80230ADF80230BDF80230AEF80030E2
:10139000ADF80200BDF80200ADF80200BDF8020091
:1013A000AEF80000ADF8021080E7000040F2101C1B
:1013B000C2F2000C9CF80610BCF80420012907D1E9
:1013C00041F663139A4203D0072808D909E000BF09
:1013D00039B941F663118A4203D1082801D2B8A174
:1013E000085C45F20F518A4206DC41F663118A42DD
:1013F0000BD045F2103105E049F241318A4204D068
:1014000045F210518A4218BF70470138C0B2062811
:1014100006D847F26211C0F6000131F8103000E042
:101420000023B0B581B045F210518A4245F2103127
:101430004FF03604A2EB01016FF4007040F280051A
:1014400008BF4FF458540142194641F66310C6F6DE
:10145000004518BF41F00801824208BF194625F82F
:10146000024C298004D1BCF80030BCF802E00DE049
:10147000BCF80040BCF80230880667D49C4267D8AC
:101480009E46234645F2105082426AD0BCF80A00BC
:101490000022ADF80200BDF80200ADF80200BDF870
:1014A000020025F8020CADF80220BDF80200ADF8EC
:1014B0000200BDF802002880ADF80220BDF802004D
:1014C000ADF80200BDF802002880581E010AADF8F0
:1014D0000210BDF80210C0B2ADF80210BDF8021043
:1014E0002980ADF80200BDF80200ADF80200BDF899
:1014F00002002880BCF80C00ADF80200BDF8020024
:10150000ADF80200BDF8020025F8020CADF802208B
:10151000BDF80200ADF80200BDF802002880ADF869
:101520000220BDF80200ADF80200BDF802002880DC
:10153000AEF10100010AADF80210BDF80210ADF8DD
:101540000210BDF802102980ACE000BF9C4297D287
:10155000A646ACF80030ACF8024045F2105082428A
:1015600094D1BCF80A200021ADF80220BDF8020099
:10157000ADF80200BDF8020025F8020CADF802102B
:10158000BDF80200ADF80200BDF802002880501C32
:10159000ADF80200BDF80200ADF80200BDF802008F
:1015A00025F8020CADF80210BDF80200ADF80200FB
:1015B000BDF802002880901CADF80200BDF80200C2
:1015C0000332ADF80200BDF8020025F8020C581EE7
:1015D000030AADF80230BDF80230C0B2ADF80230F7
:1015E000BDF802302B80ADF80220BDF80220ADF826
:1015F0000220BDF8022025F8022CADF80200BDF84B
:101600000200ADF80200BDF802002880BCF80C20F2
:10161000ADF80220BDF80200ADF80200BDF80200EE
:1016200025F8020CADF80210BDF80200ADF802007A
:10163000BDF802002880501CADF80200BDF8020081
:10164000ADF80200BDF8020025F8020CADF802105A
:10165000BDF80200ADF80200BDF802002880901C21
:10166000ADF80200BDF80200ADF80200BDF80200BE
:1016700025F8020CBCF802000138010AADF802108E
:10168000BDF80210ADF80210BDF802102980D11C7F
:10169000ADF80210BDF80210ADF80210BDF802104E
:1016A00025F8021CC0B2ADF80200BDF80200ADF88A
:1016B0000200BDF80200288001B0BDE8B0407047CC
:1016C000060704050100030210B581B040F2101CAA
:1016D000C2F2000CBCF8043045F20F52934209DC10
:1016E00041F66312934247D045F21032934209D03B
:1016F00001B010BD45F21052934269D049F2413217
:101700009342F5D1BCF80A208023ADF80220BDF841
:101710000220C6F60043ADF80220BDF8022023F8EF
:10172000022C020AADF80220BDF80220C0B2ADF8CA
:101730000220BDF802201A80ADF80200BDF80200B8
:10174000ADF80200BDF802001880BCF80C00ADF83E
:101750000200BDF80200ADF80200BDF8020023F857
:10176000020C080AADF80200BDF80200ADF8020054
:10177000BDF8020018807AE09CF806208023002A39
:10178000C6F6004376D0BCF80A20ADF80220BDF8BA
:101790000220ADF80220BDF8022023F8022C020A34
:1017A000ADF80220BDF80220C0B2ADF80220BDF8AD
:1017B00002201A80ADF80200BDF80200ADF8020068
:1017C000BDF802001880BCF800000138020A76E07B
:1017D000BCF80A20ADF80220BDF802300132ADF8A5
:1017E0000230BDF802408023C6F6004323F8024CC5
:1017F000040AADF80240BDF80240C0B2ADF80240A4
:10180000BDF802401C80ADF80220BDF80220ADF802
:101810000220BDF8022023F8022CADF80200BDF82A
:101820000200ADF80200BDF802001880BCF80C0000
:10183000ADF80200BDF802200130ADF80220BDF87D
:10184000022023F8022C0A0AADF80220BDF802207B
:10185000ADF80220BDF802201A80ADF80200BDF8F4
:101860000200ADF80200BDF8020023F8020CC8B275
:1018700066E000BFBCF80A20BCF800E0ADF802202A
:10188000BDF80220C043ADF80220BDF8022070442C
:1018900023F8022C0022ADF80220BDF80240ADF87A
:1018A0000240BDF802401C80ADF80220BDF80220C5
:1018B00084B2ADF80220BDF802201A80220AADF8E9
:1018C0000220BDF80220C0B2ADF80220BDF802200F
:1018D0001A80ADF80200BDF80200ADF80200BDF8B4
:1018E00002001880BCF80C00ADF80200BDF8020040
:1018F000ADF80200BDF8020023F8020C080AADF8AA
:101900000200BDF80200ADF80200BDF80200188028
:10191000C8B2ADF80200BDF80200ADF80200BDF893
:1019200002001880BCF802000138010AADF802106C
:10193000BDF80210C0B2ADF80210BDF80210198057
:10194000ADF80200BDF80200ADF80200BDF80200DB
:10195000188001B010BD00002DE9F04F85B09A4607
:101960008C46D90801235FEA4A7718BF03EBDA01F6
:101970004FEA5A0359430B0600F05A82BAF1180F86
:1019800000F256820646012041F2000300FA0AF0F6
:10199000C0F20113184200F04B820E9BA2F120000E
:1019A000C0B25FFA81FB002B00EBC002CDF810C083
:1019B00000F02281039247F2881200EB4001C0F64A
:1019C000000202EB810747F2FC51C0F6000140F231
:1019D0001013002401EB0010C2F20003E046029055
:1019E000BAF1100F0CD0BAF10C0F38460AD0039898
:1019F00047F6EC31C0F6000101EB800001E000BFCA
:101A00000298204490F90050B5F1FF3F0FDC40F2FE
:101A10000000C2F200000268B0B21FFA88F1FFF7BE
:101A200063FB40F21013DDF810C0C2F2000308F1AE
:101A30000101588889B2814280F0FA81A1EB0C0241
:101A4000524500F0C9805FFA85F95FEA49620ED518
:101A500040F20000C2F200000268B0B2FFF744FB9F
:101A600040F21013C2F20003DDF810C0588808F1EC
:101A7000020189B2814280F0DB81A1EB0C02524568
:101A800000F0AA805FEA89620ED540F20000C2F23F
:101A900000000268B0B2FFF727FB40F21013C2F259
:101AA0000003DDF810C0588808F1030189B28142B3
:101AB00080F0BE81A1EB0C02524500F08D805FEA00
:101AC000C9620ED540F20000C2F200000268B0B256
:101AD000FFF70AFB40F21013C2F20003DDF810C05A
:101AE000588808F1040189B2814280F0A181A1EBFC
:101AF0000C02524570D05FEA09720ED540F2000028
:101B0000C2F200000268B0B2FFF7EEFA40F2101322
:101B1000C2F20003DDF810C0588808F1050189B24F
:101B2000814280F08581A1EB0C02524554D05FEADE
:101B300049720ED540F20000C2F200000268B0B255
:101B4000FFF7D2FA40F21013C2F20003DDF810C022
:101B5000588808F1060189B2814280F06981A1EBC1
:101B60000C02524538D05FEA89720ED540F200006F
:101B7000C2F200000268B0B2FFF7B6FA40F21013EA
:101B8000C2F20003DDF810C0588808F1070189B2DD
:101B9000814280F04D81A1EB0C0252451CD05FEADE
:101BA000C9720ED040F20000C2F200000268B0B26A
:101BB000FFF79AFA40F21013C2F20003DDF810C0EA
:101BC000588808F108081FFA88F1814280F03081B6
:101BD000A1EB0C00504506D101361888B1B2814204
:101BE000E04680F025810134BBF1010B07F10107CC
:101BF0007FF4F6AE1CE100BF47F6EC31C0F6000101
:101C000001EB820447F2881200EB4001C0F60002AB
:101C100002EB8101029140F20001C2F200010431A5
:101C2000039147F2FC51C0F600014FF0000801EBB0
:101C30000010E146019000BFBAF10C0F06D0BAF1D6
:101C4000100F204604D1019801E000BF02984044E3
:101C500090F90050039840F20001002DC2F20001FB
:101C600048BF08460268B7B21FFA89F13846FFF745
:101C70003BFA40F21011C2F2000109F101004A885A
:101C800081B2049B914280F0D380C81A504500F085
:101C9000BD80EDB2680640F200020398C2F2000275
:101CA00048BF104602683846FFF71EFA40F210118E
:101CB000C2F2000109F102004A88049B81B29142FC
:101CC00080F0B680C81A504500F0A080A80640F207
:101CD00000020398C2F2000248BF1046026838466C
:101CE000FFF702FA40F21011C2F2000109F10300FD
:101CF0004A88049B81B2914280F09A80C81A50456C
:101D000000F08480E80640F200020398C2F200026C
:101D100048BF104602683846FFF7E6F940F2101156
:101D2000C2F2000109F104004A88049B81B2914289
:101D30007ED2C81A504569D0280740F200020398A5
:101D4000C2F2000248BF104602683846FFF7CCF9DD
:101D500040F21011C2F2000109F105004A88049B0B
:101D600081B2914264D2C81A50454FD0680740F200
:101D700000020398C2F2000248BF104602683846CB
:101D8000FFF7B2F940F21011C2F2000109F10600AA
:101D90004A88049B81B291424AD2C81A504535D034
:101DA000A80740F200020398C2F2000248BF1046A2
:101DB00002683846FFF798F940F21011C2F20001AC
:101DC00009F107004A88049B81B2914230D2C81AB7
:101DD00050451BD0E80740F20000C2F20000039A11
:101DE00008BF104602683846FFF77EF940F210102F
:101DF000C2F2000009F108094188049B1FFA89F02A
:101E0000884215D2C01A50450AD100BF40F21010C6
:101E1000C2F2000001360088B1B28142994607D271
:101E200008F10108BBF1010B04F101047FF404AFD8
:101E300005B0BDE8F08F00002DE9F04F83B00D9F95
:101E40000C463E78A6F12001C9B25E2929D80C9D26
:101E50008046104419196A0801371FFA80F91FFAE1
:101E600081FBC246029200BF1FFA8AF0484528BF94
:101E70002C44A1B2594514D2484528BF5FFA88FACC
:101E80001FFA8AF0F2B22B4600260096FFF764FD97
:101E900017F8016BA6F12000C0B25F2802988244B7
:101EA000E2D303B0BDE8F08FB0B58EB040F27C0055
:101EB000C2F200004FF0204340F2041CCAF2000CB2
:101EC0004FF0060E002180E808504FF48053C0E91F
:101ED0000A310F233C22092410254FF4804CCDE910
:101EE0000733CDE909211122CDE900430823C0E9D8
:101EF0000311C0E90551C161C0E90811C0E90CC175
:101F000081634164CDE90C21CDE90231CDE9045270
:101F1000069107A96A460B95FEF7ACFF002818BF8B
:101F2000FEF798FA0EB0B0BDB0B586B0002043F60B
:101F300030010590CDE90300CDE901000090C4F225
:101F400002010A6840F2004442F004020A600A6892
:101F5000C4F2020402F004020092009A00900A689F
:101F60004FF4004542F080020A600A6802F08002E5
:101F70000092009A00900A6842F020020A600A6803
:101F800002F020020092009A00900A6842F01002CB
:101F90000A600A6802F010020092009A00900A6833
:101FA00042F002020A600A6802F002020092009AFD
:101FB00000900A6842F008020A600A6802F008020B
:101FC0000092009A00900A6842F001020A600A68D2
:101FD00002F001020092009A00900868002240F08E
:101FE0004000086008684FF4004100F04000009095
:101FF00000982046FEF7A6FB0120CDE90200022052
:10200000049001A920460195FEF7CCFA06B0B0BDB8
:1020100080B540F2CC0041F20001C2F20000C4F2EF
:10202000010100234FF00C0C4FF4E13280E80E0068
:10203000C0E90333C0E905C3C361FEF7BBFF002855
:1020400008BF80BDBDE88040FEF704BAFEE700008F
:10205000FEE700007047000070470000FEF77EBBFF
:1020600070B592B006AC20463021FEF78BF9002502
:1020700043F640000595CDE90355CDE9015500959E
:10208000C4F202000168022641F08051016000683C
:1020900000F080500090009847F200000095C4F2D4
:1020A0000000016841F480410160006800F4804054
:1020B000009000980120099010200A9008200E90AE
:1020C0004820CDE90F060420119020460696CDE960
:1020D0000C65FEF7F9FC28B1EFF3108072B600BF73
:1020E000FEE700BF0F20CDE901064FF48050CDE997
:1020F000040501A802210395FEF7D6FB20B1EFF3FA
:10210000108072B6FEE700BF12B070BD4EF6885068
:10211000CEF20000016841F47001016070470000D8
:102120002DE9F04F87B080243220C6F6004449F2F2
:102130004135FEF723FAD320ADF81A00BDF81A0096
:1021400040F21019ADF81A00BDF81A00C2F20009E9
:1021500024F8020C2088ADF81A00BDF81A00A9F87E
:1021600004002088ADF81A00BDF81A00A9F8040090
:102170002088ADF81A00BDF81A000102A9F8041071
:102180002188ADF81A10BDF81A1041EA002081B27A
:10219000A942A9F8040040F08383CF20ADF81A00CB
:1021A000BDF81A00C122ADF81A00BDF81A0030239C
:1021B00024F8020C0020ADF81A00BDF81A104FF0F8
:1021C000100CADF81A10BDF81A104FF0010E218056
:1021D000ADF81A20BDF81A100A26ADF81A10BDF88D
:1021E0001A102180ADF81A30BDF81A10ADF81A1087
:1021F000BDF81A102180ED21ADF81A10BDF81A10A3
:10220000ADF81A10BDF81A1024F8021C6421ADF8BC
:102210001A10BDF81A10ADF81A10BDF81A10218066
:102220000321ADF81A10BDF81A10ADF81A10BDF858
:102230001A1021801221ADF81A10BDF81A10ADF84D
:102240001A10BDF81A1021808121ADF81A10BDF8BE
:102250001A10ADF81A10BDF81A102180E821ADF857
:102260001A10BDF81A10ADF81A10BDF81A1024F89B
:10227000021C8521ADF81A10BDF81A10ADF81A101D
:10228000BDF81A102180ADF81AC0BDF81A70ADF86B
:102290001A70BDF81A7027807A27ADF81A70BDF849
:1022A0001A70ADF81A70BDF81A702780CB27ADF8F8
:1022B0001A70BDF81A70ADF81A70BDF81A7024F8CB
:1022C000027C3927ADF81A70BDF81A70ADF81A7093
:1022D000BDF81A7027802C27ADF81A70BDF81A7057
:1022E000ADF81A70BDF81A702780ADF81A00BDF865
:1022F0001A70ADF81A70BDF81A7027803427ADF83F
:102300001A70BDF81A70ADF81A70BDF81A702780EF
:102310000227ADF81A70BDF81A70ADF81A70BDF842
:102320001A702780F727ADF81A70BDF81A70ADF84B
:102330001A70BDF81A7024F8027C2027ADF81A70C4
:10234000BDF81A70ADF81A70BDF81A702780EA2728
:10235000ADF81A70BDF81A70ADF81A70BDF81A70A1
:1023600024F8027CADF81A00BDF81A70ADF81A70A6
:10237000BDF81A702780ADF81A00BDF81A70ADF8D4
:102380001A70BDF81A702780C027ADF81A70BDF812
:102390001A70ADF81A70BDF81A7024F8027C1B2769
:1023A000ADF81A70BDF81A70ADF81A70BDF81A7051
:1023B0002780ADF81A20BDF81A20ADF81A20BDF814
:1023C0001A2024F8022CADF81AE0BDF81A70ADF806
:1023D0001A70BDF81A702780C527ADF81A70BDF8BD
:1023E0001A70ADF81A70BDF81A7024F8027CADF8B6
:1023F0001A30BDF81A70ADF81A70BDF81A7027803F
:10240000ADF81A30BDF81A300F27ADF81A30BDF804
:102410001A302380C723ADF81A30BDF81A30ADF852
:102420001A30BDF81A3024F8023CB723ADF81A3040
:10243000BDF81A30ADF81A30BDF81A3023803623B3
:10244000ADF81A30BDF81A30ADF81A30BDF81A30B0
:1024500024F8023C4823ADF81A30BDF81A30ADF824
:102460001A30BDF81A3023803A23ADF81A30BDF87F
:102470001A30ADF81A30BDF81A3024F8023C552352
:10248000ADF81A30BDF81A30ADF81A30BDF81A3070
:102490002380B123ADF81A30BDF81A30ADF81A30E8
:1024A000BDF81A3024F8023CADF81A00BDF81A3015
:1024B000ADF81A30BDF81A3023801A23ADF81A305F
:1024C000BDF81A30ADF81A30BDF81A302380B623A3
:1024D000ADF81A30BDF81A30ADF81A30BDF81A3020
:1024E00024F8023CADF81A60BDF81A30ADF81A3085
:1024F000BDF81A302380A223ADF81A30BDF81A3087
:10250000ADF81A30BDF81A302380F223ADF81A3036
:10251000BDF81A30ADF81A30BDF81A3024F8023C74
:10252000ADF81A00BDF81A30ADF81A30BDF81A30FF
:1025300023802623ADF81A30BDF81A30ADF81A30D2
:10254000BDF81A3024F8023CADF81AE0BDF81A3094
:10255000ADF81A30BDF81A302380E023ADF81A30F8
:10256000BDF81A30ADF81A30BDF81A3024F8023C24
:10257000ADF81A70BDF81A30ADF81A30BDF81A303F
:1025800023802A23ADF81A30BDF81A50ADF81A503E
:10259000BDF81A5025802825ADF81A50BDF81A50FC
:1025A000ADF81A50BDF81A5025800825ADF81A501C
:1025B000BDF81A10ADF81A10BDF81A1021800E21BE
:1025C000ADF81A10BDF81A10ADF81A10BDF81A10AF
:1025D0002180ADF81A50BDF81A102B25ADF81A104D
:1025E000BDF81A1021805421ADF81A10BDF81A1048
:1025F000ADF81A10BDF81A102180A921ADF81A10F3
:10260000BDF81A10ADF81A10BDF81A102180432138
:10261000ADF81A10BDF81A10ADF81A10BDF81A105E
:102620002180ADF81A60BDF81A101126ADF81A1005
:10263000BDF81A102180ADF81A70BDF81A10ADF867
:102640001A10BDF81A102180ADF81A00BDF81A1042
:10265000ADF81A10BDF81A102180ADF81A00BDF8B7
:102660001A10ADF81A10BDF81A102180ADF81A0032
:10267000BDF81A10ADF81A10BDF81A102180ADF887
:102680001A00BDF81A10ADF81A10BDF81A10218002
:10269000E121ADF81A10BDF81A10ADF81A10BDF806
:1026A0001A1024F8021CADF81A00BDF81A10ADF883
:1026B0001A10BDF81A1021801521ADF81A10BDF8B6
:1026C0001A10ADF81A10BDF81A1021801721ADF8B4
:1026D0001A10BDF81A10ADF81A10BDF81A102180A2
:1026E0000721ADF81A10BDF81A10ADF81A10BDF890
:1026F0001A102180ADF81A60BDF81A10ADF81A1042
:10270000BDF81A1021800621ADF81A10BDF81A1074
:10271000ADF81A10BDF81A102180ADF81A50BDF8A6
:102720001A10ADF81A10BDF81A1021805621ADF814
:102730001A10BDF81A10ADF81A10BDF81A10218041
:102740003C21ADF81A10BDF81A10ADF81A10BDF8FA
:102750001A1021800521ADF81A10BDF81A10ADF835
:102760001A10BDF81A102180ADF81AC0BDF81A1061
:10277000ADF81A10BDF81A102180ADF81A70BDF826
:102780001A10ADF81A10BDF81A1021803F21ADF8CB
:102790001A10BDF81A20ADF81A20BDF81A202280B0
:1027A000ADF81A10BDF81A20ADF81A20BDF81A209D
:1027B0002280ADF81A70BDF81A20ADF81A20BDF8C5
:1027C0001A202280ADF81A50BDF81A20ADF81A2050
:1027D000BDF81A2024F8022CADF81A00BDF81A2012
:1027E000ADF81A20BDF81A202280ADF81A00BDF805
:1027F0001A20ADF81A20BDF81A202280ADF81AE090
:10280000BDF81A20ADF81A20BDF81A202280ADF8C4
:102810001A10BDF81A10ADF81A10BDF81A10218060
:10282000ADF81A30BDF81A10ADF81A10BDF81A102C
:1028300024F8021CADF81A00BDF81A10ADF81A10F1
:10284000BDF81A102180ADF81A00BDF81A10ADF8C5
:102850001A10BDF81A102180ADF81A00BDF81A0040
:10286000ADF81A00BDF81A002080EF20ADF81A006C
:10287000BDF81A00ADF81A00BDF81A002080ADF8B6
:102880001A60BDF81A00ADF81A00BDF81A0024F855
:10289000020C7820FDF772FE292004F02CB800BF4E
:1028A000D420ADF81A00BDF81A0045F21032ADF888
:1028B0001A00BDF81A0024F8020C2088ADF81A009E
:1028C000BDF81A00A9F804002088ADF81A00BDF878
:1028D0001A00A9F804002088ADF81A00BDF81A0003
:1028E0000102A9F804102188ADF81A10BDF81A10D9
:1028F00041EA002081B29142A9F8040042F08687A3
:10290000ED20ADF81A00BDF81A004FF0210AADF81D
:102910001A00BDF81A00012224F8020C0120ADF8BB
:102920001A00BDF81A000026ADF81A00BDF81A000A
:102930008B252080FE20ADF81A00BDF81A00022772
:10294000ADF81A00BDF81A004FF0200B2080EE20E1
:10295000ADF81A00BDF81A004FF03C09ADF81A00A6
:10296000BDF81A004FF0360824F8020CDE20ADF84E
:102970001A00BDF81A004FF0320EADF81A00BDF87B
:102980001A004FF02C0C2080ADF81AA0BDF81A10D8
:10299000C420ADF81A10BDF81A102180F121ADF84D
:1029A0001A10BDF81A10ADF81A10BDF81A1024F854
:1029B000021CADF81A20BDF81A10ADF81A10BDF8B7
:1029C0001A102180DF21ADF81A10BDF81A10ADF8E9
:1029D0001A10BDF81A1024F8021C1021ADF81A10B4
:1029E000BDF81A10ADF81A10BDF81A102180ADF814
:1029F0001A00BDF81A10C620ADF81A10BDF81A104A
:102A000024F8021C8F21ADF81A10BDF81A10ADF889
:102A10001A10BDF81A102180ADF81A00BDF81A106E
:102A2000E220ADF81A10BDF81A1024F8021CADF817
:102A30001A60BDF81A10ADF81A10BDF81A102180EE
:102A4000ADF81A00BDF81A10ADF81A10BDF81A103A
:102A50002180ADF81A00BDF81A10ADF81A10BDF8B3
:102A60001A102180ADF81A00BDF81A105D20ADF8DB
:102A70001A10BDF81A102180BF21ADF81A10BDF848
:102A80001A10ADF81A10BDF81A1024F8021CAA2169
:102A9000ADF81A10BDF81A10ADF81A10BDF81A10DA
:102AA0002180B021ADF81A10BDF81A10ADF81A1037
:102AB000BDF81A1024F8021C0D21ADF81A10BDF84B
:102AC0001A20ADF81A20BDF81A202280ADF81A603D
:102AD000BDF81A20ADF81A20BDF81A202280ADF8F2
:102AE0001A10BDF81A10ADF81A10BDF81A1021808E
:102AF000ADF81A60BDF81A10ADF81A10BDF81A102A
:102B000021801121ADF81A10BDF81A10ADF81A1075
:102B1000BDF81A102180ADF81A60BDF81A10ADF892
:102B20001A10BDF81A1021801921ADF81A10BDF83D
:102B30001A10ADF81A10BDF81A102180ADF81A60FD
:102B4000BDF81A10ADF81A10BDF81A102180ADF8B2
:102B50001AA0BDF81A10ADF81A10BDF81A1021808D
:102B6000ADF81A60BDF81A10ADF81A10BDF81A10B9
:102B700021802D21ADF81A10BDF81A10ADF81A10E9
:102B8000BDF81A102180ADF81A60BDF81A10ADF822
:102B90001A10BDF81A1021803D21ADF81A10BDF8A9
:102BA0001A10ADF81A10BDF81A102180ADF81A608D
:102BB000BDF81A10ADF81A10BDF81A102180ADF842
:102BC0001A00BDF81A10ADF81A10BDF81A102180BD
:102BD000ADF81A60BDF81A10ADF81A10BDF81A1049
:102BE0002180ADF81A00BDF81A108B20ADF81A102C
:102BF000BDF81A102180ADF81A60BDF81A10ADF8B2
:102C00001A10BDF81A102180B121ADF81A10BDF8C4
:102C10001A10ADF81A10BDF81A1024F8021C802101
:102C2000ADF81A10BDF81A10ADF81A10BDF81A1048
:102C30002180ADF81A60BDF81A10ADF81A10BDF871
:102C40001A102180ADF81A00BDF81A100220ADF854
:102C50001A10BDF81A102180ADF81A60BDF81A10CC
:102C6000ADF81A10BDF81A1021809621ADF81A108F
:102C7000BDF81A20ADF81A20BDF81A202280ADF850
:102C80001A60BDF81A20ADF81A20BDF81A2022806B
:102C9000B222ADF81A20BDF81A20ADF81A20BDF8FE
:102CA0001A2024F8022CADF81A60BDF81A20ADF8ED
:102CB0001A20BDF81A202280ADF81A60BDF81A203B
:102CC000ADF81A20BDF81A202280ADF81A00BDF820
:102CD0001A20B320ADF81A20BDF81A202280ADF8D2
:102CE0001A60BDF81A20ADF81A20BDF81A2022800B
:102CF0000322ADF81A20BDF81A30ADF81A30BDF82D
:102D00001A302380ADF81A60BDF81A30ADF81A30C9
:102D1000BDF81A302380ADF81A00BDF81A30B7207C
:102D2000ADF81A30BDF81A3024F8023CADF81A603C
:102D3000BDF81A30ADF81A30BDF81A302380ADF85E
:102D40001A60BDF81A30ADF81A30BDF81A30238079
:102D5000ADF81A60BDF81A30ADF81A30BDF81A3067
:102D60002380ADF81A60BDF81A30ADF81A30BDF8FE
:102D70001A302380ADF81A60BDF81A30ADF81A3059
:102D8000BDF81A302380ADF81A60BDF81A30ADF8DE
:102D90001A30BDF81A302380ADF81A60BDF81A3029
:102DA000ADF81A30BDF81A302380ADF81A60BDF8BE
:102DB0001A30ADF81A30BDF81A302380ADF81A6019
:102DC000BDF81A30ADF81A30BDF81A302380ADF8CE
:102DD0001A60BDF81A30ADF81A30BDF81A302380E9
:102DE000ADF81A60BDF81A30ADF81A30BDF81A30D7
:102DF0002380ADF81A60BDF81A30ADF81A30BDF86E
:102E00001A302380ADF81A60BDF81A30ADF81A30C8
:102E1000BDF81A302380ADF81A60BDF81A30ADF84D
:102E20001A30BDF81A302380ADF81A60BDF81A3098
:102E3000ADF81A30BDF81A302380ADF81A60BDF82D
:102E40001A30ADF81A30BDF81A302380ADF81A6088
:102E5000BDF81A30ADF81A30BDF81A302380ADF83D
:102E60001A60BDF81A30ADF81A30BDF81A30238058
:102E7000ADF81A60BDF81A30ADF81A30BDF81A3046
:102E80002380ADF81A60BDF81A30ADF81A30BDF8DD
:102E90001A302380ADF81A60BDF81A30ADF81A3038
:102EA000BDF81A302380ADF81A60BDF81A30ADF8BD
:102EB0001A30BDF81A302380ADF81A60BDF81A3008
:102EC000ADF81A30BDF81A302380ADF81A60BDF89D
:102ED0001A30ADF81A30BDF81A302380B423ADF89B
:102EE0001A30BDF81A30ADF81A30BDF81A3024F88F
:102EF000023CADF81A50BDF81A30ADF81A30BDF8E2
:102F00001A302380ADF81A60BDF81A30ADF81A30C7
:102F1000BDF81A302380ADF81A10BDF81A10ADF8BC
:102F20001A10BDF81A102180ADF81A60BDF81A10F9
:102F3000ADF81A10BDF81A102180A121ADF81A10B1
:102F4000BDF81A10ADF81A10BDF81A102180ADF8AE
:102F50001A60BDF81A10ADF81A10BDF81A102180C9
:102F6000B521ADF81A10BDF81A10ADF81A10BDF859
:102F70001A1024F8021CADF81A70BDF81A100427B4
:102F8000ADF81A10BDF81A102180ADF81A60BDF81E
:102F90001A10ADF81A10BDF81A102180ADF81A20D9
:102FA000BDF81A10ADF81A10BDF81A102180ADF84E
:102FB0001A60BDF81A10ADF81A10BDF81A10218069
:102FC000ADF81A70BDF81A10ADF81A10BDF81A1045
:102FD0002180ADF81A60BDF81A10ADF81A10BDF8CE
:102FE0001A102180B621ADF81A10BDF81A10ADF8EC
:102FF0001A10BDF81A1024F8021CADF81A60BDF8BA
:103000001A10ADF81A10BDF81A102180ADF81A6028
:10301000BDF81A10ADF81A10BDF81A102180ADF8DD
:103020001A00BDF81A106420ADF81A10BDF81A1075
:1030300024F8021CADF81A60BDF81A10ADF81A1089
:10304000BDF81A102180ADF81A60BDF81A10ADF85D
:103050001A10BDF81A1021803F21ADF81A10BDF8E2
:103060001A10ADF81A10BDF81A102180ADF81A60C8
:10307000BDF81A10ADF81A10BDF81A1021805E21A3
:10308000ADF81A10BDF81A10ADF81A10BDF81A10E4
:103090002180ADF81A60BDF81A10ADF81A10BDF80D
:1030A0001A102180ADF81A00BDF81A10DC20ADF816
:1030B0001A10BDF81A102180ADF81A60BDF81A1068
:1030C000ADF81A10BDF81A1021808C21ADF81A1035
:1030D000BDF81A10ADF81A10BDF81A102180ADF81D
:1030E0001A60BDF81A10ADF81A10BDF81A10218038
:1030F000AC21ADF81A10BDF81A10ADF81A10BDF8D1
:103100001A102180ADF81A60BDF81A10ADF81A1027
:10311000BDF81A102180ADF81A00BDF81A10ADF8EC
:103120001A10BDF81A102180ADF81A60BDF81A10F7
:10313000ADF81A10BDF81A1021807021ADF81A10E0
:10314000BDF81A10ADF81A10BDF81A102180ADF8AC
:103150001A60BDF81A10ADF81A10BDF81A102180C7
:103160009021ADF81A10BDF81A10ADF81A10BDF87C
:103170001A102180ADF81A60BDF81A10ADF81A10B7
:10318000BDF81A102180EB21ADF81A10BDF81A1005
:10319000ADF81A10BDF81A102180ADF81A60BDF80C
:1031A0001A10ADF81A10BDF81A102180ADF81A00E7
:1031B000BDF81A10C220ADF81A10BDF81A102180FF
:1031C000ADF81A60BDF81A10ADF81A10BDF81A1053
:1031D0002180B821ADF81A10BDF81A10ADF81A10F8
:1031E000BDF81A1024F8021CADF81A60BDF81A10C8
:1031F000ADF81A10BDF81A102180ADF81A60BDF8AC
:103200001A10ADF81A10BDF81A102180ADF81A6026
:10321000BDF81A10ADF81A10BDF81A102180ADF8DB
:103220001A60BDF81A10ADF81A10BDF81A102180F6
:10323000ADF81A60BDF81A10ADF81A10BDF81A10E2
:103240002180ADF81A60BDF81A10ADF81A10BDF85B
:103250001A102180ADF81A60BDF81A10ADF81A10D6
:10326000BDF81A102180ADF81A60BDF81A10ADF83B
:103270001A10BDF81A102180BA21ADF81A10BDF845
:103280001A10ADF81A10BDF81A1024F8021C2421E7
:10329000ADF81A10BDF81A20ADF81A20BDF81A20A2
:1032A0002280ADF81A60BDF81A20ADF81A20BDF8DA
:1032B0001A202280ADF81A60BDF81A20ADF81A2045
:1032C000BDF81A202280ADF81A60BDF81A20ADF8BA
:1032D0001A20BDF81A202280C122ADF81A20BDF8AC
:1032E0001A20ADF81A20BDF81A2024F8022CADF8E7
:1032F0001AB0BDF81A302322ADF81A30BDF81A30D2
:103300002380ADF81A60BDF81A30ADF81A30BDF858
:103310001A3023805423ADF81A30BDF81A30ADF8B6
:103320001A30BDF81A302380ADF81A60BDF81A3093
:10333000ADF81A30BDF81A302380FF23ADF81A30EB
:10334000BDF81A30ADF81A30BDF81A302380ADF848
:103350001A60BDF81A30ADF81A30BDF81A30238063
:10336000ADF81A00BDF81A300A20ADF81A30BDF8D1
:103370001A3024F8023CADF81A00BDF81A303C208F
:10338000ADF81A30BDF81A302380ADF81A60BDF8D8
:103390001A30ADF81A30BDF81A302380ADF81A7023
:1033A000BDF81A30ADF81A30BDF81A302380ADF8E8
:1033B0001A60BDF81A30ADF81A30BDF81A30238003
:1033C000C323ADF81A30BDF81A30ADF81A30BDF885
:1033D0001A3024F8023CADF81A00BDF81A30ADF8E6
:1033E0001A30BDF81A302380ADF81A60BDF81A30D3
:1033F000ADF81A30BDF81A3023803A23ADF81A30F0
:10340000BDF81A30ADF81A30BDF81A302380ADF887
:103410001A60BDF81A30ADF81A30BDF81A302380A2
:103420003923ADF81A30BDF81A30ADF81A30BDF8AE
:103430001A302380ADF81A60BDF81A30ADF81A3092
:10344000BDF81A3023803723ADF81A30BDF81A3092
:10345000ADF81A30BDF81A302380ADF81A60BDF807
:103460001A30ADF81A30BDF81A302380ADF81A00C2
:10347000BDF81A303620ADF81A30BDF81A30238066
:10348000ADF81A60BDF81A30ADF81A30BDF81A3030
:103490002380ADF81A00BDF81A303220ADF81A308A
:1034A000BDF81A302380ADF81A60BDF81A30ADF8B7
:1034B0001A30BDF81A302380ADF81A00BDF81A3062
:1034C0002920ADF81A30BDF81A302380ADF81A6003
:1034D000BDF81A30ADF81A30BDF81A3023802F230A
:1034E000ADF81A30BDF81A50ADF81A50BDF81A50A0
:1034F0002580ADF81A60BDF81A50ADF81A50BDF825
:103500001A5025802C25ADF81A50BDF81A50ADF888
:103510001A50BDF81A502580ADF81A60BDF81A503F
:10352000ADF81A50BDF81A5025802925ADF81A506B
:10353000BDF81A50ADF81A50BDF81A502580ADF8F4
:103540001A60BDF81A50ADF81A50BDF81A5025800F
:103550002625ADF81A50BDF81A70ADF81A70BDF8EE
:103560001A702780ADF81A60BDF81A70ADF81A709D
:10357000BDF81A702780ADF81A10BDF81A70ADF8B2
:103580001A70BDF81A702780ADF81A60BDF81A706D
:10359000ADF81A70BDF81A702780ADF81A10BDF892
:1035A0001A70ADF81A70BDF81A702780ADF81A605D
:1035B000BDF81A70ADF81A70BDF81A70278023276D
:1035C000ADF81A70BDF81A70ADF81A70BDF81A701F
:1035D0002780ADF81A60BDF81A70ADF81A70BDF802
:1035E0001A702780ADF81A90BDF81A704FF07A095A
:1035F000ADF81A70BDF81A702780ADF81A60BDF8E2
:103600001A70ADF81A70BDF81A702780ADF81A80DC
:10361000BDF81A704FF0B908ADF81A70BDF81A70FD
:103620002780ADF81A60BDF81A70ADF81A70BDF8B1
:103630001A702780ADF81AE0BDF81A70ADF81A704C
:10364000BDF81A702780ADF81A60BDF81A70ADF891
:103650001A70BDF81A702780ADF81A30BDF81A300C
:10366000C427ADF81A30BDF81A302380ADF81A60BF
:10367000BDF81A30ADF81A30BDF81A302380ADF815
:103680001AC0BDF81A304FF0640CADF81A30BDF80E
:103690001A302380ADF81A60BDF81A30ADF81A3030
:1036A000BDF81A302380ADF81A00BDF81A30C420D6
:1036B000ADF81A30BDF81A302380ADF81A60BDF8A5
:1036C0001A30ADF81A30BDF81A302380ADF81A5010
:1036D000BDF81A30ADF81A30BDF81A302380ADF8B5
:1036E0001A60BDF81A30ADF81A30BDF81A302380D0
:1036F000ADF81A10BDF81A30ADF81A30BDF81A300E
:103700002380ADF81A60BDF81A30ADF81A30BDF854
:103710001A302380ADF81A10BDF81A10ADF81A103F
:10372000BDF81A102180ADF81A60BDF81A10ADF876
:103730001A10BDF81A102180ADF81A20BDF81A1021
:10374000ADF81A10BDF81A102180ADF81A60BDF856
:103750001A10ADF81A10BDF81A102180ADF81A0031
:10376000BDF81A106220ADF81A10BDF81A1024F82E
:10377000021CADF81A00BDF81A100520ADF81A1099
:10378000BDF81A102180ADF81A60BDF81A10ADF816
:103790001A10BDF81A102180ADF81A00BDF81A10E1
:1037A0008420ADF81A10BDF81A102180ADF81A6007
:1037B000BDF81A10ADF81A10BDF81A102180ADF836
:1037C0001A00BDF81A10F020ADF81A10BDF81A1042
:1037D0002180ADF81A60BDF81A10ADF81A10BDF8C6
:1037E0001A102180ADF81A00BDF81A105020ADF85B
:1037F0001A10BDF81A102180ADF81A60BDF81A1021
:10380000ADF81A10BDF81A1021801821ADF81A1061
:10381000BDF81A30ADF81A30BDF81A302380ADF873
:103820001A60BDF81A30ADF81A30BDF81A3023808E
:10383000A423ADF81A30BDF81A30ADF81A30BDF82F
:103840001A302380ADF81A60BDF81A30ADF81A307E
:10385000BDF81A302380ADF81A10BDF81A10ADF873
:103860001A10BDF81A102180ADF81A60BDF81A10B0
:10387000ADF81A10BDF81A102180ADF81A00BDF885
:103880001A10F320ADF81A10BDF81A102180ADF807
:103890001A60BDF81A10ADF81A10BDF81A10218080
:1038A0000C21ADF81A10BDF81A10ADF81A10BDF8B9
:1038B0001A102180ADF81A60BDF81A10ADF81A1070
:1038C000BDF81A1021801721ADF81A10BDF81A3072
:1038D000ADF81A30BDF81A302380ADF81A60BDF883
:1038E0001A30ADF81A30BDF81A3023809523ADF8A0
:1038F0001A30BDF81A30ADF81A30BDF81A302380EE
:10390000ADF81A60BDF81A30ADF81A30BDF81A30AB
:103910002380ADF81A00BDF81A30E620ADF81A3051
:10392000BDF81A302380ADF81A60BDF81A30ADF832
:103930001A30BDF81A302380ADF81A00BDF81A30DD
:103940004420ADF81A30BDF81A302380ADF81A6063
:10395000BDF81A30ADF81A30BDF81A302380C523EF
:10396000ADF81A30BDF81A30ADF81A30BDF81A307B
:1039700024F8023CADF81AE0BDF81A304FF0360ECC
:10398000ADF81A30BDF81A302380ADF81A60BDF8D2
:103990001A30ADF81A30BDF81A302380ADF81A008D
:1039A000BDF81A307620ADF81A30BDF81A302380F1
:1039B000ADF81A60BDF81A30ADF81A30BDF81A30FB
:1039C00023806523ADF81A30BDF81A30ADF81A30EF
:1039D000BDF81A302380ADF81A60BDF81A30ADF882
:1039E0001A30BDF81A302380ADF81A00BDF81A302D
:1039F0008820ADF81A30BDF81A302380ADF81A606F
:103A0000BDF81A30ADF81A30BDF81A302380ADF881
:103A10001A00BDF81A30C620ADF81A30BDF81A30B9
:103A20002380ADF81A60BDF81A30ADF81A30BDF831
:103A30001A302380ADF81A00BDF81A300120ADF815
:103A40001A30BDF81A3024F8023CADF81AB0BDF8AF
:103A50001A204FF0520BADF81A20BDF81A208B2314
:103A60002280ADF81A60BDF81A20ADF81A20BDF812
:103A70001A202280ADF81A10BDF81A101622ADF8DF
:103A80001A10BDF81A102180ADF81A60BDF81A108E
:103A9000ADF81A10BDF81A102180ADF81A00BDF863
:103AA0001A10C720ADF81A10BDF81A102180ADF811
:103AB0001A60BDF81A10ADF81A10BDF81A1021805E
:103AC000ADF81A00BDF81A10E020ADF81A10BDF8D4
:103AD0001A1024F8021CADF81A60BDF81A10ADF8DF
:103AE0001A10BDF81A102180ADF81A60BDF81A102E
:103AF000ADF81A10BDF81A102180ADF81A60BDF8A3
:103B00001A10ADF81A10BDF81A102180ADF81A601D
:103B1000BDF81A10ADF81A10BDF81A102180C8218E
:103B2000ADF81A10BDF81A10ADF81A10BDF81A1039
:103B300024F8021CADF81A60BDF81A10ADF81A107E
:103B4000BDF81A102180ADF81A60BDF81A10ADF852
:103B50001A10BDF81A102180ADF81A60BDF81A10BD
:103B6000ADF81A10BDF81A102180ADF81A60BDF832
:103B70001A10ADF81A10BDF81A102180C921ADF83D
:103B80001A10BDF81A10ADF81A10BDF81A1024F862
:103B9000021CADF81A60BDF81A10ADF81A10BDF885
:103BA0001A102180ADF81A60BDF81A10ADF81A107D
:103BB000BDF81A102180ADF81A60BDF81A10ADF8E2
:103BC0001A10BDF81A102180ADF81A60BDF81A104D
:103BD000ADF81A10BDF81A102180ADF81A60BDF8C2
:103BE0001A10ADF81A10BDF81A102180ADF81A603D
:103BF000BDF81A10ADF81A10BDF81A102180ADF8F2
:103C00001A60BDF81A10ADF81A10BDF81A1021800C
:103C1000ADF81A60BDF81A10ADF81A10BDF81A10F8
:103C20002180ADF81A60BDF81A10ADF81A10BDF871
:103C30001A102180ADF81A60BDF81A10ADF81A10EC
:103C4000BDF81A102180ADF81A60BDF81A10ADF851
:103C50001A10BDF81A102180ADF81A60BDF81A10BC
:103C6000ADF81A10BDF81A102180ADF81A60BDF831
:103C70001A10ADF81A10BDF81A102180ADF81A60AC
:103C8000BDF81A10ADF81A10BDF81A102180ADF861
:103C90001A60BDF81A10ADF81A10BDF81A1021807C
:103CA000ADF81A60BDF81A10ADF81A10BDF81A1068
:103CB0002180ADF81A00BDF81A101C20ADF81A10BA
:103CC000BDF81A1024F8021CADF81A20BDF81A101D
:103CD000ADF81A10BDF81A102180ADF81A60BDF8C1
:103CE0001A10ADF81A10BDF81A102180ADF81A009C
:103CF000BDF81A10ADF81A10BDF81A102180ADF8F1
:103D00001A60BDF81A10ADF81A10BDF81A1021800B
:103D1000ADF81AA0BDF81A004FF0A80AADF81A00C5
:103D2000BDF81A00CA212080ADF81A60BDF81A004B
:103D3000ADF81A00BDF81A002080ADF81AE0BDF801
:103D40001A00ADF81A00BDF81A002080ADF81A600C
:103D5000BDF81A00ADF81A00BDF81A002080462000
:103D6000ADF81A00BDF81A00ADF81A00BDF81A0037
:103D70002080ADF81A60BDF81A00ADF81A00BDF841
:103D80001A002080ADF81AB0BDF81A00ADF81A007C
:103D9000BDF81A002080ADF81A60BDF81A00ADF821
:103DA0001A00BDF81A002080ADF81AC0BDF81A003C
:103DB000ADF81A00BDF81A002080ADF81A60BDF801
:103DC0001A00ADF81A00BDF81A002080ADF81A905C
:103DD000BDF81A00ADF81A00BDF81A002080ADF841
:103DE0001A60BDF81A00ADF81A00BDF81A0020805C
:103DF000ADF81A30BDF81A00ADF81A00BDF81A0077
:103E00002080ADF81A60BDF81A00ADF81A00BDF8B0
:103E10001A0020809920ADF81A00BDF81A00ADF8FC
:103E20001A00BDF81A002080ADF81A60BDF81A001B
:103E3000ADF81A00BDF81A002080ADF81AA0BDF840
:103E40001A00ADF81A00BDF81A002080ADF81A600B
:103E5000BDF81A00ADF81A00BDF81A002080ADF8C0
:103E60001A80BDF81A00ADF81A00BDF81A002080BB
:103E7000ADF81A60BDF81A00ADF81A00BDF81A00C6
:103E80002080ADF81A70BDF81A00ADF81A00BDF820
:103E90001A002080ADF81A60BDF81A00ADF81A00BB
:103EA000BDF81A002080ADF81A10BDF81A00ADF860
:103EB0001A00BDF81A002080ADF81A60BDF81A008B
:103EC000ADF81A00BDF81A002080D220ADF81A0013
:103ED000BDF81A50ADF81A50BDF81A502580ADF84B
:103EE0001A60BDF81A50ADF81A50BDF81A50258066
:103EF000D925ADF81A50BDF81A50ADF81A50BDF8D2
:103F00001A502580ADF81A60BDF81A50ADF81A5055
:103F1000BDF81A502580E025ADF81A50BDF81A50AA
:103F2000ADF81A50BDF81A502580ADF81A60BDF8EA
:103F30001A50ADF81A50BDF81A502580F325ADF887
:103F40001A50BDF81A50ADF81A50BDF81A50258015
:103F5000ADF81A60BDF81A50ADF81A50BDF81A50F5
:103F60002580E125ADF81A50BDF81A50ADF81A5069
:103F7000BDF81A5024F8025CADF81A20BDF81A20DA
:103F8000B725ADF81A20BDF81A202280ADF81A60C6
:103F9000BDF81A20ADF81A20BDF81A2022801C2284
:103FA000ADF81A20BDF81A20ADF81A20BDF81A2075
:103FB0002280ADF81A60BDF81A20ADF81A20BDF8BD
:103FC0001A2022802222ADF81A20BDF81A20ADF85E
:103FD0001A20BDF81A202280ADF81A60BDF81A2008
:103FE000ADF81A20BDF81A202280ADF81AE0BDF80D
:103FF0001A204FF0F30EADF81A20BDF81A202280D7
:10400000ADF81A60BDF81A20ADF81A20BDF81A20D4
:1040100022804522ADF81A20BDF81A20ADF81A20EA
:10402000BDF81A202280ADF81A60BDF81A20ADF84C
:104030001A20BDF81A202280ADF81AB0BDF81A2057
:104040004FF0440BADF81A20BDF81A202280ADF8CD
:104050001A60BDF81A20ADF81A20BDF81A20228087
:10406000ADF81AC0BDF81A204FF0F30CADF81A20C5
:10407000BDF81A202280ADF81A60BDF81A20ADF8FC
:104080001A20BDF81A202280ADF81A90BDF81A2027
:104090004FF00509ADF81A20BDF81A202280ADF8BE
:1040A0001A60BDF81A20ADF81A20BDF81A20228037
:1040B000ADF81A30BDF81A20C723ADF81A20BDF8A4
:1040C0001A202280ADF81A60BDF81A20ADF81A2027
:1040D000BDF81A2022809922ADF81A20BDF81A20C6
:1040E000ADF81A20BDF81A202280ADF81A60BDF88C
:1040F0001A20ADF81A20BDF81A202280ADF81AA0B7
:10410000BDF81A204FF0A60AADF81A20BDF81A2003
:104110002280ADF81A60BDF81A20ADF81A20BDF85B
:104120001A202280ADF81A80BDF81A204FF08808B6
:10413000ADF81A20BDF81A202280ADF81A60BDF83B
:104140001A20ADF81A20BDF81A202280ADF81A7096
:10415000BDF81A20C227ADF81A20BDF81A20228017
:10416000ADF81A60BDF81A20ADF81A20BDF81A2073
:104170002280ADF81A10BDF81A10D122ADF81A102D
:10418000BDF81A102180ADF81A60BDF81A10ADF80C
:104190001A10BDF81A102180ADF81A00BDF81A00E7
:1041A000ADF81A00BDF81A002080ADF81A60BDF80D
:1041B0001A00ADF81A00BDF81A002080D820ADF81A
:1041C0001A00BDF81A00ADF81A00BDF81A002080D8
:1041D000ADF81A60BDF81A00ADF81A00BDF81A0063
:1041E0002080E020ADF81A00BDF81A00ADF81A00E2
:1041F000BDF81A002080ADF81A60BDF81A00ADF8BD
:104200001A00BDF81A002080ADF81AE0BDF81A00B7
:10421000ADF81A00BDF81A002080ADF81A60BDF89C
:104220001A00ADF81A00BDF81A002080E220ADF89F
:104230001A00BDF81A00ADF81A00BDF81A0024F8EB
:10424000020CADF81A90BDF81A00ADF81A00BDF8CE
:104250001A002080ADF81A60BDF81A00ADF81A00F7
:10426000BDF81A0020800B20ADF81A00BDF81A0026
:10427000ADF81A00BDF81A002080ADF81A60BDF83C
:104280001A00ADF81A00BDF81A0020801B20ADF806
:104290001A00BDF81A00ADF81A00BDF81A00208007
:1042A000ADF81A60BDF81A00ADF81A00BDF81A0092
:1042B00020803420ADF81A00BDF81A00ADF81A00BD
:1042C000BDF81A002080ADF81A60BDF81A00ADF8EC
:1042D0001A00BDF81A002080ADF81AB0BDF81A0017
:1042E000ADF81A00BDF81A002080ADF81A60BDF8CC
:1042F0001A00ADF81A00BDF81A0020804F20ADF862
:104300001A00BDF81A00ADF81A00BDF81A00208096
:10431000ADF81A60BDF81A00ADF81A00BDF81A0021
:1043200020806120ADF81A00BDF81A00ADF81A001F
:10433000BDF81A002080ADF81A60BDF81A00ADF87B
:104340001A00BDF81A0020807920ADF81A00BDF8D7
:104350001A00ADF81A00BDF81A002080ADF81A60F6
:10436000BDF81A00ADF81A00BDF81A002080ADF8AB
:104370001A80BDF81A00ADF81A00BDF81A002080A6
:10438000ADF81A60BDF81A00ADF81A00BDF81A00B1
:1043900020809720ADF81A00BDF81A10ADF81A1059
:1043A000BDF81A102180ADF81A60BDF81A10ADF8EA
:1043B0001A10BDF81A102180ADF81AA0BDF81A1015
:1043C000ADF81A10BDF81A102180ADF81A60BDF8CA
:1043D0001A10ADF81A10BDF81A102180ADF81A5055
:1043E000BDF81A10ADF81A10BDF81A102180ADF8FA
:1043F0001A60BDF81A10ADF81A10BDF81A10218015
:10440000ADF81A70BDF81A10ADF81A10BDF81A10F0
:104410002180ADF81A60BDF81A10ADF81A10BDF879
:104420001A102180ADF81A30BDF81A10ADF81A1024
:10443000BDF81A102180ADF81A60BDF81A10ADF859
:104440001A10BDF81A102180ADF81A20BDF81A1004
:10445000ADF81A10BDF81A102180ADF81A60BDF839
:104460001A10ADF81A10BDF81A102180D621ADF837
:104470001A10BDF81A10ADF81A10BDF81A102180E4
:10448000ADF81A60BDF81A10ADF81A10BDF81A1080
:104490002180DD21ADF81A10BDF81A10ADF81A1000
:1044A000BDF81A102180ADF81A60BDF81A10ADF8E9
:1044B0001A10BDF81A102180ADF81AE0BDF81A10D4
:1044C0004FF0C40EADF81A10BDF81A102180ADF8E7
:1044D0001A60BDF81A10ADF81A10BDF81A10218034
:1044E000E321ADF81A10BDF81A10ADF81A10BDF896
:1044F0001A1024F8021CADF81A90BDF81A104FF0EB
:104500008409ADF81A10BDF81A102180ADF81A60B0
:10451000BDF81A10ADF81A10BDF81A1021800A2142
:10452000ADF81A10BDF81A10ADF81A10BDF81A102F
:104530002180ADF81A60BDF81A10ADF81A10BDF858
:104540001A1021801C21ADF81A10BDF81A10ADF810
:104550001A10BDF81A102180ADF81A60BDF81A10B3
:10456000ADF81A10BDF81A1021803321ADF81A10D9
:10457000BDF81A10ADF81A10BDF81A102180ADF868
:104580001A60BDF81A10ADF81A10BDF81A10218083
:10459000ADF81AB0BDF81A104FF05D0BADF81A1057
:1045A000BDF81A102180ADF81A60BDF81A10ADF8E8
:1045B0001A10BDF81A1021805021ADF81A10BDF85C
:1045C0001A10ADF81A10BDF81A102180ADF81A6053
:1045D000BDF81A10ADF81A10BDF81A10218062212A
:1045E000ADF81A10BDF81A10ADF81A10BDF81A106F
:1045F0002180ADF81A60BDF81A10ADF81A10BDF898
:104600001A1021807821ADF81A10BDF81A10ADF8F3
:104610001A10BDF81A102180ADF81A60BDF81A10F2
:10462000ADF81A10BDF81A102180ADF81A80BDF847
:104630001A104FF0A208ADF81A10BDF81A10218018
:10464000ADF81A60BDF81A10ADF81A10BDF81A10BE
:104650002180ADF81A00BDF81A000121ADF81A004A
:10466000BDF81A002080ADF81A60BDF81A00ADF848
:104670001A00BDF81A002080ADF81AA0BDF81A0083
:104680004FF0740AADF81A00BDF81A002080ADF89A
:104690001A60BDF81A00ADF81A00BDF81A002080A3
:1046A000ADF81A50BDF81A00B325ADF81A00BDF8E0
:1046B0001A002080ADF81A60BDF81A00ADF81A0093
:1046C000BDF81A002080ADF81A70BDF81A00ADF8D8
:1046D0001A00BDF81A002080ADF81A60BDF81A0063
:1046E000ADF81A00BDF81A002080ADF81A30BDF8F8
:1046F0001A009323ADF81A00BDF81A002080ADF817
:104700001A60BDF81A00ADF81A00BDF81A00208032
:10471000ADF81A20BDF81A00ADF81A00BDF81A005D
:104720002080ADF81A60BDF81A00ADF81A00BDF887
:104730001A002080D520ADF81A00BDF81A00ADF897
:104740001A00BDF81A002080ADF81A60BDF81A00F2
:10475000ADF81A00BDF81A002080DD20ADF81A006F
:10476000BDF81A00ADF81A00BDF81A002080ADF8A7
:104770001A60BDF81A00ADF81A00BDF81A002080C2
:10478000ADF81AC0BDF81A004FF0D30CADF81A00FE
:10479000BDF81A002080ADF81A60BDF81A00ADF817
:1047A0001A00BDF81A002080E420ADF81A00BDF808
:1047B0001A00ADF81A00BDF81A0024F8020CADF882
:1047C0001A10BDF81A00ADF81A00BDF81A002080C2
:1047D000ADF81A60BDF81A00ADF81A00BDF81A005D
:1047E0002080ADF81A10BDF81A00BE21ADF81A00ED
:1047F000BDF81A002080ADF81A60BDF81A00ADF8B7
:104800001A00BDF81A0020800220ADF81A00BDF889
:104810001A00ADF81A00BDF81A002080ADF81A6031
:10482000BDF81A00ADF81A00BDF81A0020802A2041
:10483000ADF81A00BDF81A00ADF81A00BDF81A005C
:104840002080ADF81A60BDF81A00ADF81A00BDF866
:104850001A0020803C20ADF81A00BDF81A00ADF80F
:104860001A00BDF81A002080ADF81A60BDF81A00D1
:10487000ADF81A00BDF81A0020804B20ADF81A00E0
:10488000BDF81A00ADF81A00BDF81A002080ADF886
:104890001A60BDF81A00ADF81A00BDF81A002080A1
:1048A000ADF81AB0BDF81A00ADF81A00BDF81A003C
:1048B0002080ADF81A60BDF81A00ADF81A00BDF8F6
:1048C0001A002080ADF81AA0BDF81A00ADF81A0041
:1048D000BDF81A002080ADF81A60BDF81A00ADF8D6
:1048E0001A00BDF81A002080ADF81A90BDF81A0021
:1048F000ADF81A00BDF81A002080ADF81A60BDF8B6
:104900001A00ADF81A00BDF81A002080ADF81A3070
:10491000BDF81A00ADF81A00BDF81A002080ADF8F5
:104920001A60BDF81A00ADF81A00BDF81A00208010
:10493000ADF81A80BDF81A00ADF81A00BDF81A00DB
:104940002080ADF81A60BDF81A00ADF81A00BDF865
:104950001A002080ADF81A50BDF81A00ADF81A0000
:10496000BDF81A002080ADF81A60BDF81A00ADF845
:104970001A00BDF81A002080ADF81A10BDF81A0010
:10498000ADF81A00BDF81A002080ADF81A60BDF825
:104990001A00ADF81A00BDF81A002080ADF81AE030
:1049A000BDF81A00ADF81A00BDF81A002080ADF865
:1049B0001A60BDF81A00ADF81A00BDF81A00208080
:1049C000CD20ADF81A00BDF81A20ADF81A20BDF8B8
:1049D0001A202280ADF81A60BDF81A20ADF81A200E
:1049E000BDF81A202280ADF81AC0BDF81A70DD2279
:1049F000ADF81A70BDF81A702780ADF81A60BDF8CE
:104A00001A70ADF81A70BDF81A702780ADF81A2028
:104A1000BDF81A70F322ADF81A70BDF81A7027802D
:104A2000ADF81A60BDF81A70ADF81A70BDF81A70BA
:104A30002780ADF81A20BDF81A70ADF81A70BDF8CD
:104A40001A702780ADF81A60BDF81A70ADF81A70A8
:104A5000BDF81A702780E527ADF81A70BDF81A70F6
:104A6000ADF81A70BDF81A7024F8027CADF81A601F
:104A7000BDF81A70ADF81A70BDF81A702780ADF83D
:104A80001A60BDF81A70ADF81A70BDF81A70278058
:104A9000ADF81A60BDF81A70ADF81A70BDF81A704A
:104AA0002780ADF81A60BDF81A70ADF81A70BDF81D
:104AB0001A7027800227ADF81A70BDF81A70ADF889
:104AC0001A70BDF81A702780ADF81A60BDF81A7018
:104AD000ADF81A70BDF81A7027802927ADF81A7042
:104AE000BDF81A70ADF81A70BDF81A702780ADF8CD
:104AF0001A60BDF81A70ADF81A70BDF81A702780E8
:104B00003C27ADF81A70BDF81A70ADF81A70BDF8F0
:104B10001A702780ADF81A60BDF81A70ADF81A70D7
:104B2000BDF81A7027804B27ADF81A70BDF81A70BF
:104B3000ADF81A70BDF81A702780ADF81A60BDF88C
:104B40001A70ADF81A70BDF81A702780ADF81AB057
:104B5000BDF81A704FF0550BADF81A70BDF81A7009
:104B60002780ADF81A60BDF81A70ADF81A70BDF85C
:104B70001A702780ADF81AA0BDF81A704FF0BB0A62
:104B8000ADF81A70BDF81A702780ADF81A60BDF83C
:104B90001A70ADF81A70BDF81A702780ADF81A9027
:104BA000BDF81A7040F21019ADF81A70BDF81A70FD
:104BB000C2F200092780ADF81A60BDF81A70ADF88E
:104BC0001A70BDF81A702780ADF81A30BDF81A3087
:104BD0007627ADF81A30BDF81A302380ADF81A6088
:104BE000BDF81A30ADF81A30BDF81A302380ADF890
:104BF0001A80BDF81A304FF07708ADF81A30BDF8BA
:104C00001A302380ADF81A60BDF81A30ADF81A30AA
:104C1000BDF81A302380ADF81A50BDF81A3045257A
:104C2000ADF81A30BDF81A302380ADF81A60BDF81F
:104C30001A30ADF81A30BDF81A302380ADF81A10CA
:104C4000BDF81A10ADF81A10BDF81A102180ADF891
:104C50001A60BDF81A10ADF81A10BDF81A102180AC
:104C6000ADF81AE0BDF81A104FF0110EADF81A1099
:104C7000BDF81A102180ADF81A60BDF81A10ADF811
:104C80001A10BDF81A102180ADF81A00BDF81A00EC
:104C9000ADF81A00BDF81A002080ADF81A60BDF812
:104CA0001A00ADF81A00BDF81A002080ADF81AC03D
:104CB000BDF81A004FF0560CADF81A00BDF81A00F6
:104CC0002080ADF81A60BDF81A00ADF81A00BDF8E2
:104CD0001A002080DC20ADF81A00BDF81A00ADF8EB
:104CE0001A00BDF81A002080ADF81A60BDF81A004D
:104CF000ADF81A00BDF81A002080ADF81A20BDF8F2
:104D00001A006622ADF81A00BDF81A002080ADF82E
:104D10001A60BDF81A00ADF81A00BDF81A0020801C
:104D2000E620ADF81A00BDF81A00ADF81A00BDF87B
:104D30001A0024F8020CADF81AE0BDF81A00ADF81C
:104D40001A00BDF81A002080ADF81A60BDF81A00EC
:104D5000ADF81A00BDF81A0020803420ADF81A0012
:104D6000BDF81A00ADF81A00BDF81A002080ADF8A1
:104D70001A60BDF81A00ADF81A00BDF81A002080BC
:104D8000ADF81AC0BDF81A00ADF81A00BDF81A0047
:104D90002080ADF81A60BDF81A00ADF81A00BDF811
:104DA0001A002080ADF81A70BDF81A00ADF81A008C
:104DB000BDF81A002080ADF81A60BDF81A00ADF8F1
:104DC0001A00BDF81A002080ADF81A80BDF81A103C
:104DD0008820ADF81A10BDF81A102180ADF81A60BD
:104DE000BDF81A10ADF81A10BDF81A102180ADF8F0
:104DF0001A20BDF81A10ADF81A10BDF81A1021804B
:104E0000ADF81A60BDF81A10ADF81A10BDF81A10F6
:104E10002180ADF81A00BDF81A109920ADF81A10CB
:104E2000BDF81A102180ADF81A60BDF81A10ADF85F
:104E30001A10BDF81A102180ADF81A00BDF81A102A
:104E4000ADF81A10BDF81A102180ADF81A60BDF83F
:104E50001A10ADF81A10BDF81A102180ADF81AA07A
:104E6000BDF81A309921ADF81A30BDF81A302380F8
:104E7000ADF81A60BDF81A30ADF81A30BDF81A3026
:104E80002380ADF81A00BDF81A304420ADF81A306E
:104E9000BDF81A302380ADF81A60BDF81A30ADF8AD
:104EA0001A30BDF81A302380ADF81A20BDF81A3038
:104EB000ADF81A30BDF81A302380ADF81A60BDF88D
:104EC0001A30ADF81A30BDF81A302380ADF81AB098
:104ED000BDF81A30ADF81A30BDF81A302380ADF89D
:104EE0001A60BDF81A30ADF81A30BDF81A302380B8
:104EF000ADF81AB0BDF81A30ADF81A30BDF81A3056
:104F00002380ADF81A60BDF81A30ADF81A30BDF83C
:104F10001A302380ADF81A50BDF81A30ADF81A30A7
:104F2000BDF81A302380ADF81A60BDF81A30ADF81C
:104F30001A30BDF81A3023804323ADF81A30BDF87B
:104F40001A30ADF81A30BDF81A302380ADF81A6067
:104F5000BDF81A30ADF81A30BDF81A302380ADF81C
:104F60001A00BDF81A30ADF81A30BDF81A30238097
:104F7000ADF81A60BDF81A30ADF81A30BDF81A3025
:104F80002380E723ADF81A30BDF81A30ADF81A3097
:104F9000BDF81A3024F8023C3223ADF81A30BDF8BF
:104FA0001A30ADF81A30BDF81A302380ADF81A6007
:104FB000BDF81A30ADF81A30BDF81A302380ADF8BC
:104FC0001AB0BDF81A30ADF81A30BDF81A30238087
:104FD000ADF81A60BDF81A30ADF81A30BDF81A30C5
:104FE0002380ADF81A70BDF81A30ADF81A30BDF84C
:104FF0001A302380ADF81A60BDF81A30ADF81A30B7
:10500000BDF81A302380ADF81A20BDF81A30ADF87B
:105010001A30BDF81A302380ADF81A60BDF81A3086
:10502000ADF81A30BDF81A3023806723ADF81A3076
:10503000BDF81A70ADF81A70BDF81A702780ADF877
:105040001A60BDF81A70ADF81A70BDF81A70278092
:10505000ADF81A30BDF81A30ADF81A30BDF81A3074
:105060002380ADF81A60BDF81A30ADF81A30BDF8DB
:105070001A3023808723ADF81A30BDF81A70ADF8C6
:105080001A70BDF81A702780ADF81A60BDF81A7052
:10509000ADF81A70BDF81A702780ADF81A10BDF877
:1050A0001A70ADF81A70BDF81A702780ADF81A6042
:1050B000BDF81A70ADF81A70BDF81A702780ADF8F7
:1050C0001AA0BDF81A70ADF81A70BDF81A702780D2
:1050D000ADF81A60BDF81A70ADF81A70BDF81A7004
:1050E0002780ADF81A10BDF81A70ADF81A70BDF827
:1050F0001A702780ADF81A60BDF81A70ADF81A70F2
:10510000BDF81A702780ADF81A80BDF81A70ADF896
:105110001A70BDF81A702780ADF81A60BDF81A70C1
:10512000ADF81A70BDF81A702780ADF81A00BDF8F6
:105130001A703320ADF81A70BDF81A702780ADF8D8
:105140001A60BDF81A70ADF81A70BDF81A70278091
:10515000ADF81AC0BDF81A70ADF81A70BDF81A7023
:105160002780ADF81A60BDF81A70ADF81A70BDF856
:105170001A7027802327ADF81A70BDF81A70ADF8A1
:105180001A70BDF81A702780ADF81A60BDF81A7051
:10519000ADF81A70BDF81A702780ADF81A00BDF886
:1051A0001A70ADF81A70BDF81A702780ADF81A6041
:1051B000BDF81A70ADF81A70BDF81A702780ADF8F6
:1051C0001A50BDF81A70ADF81A70BDF81A70278021
:1051D000ADF81A60BDF81A70ADF81A70BDF81A7003
:1051E0002780E827ADF81A70BDF81A70ADF81A706C
:1051F000BDF81A7024F8027CADF81A60BDF81A7078
:10520000ADF81A70BDF81A702780ADF81A60BDF8B5
:105210001A70ADF81A70BDF81A702780ADF81A1020
:10522000BDF81A70ADF81A70BDF81A702780ADF885
:105230001A60BDF81A70ADF81A70BDF81A702780A0
:10524000ADF81A30BDF81A308827ADF81A30BDF81D
:105250001A302380ADF81A60BDF81A30ADF81A3054
:10526000BDF81A302380ADF81A70BDF81A30ADF8C9
:105270001A30BDF81A302380ADF81A60BDF81A3024
:10528000ADF81A30BDF81A302380ADF81A80BDF899
:105290001A00AA23ADF81A00BDF81A002080ADF854
:1052A0001A60BDF81A00ADF81A00BDF81A00208087
:1052B000ADF81A20BDF81A00ADF81A00BDF81A00B2
:1052C0002080ADF81A60BDF81A00ADF81A00BDF8DC
:1052D0001A002080ADF81A70BDF81A002927ADF821
:1052E0001A00BDF81A002080ADF81A60BDF81A0047
:1052F000ADF81A00BDF81A002080ADF81A30BDF8DC
:105300001A00ADF81A00BDF81A002080ADF81A6036
:10531000BDF81A00ADF81A00BDF81A002080ADF8EB
:105320001AA0BDF81A00ADF81A00BDF81A002080C6
:10533000ADF81A60BDF81A00ADF81A00BDF81A00F1
:105340002080ADF81A10BDF81A004421ADF81A00FB
:10535000BDF81A002080ADF81A60BDF81A00ADF84B
:105360001A00BDF81A002080ADF81A20BDF81A0006
:10537000ADF81A00BDF81A002080ADF81A60BDF82B
:105380001A00ADF81A00BDF81A002080ADF81AB066
:10539000BDF81A00ADF81A00BDF81A002080ADF86B
:1053A0001A60BDF81A00ADF81A00BDF81A00208086
:1053B000ADF81AB0BDF81A00ADF81A00BDF81A0021
:1053C0002080ADF81A60BDF81A00ADF81A00BDF8DB
:1053D0001A002080ADF81A10BDF81A00ADF81A00B6
:1053E000BDF81A002080ADF81A60BDF81A00ADF8BB
:1053F0001A00BDF81A002080ADF81A10BDF81A0086
:10540000AA21ADF81A00BDF81A002080ADF81A6084
:10541000BDF81A00ADF81A00BDF81A002080ADF8EA
:105420001AB0BDF81A00ADF81A00BDF81A002080B5
:10543000ADF81A60BDF81A00ADF81A00BDF81A00F0
:105440002080E920ADF81A00BDF81A00ADF81A0066
:10545000BDF81A0024F8020CADF81A30BDF81A0095
:10546000ADF81A00BDF81A002080ADF81A60BDF83A
:105470001A00ADF81A00BDF81A002080ADF81A60C5
:10548000BDF81A00ADF81A00BDF81A002080ADF87A
:105490001A60BDF81A00ADF81A00BDF81A00208095
:1054A000ADF81A60BDF81A00ADF81A00BDF81A0080
:1054B00024F8020CADF81A10BDF81A00ADF81A0065
:1054C000BDF81A002080CF20ADF81A00BDF81A00F0
:1054D000ADF81A00BDF81A0024F8020CADF81A60F5
:1054E000BDF81A00ADF81A00BDF81A002080ADF81A
:1054F0001A60BDF81A00ADF81A00BDF81A00208035
:10550000ADF81A60BDF81A00ADF81A00BDF81A001F
:105510002080ADF81A60BDF81A00ADF81A00BDF889
:105520001A002080ADF81A60BDF81A00ADF81A0014
:10553000BDF81A002080ADF81A60BDF81A00ADF869
:105540001A00BDF81A002080ADF81A60BDF81A00E4
:10555000ADF81A00BDF81A002080ADF81A60BDF849
:105560001A00ADF81A00BDF81A002080ADF81A60D4
:10557000BDF81A00ADF81A00BDF81A002080ADF889
:105580001A60BDF81A00ADF81A00BDF81A002080A4
:10559000ADF81A60BDF81A00ADF81A00BDF81A008F
:1055A0002080ADF81A60BDF81A00ADF81A00BDF8F9
:1055B0001A002080ADF81A60BDF81A00ADF81A0084
:1055C000BDF81A002080ADF81A60BDF81A00ADF8D9
:1055D0001A00BDF81A002080ADF81A60BDF81A0054
:1055E000ADF81A00BDF81A002080ADF81A60BDF8B9
:1055F0001A00ADF81A00BDF81A002080ADF81A6044
:10560000BDF81A00ADF81A00BDF81A002080F0208D
:10561000ADF81A00BDF81A00ADF81A00BDF81A006E
:1056200024F8020CADF81A60BDF81A00ADF81A00A3
:10563000BDF81A0020805020ADF81A00BDF81A00FD
:10564000ADF81A00BDF81A002080ADF81A60BDF858
:105650001A00ADF81A00BDF81A002080ADF81A60E3
:10566000BDF81A00ADF81A00BDF81A002080ADF898
:105670001A60BDF81A00ADF81A00BDF81A002080B3
:10568000F320ADF81A00BDF81A00ADF81A00BDF805
:105690001A0024F8020CADF81A60BDF81A00ADF833
:1056A0001A00BDF81A002080F920ADF81A00BDF8E4
:1056B0001A00ADF81A00BDF81A0024F8020C0620F2
:1056C000ADF81A00BDF81A00ADF81A00BDF81A00BE
:1056D00020801020ADF81A00BDF81A00ADF81A00AD
:1056E000BDF81A002080ADF81A70BDF81A00ADF8A8
:1056F0001A00BDF81A002080ADF81A60BDF81A0033
:10570000ADF81A00BDF81A0020803A20ADF81A0052
:10571000BDF81A00ADF81A00BDF81A0024F8020C02
:10572000ADF81AB0BDF81A00ADF81A00BDF81A00AD
:105730002080ADF81AE0BDF81A00ADF81A00BDF8E7
:105740001A0024F8020C6420FAF718FFADF81A705A
:10575000BDF81A002C21ADF81A00BDF81A0024F883
:10576000020C3520ADF81A00BDF81A00ADF81A0089
:10577000BDF81A0024F8020CADF81A60BDF81A0042
:10578000ADF81A00BDF81A0020805120ADF81A00BB
:10579000BDF81A00ADF81A00BDF81A0024F8020C82
:1057A000FF20ADF81A00BDF81A00ADF81A00BDF8D8
:1057B0001A0020805320ADF81A00BDF81A00ADF889
:1057C0001A00BDF81A0024F8020CADF81A10BDF842
:1057D0001A00ADF81A00BDF81A002080ADF81AB012
:1057E000BDF81A00ADF81A00BDF81A0024F8020C32
:1057F0008220ADF81A00BDF81A00ADF81A00BDF805
:105800001A002080ADF81A1001F077B84FF45A4012
:10581000ADF81A00BDF81A0045F21052ADF81A00A2
:10582000BDF81A0024F8020C2088ADF81A00BDF863
:105830001A00A9F804004FF45B40ADF81A00BDF857
:105840001A00ADF81A00BDF81A0024F8020C2088DE
:10585000ADF81A00BDF81A000102A9F804104FF4BF
:105860005C41ADF81A10BDF81A10ADF81A10BDF869
:105870001A1024F8021C2188ADF81A10BDF81A106D
:1058800041EA002081B2B1F5004F08BF45F2105047
:1058900081B29142A9F8040041F0E2804FF47040D7
:1058A00024F8020C552020804FF20100CFF6FF7043
:1058B000AA2124F8020C2180411C059124F8021C25
:1058C00052212180811C049124F8021C082121808E
:1058D000C11C039124F8021C01214FF430404BF20B
:1058E0000116218024F8020C0D2305F5E650CFF6B1
:1058F000FF764BF2015C238024F8020CA6F1FF0036
:10590000CFF6FF7C4BF20175238024F8020C4FF494
:10591000364034220CF58077CFF6FF75238024F8CB
:10592000020C228024F8027CA5F1FF07228024F8D3
:10593000027C4FF43147228024F8027C771C2380BC
:1059400024F8026C238024F8027C23804FF4374330
:1059500024F8023C6B1C4BF20126228024F8025CE6
:10596000228024F8023C4FF43243CFF6FF762280A7
:1059700024F8023C0027731C278024F8026C27803F
:1059800024F8023C4FF438434BF60105278024F8F5
:10599000023C2423CFF6FF75238024F8025C681CA8
:1059A000AE464FF43F452380029024F8020C23803A
:1059B00024F8025C4FF43345218024F8025C0F2563
:1059C00006F58076258024F8026C4BF2023625809D
:1059D00024F8026C4FF43946258024F8026C0EF549
:1059E0008076228024F8026C4BF60216CFF6FF7602
:1059F0004FF43545228024F8026C228024F8025CA2
:105A000008250CF10100258024F802CC258024F81B
:105A1000020C4FF44240258024F8020C03204FF47E
:105A20003A45208024F8025C06F1FF05238024F823
:105A3000025C06F580764BF60145238024F8026C63
:105A400023804FF43C43CFF6FF7524F8023C7823C3
:105A50006E1C278024F8025C2380019624F8026CD7
:105A60004FF43D46278024F8026C05F580762780A8
:105A700024F8026C23804BF60253CFF6FF7324F810
:105A8000023C4FF43E46FF33278024F8026C278007
:105A900024F8023C642323804FF4514324F8023C51
:105AA0004CF601134DF20216CFF6FF73CFF6FF76D8
:105AB00003F500634FF03309751C278024F8023C7E
:105AC000A4F8009024F8026C278024F8025CB51C2E
:105AD000228024F8025CF51C278024F8025C3A231B
