:020000040800F2
:10000000C8040020A101000847130008950F00084C
:1000100045130008D9020008EB1600080000000094
:100020000000000000000000000000007114000843
:10003000DB020008000000004913000873140008E8
:10004000BB010008BB010008BB010008BB010008A0
:10005000BB010008BB010008BB010008BB01000890
:10006000BB010008BB010008BB010008BB01000880
:10007000BB010008BB010008BB010008BB01000870
:10008000BB010008BB010008BB010008BB01000860
:10009000BB010008BB010008BB010008BB01000850
:1000A000BB010008BB010008BB010008BB01000840
:1000B000BB010008BB010008BB010008BB01000830
:1000C000BB010008BB010008BB010008BB01000820
:1000D000BB010008BB010008BB010008BB01000810
:1000E000BB010008BB010008BB010008BB01000800
:1000F000BB010008BB010008BB010008BB010008F0
:10010000BB010008BB010008BB010008BB010008DF
:10011000BB010008BB010008BB010008BB010008CF
:10012000BB010008BB010008BB010008BB010008BF
:10013000BB010008BB010008BB010008BB010008AF
:10014000BB010008BB010008BB010008BB0100089F
:10015000BB010008BB010008BB010008BB0100088F
:10016000BB010008BB010008BB010008BB0100087F
:10017000BB010008BB010008BB0100080000000033
:10018000BB010008BB010008DFF810D000F092F8B6
:10019000004800472D1B0008AFF30080C804002072
:1001A0000648804706480047FEE7FEE7FEE7FEE711
:1001B000FEE7FEE7FEE7FEE7FEE7FEE70D150008B7
:1001C000890100082DE9F05F0546002092469B4614
:1001D00088460646814640241BE02846414647465D
:1001E000224600F057F853465A46C01A914110D3A0
:1001F00011461846224600F03EF82D1A67EB01081A
:100200004F4622460120002100F035F817EB000987
:100210004E41201EA4F10104DFDC484631462A4647
:100220004346BDE8F09FD2B201E000F8012B491E21
:10023000FBD270470022F6E710B513460A46044683
:100240001946FFF7F0FF204610BD30B50B460146BA
:1002500000202022012409E021FA02F59D4205D365
:1002600003FA02F5491B04FA02F52844151EA2F10F
:100270000102F1DC30BD202A04DB203A00FA02F151
:10028000002070479140C2F1200320FA03F3194384
:1002900090407047202A04DB203A21FA02F0002126
:1002A000704721FA02F3D040C2F120029140084386
:1002B00019467047064C074D06E0E06840F0010320
:1002C00094E8070098471034AC42F6D3FFF760FF7C
:1002D00090220008B0220008FEE7704772B6FEE7E1
:1002E00070B5044600F00CF90546601C02D00448C5
:1002F0000078044400F004F9401BA042FAD370BD1A
:10030000140000202DE9F84FDFF8BCA100220125E0
:1003100003264FF00F090AF1040BAAF1040E00BFE7
:100320000B6805FA02F42340A34270D10F7907F05D
:100330000307012F01D0022F16D187684FEA420828
:1003400006FA08FC27EA0C07D1F80CC00CFA08FCE6
:100350004CEA070CC0F808C04768A7430C79C4F3FF
:10036000001494403C4344600C79E443A4070AD051
:10037000C4684FEA420C06FA0CF7BC438F6807FAD0
:100380000CF72743C7600C7904F00304022C12D148
:10039000D40800EB840CDCF820405707FF0E09FA64
:1003A00007F824EA0804D1F8108008FA07F848EAA8
:1003B0000408CCF8208004684FEA420C06FA0CF7D7
:1003C000BC430F7907F0030707FA0CF727430760D0
:1003D0004C6814F4403F70D03C4C276847F4804789
:1003E0002760246822F0030704F480440094384C0A
:1003F00007EB040CDCF8084897074FEA177809FA6E
:1004000008F7BC43334FB84202D1002724E054E040
:10041000314FB84201D101271EE0304FB84201D11F
:10042000022719E02E4FB84201D1032714E02D4FC7
:10043000B84201D104270FE02B4FB84201D1052764
:100440000AE02A4FB84201D1062705E0284FB842FA
:1004500001D1072700E0082707FA08F72743CCF85F
:100460000878DAF800405746D1F804C09C435FEAA8
:10047000CC2C00D51C433C60DBF800405F46D1F833
:1004800004C09C435FEA8C2C00D51C433C60DEF822
:1004900000407746D1F804C09C435FEA8C3C00D50D
:1004A0001C433C60084F083F3C68D1F804C09C43A3
:1004B0005FEACC3C00D51C433C60521C102AFFF480
:1004C0002FAFBDE8F88F0000083C014044380240DF
:1004D00000300140000002400004024000080240D9
:1004E000000C0240001002400014024000180240BC
:1004F000001C02400AB1816170470904FBE700005B
:10050000014880687047000014000020024881689C
:100510000278114481607047140000200B4810B528
:10052000016841F400710160016841F4806101607B
:10053000016841F480710160032000F061F80F2030
:1005400000F006F800F024F8002010BD003C024046
:1005500070B50D4D04464FF47A712878B1FBF0F078
:100560000A490968B1FBF0F000F047FC48B9102CCB
:1005700007D200222146501E00F022F800206C60B5
:1005800070BD012070BD000014000020200000207C
:100590000A4808B5016841F480410160006800F430
:1005A000804000900548001F016841F080510160C3
:1005B000006800F08050009008BD00004438024000
:1005C000F0B40E4B1B680C46C3F30223C3F10705BE
:1005D000042D00D90425191D072901D2002300E0AC
:1005E000DB1E012606FA05F1491E214099409E4076
:1005F000761E16403143F0BC01F088B80CED00E0E7
:10060000064900F0070208684FF6FF03184040EA69
:100610000220034A10430860704700000CED00E020
:100620000000FA052DE9F0470E46050065D0DFF819
:100630001481D8F80000F7B200F00700B04207D2EA
:1006400088F80070D8F8000000F00700B04254D1DC
:1006500028683D4C810712D5400703D5206840F437
:10066000E05020602878000703D5206840F46040FF
:1006700020602068A96820F0F000084320602878F6
:10068000C0072DD0304968680839012812D00228E7
:1006900013D0032811D00968890700292DDA2168B1
:1006A00021F0030101432160FFF72AFF814641F257
:1006B000883A0EE009688903EFE709688901ECE7E9
:1006C000FFF71EFFA0EB0901514502D90320BDE849
:1006D000F0872068696800F00C00B0EB810FEFD163
:1006E000D8F80010404601F00701B14207D9077061
:1006F000006800F00700B04201D00120E7E7287849
:10070000400705D52068E96820F4E05008432060E0
:100710002878000706D52068296920F4604040EA5F
:10072000C100206000F038F82168084AC1F30311C5
:10073000515CC8400649086006480068FFF708FF9A
:100740000020C4E7003C024008380240762200083E
:1007500020000020180000200448054900680968AE
:10076000044AC1F38221515CC84070472000002038
:1007700008380240862200080448054900680968D4
:10078000044AC1F34231515CC84070472000002048
:100790000838024086220008154810B5006810F09D
:1007A0000C02144813D01449042A0FD0082A0ED181
:1007B0000F4C241F2268236802F03F025B0207D51A
:1007C0002068C0F38810A0FB010106E0084610BDB8
:1007D0002168C1F38811A1FB00010023FFF7F2FC9F
:1007E0002168C1F30141491C4900B0FBF1F010BD83
:1007F000083802400024F40040787D012DE9F84FCC
:1008000004006ED02078DFF84C93C007A9F10405EE
:100810004AD009F104000168C1F38101012908D01F
:100820000068C0F3810002280AD1D9F80000400214
:1008300006D52868800337D560680028E1D033E00A
:100840006068B0F5803F10D0B0F5A02F286810D0B8
:1008500020F480302860286820F4802028606068B8
:10086000A8B1FFF74DFE06460DE0286840F4803041
:10087000F4E740F480202860F7E700BFFFF740FE70
:10088000801B642873D828688003F7D50CE0FFF735
:1008900037FE064605E000BFFFF732FE801B6428E6
:1008A000F0D828688003F7D42078DFF8AC8280077E
:1008B0004FF0000A3ED5A748001D016811F00C0F4B
:1008C00008D00068C0F3810002280BD1D9F80000DD
:1008D000400207D42868800716D5E068012800D1B7
:1008E00012E033E1E068B8B10120C8F80000FFF77A
:1008F00007FE064605E000BFFFF702FE801B022848
:10090000C0D828688007F7D52868216920F0F8004A
:1009100040EAC10028600DE0C8F800A0FFF7F0FD34
:10092000064604E0FFF7ECFD801B02281FD828686C
:100930008007F7D42078000722D5864F8748616961
:10094000703771B101210160FFF7DAFD064604E05E
:10095000FFF7D6FD801B022809D838688007F7D535
:100960000EE0C0F800A0FFF7CBFD064605E082E0F0
:10097000FFF7C6FD801B02287DD838688007F7D4B2
:100980002078400768D5DFF8CCB100270BF13C0B8D
:10099000DBF80000C0000BD4DBF8001041F0805100
:1009A000CBF80010DBF80000012700F08050009029
:1009B0006B4E3068C00510D4306840F480703060F1
:1009C000FFF79EFD009005E0FFF79AFD0099401AA1
:1009D000022850D83068C005F6D55E4EA0686C3647
:1009E00001280FD00528306810D020F001003060B9
:1009F000306820F004003060A068B8B1FFF780FDD7
:100A000000900FE0306840F00100F4E740F004008F
:100A10003060F7E7FFF774FD0099411A41F2883022
:100A2000814266D830688007F4D50EE0FFF768FD94
:100A3000009007E0FFF764FD0099411A41F2883009
:100A4000814256D830688007F4D42FB1DBF800100B
:100A500021F08051CBF80010A069C8B33D49091DB1
:100A60000968C1F3810102294AD00228504607D003
:100A7000C8F8600000E03CE0FFF742FD04463BE0C0
:100A80004746C8F86000FFF73BFD064605E000BF9B
:100A9000FFF736FD801B02282BD828688001F7D489
:100AA000D4E907010843A16A2E4A490802EB014133
:100AB000626A41EA8211084394F82C1040EA01610D
:100AC000C9F8001001203866FFF71AFD044606E059
:100AD0003EE000BFFFF714FD001B022809D828687C
:100AE0008001F7D534E000BFFFF70AFD001B0228A4
:100AF00002D90320BDE8F88F28688001F4D427E0EC
:100B00000128F7D0D9F80000E26900F48001914291
:100B10001CD1226A00F03F01914217D147F6C07103
:100B2000626A0140B1EB821F10D1A26A4FF0FF331D
:100B300000F4403103EB5202B1EB024F06D194F8BE
:100B40002C1000F07060B0EB016F01D00120D1E7F4
:100B50000020CFE70438024000004742800E4742A1
:100B6000007000400000FFFF70B5040009D0606A0B
:100B7000002540B125616561A56294F8510040B13E
:100B80000CE0012070BD6068B0F5827FF4D0E561B3
:100B9000F2E784F85050204600F044F8022084F830
:100BA00051002068016821F040010160A08821897E
:100BB00000F4827001F404410843A18901F400614A
:100BC0000843217C01F002010843217D01F001016D
:100BD0000843218B01F400710843217F01F03801A3
:100BE000084394F8201001F080010843218D01F49E
:100BF0000051084321680860A069042101EA1040FF
:100C000094F8241001F0100108432168486020681E
:100C1000C16921F40061C1616565012084F851005A
:100C2000002070BD10B586B0044614216846FFF759
:100C300001FB13492068884220D112480021026834
:100C400042F480520260006800F4805005900D4824
:100C50001438026842F001020260006800F00100EE
:100C60000590A02000900220CDE90101032003900F
:100C70000520049069460448FFF744FB06B010BD08
:100C80000030014044380240000002402DE9F84F96
:100C9000044690F850000026984615468A460128DA
:100CA0000CD0012784F85070FFF72AFC814694F895
:100CB0005100B346012804D002269AE00220BDE884
:100CC000F88FBAF1000F6FD0002D6DD0032084F89B
:100CD0005100C4F854B0C4F830A0A586E586C4F825
:100CE00038B0A4F83CB0A4F83EB0C4F844B0C4F89E
:100CF00040B0A068B0F5004F09D12068016821F02C
:100D0000400101602068016841F480410160206871
:100D10000168490603D4016841F040010160E068C0
:100D2000B0F5006F606803D058B3012D29D049E0B9
:100D300008B1012D1FD1206B21680088C86006E032
:100D400020688168890709D5216B0988C160206BFB
:100D5000801C2063E08E401EE0860CE0FFF7D0FB95
:100D6000A0EB0901414503D3B8F1FF3F03D006E0F2
:100D7000B8F1000F03D0E08E0028E1D125E0032672
:100D800035E0206B21680078087306E020688168F0
:100D900089070AD5216B09780173206B401C2063F9
:100DA000E08E401EE0860DE01FE0FFF7A9FBA0EB00
:100DB0000901414503D3B8F1FF3F03D0DFE7B8F1A4
:100DC000000FDCD0E08E0028E0D14A4641462046A4
:100DD00000F0BCFA08B120206065A06818B920684E
:100DE000C16880680090606D08B1012601E084F858
:100DF000517084F850B0304661E710B5401EB0F134
:100E0000807F01D3012010BD4FF0E02460610F21ED
:100E1000601700F07BFC0020A0610720206100200B
:100E200010BD70B5040004D094F84100002510B145
:100E300006E0012070BD84F84050204600F024F800
:100E4000242084F841002068C16821F40051C16069
:100E5000204600F08BFB2068016921F4904101617C
:100E60002068416921F02A0141612068C16841F48C
:100E70000051C1606564202084F8410084F842007C
:100E80006563002070BD000010B586B004461421D3
:100E90006846FFF7CFF914492068884221D11348EA
:100EA0000021026842F010020260006800F01000A9
:100EB00005900E481438026842F001020260006892
:100EC00000F0010005904FF4C06000900220CDE9D1
:100ED0000101032003900720049069460448FFF7AE
:100EE00011FA06B010BD0000001001404438024065
:100EF000000002402DE9F843044690F8410098466E
:100F000016460D46202802D00220BDE8F88385B1A0
:100F10007EB100206064212084F84100FFF7F0FAE0
:100F2000A6848146E684A0682027B0F5805F02D0C1
:100F300003E00120E9E7206910B12E4600250EE00C
:100F400000260CE08021204600F096FBA8B9C6B12F
:100F500016F8010B21684860E08C401EE084E08CAC
:100F60004B464FF00002CDF800800028EAD14FF048
:100F70004001204600F080FB40B184F8417003201E
:100F8000C3E735F8020BC0F30800E3E784F84170CB
:100F90000020BAE7FEE7000010B56E4C01221021D8
:100FA0002046FFF7A7FA002204212046FFF7A2FA05
:100FB0000A20FFF795F9012204212046FFF79AFA4B
:100FC00065484FF4A071C1804FF4F0710181E020B9
:100FD00000F0C4F8002000F0DFF8032000F0DCF897
:100FE000092000F0D9F8082000F0D6F8162000F00B
:100FF000D3F80A2000F0D0F83F2000F0CDF8782098
:1010000000F0CAF84C2000F0C7F8092000F0C4F83E
:101010000A2000F0C1F8082000F0BEF8162000F009
:10102000BBF81A2000F0B8F80F2000F0B5F8E12066
:1010300000F094F8002000F0AFF8162000F0ACF8B3
:10104000192000F0A9F8032000F0A6F80F2000F006
:10105000A3F8052000F0A0F8322000F09DF845200C
:1010600000F09AF8462000F097F8042000F094F879
:101070000E2000F091F80D2000F08EF8352000F0E1
:101080008BF8372000F088F80F2000F085F8C0209A
:1010900000F064F8172000F07FF8152000F07CF8CD
:1010A000C12000F05BF8412000F076F8C52000F088
:1010B00055F8002000F070F8122000F06DF8802044
:1010C00000F06AF8362000F049F8482000F064F893
:1010D0003A2000F043F8662000F05EF8B02000F0FF
:1010E0003DF8802000F058F8B12000F037F8A0203B
:1010F00000F052F8B42000F031F8022000F04CF873
:10110000B62000F02BF8022000F046F8022000F094
:1011100043F8E92000F022F8002000F03DF8F72025
:1011200000F01CF8A92000F037F8512000F034F846
:101130002C2000F031F8822000F02EF8112000F071
:101140000DF87820FFF7CCF8BDE81040292000F01A
:1011500005B80000000002400000002038B50C4C2B
:101160008DF80000002208212046FFF7C3F9002275
:1011700010212046FFF7BEF901231A4669460548AB
:10118000FFF784FD012210212046FFF7B3F938BD97
:10119000000002402800002038B50C4C8DF80000FB
:1011A000012208212046FFF7A5F900221021204640
:1011B000FFF7A0F901231A4669460548FFF766FDC7
:1011C000012210212046FFF795F938BD00000240AA
:1011D000280000202DE9F047DFF854800C46064631
:1011E0000122082145464046FFF784F900221021DC
:1011F0002846FFF77FF94FF400474FF0FF390DE025
:10120000BC4201D9384600E0204685B24B462A460A
:1012100031460848FFF73AFD2E44641B002CEFD1FD
:101220004046BDE8F04701221021FFF763B90000F6
:1012300000000240280000202DE9FC5F0746DDE9A0
:101240000C9606EB460045009B46924688460024D5
:101250000DE000BF05FB0480CDE9009600B25B46BF
:10126000514600F01DFB641CA4B2282C02D23A5D4A
:10127000002AEFD1BDE8FC9F10B586B01421684666
:10128000FEF7D8FF0D48016841F0010101600068D8
:101290000B4C00F00100059000221C212046FFF7B6
:1012A00029F91C200121CDE900010220CDE902101D
:1012B00069462046FFF726F806B010BD30380240D8
:1012C00000000240104810B50E4901604FF48271D1
:1012D000416000218160C1604FF400720161C0E98A
:1012E00005120822C0E90721416281620A21C16218
:1012F000FFF73AFC002803D0BDE81040FEF7EEBF30
:1013000010BD000000300140280000200C4810B53E
:101310000A4901604FF4E1314160002181600C22F3
:10132000C160C0E904128161C161FFF77AFD002844
:1013300003D0BDE81040FEF7D1BF10BD0010014042
:1013400080000020FEE7FEE770470000F8B5154674
:101350000E460B46009204460122022100F02CF8B2
:10136000A0B9134813490068B0FBF1F04FF47A714B
:10137000484300906068B0F5827F0DD1334600226B
:1013800080212046009500F017F870B1606D40F0A4
:10139000200060650320F8BD009830B1401E009029
:1013A00020688068C0430006F6D50020F8BD000024
:1013B0002000002000366E012DE9F8431E469146BC
:1013C00088460446089DFFF79BF8401B351AFFF737
:1013D00097F8074625480068C0F3CB30684338E0EB
:1013E000701C37D0FFF78CF8C01BA84203D215B190
:1013F000009860B32CE02068416821F0E001416072
:101400006068B0F5827F0BD1A068B0F5004F02D0C4
:10141000B0F5806F04D12068016821F040010160BF
:10142000A06AB0F5005F09D12068016821F400517D
:1014300001602068016841F400510160012084F8D6
:101440005100002084F850000320BDE8F8830025F7
:10145000401E00902068816838EA010004D0002115
:101460004945BDD10020F0E70121F9E72000002027
:101470007047FFF74BB8000030B593B03021684695
:10148000FEF7D8FE14210CA8FEF7D4FE1D48002557
:10149000016841F080510160006800F080501190B7
:1014A0001948016841F4804101600068022400F499
:1014B0008040119001200390102004900094069425
:1014C0000820CDE90750A020CDE9090404200B90A5
:1014D0006846FFF793F908B172B6FEE70CA90F2032
:1014E00081E831004FF4A0500F904FF480501090DD
:1014F00005210CA8FFF796F8002801D072B6FEE788
:1015000013B030BD4038024000700040024801680E
:1015100041F470010160704788ED00E001680C3112
:1015200051E8002F22F4907241E80023002BF5D1FE
:101530000168143151E8002F22F0010241E8002334
:10154000002BF5D1016B012909D101680C3151E85B
:10155000002F22F0100241E80023002BF5D12021BA
:1015600080F84210002101637047000070B5044606
:1015700000680169E26821F4405111430161216969
:10158000A068E26908436169114308432168CA6899
:1015900049F20C639A430243CA6020684169A26918
:1015A00021F440711143416131492068884202D0E1
:1015B0003049884202D1FFF7DFF801E0FFF7CCF8AD
:1015C000E2690023192164253226B2F5004F6268D2
:1015D00028D0A0FB0101930F9200FEF7F3FD014616
:1015E000B0FBF5F06FF01802504301EB800006EB02
:1015F0000010B0FBF5F000F0F002B1FBF5F002EBEB
:101600000012B1FBF5F06FF01803584301EB8000B6
:1016100006EB0010B0FBF5F000F00F00216810445D
:10162000886070BDA0FB010192185B41FEF7CAFD06
:101630000146B0FBF5F00201B1FBF5F06FF01803C5
:10164000584301EB800006EBC000B0FBF5F000F062
:10165000F80002EB4002B1FBF5F0584301EB8000CB
:1016600006EBC000B0FBF5F000F00700D6E7000085
:1016700000100140001401402DE9F8439846174638
:101680000D460446089E24E0701C22D0FEF738FF69
:10169000A0EB0800B0421AD8CEB12068C168490753
:1016A00017D5802D15D0402D13D00168C9430907E7
:1016B0000FD401680025406800902046FFF72EFFF8
:1016C0000820606484F840500120BDE8F8830320BE
:1016D000FBE72068006835EA000004D00020B8422B
:1016E000D2D00020F1E70120F9E7FEE70FB4054B67
:1016F00010B503A9044A029800F028F810BC5DF860
:1017000014FB0000111B0008240000200907090E2B
:10171000002804DB00F1E02080F80014704700F09E
:101720000F0000F1E02080F8141D704702E008C8A7
:10173000121F08C1002AFAD170477047002001E04B
:1017400001C1121F002AFBD1704700002DE9FF4F95
:1017500089B09B460446002506E025280BD05A4652
:101760000B999047641C6D1C20780028F5D10DB0B2
:101770002846BDE8F08F0027B8460122474900E01F
:10178000074314F8013F203B02FA03F00842F7D167
:1017900020782E2819D114F8010F47F004072A28C1
:1017A0000ED06FF02F022078A0F1300109290CD85B
:1017B00008EB880102EB410100EB0108641CF2E731
:1017C0000A98641C50F8048B0A9020780028CED028
:1017D000642808D0692806D075281ED05A460B996F
:1017E00090476D1C58E00A994FF00A0901C90A9107
:1017F000002802DA40422D2102E0390504D52B21D0
:101800008DF82010012103E0F90704D02021F7E72B
:101810008A4608AE0DE00021FAE70A994FF00A095E
:1018200001C90A91F7E74946FEF70FFD303106F886
:10183000011D0028F7D1ADEB060000F12009780763
:1018400001D44FF00108C84502DDA8EB090000E013
:1018500000208046002706E008A85A46C05D0B9984
:1018600090476D1C7F1C5745F6DB04E030205A463C
:101870000B9990476D1CB8F10001A8F10108F5DC47
:1018800005E016F8010B5A460B9990476D1CB9F10B
:101890000001A9F10109F4DC641C65E709280100D5
:1018A0002DE9F84F9A46374B88460B9C19788146AC
:1018B0004FF4F07504EB44004FF4A076012910D0EA
:1018C00003290ED0B04551DAA9454FDA08EB4000A4
:1018D00001284BD409EBC400012847D4587858B1EB
:1018E0000EE0B14542DAA84540DA09EB4000012894
:1018F0003CD408EBC400EFE7B02A01D3521CD2B2AB
:10190000214902EB8200002500EB010B01E0052DCF
:1019100009D01BF805700026F8070ED0012C04D062
:10192000CDF800A00FE00027F5E708EB060001B2B4
:1019300009EB050000B2524621E00A9850450CD050
:10194000012C15D0009006FB048001B205FB049029
:10195000234600B21A4600F049F8761C7F0876B29A
:10196000082ED9DB6D1C6DB2062DD0DBBDE8F88FDB
:1019700008EB060001B209EB050000B20A9A00F07C
:1019800005F8EAE700000020761D000870B514464F
:10199000002825DB134AD388984221DA00291FDB6F
:1019A000128991421CDA4A1C93B2421C92B289B24B
:1019B00080B200F01FF90C4D012208212846FEF7E5
:1019C00099FD002210212846FEF794FD204600F0E4
:1019D00063F92846BDE8704001221021FEF78ABD58
:1019E00070BD00000000002000000240F0B51C4661
:1019F000374BADF5017D1546DA88869E904264DA54
:101A00001B89994261DA47197F1E974201DB121A3E
:101A100015B20A19521E9A4201DB5A1A14B20A1957
:101A2000521E93B24219521E92B289B280B200F095
:101A3000E1F8F20AC6F3451006F01F01C0EB0020E2
:101A40003F26B0FBF6F01F23C6B2C2EB0222C1EB69
:101A50000120B2FBF3F2B0FBF3F0C3B2D2B24FF409
:101A6000007C002069460F180A547E70C01CBB70B1
:101A70006045F8D3174E012208213046FEF73AFDA3
:101A8000002210213046FEF735FD15FB04F44FF01F
:101A9000FF3713E0AA2C01D9AA2500E0254605EB63
:101AA000450082B23B4669460B48FFF7EFF801005C
:101AB00003D00AA0FFF71AFE02E0641B002CE9D154
:101AC000012210213046FEF715FD0DF5017DF0BD18
:101AD0000000002000000240280000205350492050
:101AE0007472616E736D6974206572726F723A20E0
:101AF00025640A0008B5009004480189C0880BB22B
:101B000002B200210846FFF771FF08BD0000002067
:101B100038B504468DF800000223012269460248C8
:101B2000FFF7E8F9204638BD800000201FB5FEF71A
:101B3000F5FCFFF7A1FCFFF79FFBFFF7C3FBFFF7E7
:101B4000E5FBFFF729FA4FF47A742046FEF7C8FB4D
:101B5000002000F07BF825A1D1E90001CDE90201C8
:101B60004FF6E070FFF7C6FF2046FEF7B9FB4FF4D3
:101B700078456E2364211A4608460095FFF736FF24
:101B80001F20002100904FF4F0734FF4A07208461C
:101B900000F0A1F82046FEF7A3FB01204FF6FF74EA
:101BA000CDE900400A220023114602A8FFF744FBBA
:101BB0000220CDE900401F2314220A2102A8FFF7CA
:101BC0003BFB0320CDE900404FF4FC6332220A21A5
:101BD00002A8FFF731FB0420CDE900402B46642228
:101BE0000A2102A8FFF728FBFEE7000068656C6C7D
:101BF0006F000000F8B507461C4615460E462A2021
:101C0000FFF7ACFA380A8DF800008DF80170280A49
:101C10008DF802008DF8035004216846FFF7DAFAC8
:101C20002B20FFF79BFA300A8DF800008DF8016039
:101C3000200A8DF802008DF8034004216846FFF762
:101C4000C9FABDE8F8402C20FFF788BA70B5044601
:101C50003620FFF783FA14F003000E4C4FF4A07601
:101C60004FF4F0750BD001280BD002280BD00328BD
:101C700004D1E820FFF790FAE580268170BD482066
:101C800002E02820F6E78820FFF786FAE680258123
:101C900070BD00000000002038B5C0F3451100F011
:101CA0001F02C30AC3EB03201F23B0FBF3F0C1EBF9
:101CB00001213F24B1FBF4F1C2EB0222B2FBF3F2AB
:101CC0008DF800008DF801108DF802200321684680
:101CD000FFF780FA38BD2DE9F05F0C460646154641
:101CE000191BA2EB060000D54942002800DA404249
:101CF000814207DD304626461D464FF00108044666
:101D0000134601E04FF00008AE4205DD30462E4696
:101D1000054620461C460346A81B0FFA80F9181BEF
:101D200000D540420FFA80FB09EBD97047109C4266
:101D300001DA012001E04FF0FF30824617E00A9AF5
:101D4000B8F1000F02D03146204601E0214630466E
:101D5000FFF71CFEA7EB0B0007B2002F05DA04EB20
:101D60000A0004B207EB090007B2761C36B2AE4295
:101D7000E5DDBDE8F09F00000000003E5B4F5B3EEC
:101D80003E6B4F6B3E1C3E7C3E1C183C7E3C181C40
:101D9000577D571C1C5E7F5E1C00183C1800FFE737
:101DA000C3E7FF0018241800FFE7DBE7FF30483ADD
:101DB000060E2629792926407F050507407F05253F
:101DC0003F5A3CE73C5A7F3E1C1C08081C1C3E7FC7
:101DD00014227F22145F5F005F5F06097F017F008E
:101DE0006689956A606060606094A2FFA2940804AE
:101DF0007E040810207E201008082A1C08081C2ACF
:101E000008081E101010100C1E0C1E0C30383E3826
:101E100030060E3E0E06000000000000005F0000CD
:101E20000007000700147F147F14242A7F2A12233E
:101E30001308646236495620500008070300001C4E
:101E40002241000041221C002A1C7F1C2A08083E57
:101E5000080800807030000808080808000060606A
:101E60000020100804023E5149453E00427F4000D8
:101E700072494949462141494D331814127F1027B0
:101E8000454545393C4A49493141211109073649FF
:101E9000494936464949291E0000140000004034D3
:101EA00000000008142241141414141400412214D8
:101EB0000802015909063E415D594E7C1211127CFF
:101EC0007F494949363E414141227F4141413E7F60
:101ED000494949417F090909013E414151737F0840
:101EE00008087F00417F41002040413F017F0814E6
:101EF00022417F404040407F021C027F7F04081047
:101F00007F3E4141413E7F090909063E4151215E24
:101F10007F09192946264949493203017F01033FB8
:101F20004040403F1F2040201F3F4038403F631447
:101F300008146303047804036159494D43007F4149
:101F400041410204081020004141417F0402010286
:101F500004404040404000030708002054547840AB
:101F60007F284444383844444428384444287F383F
:101F70005454541800087E090218A4A49C787F08C1
:101F800004047800447D40002040403D007F10283C
:101F9000440000417F40007C047804787C080404FD
:101FA000783844444438FC1824241818242418FC95
:101FB0007C08040408485454542404043F44243C3A
:101FC0004040207C1C2040201C3C4030403C4428A9
:101FD0001028444C9090907C4464544C4400083643
:101FE00041000000770000004136080002010204B1
:101FF000023C2623263C1EA1A161123A4040207AD1
:102000003854545559215555794122545478422118
:102010005554784020545579400C1E52721239554F
:10202000555559395454545939555454580000454C
:102030007C410002457D420001457C407D12111229
:102040007DF0282528F07C545545002054547C54BC
:102050007C0A097F4932494949323A4444443A3278
:102060004A4848303A4141217A3A42402078009D1E
:10207000A0A07D3D4242423D3D4040403D3C24FFCA
:102080002424487E4943662B2FFC2F2BFF0929F679
:1020900020C0887E090320545479410000447D41CA
:1020A0003048484A32384040227A007A0A0A727D23
:1020B0000D19317D2629292F28262929292630483E
:1020C0004D4020380808080808080808382F10C8AC
:1020D000ACBA2F102834FA00007B000008142A1430
:1020E0002222142A14085500550055AA55AA55AAAB
:1020F000FF55FF55FF000000FF00101010FF0014F7
:102100001414FF001010FF00FF1010F010F0141452
:1021100014FC001414F700FF0000FF00FF1414F477
:1021200004FC141417101F10101F101F1414141F78
:1021300000101010F0000000001F101010101F10F1
:10214000101010F010000000FF10101010101010F0
:102150001010FF10000000FF140000FF00FF00003F
:102160001F10170000FC04F414141710171414F4B3
:1021700004F40000FF00F714141414141414F700EE
:10218000F7141414171410101F101F141414F4143F
:102190001010F010F000001F101F0000001F1400AE
:1021A0000000FC140000F010F01010FF10FF1414D9
:1021B00014FF141010101F00000000F010FFFFFFAC
:1021C000FFFFF0F0F0F0F0FFFFFF0000000000FF65
:1021D000FF0F0F0F0F0F3844443844FC4A4A4A346B
:1021E0007E02020606027E027E0263554941633882
:1021F00044443C04407E201E2006027E020299A533
:10220000E7A5991C2A492A1C4C7201724C304A4D90
:102210004D303048784830BC625A463D3E494949C5
:10222000007E0101017E2A2A2A2A2A44445F44446E
:1022300040514A444040444A51400000FF0103E0FD
:1022400080FF000008086B6B083612362436060F34
:10225000090F06000018180000001010003040FFA1
:102260000101001F01011E00191D1712003C3C3C1A
:102270003C0000000000000000000000000001021F
:10228000030406070809000000000102030400001F
:10229000B022000800000020280000002C170008D1
:1022A000D822000828000020A00400003C170008E5
:1022B000010000000000000000000000000000001D
:1022C00000000000010000001000000000000000FD
:0822D0000024F40000000000EE
:040000050800018965
:00000001FF
