:020000040800F2
:1000000060040020A1010008E30D0008570D00085E
:10001000E10D0008D9020008FD0F000800000000F3
:10002000000000000000000000000000E70D0008D4
:10003000DB02000800000000E50D0008E90D0008E3
:10004000BB010008BB010008BB010008BB010008A0
:10005000BB010008BB010008DD020008BB0100086D
:10006000BB010008BB010008BB010008BB01000880
:10007000BB010008BB010008BB010008BB01000870
:10008000BB010008BB010008BB010008BB01000860
:10009000BB010008BB010008BB010008BB01000850
:1000A000BB010008BB010008BB010008BB01000840
:1000B000BB010008BB010008BB010008BB01000830
:1000C000BB010008BB010008BB010008BB01000820
:1000D000BB010008BB010008BB010008BB01000810
:1000E000BB010008BB010008BB010008BB01000800
:1000F000BB010008BB010008BB010008BB010008F0
:10010000BB010008BB010008BB010008BB010008DF
:10011000BB010008BB010008BB010008BB010008CF
:10012000BB010008BB010008BB010008BB010008BF
:10013000BB010008BB010008BB010008BB010008AF
:10014000BB010008BB010008BB010008BB0100089F
:10015000BB010008BB010008BB010008BB0100088F
:10016000BB010008BB010008BB010008BB0100087F
:10017000BB010008BB010008BB0100080000000033
:10018000BB010008BB010008DFF810D000F092F8B6
:1001900000480047D1110008AFF300806004002040
:1001A0000648804706480047FEE7FEE7FEE7FEE711
:1001B000FEE7FEE7FEE7FEE7FEE7FEE7690E000862
:1001C000890100082DE9F05F0546002092469B4614
:1001D00088460646814640241BE02846414647465D
:1001E000224600F057F853465A46C01A914110D3A0
:1001F00011461846224600F03EF82D1A67EB01081A
:100200004F4622460120002100F035F817EB000987
:100210004E41201EA4F10104DFDC484631462A4647
:100220004346BDE8F09FD2B201E000F8012B491E21
:10023000FBD270470022F6E710B513460A46044683
:100240001946FFF7F0FF204610BD30B50B460146BA
:1002500000202022012409E021FA02F59D4205D365
:1002600003FA02F5491B04FA02F52844151EA2F10F
:100270000102F1DC30BD202A04DB203A00FA02F151
:10028000002070479140C2F1200320FA03F3194384
:1002900090407047202A04DB203A21FA02F0002126
:1002A000704721FA02F3D040C2F120029140084386
:1002B00019467047064C074D06E0E06840F0010320
:1002C00094E8070098471034AC42F6D3FFF760FF7C
:1002D0003412000854120008FEE77047012000F0B5
:1002E0001FB872B6FEE7000070B5044600F01CF9B6
:1002F0000546601C02D004480078044400F014F95C
:10030000401BA042FAD370BD04000020012803D195
:1003100002480168491C016070470000000000208D
:10032000044910B50A68024202D00860FFF7EEFFE8
:1003300010BD0000143C01402DE9F84FDFF8BCA1CE
:100340000022012503264FF00F090AF1040BAAF140
:10035000040E00BF0B6805FA02F42340A34270D1DB
:100360000F7907F00307012F01D0022F16D18768FC
:100370004FEA420806FA08FC27EA0C07D1F80CC03D
:100380000CFA08FC4CEA070CC0F808C04768A74301
:100390000C79C4F3001494403C4344600C79E4436A
:1003A000A4070AD0C4684FEA420C06FA0CF7BC4313
:1003B0008F6807FA0CF72743C7600C7904F0030431
:1003C000022C12D1D40800EB840CDCF82040570733
:1003D000FF0E09FA07F824EA0804D1F8108008FA99
:1003E00007F848EA0408CCF8208004684FEA420C79
:1003F00006FA0CF7BC430F7907F0030707FA0CF76E
:10040000274307604C6814F4403F70D03C4C276889
:1004100047F480472760246822F0030704F48044EF
:100420000094384C07EB040CDCF8084897074FEAB7
:10043000177809FA08F7BC43334FB84202D10027B6
:1004400024E054E0314FB84201D101271EE0304F83
:10045000B84201D1022719E02E4FB84201D103273B
:1004600014E02D4FB84201D104270FE02B4FB842C2
:1004700001D105270AE02A4FB84201D1062705E03D
:10048000284FB84201D1072700E0082707FA08F7EC
:100490002743CCF80878DAF800405746D1F804C072
:1004A0009C435FEACC2C00D51C433C60DBF8004049
:1004B0005F46D1F804C09C435FEA8C2C00D51C43F6
:1004C0003C60DEF800407746D1F804C09C435FEA08
:1004D0008C3C00D51C433C60084F083F3C68D1F879
:1004E00004C09C435FEACC3C00D51C433C60521CDA
:1004F000102AFFF42FAFBDE8F88F0000083C014040
:100500004438024000300140000002400004024034
:1005100000080240000C024000100240001402409B
:1005200000180240001C024001488068704700002B
:1005300004000020024881680278114481607047FD
:10054000040000200B4810B5016841F400710160FF
:10055000016841F480610160016841F480710160CB
:10056000032000F06FF80F2000F006F800F024F8E8
:10057000002010BD003C024070B50D4D04464FF404
:100580007A712878B1FBF0F00A490968B1FBF0F004
:1005900000F00CFB48B9102C07D200222146501E57
:1005A00000F030F800206C6070BD012070BD0000CC
:1005B00004000020100000200A4808B5016841F43A
:1005C00080410160006800F4804000900548001FF1
:1005D000016841F080510160006800F08050009097
:1005E00008BD000044380240002809DB00F01F026B
:1005F000012191404009800000F1E020C0F8001185
:1006000070470000F0B40E4B1B680C46C3F3022386
:10061000C3F10705042D00D90425191D072901D2AE
:10062000002300E0DB1E012606FA05F1491E2140E9
:1006300099409E40761E16403143F0BC00F0F0BC5D
:100640000CED00E0064900F0070208684FF6FF03D2
:10065000184040EA0220034A104308607047000037
:100660000CED00E00000FA052DE9F0470E4605000C
:1006700065D0DFF81481D8F80000F7B200F0070069
:10068000B04207D288F80070D8F8000000F00700E8
:10069000B04254D128683D4C810712D5400703D59C
:1006A000206840F4E05020602878000703D52068D7
:1006B00040F4604020602068A96820F0F000084302
:1006C00020602878C0072DD0304968680839012893
:1006D00012D0022813D0032811D0096889070029F5
:1006E0002DDA216821F0030101432160FFF71CFF8F
:1006F000814641F2883A0EE009688903EFE709680C
:100700008901ECE7FFF710FFA0EB0901514502D981
:100710000320BDE8F0872068696800F00C00B0EBAA
:10072000810FEFD1D8F80010404601F00701B14227
:1007300007D90770006800F00700B04201D001201F
:10074000E7E72878400705D52068E96820F4E050FD
:10075000084320602878000706D52068296920F41E
:10076000604040EAC100206000F038F82168084A83
:10077000C1F30311515CC84006490860064800688F
:10078000FFF7FAFE0020C4E7003C024008380240B0
:100790001C12000810000020080000200448054931
:1007A00000680968044AC1F38221515CC84070475F
:1007B00010000020083802402C12000804480549A7
:1007C00000680968044AC1F34231515CC84070476F
:1007D00010000020083802402C120008154810B5FF
:1007E000006810F00C02144813D01449042A0FD0EA
:1007F000082A0ED10F4C241F2268236802F03F0202
:100800005B0207D52068C0F38810A0FB010106E059
:10081000084610BD2168C1F38811A1FB0001002327
:10082000FFF7D0FC2168C1F30141491C4900B0FB2E
:10083000F1F010BD083802400024F40040787D013A
:100840002DE9F84F04006ED02078DFF84C93C007F4
:10085000A9F104054AD009F104000168C1F381013E
:10086000012908D00068C0F3810002280AD1D9F814
:100870000000400206D52868800337D5606800284C
:10088000E1D033E06068B0F5803F10D0B0F5A02F24
:10089000286810D020F480302860286820F4802058
:1008A00028606068A8B1FFF73FFE06460DE02868A3
:1008B00040F48030F4E740F480202860F7E700BF80
:1008C000FFF732FE801B642873D828688003F7D5B1
:1008D0000CE0FFF729FE064605E000BFFFF724FE07
:1008E000801B6428F0D828688003F7D42078DFF8CC
:1008F000AC8280074FF0000A3ED5A748001D016872
:1009000011F00C0F08D00068C0F3810002280BD151
:10091000D9F80000400207D42868800716D5E0689F
:10092000012800D112E033E1E068B8B10120C8F835
:100930000000FFF7F9FD064605E000BFFFF7F4FDF4
:10094000801B0228C0D828688007F7D5286821694D
:1009500020F0F80040EAC10028600DE0C8F800A0CF
:10096000FFF7E2FD064604E0FFF7DEFD801B0228EC
:100970001FD828688007F7D42078000722D5864F33
:1009800087486169703771B101210160FFF7CCFDC3
:10099000064604E0FFF7C8FD801B022809D8386826
:1009A0008007F7D50EE0C0F800A0FFF7BDFD0646B2
:1009B00005E082E0FFF7B8FD801B02287DD838688B
:1009C0008007F7D42078400768D5DFF8CCB100273E
:1009D0000BF13C0BDBF80000C0000BD4DBF800107F
:1009E00041F08051CBF80010DBF80000012700F047
:1009F000805000906B4E3068C00510D4306840F4D1
:100A000080703060FFF790FD009005E0FFF78CFDEF
:100A10000099401A022850D83068C005F6D55E4EBD
:100A2000A0686C3601280FD00528306810D020F05F
:100A300001003060306820F004003060A068B8B178
:100A4000FFF772FD00900FE0306840F00100F4E71E
:100A500040F004003060F7E7FFF766FD0099411AA7
:100A600041F28830814266D830688007F4D50EE0C4
:100A7000FFF75AFD009007E0FFF756FD0099411A75
:100A800041F28830814256D830688007F4D42FB1C3
:100A9000DBF8001021F08051CBF80010A069C8B33A
:100AA0003D49091D0968C1F3810102294AD0022884
:100AB000504607D0C8F8600000E03CE0FFF734FD86
:100AC00004463BE04746C8F86000FFF72DFD0646A8
:100AD00005E000BFFFF728FD801B02282BD82868FF
:100AE0008001F7D4D4E907010843A16A2E4A4908D6
:100AF00002EB0141626A41EA8211084394F82C102A
:100B000040EA0161C9F8001001203866FFF70CFDCA
:100B1000044606E03EE000BFFFF706FD001B02288A
:100B200009D828688001F7D534E000BFFFF7FCFC46
:100B3000001B022802D90320BDE8F88F2868800135
:100B4000F4D427E00128F7D0D9F80000E26900F4D6
:100B5000800191421CD1226A00F03F01914217D1DD
:100B600047F6C071626A0140B1EB821F10D1A26AE0
:100B70004FF0FF3300F4403103EB5202B1EB024F70
:100B800006D194F82C1000F07060B0EB016F01D02A
:100B90000120D1E70020CFE704380240000047429F
:100BA000800E4742007000400000FFFF10B5401E5D
:100BB000B0F1807F01D3012010BD4FF0E0246061CF
:100BC0000F21601700F02CFA0020A061072020619F
:100BD000002010BD70B5040004D094F83D0000253D
:100BE00010B106E0012070BD84F83C50204600F0B2
:100BF00023F8242084F83D002068C16821F40051C6
:100C0000C160204600F038F92068016921F4904164
:100C100001612068416921F02A0141612068C168B1
:100C200041F40051C1602564202084F83D0084F81F
:100C30003E00002070BD000010B586B004461421AF
:100C40006846FFF7F7FA14492068884221D1134813
:100C50000021026842F010020260006800F01000FB
:100C600005900E481438026842F0010202600068E4
:100C700000F0010005904FF4C06000900220CDE923
:100C80000101032003900720049069460448FFF700
:100C900053FB06B010BD0000001001404438024074
:100CA000000002402DE9F843044690F83D001F463D
:100CB00016460D4620284CD1C5B1BEB194F83C0073
:100CC000012846D0012084F83C004FF00008C4F809
:100CD0004080212084F83D00FFF726FCA684814651
:100CE000E684A068B0F5805F03D004E00120BDE891
:100CF000F883206928B12E465FF0000584F83C8017
:100D00000EE00026FAE78021204600F03BF9A0B96A
:100D1000AEB116F8010B21684860E08C401EE084FB
:100D2000E08C4B464FF0000200970028EBD14FF0CB
:100D30004001204600F026F930B10320D7E735F80E
:100D4000020BC0F30800E6E7202084F83D000020F5
:100D5000CDE70220CBE7FEE700B587B01421684657
:100D6000FFF768FA0E48016841F001010160006870
:100D7000694600F001000590012000904FF48810B2
:100D80000190022002900748FFF7D6FA0022114690
:100D90000620FFF737FC0620FFF726FC07B000BD52
:100DA00030380240000002400C4810B50A4901608A
:100DB0004FF4E1314160002181600C22C160C0E943
:100DC00004128161C161FFF705FF002803D0BDE86F
:100DD0001040FFF786BA10BD001001401800002037
:100DE000FEE7FEE770477047FFF7A4BB10B592B06F
:100DF00030216846FFF71EFA14210CA8FFF71AFAF3
:100E000017480024016841F080510160006800F03B
:100E1000805011901348016841F4804101600068DE
:100E2000069400F48040119002200090012003906D
:100E3000102004906846FFF703FD08B172B6FEE784
:100E40000F20CDE90C040E940F9400210CA81094EF
:100E5000FFF70AFC002801D072B6FEE712B010BD01
:100E600040380240007000400248016841F47001BF
:100E70000160704788ED00E070B5044600680169C4
:100E8000E26821F44051114301612169A068E269DF
:100E900008436169114308432168CA6849F20C6339
:100EA0009A430243CA6020684169A26921F44071F3
:100EB0001143416131492068884202D0304988425B
:100EC00002D1FFF77BFC01E0FFF768FCE269002339
:100ED000192164253226B2F5004F626828D0A0FBA4
:100EE0000101930F9200FFF76DF90146B0FBF5F099
:100EF0006FF01802504301EB800006EB0010B0FBCE
:100F0000F5F000F0F002B1FBF5F002EB0012B1FBDE
:100F1000F5F06FF01803584301EB800006EB00106A
:100F2000B0FBF5F000F00F0021681044886070BD40
:100F3000A0FB010192185B41FFF744F90146B0FBA9
:100F4000F5F00201B1FBF5F06FF01803584301EB27
:100F5000800006EBC000B0FBF5F000F0F80002EBFB
:100F60004002B1FBF5F0584301EB800006EBC000F6
:100F7000B0FBF5F000F00700D6E7000000100140DC
:100F8000001401402DE9F041984617460E460446EC
:100F9000069D27E0681C25D02DB1FFF7C5FAA0EB10
:100FA0000800A8421ED920680C3050E8001F21F428
:100FB000D07140E80012002AF5D12068143050E8C2
:100FC000001F21F0010140E80012002AF5D1202085
:100FD00084F83D0084F83E00002084F83C000320A3
:100FE000BDE8F0812068006836EA000004D00020E7
:100FF000B842CFD00020F3E70120F9E7FEE7000078
:101000000FB4054B10B503A9044A029800F028F864
:1010100010BC5DF814FB0000B5110008140000209E
:101020000907090E002804DB00F1E02080F8001415
:10103000704700F00F0000F1E02080F8141D7047A9
:1010400002E008C8121F08C1002AFAD17047704791
:10105000002001E001C1121F002AFBD170470000EF
:101060002DE9FF4F89B09B460446002506E0252860
:101070000BD05A460B999047641C6D1C20780028B1
:10108000F5D10DB02846BDE8F08F0027B846012203
:10109000474900E0074314F8013F203B02FA03F000
:1010A0000842F7D120782E2819D114F8010F47F003
:1010B00004072A280ED06FF02F022078A0F130010B
:1010C00009290CD808EB880102EB410100EB01086B
:1010D000641CF2E70A98641C50F8048B0A9020788C
:1010E0000028CED0642808D0692806D075281ED0E4
:1010F0005A460B9990476D1C58E00A994FF00A091F
:1011000001C90A91002802DA40422D2102E0390586
:1011100004D52B218DF82010012103E0F90704D01C
:101120002021F7E78A4608AE0DE00021FAE70A9988
:101130004FF00A0901C90A91F7E74946FFF785F818
:10114000303106F8011D0028F7D1ADEB060000F1A3
:101150002009780701D44FF00108C84502DDA8EB4B
:10116000090000E000208046002706E008A85A4653
:10117000C05D0B9990476D1C7F1C5745F6DB04E062
:1011800030205A460B9990476D1CB8F10001A8F128
:101190000108F5DC05E016F8010B5A460B9990475B
:1011A0006D1CB9F10001A9F10109F4DC641C65E7CB
:1011B0000928010038B504468DF8000002230122F9
:1011C00069460248FFF76EFD204638BD1800002032
:1011D000FFF7B8F9FFF70AFEFFF7BEFDFFF7E4FDE2
:1011E000064C00254FF47A7630462560FFF77CF8F0
:1011F00003A02168FFF704FFF6E7000000000020CD
:101200005B096D61696E5D696E666F3A70776D5FDF
:1012100076616C75653D25640D0A000000000000D4
:101220000000000001020304060708090000000096
:1012300001020304541200080000002018000000FE
:10124000401000086C12000818000020480400003C
:101250005010000800000000010000001000000015
:0C126000000000000024F400000000006A
:040000050800018965
:00000001FF
